{
	"contracts/PlayerRegistry.sol": {
		"PlayerRegistry": {
			"abi": [
				{
					"inputs": [],
					"stateMutability": "nonpayable",
					"type": "constructor"
				},
				{
					"inputs": [],
					"name": "EmptyName",
					"type": "error"
				},
				{
					"inputs": [],
					"name": "InvalidAge",
					"type": "error"
				},
				{
					"inputs": [
						{
							"internalType": "address",
							"name": "owner",
							"type": "address"
						}
					],
					"name": "OwnableInvalidOwner",
					"type": "error"
				},
				{
					"inputs": [
						{
							"internalType": "address",
							"name": "account",
							"type": "address"
						}
					],
					"name": "OwnableUnauthorizedAccount",
					"type": "error"
				},
				{
					"inputs": [],
					"name": "PlayerAlreadyExists",
					"type": "error"
				},
				{
					"inputs": [],
					"name": "PlayerNotFound",
					"type": "error"
				},
				{
					"anonymous": false,
					"inputs": [
						{
							"indexed": true,
							"internalType": "address",
							"name": "previousOwner",
							"type": "address"
						},
						{
							"indexed": true,
							"internalType": "address",
							"name": "newOwner",
							"type": "address"
						}
					],
					"name": "OwnershipTransferred",
					"type": "event"
				},
				{
					"anonymous": false,
					"inputs": [
						{
							"indexed": true,
							"internalType": "uint256",
							"name": "playerId",
							"type": "uint256"
						},
						{
							"indexed": false,
							"internalType": "string",
							"name": "name",
							"type": "string"
						},
						{
							"indexed": false,
							"internalType": "enum PlayerRegistry.ExperienceLevel",
							"name": "experience",
							"type": "uint8"
						}
					],
					"name": "PlayerAdded",
					"type": "event"
				},
				{
					"anonymous": false,
					"inputs": [
						{
							"indexed": true,
							"internalType": "uint256",
							"name": "playerId",
							"type": "uint256"
						}
					],
					"name": "PlayerRemoved",
					"type": "event"
				},
				{
					"anonymous": false,
					"inputs": [
						{
							"indexed": true,
							"internalType": "uint256",
							"name": "playerId",
							"type": "uint256"
						},
						{
							"indexed": false,
							"internalType": "enum PlayerRegistry.ExperienceLevel",
							"name": "newExperience",
							"type": "uint8"
						}
					],
					"name": "PlayerUpdated",
					"type": "event"
				},
				{
					"inputs": [
						{
							"internalType": "string",
							"name": "name",
							"type": "string"
						},
						{
							"internalType": "uint256",
							"name": "age",
							"type": "uint256"
						},
						{
							"internalType": "enum PlayerRegistry.ExperienceLevel",
							"name": "experience",
							"type": "uint8"
						}
					],
					"name": "addPlayer",
					"outputs": [],
					"stateMutability": "nonpayable",
					"type": "function"
				},
				{
					"inputs": [],
					"name": "getPlayers",
					"outputs": [
						{
							"components": [
								{
									"internalType": "uint256",
									"name": "id",
									"type": "uint256"
								},
								{
									"internalType": "string",
									"name": "name",
									"type": "string"
								},
								{
									"internalType": "uint256",
									"name": "age",
									"type": "uint256"
								},
								{
									"internalType": "enum PlayerRegistry.ExperienceLevel",
									"name": "experience",
									"type": "uint8"
								},
								{
									"internalType": "bool",
									"name": "isActive",
									"type": "bool"
								}
							],
							"internalType": "struct PlayerRegistry.Player[]",
							"name": "",
							"type": "tuple[]"
						}
					],
					"stateMutability": "view",
					"type": "function"
				},
				{
					"inputs": [],
					"name": "owner",
					"outputs": [
						{
							"internalType": "address",
							"name": "",
							"type": "address"
						}
					],
					"stateMutability": "view",
					"type": "function"
				},
				{
					"inputs": [],
					"name": "playerCount",
					"outputs": [
						{
							"internalType": "uint256",
							"name": "",
							"type": "uint256"
						}
					],
					"stateMutability": "view",
					"type": "function"
				},
				{
					"inputs": [
						{
							"internalType": "uint256",
							"name": "",
							"type": "uint256"
						}
					],
					"name": "playerExists",
					"outputs": [
						{
							"internalType": "bool",
							"name": "",
							"type": "bool"
						}
					],
					"stateMutability": "view",
					"type": "function"
				},
				{
					"inputs": [
						{
							"internalType": "uint256",
							"name": "",
							"type": "uint256"
						}
					],
					"name": "players",
					"outputs": [
						{
							"internalType": "uint256",
							"name": "id",
							"type": "uint256"
						},
						{
							"internalType": "string",
							"name": "name",
							"type": "string"
						},
						{
							"internalType": "uint256",
							"name": "age",
							"type": "uint256"
						},
						{
							"internalType": "enum PlayerRegistry.ExperienceLevel",
							"name": "experience",
							"type": "uint8"
						},
						{
							"internalType": "bool",
							"name": "isActive",
							"type": "bool"
						}
					],
					"stateMutability": "view",
					"type": "function"
				},
				{
					"inputs": [
						{
							"internalType": "uint256",
							"name": "playerId",
							"type": "uint256"
						}
					],
					"name": "removePlayer",
					"outputs": [],
					"stateMutability": "nonpayable",
					"type": "function"
				},
				{
					"inputs": [],
					"name": "renounceOwnership",
					"outputs": [],
					"stateMutability": "nonpayable",
					"type": "function"
				},
				{
					"inputs": [
						{
							"internalType": "address",
							"name": "newOwner",
							"type": "address"
						}
					],
					"name": "transferOwnership",
					"outputs": [],
					"stateMutability": "nonpayable",
					"type": "function"
				},
				{
					"inputs": [
						{
							"internalType": "uint256",
							"name": "playerId",
							"type": "uint256"
						},
						{
							"internalType": "enum PlayerRegistry.ExperienceLevel",
							"name": "newExperience",
							"type": "uint8"
						}
					],
					"name": "updatePlayerExperience",
					"outputs": [],
					"stateMutability": "nonpayable",
					"type": "function"
				}
			],
			"devdoc": {
				"errors": {
					"OwnableInvalidOwner(address)": [
						{
							"details": "The owner is not a valid owner account. (eg. `address(0)`)"
						}
					],
					"OwnableUnauthorizedAccount(address)": [
						{
							"details": "The caller account is not authorized to perform an operation."
						}
					]
				},
				"kind": "dev",
				"methods": {
					"owner()": {
						"details": "Returns the address of the current owner."
					},
					"renounceOwnership()": {
						"details": "Leaves the contract without owner. It will not be possible to call `onlyOwner` functions. Can only be called by the current owner. NOTE: Renouncing ownership will leave the contract without an owner, thereby disabling any functionality that is only available to the owner."
					},
					"transferOwnership(address)": {
						"details": "Transfers ownership of the contract to a new account (`newOwner`). Can only be called by the current owner."
					}
				},
				"version": 1
			},
			"evm": {
				"assembly": "    /* \"contracts/PlayerRegistry.sol\":386:2836  contract PlayerRegistry is Ownable {... */\n  mstore(0x40, 0x80)\n    /* \"contracts/PlayerRegistry.sol\":1146:1182  constructor() Ownable(msg.sender) {} */\n  callvalue\n  dup1\n  iszero\n  tag_1\n  jumpi\n  0x00\n  dup1\n  revert\ntag_1:\n  pop\n    /* \"contracts/PlayerRegistry.sol\":1168:1178  msg.sender */\n  caller\n    /* \"@openzeppelin/contracts/access/Ownable.sol\":1297:1298  0 */\n  0x00\n    /* \"@openzeppelin/contracts/access/Ownable.sol\":1273:1299  initialOwner == address(0) */\n  0xffffffffffffffffffffffffffffffffffffffff\n  and\n    /* \"@openzeppelin/contracts/access/Ownable.sol\":1273:1285  initialOwner */\n  dup2\n    /* \"@openzeppelin/contracts/access/Ownable.sol\":1273:1299  initialOwner == address(0) */\n  0xffffffffffffffffffffffffffffffffffffffff\n  and\n  sub\n    /* \"@openzeppelin/contracts/access/Ownable.sol\":1269:1364  if (initialOwner == address(0)) {... */\n  tag_5\n  jumpi\n    /* \"@openzeppelin/contracts/access/Ownable.sol\":1350:1351  0 */\n  0x00\n    /* \"@openzeppelin/contracts/access/Ownable.sol\":1322:1353  OwnableInvalidOwner(address(0)) */\n  mload(0x40)\n  0x1e4fbdf700000000000000000000000000000000000000000000000000000000\n  dup2\n  mstore\n  0x04\n  add\n  tag_6\n  swap2\n  swap1\n  tag_7\n  jump\t// in\ntag_6:\n  mload(0x40)\n  dup1\n  swap2\n  sub\n  swap1\n  revert\n    /* \"@openzeppelin/contracts/access/Ownable.sol\":1269:1364  if (initialOwner == address(0)) {... */\ntag_5:\n    /* \"@openzeppelin/contracts/access/Ownable.sol\":1373:1405  _transferOwnership(initialOwner) */\n  tag_8\n    /* \"@openzeppelin/contracts/access/Ownable.sol\":1392:1404  initialOwner */\n  dup2\n    /* \"@openzeppelin/contracts/access/Ownable.sol\":1373:1391  _transferOwnership */\n  shl(0x20, tag_9)\n    /* \"@openzeppelin/contracts/access/Ownable.sol\":1373:1405  _transferOwnership(initialOwner) */\n  0x20\n  shr\n  jump\t// in\ntag_8:\n    /* \"@openzeppelin/contracts/access/Ownable.sol\":1225:1412  constructor(address initialOwner) {... */\n  pop\n    /* \"contracts/PlayerRegistry.sol\":386:2836  contract PlayerRegistry is Ownable {... */\n  jump(tag_11)\n    /* \"@openzeppelin/contracts/access/Ownable.sol\":2912:3099  function _transferOwnership(address newOwner) internal virtual {... */\ntag_9:\n    /* \"@openzeppelin/contracts/access/Ownable.sol\":2985:3001  address oldOwner */\n  0x00\n    /* \"@openzeppelin/contracts/access/Ownable.sol\":3004:3010  _owner */\n  dup1\n  0x00\n  swap1\n  sload\n  swap1\n  0x0100\n  exp\n  swap1\n  div\n  0xffffffffffffffffffffffffffffffffffffffff\n  and\n    /* \"@openzeppelin/contracts/access/Ownable.sol\":2985:3010  address oldOwner = _owner */\n  swap1\n  pop\n    /* \"@openzeppelin/contracts/access/Ownable.sol\":3029:3037  newOwner */\n  dup2\n    /* \"@openzeppelin/contracts/access/Ownable.sol\":3020:3026  _owner */\n  0x00\n  dup1\n    /* \"@openzeppelin/contracts/access/Ownable.sol\":3020:3037  _owner = newOwner */\n  0x0100\n  exp\n  dup2\n  sload\n  dup2\n  0xffffffffffffffffffffffffffffffffffffffff\n  mul\n  not\n  and\n  swap1\n  dup4\n  0xffffffffffffffffffffffffffffffffffffffff\n  and\n  mul\n  or\n  swap1\n  sstore\n  pop\n    /* \"@openzeppelin/contracts/access/Ownable.sol\":3083:3091  newOwner */\n  dup2\n    /* \"@openzeppelin/contracts/access/Ownable.sol\":3052:3092  OwnershipTransferred(oldOwner, newOwner) */\n  0xffffffffffffffffffffffffffffffffffffffff\n  and\n    /* \"@openzeppelin/contracts/access/Ownable.sol\":3073:3081  oldOwner */\n  dup2\n    /* \"@openzeppelin/contracts/access/Ownable.sol\":3052:3092  OwnershipTransferred(oldOwner, newOwner) */\n  0xffffffffffffffffffffffffffffffffffffffff\n  and\n  0x8be0079c531659141344cd1fd0a4f28419497f9722a3daafe3b4186f6b6457e0\n  mload(0x40)\n  mload(0x40)\n  dup1\n  swap2\n  sub\n  swap1\n  log3\n    /* \"@openzeppelin/contracts/access/Ownable.sol\":2975:3099  {... */\n  pop\n    /* \"@openzeppelin/contracts/access/Ownable.sol\":2912:3099  function _transferOwnership(address newOwner) internal virtual {... */\n  pop\n  jump\t// out\n    /* \"#utility.yul\":7:133   */\ntag_13:\n    /* \"#utility.yul\":44:51   */\n  0x00\n    /* \"#utility.yul\":84:126   */\n  0xffffffffffffffffffffffffffffffffffffffff\n    /* \"#utility.yul\":77:82   */\n  dup3\n    /* \"#utility.yul\":73:127   */\n  and\n    /* \"#utility.yul\":62:127   */\n  swap1\n  pop\n    /* \"#utility.yul\":7:133   */\n  swap2\n  swap1\n  pop\n  jump\t// out\n    /* \"#utility.yul\":139:235   */\ntag_14:\n    /* \"#utility.yul\":176:183   */\n  0x00\n    /* \"#utility.yul\":205:229   */\n  tag_19\n    /* \"#utility.yul\":223:228   */\n  dup3\n    /* \"#utility.yul\":205:229   */\n  tag_13\n  jump\t// in\ntag_19:\n    /* \"#utility.yul\":194:229   */\n  swap1\n  pop\n    /* \"#utility.yul\":139:235   */\n  swap2\n  swap1\n  pop\n  jump\t// out\n    /* \"#utility.yul\":241:359   */\ntag_15:\n    /* \"#utility.yul\":328:352   */\n  tag_21\n    /* \"#utility.yul\":346:351   */\n  dup2\n    /* \"#utility.yul\":328:352   */\n  tag_14\n  jump\t// in\ntag_21:\n    /* \"#utility.yul\":323:326   */\n  dup3\n    /* \"#utility.yul\":316:353   */\n  mstore\n    /* \"#utility.yul\":241:359   */\n  pop\n  pop\n  jump\t// out\n    /* \"#utility.yul\":365:587   */\ntag_7:\n    /* \"#utility.yul\":458:462   */\n  0x00\n    /* \"#utility.yul\":496:498   */\n  0x20\n    /* \"#utility.yul\":485:494   */\n  dup3\n    /* \"#utility.yul\":481:499   */\n  add\n    /* \"#utility.yul\":473:499   */\n  swap1\n  pop\n    /* \"#utility.yul\":509:580   */\n  tag_23\n    /* \"#utility.yul\":577:578   */\n  0x00\n    /* \"#utility.yul\":566:575   */\n  dup4\n    /* \"#utility.yul\":562:579   */\n  add\n    /* \"#utility.yul\":553:559   */\n  dup5\n    /* \"#utility.yul\":509:580   */\n  tag_15\n  jump\t// in\ntag_23:\n    /* \"#utility.yul\":365:587   */\n  swap3\n  swap2\n  pop\n  pop\n  jump\t// out\n    /* \"contracts/PlayerRegistry.sol\":386:2836  contract PlayerRegistry is Ownable {... */\ntag_11:\n  dataSize(sub_0)\n  dup1\n  dataOffset(sub_0)\n  0x00\n  codecopy\n  0x00\n  return\nstop\n\nsub_0: assembly {\n        /* \"contracts/PlayerRegistry.sol\":386:2836  contract PlayerRegistry is Ownable {... */\n      mstore(0x40, 0x80)\n      callvalue\n      dup1\n      iszero\n      tag_1\n      jumpi\n      0x00\n      dup1\n      revert\n    tag_1:\n      pop\n      jumpi(tag_2, lt(calldatasize, 0x04))\n      shr(0xe0, calldataload(0x00))\n      dup1\n      0xbc975512\n      gt\n      tag_13\n      jumpi\n      dup1\n      0xbc975512\n      eq\n      tag_8\n      jumpi\n      dup1\n      0xcf5d7e5b\n      eq\n      tag_9\n      jumpi\n      dup1\n      0xdd28d5bc\n      eq\n      tag_10\n      jumpi\n      dup1\n      0xf2fde38b\n      eq\n      tag_11\n      jumpi\n      dup1\n      0xf71d96cb\n      eq\n      tag_12\n      jumpi\n      jump(tag_2)\n    tag_13:\n      dup1\n      0x302bcc57\n      eq\n      tag_3\n      jumpi\n      dup1\n      0x715018a6\n      eq\n      tag_4\n      jumpi\n      dup1\n      0x8b5b9ccc\n      eq\n      tag_5\n      jumpi\n      dup1\n      0x8da5cb5b\n      eq\n      tag_6\n      jumpi\n      dup1\n      0xbc1a97c1\n      eq\n      tag_7\n      jumpi\n    tag_2:\n      0x00\n      dup1\n      revert\n        /* \"contracts/PlayerRegistry.sol\":867:890  uint public playerCount */\n    tag_3:\n      tag_14\n      tag_15\n      jump\t// in\n    tag_14:\n      mload(0x40)\n      tag_16\n      swap2\n      swap1\n      tag_17\n      jump\t// in\n    tag_16:\n      mload(0x40)\n      dup1\n      swap2\n      sub\n      swap1\n      return\n        /* \"@openzeppelin/contracts/access/Ownable.sol\":2293:2394  function renounceOwnership() public virtual onlyOwner {... */\n    tag_4:\n      tag_18\n      tag_19\n      jump\t// in\n    tag_18:\n      stop\n        /* \"contracts/PlayerRegistry.sol\":2741:2834  function getPlayers() external view returns (Player[] memory) {... */\n    tag_5:\n      tag_20\n      tag_21\n      jump\t// in\n    tag_20:\n      mload(0x40)\n      tag_22\n      swap2\n      swap1\n      tag_23\n      jump\t// in\n    tag_22:\n      mload(0x40)\n      dup1\n      swap2\n      sub\n      swap1\n      return\n        /* \"@openzeppelin/contracts/access/Ownable.sol\":1638:1723  function owner() public view virtual returns (address) {... */\n    tag_6:\n      tag_24\n      tag_25\n      jump\t// in\n    tag_24:\n      mload(0x40)\n      tag_26\n      swap2\n      swap1\n      tag_27\n      jump\t// in\n    tag_26:\n      mload(0x40)\n      dup1\n      swap2\n      sub\n      swap1\n      return\n        /* \"contracts/PlayerRegistry.sol\":797:838  mapping(uint => bool) public playerExists */\n    tag_7:\n      tag_28\n      0x04\n      dup1\n      calldatasize\n      sub\n      dup2\n      add\n      swap1\n      tag_29\n      swap2\n      swap1\n      tag_30\n      jump\t// in\n    tag_29:\n      tag_31\n      jump\t// in\n    tag_28:\n      mload(0x40)\n      tag_32\n      swap2\n      swap1\n      tag_33\n      jump\t// in\n    tag_32:\n      mload(0x40)\n      dup1\n      swap2\n      sub\n      swap1\n      return\n        /* \"contracts/PlayerRegistry.sol\":2186:2705  function removePlayer(uint playerId) external onlyOwner {... */\n    tag_8:\n      tag_34\n      0x04\n      dup1\n      calldatasize\n      sub\n      dup2\n      add\n      swap1\n      tag_35\n      swap2\n      swap1\n      tag_30\n      jump\t// in\n    tag_35:\n      tag_36\n      jump\t// in\n    tag_34:\n      stop\n        /* \"contracts/PlayerRegistry.sol\":1256:1781  function addPlayer(string memory name, uint age, ExperienceLevel experience) external onlyOwner {... */\n    tag_9:\n      tag_37\n      0x04\n      dup1\n      calldatasize\n      sub\n      dup2\n      add\n      swap1\n      tag_38\n      swap2\n      swap1\n      tag_39\n      jump\t// in\n    tag_38:\n      tag_40\n      jump\t// in\n    tag_37:\n      stop\n        /* \"contracts/PlayerRegistry.sol\":1824:2145  function updatePlayerExperience(uint playerId, ExperienceLevel newExperience) external onlyOwner {... */\n    tag_10:\n      tag_41\n      0x04\n      dup1\n      calldatasize\n      sub\n      dup2\n      add\n      swap1\n      tag_42\n      swap2\n      swap1\n      tag_43\n      jump\t// in\n    tag_42:\n      tag_44\n      jump\t// in\n    tag_41:\n      stop\n        /* \"@openzeppelin/contracts/access/Ownable.sol\":2543:2758  function transferOwnership(address newOwner) public virtual onlyOwner {... */\n    tag_11:\n      tag_45\n      0x04\n      dup1\n      calldatasize\n      sub\n      dup2\n      add\n      swap1\n      tag_46\n      swap2\n      swap1\n      tag_47\n      jump\t// in\n    tag_46:\n      tag_48\n      jump\t// in\n    tag_45:\n      stop\n        /* \"contracts/PlayerRegistry.sol\":736:759  Player[] public players */\n    tag_12:\n      tag_49\n      0x04\n      dup1\n      calldatasize\n      sub\n      dup2\n      add\n      swap1\n      tag_50\n      swap2\n      swap1\n      tag_30\n      jump\t// in\n    tag_50:\n      tag_51\n      jump\t// in\n    tag_49:\n      mload(0x40)\n      tag_52\n      swap6\n      swap5\n      swap4\n      swap3\n      swap2\n      swap1\n      tag_53\n      jump\t// in\n    tag_52:\n      mload(0x40)\n      dup1\n      swap2\n      sub\n      swap1\n      return\n        /* \"contracts/PlayerRegistry.sol\":867:890  uint public playerCount */\n    tag_15:\n      sload(0x03)\n      dup2\n      jump\t// out\n        /* \"@openzeppelin/contracts/access/Ownable.sol\":2293:2394  function renounceOwnership() public virtual onlyOwner {... */\n    tag_19:\n        /* \"@openzeppelin/contracts/access/Ownable.sol\":1531:1544  _checkOwner() */\n      tag_55\n        /* \"@openzeppelin/contracts/access/Ownable.sol\":1531:1542  _checkOwner */\n      tag_56\n        /* \"@openzeppelin/contracts/access/Ownable.sol\":1531:1544  _checkOwner() */\n      jump\t// in\n    tag_55:\n        /* \"@openzeppelin/contracts/access/Ownable.sol\":2357:2387  _transferOwnership(address(0)) */\n      tag_58\n        /* \"@openzeppelin/contracts/access/Ownable.sol\":2384:2385  0 */\n      0x00\n        /* \"@openzeppelin/contracts/access/Ownable.sol\":2357:2375  _transferOwnership */\n      tag_59\n        /* \"@openzeppelin/contracts/access/Ownable.sol\":2357:2387  _transferOwnership(address(0)) */\n      jump\t// in\n    tag_58:\n        /* \"@openzeppelin/contracts/access/Ownable.sol\":2293:2394  function renounceOwnership() public virtual onlyOwner {... */\n      jump\t// out\n        /* \"contracts/PlayerRegistry.sol\":2741:2834  function getPlayers() external view returns (Player[] memory) {... */\n    tag_21:\n        /* \"contracts/PlayerRegistry.sol\":2786:2801  Player[] memory */\n      0x60\n        /* \"contracts/PlayerRegistry.sol\":2820:2827  players */\n      0x01\n        /* \"contracts/PlayerRegistry.sol\":2813:2827  return players */\n      dup1\n      sload\n      dup1\n      0x20\n      mul\n      0x20\n      add\n      mload(0x40)\n      swap1\n      dup2\n      add\n      0x40\n      mstore\n      dup1\n      swap3\n      swap2\n      swap1\n      dup2\n      dup2\n      mstore\n      0x20\n      add\n      0x00\n      swap1\n    tag_61:\n      dup3\n      dup3\n      lt\n      iszero\n      tag_62\n      jumpi\n      dup4\n      dup3\n      swap1\n      0x00\n      mstore\n      keccak256(0x00, 0x20)\n      swap1\n      0x04\n      mul\n      add\n      mload(0x40)\n      dup1\n      0xa0\n      add\n      0x40\n      mstore\n      swap1\n      dup2\n      0x00\n      dup3\n      add\n      sload\n      dup2\n      mstore\n      0x20\n      add\n      0x01\n      dup3\n      add\n      dup1\n      sload\n      tag_64\n      swap1\n      tag_65\n      jump\t// in\n    tag_64:\n      dup1\n      0x1f\n      add\n      0x20\n      dup1\n      swap2\n      div\n      mul\n      0x20\n      add\n      mload(0x40)\n      swap1\n      dup2\n      add\n      0x40\n      mstore\n      dup1\n      swap3\n      swap2\n      swap1\n      dup2\n      dup2\n      mstore\n      0x20\n      add\n      dup3\n      dup1\n      sload\n      tag_66\n      swap1\n      tag_65\n      jump\t// in\n    tag_66:\n      dup1\n      iszero\n      tag_67\n      jumpi\n      dup1\n      0x1f\n      lt\n      tag_68\n      jumpi\n      0x0100\n      dup1\n      dup4\n      sload\n      div\n      mul\n      dup4\n      mstore\n      swap2\n      0x20\n      add\n      swap2\n      jump(tag_67)\n    tag_68:\n      dup3\n      add\n      swap2\n      swap1\n      0x00\n      mstore\n      keccak256(0x00, 0x20)\n      swap1\n    tag_69:\n      dup2\n      sload\n      dup2\n      mstore\n      swap1\n      0x01\n      add\n      swap1\n      0x20\n      add\n      dup1\n      dup4\n      gt\n      tag_69\n      jumpi\n      dup3\n      swap1\n      sub\n      0x1f\n      and\n      dup3\n      add\n      swap2\n    tag_67:\n      pop\n      pop\n      pop\n      pop\n      pop\n      dup2\n      mstore\n      0x20\n      add\n      0x02\n      dup3\n      add\n      sload\n      dup2\n      mstore\n      0x20\n      add\n      0x03\n      dup3\n      add\n      0x00\n      swap1\n      sload\n      swap1\n      0x0100\n      exp\n      swap1\n      div\n      0xff\n      and\n      0x02\n      dup2\n      gt\n      iszero\n      tag_70\n      jumpi\n      tag_71\n      tag_72\n      jump\t// in\n    tag_71:\n    tag_70:\n      0x02\n      dup2\n      gt\n      iszero\n      tag_73\n      jumpi\n      tag_74\n      tag_72\n      jump\t// in\n    tag_74:\n    tag_73:\n      dup2\n      mstore\n      0x20\n      add\n      0x03\n      dup3\n      add\n      0x01\n      swap1\n      sload\n      swap1\n      0x0100\n      exp\n      swap1\n      div\n      0xff\n      and\n      iszero\n      iszero\n      iszero\n      iszero\n      dup2\n      mstore\n      pop\n      pop\n      dup2\n      mstore\n      0x20\n      add\n      swap1\n      0x01\n      add\n      swap1\n      jump(tag_61)\n    tag_62:\n      pop\n      pop\n      pop\n      pop\n      swap1\n      pop\n        /* \"contracts/PlayerRegistry.sol\":2741:2834  function getPlayers() external view returns (Player[] memory) {... */\n      swap1\n      jump\t// out\n        /* \"@openzeppelin/contracts/access/Ownable.sol\":1638:1723  function owner() public view virtual returns (address) {... */\n    tag_25:\n        /* \"@openzeppelin/contracts/access/Ownable.sol\":1684:1691  address */\n      0x00\n        /* \"@openzeppelin/contracts/access/Ownable.sol\":1710:1716  _owner */\n      dup1\n      0x00\n      swap1\n      sload\n      swap1\n      0x0100\n      exp\n      swap1\n      div\n      0xffffffffffffffffffffffffffffffffffffffff\n      and\n        /* \"@openzeppelin/contracts/access/Ownable.sol\":1703:1716  return _owner */\n      swap1\n      pop\n        /* \"@openzeppelin/contracts/access/Ownable.sol\":1638:1723  function owner() public view virtual returns (address) {... */\n      swap1\n      jump\t// out\n        /* \"contracts/PlayerRegistry.sol\":797:838  mapping(uint => bool) public playerExists */\n    tag_31:\n      mstore(0x20, 0x02)\n      dup1\n      0x00\n      mstore\n      keccak256(0x00, 0x40)\n      0x00\n      swap2\n      pop\n      sload\n      swap1\n      0x0100\n      exp\n      swap1\n      div\n      0xff\n      and\n      dup2\n      jump\t// out\n        /* \"contracts/PlayerRegistry.sol\":2186:2705  function removePlayer(uint playerId) external onlyOwner {... */\n    tag_36:\n        /* \"@openzeppelin/contracts/access/Ownable.sol\":1531:1544  _checkOwner() */\n      tag_77\n        /* \"@openzeppelin/contracts/access/Ownable.sol\":1531:1542  _checkOwner */\n      tag_56\n        /* \"@openzeppelin/contracts/access/Ownable.sol\":1531:1544  _checkOwner() */\n      jump\t// in\n    tag_77:\n        /* \"contracts/PlayerRegistry.sol\":2257:2269  playerExists */\n      0x02\n        /* \"contracts/PlayerRegistry.sol\":2257:2279  playerExists[playerId] */\n      0x00\n        /* \"contracts/PlayerRegistry.sol\":2270:2278  playerId */\n      dup3\n        /* \"contracts/PlayerRegistry.sol\":2257:2279  playerExists[playerId] */\n      dup2\n      mstore\n      0x20\n      add\n      swap1\n      dup2\n      mstore\n      0x20\n      add\n      0x00\n      keccak256\n      0x00\n      swap1\n      sload\n      swap1\n      0x0100\n      exp\n      swap1\n      div\n      0xff\n      and\n        /* \"contracts/PlayerRegistry.sol\":2256:2279  !playerExists[playerId] */\n      iszero\n        /* \"contracts/PlayerRegistry.sol\":2256:2310  !playerExists[playerId] || !players[playerId].isActive */\n      dup1\n      tag_79\n      jumpi\n      pop\n        /* \"contracts/PlayerRegistry.sol\":2284:2291  players */\n      0x01\n        /* \"contracts/PlayerRegistry.sol\":2292:2300  playerId */\n      dup2\n        /* \"contracts/PlayerRegistry.sol\":2284:2301  players[playerId] */\n      dup2\n      sload\n      dup2\n      lt\n      tag_80\n      jumpi\n      tag_81\n      tag_82\n      jump\t// in\n    tag_81:\n    tag_80:\n      swap1\n      0x00\n      mstore\n      keccak256(0x00, 0x20)\n      swap1\n      0x04\n      mul\n      add\n        /* \"contracts/PlayerRegistry.sol\":2284:2310  players[playerId].isActive */\n      0x03\n      add\n      0x01\n      swap1\n      sload\n      swap1\n      0x0100\n      exp\n      swap1\n      div\n      0xff\n      and\n        /* \"contracts/PlayerRegistry.sol\":2283:2310  !players[playerId].isActive */\n      iszero\n        /* \"contracts/PlayerRegistry.sol\":2256:2310  !playerExists[playerId] || !players[playerId].isActive */\n    tag_79:\n        /* \"contracts/PlayerRegistry.sol\":2252:2335  if (!playerExists[playerId] || !players[playerId].isActive) revert PlayerNotFound() */\n      iszero\n      tag_84\n      jumpi\n        /* \"contracts/PlayerRegistry.sol\":2319:2335  PlayerNotFound() */\n      mload(0x40)\n      0x2a645edb00000000000000000000000000000000000000000000000000000000\n      dup2\n      mstore\n      0x04\n      add\n      mload(0x40)\n      dup1\n      swap2\n      sub\n      swap1\n      revert\n        /* \"contracts/PlayerRegistry.sol\":2252:2335  if (!playerExists[playerId] || !players[playerId].isActive) revert PlayerNotFound() */\n    tag_84:\n        /* \"contracts/PlayerRegistry.sol\":2385:2391  uint i */\n      0x00\n        /* \"contracts/PlayerRegistry.sol\":2380:2604  for (uint i = 0; i < players.length; i++) {... */\n    tag_85:\n        /* \"contracts/PlayerRegistry.sol\":2401:2408  players */\n      0x01\n        /* \"contracts/PlayerRegistry.sol\":2401:2415  players.length */\n      dup1\n      sload\n      swap1\n      pop\n        /* \"contracts/PlayerRegistry.sol\":2397:2398  i */\n      dup2\n        /* \"contracts/PlayerRegistry.sol\":2397:2415  i < players.length */\n      lt\n        /* \"contracts/PlayerRegistry.sol\":2380:2604  for (uint i = 0; i < players.length; i++) {... */\n      iszero\n      tag_86\n      jumpi\n        /* \"contracts/PlayerRegistry.sol\":2457:2465  playerId */\n      dup2\n        /* \"contracts/PlayerRegistry.sol\":2440:2447  players */\n      0x01\n        /* \"contracts/PlayerRegistry.sol\":2448:2449  i */\n      dup3\n        /* \"contracts/PlayerRegistry.sol\":2440:2450  players[i] */\n      dup2\n      sload\n      dup2\n      lt\n      tag_88\n      jumpi\n      tag_89\n      tag_82\n      jump\t// in\n    tag_89:\n    tag_88:\n      swap1\n      0x00\n      mstore\n      keccak256(0x00, 0x20)\n      swap1\n      0x04\n      mul\n      add\n        /* \"contracts/PlayerRegistry.sol\":2440:2453  players[i].id */\n      0x00\n      add\n      sload\n        /* \"contracts/PlayerRegistry.sol\":2440:2465  players[i].id == playerId */\n      sub\n        /* \"contracts/PlayerRegistry.sol\":2436:2594  if (players[i].id == playerId) {... */\n      tag_91\n      jumpi\n        /* \"contracts/PlayerRegistry.sol\":2498:2505  players */\n      0x01\n        /* \"contracts/PlayerRegistry.sol\":2523:2524  1 */\n      dup1\n        /* \"contracts/PlayerRegistry.sol\":2506:2513  players */\n      dup1\n        /* \"contracts/PlayerRegistry.sol\":2506:2520  players.length */\n      dup1\n      sload\n      swap1\n      pop\n        /* \"contracts/PlayerRegistry.sol\":2506:2524  players.length - 1 */\n      tag_92\n      swap2\n      swap1\n      tag_93\n      jump\t// in\n    tag_92:\n        /* \"contracts/PlayerRegistry.sol\":2498:2525  players[players.length - 1] */\n      dup2\n      sload\n      dup2\n      lt\n      tag_94\n      jumpi\n      tag_95\n      tag_82\n      jump\t// in\n    tag_95:\n    tag_94:\n      swap1\n      0x00\n      mstore\n      keccak256(0x00, 0x20)\n      swap1\n      0x04\n      mul\n      add\n        /* \"contracts/PlayerRegistry.sol\":2485:2492  players */\n      0x01\n        /* \"contracts/PlayerRegistry.sol\":2493:2494  i */\n      dup3\n        /* \"contracts/PlayerRegistry.sol\":2485:2495  players[i] */\n      dup2\n      sload\n      dup2\n      lt\n      tag_97\n      jumpi\n      tag_98\n      tag_82\n      jump\t// in\n    tag_98:\n    tag_97:\n      swap1\n      0x00\n      mstore\n      keccak256(0x00, 0x20)\n      swap1\n      0x04\n      mul\n      add\n        /* \"contracts/PlayerRegistry.sol\":2485:2525  players[i] = players[players.length - 1] */\n      0x00\n      dup3\n      add\n      sload\n      dup2\n      0x00\n      add\n      sstore\n      0x01\n      dup3\n      add\n      dup2\n      0x01\n      add\n      swap1\n      dup2\n      tag_100\n      swap2\n      swap1\n      tag_101\n      jump\t// in\n    tag_100:\n      pop\n      0x02\n      dup3\n      add\n      sload\n      dup2\n      0x02\n      add\n      sstore\n      0x03\n      dup3\n      add\n      0x00\n      swap1\n      sload\n      swap1\n      0x0100\n      exp\n      swap1\n      div\n      0xff\n      and\n      dup2\n      0x03\n      add\n      exp(0x0100, 0x00)\n      dup2\n      sload\n      dup2\n      0xff\n      mul\n      not\n      and\n      swap1\n      dup4\n      0x02\n      dup2\n      gt\n      iszero\n      tag_102\n      jumpi\n      tag_103\n      tag_72\n      jump\t// in\n    tag_103:\n    tag_102:\n      mul\n      or\n      swap1\n      sstore\n      pop\n      0x03\n      dup3\n      add\n      0x01\n      swap1\n      sload\n      swap1\n      0x0100\n      exp\n      swap1\n      div\n      0xff\n      and\n      dup2\n      0x03\n      add\n      exp(0x0100, 0x01)\n      dup2\n      sload\n      dup2\n      0xff\n      mul\n      not\n      and\n      swap1\n      dup4\n      iszero\n      iszero\n      mul\n      or\n      swap1\n      sstore\n      pop\n      swap1\n      pop\n      pop\n        /* \"contracts/PlayerRegistry.sol\":2543:2550  players */\n      0x01\n        /* \"contracts/PlayerRegistry.sol\":2543:2556  players.pop() */\n      dup1\n      sload\n      dup1\n      tag_104\n      jumpi\n      tag_105\n      tag_106\n      jump\t// in\n    tag_105:\n    tag_104:\n      0x01\n      swap1\n      sub\n      dup2\n      dup2\n      swap1\n      0x00\n      mstore\n      keccak256(0x00, 0x20)\n      swap1\n      0x04\n      mul\n      add\n      0x00\n      dup1\n      dup3\n      add\n      0x00\n      swap1\n      sstore\n      0x01\n      dup3\n      add\n      0x00\n      tag_108\n      swap2\n      swap1\n      tag_109\n      jump\t// in\n    tag_108:\n      0x02\n      dup3\n      add\n      0x00\n      swap1\n      sstore\n      0x03\n      dup3\n      add\n      exp(0x0100, 0x00)\n      dup2\n      sload\n      swap1\n      0xff\n      mul\n      not\n      and\n      swap1\n      sstore\n      0x03\n      dup3\n      add\n      exp(0x0100, 0x01)\n      dup2\n      sload\n      swap1\n      0xff\n      mul\n      not\n      and\n      swap1\n      sstore\n      pop\n      pop\n      swap1\n      sstore\n        /* \"contracts/PlayerRegistry.sol\":2574:2579  break */\n      jump(tag_86)\n        /* \"contracts/PlayerRegistry.sol\":2436:2594  if (players[i].id == playerId) {... */\n    tag_91:\n        /* \"contracts/PlayerRegistry.sol\":2417:2420  i++ */\n      dup1\n      dup1\n      0x01\n      add\n      swap2\n      pop\n      pop\n        /* \"contracts/PlayerRegistry.sol\":2380:2604  for (uint i = 0; i < players.length; i++) {... */\n      jump(tag_85)\n    tag_86:\n      pop\n        /* \"contracts/PlayerRegistry.sol\":2638:2643  false */\n      0x00\n        /* \"contracts/PlayerRegistry.sol\":2613:2625  playerExists */\n      0x02\n        /* \"contracts/PlayerRegistry.sol\":2613:2635  playerExists[playerId] */\n      0x00\n        /* \"contracts/PlayerRegistry.sol\":2626:2634  playerId */\n      dup4\n        /* \"contracts/PlayerRegistry.sol\":2613:2635  playerExists[playerId] */\n      dup2\n      mstore\n      0x20\n      add\n      swap1\n      dup2\n      mstore\n      0x20\n      add\n      0x00\n      keccak256\n      0x00\n        /* \"contracts/PlayerRegistry.sol\":2613:2643  playerExists[playerId] = false */\n      0x0100\n      exp\n      dup2\n      sload\n      dup2\n      0xff\n      mul\n      not\n      and\n      swap1\n      dup4\n      iszero\n      iszero\n      mul\n      or\n      swap1\n      sstore\n      pop\n        /* \"contracts/PlayerRegistry.sol\":2689:2697  playerId */\n      dup1\n        /* \"contracts/PlayerRegistry.sol\":2675:2698  PlayerRemoved(playerId) */\n      0x472b3e8e7d6db01a16c1e1666261fd89c7e703b36abc2c0e7118ba8d1ad8f64e\n      mload(0x40)\n      mload(0x40)\n      dup1\n      swap2\n      sub\n      swap1\n      log2\n        /* \"contracts/PlayerRegistry.sol\":2186:2705  function removePlayer(uint playerId) external onlyOwner {... */\n      pop\n      jump\t// out\n        /* \"contracts/PlayerRegistry.sol\":1256:1781  function addPlayer(string memory name, uint age, ExperienceLevel experience) external onlyOwner {... */\n    tag_40:\n        /* \"@openzeppelin/contracts/access/Ownable.sol\":1531:1544  _checkOwner() */\n      tag_111\n        /* \"@openzeppelin/contracts/access/Ownable.sol\":1531:1542  _checkOwner */\n      tag_56\n        /* \"@openzeppelin/contracts/access/Ownable.sol\":1531:1544  _checkOwner() */\n      jump\t// in\n    tag_111:\n        /* \"contracts/PlayerRegistry.sol\":1388:1389  0 */\n      0x00\n        /* \"contracts/PlayerRegistry.sol\":1372:1376  name */\n      dup4\n        /* \"contracts/PlayerRegistry.sol\":1366:1384  bytes(name).length */\n      mload\n        /* \"contracts/PlayerRegistry.sol\":1366:1389  bytes(name).length == 0 */\n      sub\n        /* \"contracts/PlayerRegistry.sol\":1362:1409  if (bytes(name).length == 0) revert EmptyName() */\n      tag_113\n      jumpi\n        /* \"contracts/PlayerRegistry.sol\":1398:1409  EmptyName() */\n      mload(0x40)\n      0x2ef1310500000000000000000000000000000000000000000000000000000000\n      dup2\n      mstore\n      0x04\n      add\n      mload(0x40)\n      dup1\n      swap2\n      sub\n      swap1\n      revert\n        /* \"contracts/PlayerRegistry.sol\":1362:1409  if (bytes(name).length == 0) revert EmptyName() */\n    tag_113:\n        /* \"contracts/PlayerRegistry.sol\":1439:1441  18 */\n      0x12\n        /* \"contracts/PlayerRegistry.sol\":1433:1436  age */\n      dup3\n        /* \"contracts/PlayerRegistry.sol\":1433:1441  age < 18 */\n      lt\n        /* \"contracts/PlayerRegistry.sol\":1433:1453  age < 18 || age > 40 */\n      dup1\n      tag_114\n      jumpi\n      pop\n        /* \"contracts/PlayerRegistry.sol\":1451:1453  40 */\n      0x28\n        /* \"contracts/PlayerRegistry.sol\":1445:1448  age */\n      dup3\n        /* \"contracts/PlayerRegistry.sol\":1445:1453  age > 40 */\n      gt\n        /* \"contracts/PlayerRegistry.sol\":1433:1453  age < 18 || age > 40 */\n    tag_114:\n        /* \"contracts/PlayerRegistry.sol\":1429:1474  if (age < 18 || age > 40) revert InvalidAge() */\n      iszero\n      tag_115\n      jumpi\n        /* \"contracts/PlayerRegistry.sol\":1462:1474  InvalidAge() */\n      mload(0x40)\n      0x4530cb7000000000000000000000000000000000000000000000000000000000\n      dup2\n      mstore\n      0x04\n      add\n      mload(0x40)\n      dup1\n      swap2\n      sub\n      swap1\n      revert\n        /* \"contracts/PlayerRegistry.sol\":1429:1474  if (age < 18 || age > 40) revert InvalidAge() */\n    tag_115:\n        /* \"contracts/PlayerRegistry.sol\":1500:1512  playerExists */\n      0x02\n        /* \"contracts/PlayerRegistry.sol\":1500:1525  playerExists[playerCount] */\n      0x00\n        /* \"contracts/PlayerRegistry.sol\":1513:1524  playerCount */\n      sload(0x03)\n        /* \"contracts/PlayerRegistry.sol\":1500:1525  playerExists[playerCount] */\n      dup2\n      mstore\n      0x20\n      add\n      swap1\n      dup2\n      mstore\n      0x20\n      add\n      0x00\n      keccak256\n      0x00\n      swap1\n      sload\n      swap1\n      0x0100\n      exp\n      swap1\n      div\n      0xff\n      and\n        /* \"contracts/PlayerRegistry.sol\":1496:1555  if (playerExists[playerCount]) revert PlayerAlreadyExists() */\n      iszero\n      tag_116\n      jumpi\n        /* \"contracts/PlayerRegistry.sol\":1534:1555  PlayerAlreadyExists() */\n      mload(0x40)\n      0xee45714200000000000000000000000000000000000000000000000000000000\n      dup2\n      mstore\n      0x04\n      add\n      mload(0x40)\n      dup1\n      swap2\n      sub\n      swap1\n      revert\n        /* \"contracts/PlayerRegistry.sol\":1496:1555  if (playerExists[playerCount]) revert PlayerAlreadyExists() */\n    tag_116:\n        /* \"contracts/PlayerRegistry.sol\":1567:1574  players */\n      0x01\n        /* \"contracts/PlayerRegistry.sol\":1580:1628  Player(playerCount, name, age, experience, true) */\n      mload(0x40)\n      dup1\n      0xa0\n      add\n      0x40\n      mstore\n      dup1\n        /* \"contracts/PlayerRegistry.sol\":1587:1598  playerCount */\n      sload(0x03)\n        /* \"contracts/PlayerRegistry.sol\":1580:1628  Player(playerCount, name, age, experience, true) */\n      dup2\n      mstore\n      0x20\n      add\n        /* \"contracts/PlayerRegistry.sol\":1600:1604  name */\n      dup6\n        /* \"contracts/PlayerRegistry.sol\":1580:1628  Player(playerCount, name, age, experience, true) */\n      dup2\n      mstore\n      0x20\n      add\n        /* \"contracts/PlayerRegistry.sol\":1606:1609  age */\n      dup5\n        /* \"contracts/PlayerRegistry.sol\":1580:1628  Player(playerCount, name, age, experience, true) */\n      dup2\n      mstore\n      0x20\n      add\n        /* \"contracts/PlayerRegistry.sol\":1611:1621  experience */\n      dup4\n        /* \"contracts/PlayerRegistry.sol\":1580:1628  Player(playerCount, name, age, experience, true) */\n      0x02\n      dup2\n      gt\n      iszero\n      tag_117\n      jumpi\n      tag_118\n      tag_72\n      jump\t// in\n    tag_118:\n    tag_117:\n      dup2\n      mstore\n      0x20\n      add\n        /* \"contracts/PlayerRegistry.sol\":1623:1627  true */\n      0x01\n        /* \"contracts/PlayerRegistry.sol\":1580:1628  Player(playerCount, name, age, experience, true) */\n      iszero\n      iszero\n      dup2\n      mstore\n      pop\n        /* \"contracts/PlayerRegistry.sol\":1567:1629  players.push(Player(playerCount, name, age, experience, true)) */\n      swap1\n      dup1\n      0x01\n      dup2\n      sload\n      add\n      dup1\n      dup3\n      sstore\n      dup1\n      swap2\n      pop\n      pop\n      0x01\n      swap1\n      sub\n      swap1\n      0x00\n      mstore\n      keccak256(0x00, 0x20)\n      swap1\n      0x04\n      mul\n      add\n      0x00\n      swap1\n      swap2\n      swap1\n      swap2\n      swap1\n      swap2\n      pop\n      0x00\n      dup3\n      add\n      mload\n      dup2\n      0x00\n      add\n      sstore\n      0x20\n      dup3\n      add\n      mload\n      dup2\n      0x01\n      add\n      swap1\n      dup2\n      tag_120\n      swap2\n      swap1\n      tag_121\n      jump\t// in\n    tag_120:\n      pop\n      0x40\n      dup3\n      add\n      mload\n      dup2\n      0x02\n      add\n      sstore\n      0x60\n      dup3\n      add\n      mload\n      dup2\n      0x03\n      add\n      exp(0x0100, 0x00)\n      dup2\n      sload\n      dup2\n      0xff\n      mul\n      not\n      and\n      swap1\n      dup4\n      0x02\n      dup2\n      gt\n      iszero\n      tag_122\n      jumpi\n      tag_123\n      tag_72\n      jump\t// in\n    tag_123:\n    tag_122:\n      mul\n      or\n      swap1\n      sstore\n      pop\n      0x80\n      dup3\n      add\n      mload\n      dup2\n      0x03\n      add\n      exp(0x0100, 0x01)\n      dup2\n      sload\n      dup2\n      0xff\n      mul\n      not\n      and\n      swap1\n      dup4\n      iszero\n      iszero\n      mul\n      or\n      swap1\n      sstore\n      pop\n      pop\n      pop\n        /* \"contracts/PlayerRegistry.sol\":1667:1671  true */\n      0x01\n        /* \"contracts/PlayerRegistry.sol\":1639:1651  playerExists */\n      0x02\n        /* \"contracts/PlayerRegistry.sol\":1639:1664  playerExists[playerCount] */\n      0x00\n        /* \"contracts/PlayerRegistry.sol\":1652:1663  playerCount */\n      sload(0x03)\n        /* \"contracts/PlayerRegistry.sol\":1639:1664  playerExists[playerCount] */\n      dup2\n      mstore\n      0x20\n      add\n      swap1\n      dup2\n      mstore\n      0x20\n      add\n      0x00\n      keccak256\n      0x00\n        /* \"contracts/PlayerRegistry.sol\":1639:1671  playerExists[playerCount] = true */\n      0x0100\n      exp\n      dup2\n      sload\n      dup2\n      0xff\n      mul\n      not\n      and\n      swap1\n      dup4\n      iszero\n      iszero\n      mul\n      or\n      swap1\n      sstore\n      pop\n        /* \"contracts/PlayerRegistry.sol\":1700:1711  playerCount */\n      sload(0x03)\n        /* \"contracts/PlayerRegistry.sol\":1688:1730  PlayerAdded(playerCount, name, experience) */\n      0xfdbb69f4bc2a26c4265c73add57d553e91987499dc011fd3565c6e33318c5272\n        /* \"contracts/PlayerRegistry.sol\":1713:1717  name */\n      dup5\n        /* \"contracts/PlayerRegistry.sol\":1719:1729  experience */\n      dup4\n        /* \"contracts/PlayerRegistry.sol\":1688:1730  PlayerAdded(playerCount, name, experience) */\n      mload(0x40)\n      tag_124\n      swap3\n      swap2\n      swap1\n      tag_125\n      jump\t// in\n    tag_124:\n      mload(0x40)\n      dup1\n      swap2\n      sub\n      swap1\n      log2\n        /* \"contracts/PlayerRegistry.sol\":1740:1751  playerCount */\n      0x03\n      0x00\n        /* \"contracts/PlayerRegistry.sol\":1740:1753  playerCount++ */\n      dup2\n      sload\n      dup1\n      swap3\n      swap2\n      swap1\n      tag_126\n      swap1\n      tag_127\n      jump\t// in\n    tag_126:\n      swap2\n      swap1\n      pop\n      sstore\n      pop\n        /* \"contracts/PlayerRegistry.sol\":1256:1781  function addPlayer(string memory name, uint age, ExperienceLevel experience) external onlyOwner {... */\n      pop\n      pop\n      pop\n      jump\t// out\n        /* \"contracts/PlayerRegistry.sol\":1824:2145  function updatePlayerExperience(uint playerId, ExperienceLevel newExperience) external onlyOwner {... */\n    tag_44:\n        /* \"@openzeppelin/contracts/access/Ownable.sol\":1531:1544  _checkOwner() */\n      tag_129\n        /* \"@openzeppelin/contracts/access/Ownable.sol\":1531:1542  _checkOwner */\n      tag_56\n        /* \"@openzeppelin/contracts/access/Ownable.sol\":1531:1544  _checkOwner() */\n      jump\t// in\n    tag_129:\n        /* \"contracts/PlayerRegistry.sol\":1936:1948  playerExists */\n      0x02\n        /* \"contracts/PlayerRegistry.sol\":1936:1958  playerExists[playerId] */\n      0x00\n        /* \"contracts/PlayerRegistry.sol\":1949:1957  playerId */\n      dup4\n        /* \"contracts/PlayerRegistry.sol\":1936:1958  playerExists[playerId] */\n      dup2\n      mstore\n      0x20\n      add\n      swap1\n      dup2\n      mstore\n      0x20\n      add\n      0x00\n      keccak256\n      0x00\n      swap1\n      sload\n      swap1\n      0x0100\n      exp\n      swap1\n      div\n      0xff\n      and\n        /* \"contracts/PlayerRegistry.sol\":1935:1958  !playerExists[playerId] */\n      iszero\n        /* \"contracts/PlayerRegistry.sol\":1935:1989  !playerExists[playerId] || !players[playerId].isActive */\n      dup1\n      tag_131\n      jumpi\n      pop\n        /* \"contracts/PlayerRegistry.sol\":1963:1970  players */\n      0x01\n        /* \"contracts/PlayerRegistry.sol\":1971:1979  playerId */\n      dup3\n        /* \"contracts/PlayerRegistry.sol\":1963:1980  players[playerId] */\n      dup2\n      sload\n      dup2\n      lt\n      tag_132\n      jumpi\n      tag_133\n      tag_82\n      jump\t// in\n    tag_133:\n    tag_132:\n      swap1\n      0x00\n      mstore\n      keccak256(0x00, 0x20)\n      swap1\n      0x04\n      mul\n      add\n        /* \"contracts/PlayerRegistry.sol\":1963:1989  players[playerId].isActive */\n      0x03\n      add\n      0x01\n      swap1\n      sload\n      swap1\n      0x0100\n      exp\n      swap1\n      div\n      0xff\n      and\n        /* \"contracts/PlayerRegistry.sol\":1962:1989  !players[playerId].isActive */\n      iszero\n        /* \"contracts/PlayerRegistry.sol\":1935:1989  !playerExists[playerId] || !players[playerId].isActive */\n    tag_131:\n        /* \"contracts/PlayerRegistry.sol\":1931:2014  if (!playerExists[playerId] || !players[playerId].isActive) revert PlayerNotFound() */\n      iszero\n      tag_135\n      jumpi\n        /* \"contracts/PlayerRegistry.sol\":1998:2014  PlayerNotFound() */\n      mload(0x40)\n      0x2a645edb00000000000000000000000000000000000000000000000000000000\n      dup2\n      mstore\n      0x04\n      add\n      mload(0x40)\n      dup1\n      swap2\n      sub\n      swap1\n      revert\n        /* \"contracts/PlayerRegistry.sol\":1931:2014  if (!playerExists[playerId] || !players[playerId].isActive) revert PlayerNotFound() */\n    tag_135:\n        /* \"contracts/PlayerRegistry.sol\":2055:2068  newExperience */\n      dup1\n        /* \"contracts/PlayerRegistry.sol\":2024:2031  players */\n      0x01\n        /* \"contracts/PlayerRegistry.sol\":2032:2040  playerId */\n      dup4\n        /* \"contracts/PlayerRegistry.sol\":2024:2041  players[playerId] */\n      dup2\n      sload\n      dup2\n      lt\n      tag_136\n      jumpi\n      tag_137\n      tag_82\n      jump\t// in\n    tag_137:\n    tag_136:\n      swap1\n      0x00\n      mstore\n      keccak256(0x00, 0x20)\n      swap1\n      0x04\n      mul\n      add\n        /* \"contracts/PlayerRegistry.sol\":2024:2052  players[playerId].experience */\n      0x03\n      add\n      0x00\n        /* \"contracts/PlayerRegistry.sol\":2024:2068  players[playerId].experience = newExperience */\n      0x0100\n      exp\n      dup2\n      sload\n      dup2\n      0xff\n      mul\n      not\n      and\n      swap1\n      dup4\n      0x02\n      dup2\n      gt\n      iszero\n      tag_139\n      jumpi\n      tag_140\n      tag_72\n      jump\t// in\n    tag_140:\n    tag_139:\n      mul\n      or\n      swap1\n      sstore\n      pop\n        /* \"contracts/PlayerRegistry.sol\":2114:2122  playerId */\n      dup2\n        /* \"contracts/PlayerRegistry.sol\":2100:2138  PlayerUpdated(playerId, newExperience) */\n      0xc033153203c4a2bce1d3b64a994a0f1aafad144bfa669ecb28dc8fbd89b0c516\n        /* \"contracts/PlayerRegistry.sol\":2124:2137  newExperience */\n      dup3\n        /* \"contracts/PlayerRegistry.sol\":2100:2138  PlayerUpdated(playerId, newExperience) */\n      mload(0x40)\n      tag_141\n      swap2\n      swap1\n      tag_142\n      jump\t// in\n    tag_141:\n      mload(0x40)\n      dup1\n      swap2\n      sub\n      swap1\n      log2\n        /* \"contracts/PlayerRegistry.sol\":1824:2145  function updatePlayerExperience(uint playerId, ExperienceLevel newExperience) external onlyOwner {... */\n      pop\n      pop\n      jump\t// out\n        /* \"@openzeppelin/contracts/access/Ownable.sol\":2543:2758  function transferOwnership(address newOwner) public virtual onlyOwner {... */\n    tag_48:\n        /* \"@openzeppelin/contracts/access/Ownable.sol\":1531:1544  _checkOwner() */\n      tag_144\n        /* \"@openzeppelin/contracts/access/Ownable.sol\":1531:1542  _checkOwner */\n      tag_56\n        /* \"@openzeppelin/contracts/access/Ownable.sol\":1531:1544  _checkOwner() */\n      jump\t// in\n    tag_144:\n        /* \"@openzeppelin/contracts/access/Ownable.sol\":2647:2648  0 */\n      0x00\n        /* \"@openzeppelin/contracts/access/Ownable.sol\":2627:2649  newOwner == address(0) */\n      0xffffffffffffffffffffffffffffffffffffffff\n      and\n        /* \"@openzeppelin/contracts/access/Ownable.sol\":2627:2635  newOwner */\n      dup2\n        /* \"@openzeppelin/contracts/access/Ownable.sol\":2627:2649  newOwner == address(0) */\n      0xffffffffffffffffffffffffffffffffffffffff\n      and\n      sub\n        /* \"@openzeppelin/contracts/access/Ownable.sol\":2623:2714  if (newOwner == address(0)) {... */\n      tag_146\n      jumpi\n        /* \"@openzeppelin/contracts/access/Ownable.sol\":2700:2701  0 */\n      0x00\n        /* \"@openzeppelin/contracts/access/Ownable.sol\":2672:2703  OwnableInvalidOwner(address(0)) */\n      mload(0x40)\n      0x1e4fbdf700000000000000000000000000000000000000000000000000000000\n      dup2\n      mstore\n      0x04\n      add\n      tag_147\n      swap2\n      swap1\n      tag_27\n      jump\t// in\n    tag_147:\n      mload(0x40)\n      dup1\n      swap2\n      sub\n      swap1\n      revert\n        /* \"@openzeppelin/contracts/access/Ownable.sol\":2623:2714  if (newOwner == address(0)) {... */\n    tag_146:\n        /* \"@openzeppelin/contracts/access/Ownable.sol\":2723:2751  _transferOwnership(newOwner) */\n      tag_148\n        /* \"@openzeppelin/contracts/access/Ownable.sol\":2742:2750  newOwner */\n      dup2\n        /* \"@openzeppelin/contracts/access/Ownable.sol\":2723:2741  _transferOwnership */\n      tag_59\n        /* \"@openzeppelin/contracts/access/Ownable.sol\":2723:2751  _transferOwnership(newOwner) */\n      jump\t// in\n    tag_148:\n        /* \"@openzeppelin/contracts/access/Ownable.sol\":2543:2758  function transferOwnership(address newOwner) public virtual onlyOwner {... */\n      pop\n      jump\t// out\n        /* \"contracts/PlayerRegistry.sol\":736:759  Player[] public players */\n    tag_51:\n      0x01\n      dup2\n      dup2\n      sload\n      dup2\n      lt\n      tag_149\n      jumpi\n      0x00\n      dup1\n      revert\n    tag_149:\n      swap1\n      0x00\n      mstore\n      keccak256(0x00, 0x20)\n      swap1\n      0x04\n      mul\n      add\n      0x00\n      swap2\n      pop\n      swap1\n      pop\n      dup1\n      0x00\n      add\n      sload\n      swap1\n      dup1\n      0x01\n      add\n      dup1\n      sload\n      tag_151\n      swap1\n      tag_65\n      jump\t// in\n    tag_151:\n      dup1\n      0x1f\n      add\n      0x20\n      dup1\n      swap2\n      div\n      mul\n      0x20\n      add\n      mload(0x40)\n      swap1\n      dup2\n      add\n      0x40\n      mstore\n      dup1\n      swap3\n      swap2\n      swap1\n      dup2\n      dup2\n      mstore\n      0x20\n      add\n      dup3\n      dup1\n      sload\n      tag_152\n      swap1\n      tag_65\n      jump\t// in\n    tag_152:\n      dup1\n      iszero\n      tag_153\n      jumpi\n      dup1\n      0x1f\n      lt\n      tag_154\n      jumpi\n      0x0100\n      dup1\n      dup4\n      sload\n      div\n      mul\n      dup4\n      mstore\n      swap2\n      0x20\n      add\n      swap2\n      jump(tag_153)\n    tag_154:\n      dup3\n      add\n      swap2\n      swap1\n      0x00\n      mstore\n      keccak256(0x00, 0x20)\n      swap1\n    tag_155:\n      dup2\n      sload\n      dup2\n      mstore\n      swap1\n      0x01\n      add\n      swap1\n      0x20\n      add\n      dup1\n      dup4\n      gt\n      tag_155\n      jumpi\n      dup3\n      swap1\n      sub\n      0x1f\n      and\n      dup3\n      add\n      swap2\n    tag_153:\n      pop\n      pop\n      pop\n      pop\n      pop\n      swap1\n      dup1\n      0x02\n      add\n      sload\n      swap1\n      dup1\n      0x03\n      add\n      0x00\n      swap1\n      sload\n      swap1\n      0x0100\n      exp\n      swap1\n      div\n      0xff\n      and\n      swap1\n      dup1\n      0x03\n      add\n      0x01\n      swap1\n      sload\n      swap1\n      0x0100\n      exp\n      swap1\n      div\n      0xff\n      and\n      swap1\n      pop\n      dup6\n      jump\t// out\n        /* \"@openzeppelin/contracts/access/Ownable.sol\":1796:1958  function _checkOwner() internal view virtual {... */\n    tag_56:\n        /* \"@openzeppelin/contracts/access/Ownable.sol\":1866:1878  _msgSender() */\n      tag_157\n        /* \"@openzeppelin/contracts/access/Ownable.sol\":1866:1876  _msgSender */\n      tag_158\n        /* \"@openzeppelin/contracts/access/Ownable.sol\":1866:1878  _msgSender() */\n      jump\t// in\n    tag_157:\n        /* \"@openzeppelin/contracts/access/Ownable.sol\":1855:1878  owner() != _msgSender() */\n      0xffffffffffffffffffffffffffffffffffffffff\n      and\n        /* \"@openzeppelin/contracts/access/Ownable.sol\":1855:1862  owner() */\n      tag_159\n        /* \"@openzeppelin/contracts/access/Ownable.sol\":1855:1860  owner */\n      tag_25\n        /* \"@openzeppelin/contracts/access/Ownable.sol\":1855:1862  owner() */\n      jump\t// in\n    tag_159:\n        /* \"@openzeppelin/contracts/access/Ownable.sol\":1855:1878  owner() != _msgSender() */\n      0xffffffffffffffffffffffffffffffffffffffff\n      and\n      eq\n        /* \"@openzeppelin/contracts/access/Ownable.sol\":1851:1952  if (owner() != _msgSender()) {... */\n      tag_160\n      jumpi\n        /* \"@openzeppelin/contracts/access/Ownable.sol\":1928:1940  _msgSender() */\n      tag_161\n        /* \"@openzeppelin/contracts/access/Ownable.sol\":1928:1938  _msgSender */\n      tag_158\n        /* \"@openzeppelin/contracts/access/Ownable.sol\":1928:1940  _msgSender() */\n      jump\t// in\n    tag_161:\n        /* \"@openzeppelin/contracts/access/Ownable.sol\":1901:1941  OwnableUnauthorizedAccount(_msgSender()) */\n      mload(0x40)\n      0x118cdaa700000000000000000000000000000000000000000000000000000000\n      dup2\n      mstore\n      0x04\n      add\n      tag_162\n      swap2\n      swap1\n      tag_27\n      jump\t// in\n    tag_162:\n      mload(0x40)\n      dup1\n      swap2\n      sub\n      swap1\n      revert\n        /* \"@openzeppelin/contracts/access/Ownable.sol\":1851:1952  if (owner() != _msgSender()) {... */\n    tag_160:\n        /* \"@openzeppelin/contracts/access/Ownable.sol\":1796:1958  function _checkOwner() internal view virtual {... */\n      jump\t// out\n        /* \"@openzeppelin/contracts/access/Ownable.sol\":2912:3099  function _transferOwnership(address newOwner) internal virtual {... */\n    tag_59:\n        /* \"@openzeppelin/contracts/access/Ownable.sol\":2985:3001  address oldOwner */\n      0x00\n        /* \"@openzeppelin/contracts/access/Ownable.sol\":3004:3010  _owner */\n      dup1\n      0x00\n      swap1\n      sload\n      swap1\n      0x0100\n      exp\n      swap1\n      div\n      0xffffffffffffffffffffffffffffffffffffffff\n      and\n        /* \"@openzeppelin/contracts/access/Ownable.sol\":2985:3010  address oldOwner = _owner */\n      swap1\n      pop\n        /* \"@openzeppelin/contracts/access/Ownable.sol\":3029:3037  newOwner */\n      dup2\n        /* \"@openzeppelin/contracts/access/Ownable.sol\":3020:3026  _owner */\n      0x00\n      dup1\n        /* \"@openzeppelin/contracts/access/Ownable.sol\":3020:3037  _owner = newOwner */\n      0x0100\n      exp\n      dup2\n      sload\n      dup2\n      0xffffffffffffffffffffffffffffffffffffffff\n      mul\n      not\n      and\n      swap1\n      dup4\n      0xffffffffffffffffffffffffffffffffffffffff\n      and\n      mul\n      or\n      swap1\n      sstore\n      pop\n        /* \"@openzeppelin/contracts/access/Ownable.sol\":3083:3091  newOwner */\n      dup2\n        /* \"@openzeppelin/contracts/access/Ownable.sol\":3052:3092  OwnershipTransferred(oldOwner, newOwner) */\n      0xffffffffffffffffffffffffffffffffffffffff\n      and\n        /* \"@openzeppelin/contracts/access/Ownable.sol\":3073:3081  oldOwner */\n      dup2\n        /* \"@openzeppelin/contracts/access/Ownable.sol\":3052:3092  OwnershipTransferred(oldOwner, newOwner) */\n      0xffffffffffffffffffffffffffffffffffffffff\n      and\n      0x8be0079c531659141344cd1fd0a4f28419497f9722a3daafe3b4186f6b6457e0\n      mload(0x40)\n      mload(0x40)\n      dup1\n      swap2\n      sub\n      swap1\n      log3\n        /* \"@openzeppelin/contracts/access/Ownable.sol\":2975:3099  {... */\n      pop\n        /* \"@openzeppelin/contracts/access/Ownable.sol\":2912:3099  function _transferOwnership(address newOwner) internal virtual {... */\n      pop\n      jump\t// out\n        /* \"@openzeppelin/contracts/utils/Context.sol\":656:752  function _msgSender() internal view virtual returns (address) {... */\n    tag_158:\n        /* \"@openzeppelin/contracts/utils/Context.sol\":709:716  address */\n      0x00\n        /* \"@openzeppelin/contracts/utils/Context.sol\":735:745  msg.sender */\n      caller\n        /* \"@openzeppelin/contracts/utils/Context.sol\":728:745  return msg.sender */\n      swap1\n      pop\n        /* \"@openzeppelin/contracts/utils/Context.sol\":656:752  function _msgSender() internal view virtual returns (address) {... */\n      swap1\n      jump\t// out\n    tag_109:\n      pop\n      dup1\n      sload\n      tag_165\n      swap1\n      tag_65\n      jump\t// in\n    tag_165:\n      0x00\n      dup3\n      sstore\n      dup1\n      0x1f\n      lt\n      tag_167\n      jumpi\n      pop\n      jump(tag_166)\n    tag_167:\n      0x1f\n      add\n      0x20\n      swap1\n      div\n      swap1\n      0x00\n      mstore\n      keccak256(0x00, 0x20)\n      swap1\n      dup2\n      add\n      swap1\n      tag_168\n      swap2\n      swap1\n      tag_169\n      jump\t// in\n    tag_168:\n    tag_166:\n      pop\n      jump\t// out\n    tag_169:\n    tag_170:\n      dup1\n      dup3\n      gt\n      iszero\n      tag_171\n      jumpi\n      0x00\n      dup2\n      0x00\n      swap1\n      sstore\n      pop\n      0x01\n      add\n      jump(tag_170)\n    tag_171:\n      pop\n      swap1\n      jump\t// out\n        /* \"#utility.yul\":7:84   */\n    tag_172:\n        /* \"#utility.yul\":44:51   */\n      0x00\n        /* \"#utility.yul\":73:78   */\n      dup2\n        /* \"#utility.yul\":62:78   */\n      swap1\n      pop\n        /* \"#utility.yul\":7:84   */\n      swap2\n      swap1\n      pop\n      jump\t// out\n        /* \"#utility.yul\":90:208   */\n    tag_173:\n        /* \"#utility.yul\":177:201   */\n      tag_239\n        /* \"#utility.yul\":195:200   */\n      dup2\n        /* \"#utility.yul\":177:201   */\n      tag_172\n      jump\t// in\n    tag_239:\n        /* \"#utility.yul\":172:175   */\n      dup3\n        /* \"#utility.yul\":165:202   */\n      mstore\n        /* \"#utility.yul\":90:208   */\n      pop\n      pop\n      jump\t// out\n        /* \"#utility.yul\":214:436   */\n    tag_17:\n        /* \"#utility.yul\":307:311   */\n      0x00\n        /* \"#utility.yul\":345:347   */\n      0x20\n        /* \"#utility.yul\":334:343   */\n      dup3\n        /* \"#utility.yul\":330:348   */\n      add\n        /* \"#utility.yul\":322:348   */\n      swap1\n      pop\n        /* \"#utility.yul\":358:429   */\n      tag_241\n        /* \"#utility.yul\":426:427   */\n      0x00\n        /* \"#utility.yul\":415:424   */\n      dup4\n        /* \"#utility.yul\":411:428   */\n      add\n        /* \"#utility.yul\":402:408   */\n      dup5\n        /* \"#utility.yul\":358:429   */\n      tag_173\n      jump\t// in\n    tag_241:\n        /* \"#utility.yul\":214:436   */\n      swap3\n      swap2\n      pop\n      pop\n      jump\t// out\n        /* \"#utility.yul\":442:579   */\n    tag_174:\n        /* \"#utility.yul\":532:538   */\n      0x00\n        /* \"#utility.yul\":566:571   */\n      dup2\n        /* \"#utility.yul\":560:572   */\n      mload\n        /* \"#utility.yul\":550:572   */\n      swap1\n      pop\n        /* \"#utility.yul\":442:579   */\n      swap2\n      swap1\n      pop\n      jump\t// out\n        /* \"#utility.yul\":585:792   */\n    tag_175:\n        /* \"#utility.yul\":707:718   */\n      0x00\n        /* \"#utility.yul\":741:747   */\n      dup3\n        /* \"#utility.yul\":736:739   */\n      dup3\n        /* \"#utility.yul\":729:748   */\n      mstore\n        /* \"#utility.yul\":781:785   */\n      0x20\n        /* \"#utility.yul\":776:779   */\n      dup3\n        /* \"#utility.yul\":772:786   */\n      add\n        /* \"#utility.yul\":757:786   */\n      swap1\n      pop\n        /* \"#utility.yul\":585:792   */\n      swap3\n      swap2\n      pop\n      pop\n      jump\t// out\n        /* \"#utility.yul\":798:953   */\n    tag_176:\n        /* \"#utility.yul\":888:892   */\n      0x00\n        /* \"#utility.yul\":911:914   */\n      dup2\n        /* \"#utility.yul\":903:914   */\n      swap1\n      pop\n        /* \"#utility.yul\":941:945   */\n      0x20\n        /* \"#utility.yul\":936:939   */\n      dup3\n        /* \"#utility.yul\":932:946   */\n      add\n        /* \"#utility.yul\":924:946   */\n      swap1\n      pop\n        /* \"#utility.yul\":798:953   */\n      swap2\n      swap1\n      pop\n      jump\t// out\n        /* \"#utility.yul\":959:1067   */\n    tag_177:\n        /* \"#utility.yul\":1036:1060   */\n      tag_246\n        /* \"#utility.yul\":1054:1059   */\n      dup2\n        /* \"#utility.yul\":1036:1060   */\n      tag_172\n      jump\t// in\n    tag_246:\n        /* \"#utility.yul\":1031:1034   */\n      dup3\n        /* \"#utility.yul\":1024:1061   */\n      mstore\n        /* \"#utility.yul\":959:1067   */\n      pop\n      pop\n      jump\t// out\n        /* \"#utility.yul\":1073:1172   */\n    tag_178:\n        /* \"#utility.yul\":1125:1131   */\n      0x00\n        /* \"#utility.yul\":1159:1164   */\n      dup2\n        /* \"#utility.yul\":1153:1165   */\n      mload\n        /* \"#utility.yul\":1143:1165   */\n      swap1\n      pop\n        /* \"#utility.yul\":1073:1172   */\n      swap2\n      swap1\n      pop\n      jump\t// out\n        /* \"#utility.yul\":1178:1337   */\n    tag_179:\n        /* \"#utility.yul\":1252:1263   */\n      0x00\n        /* \"#utility.yul\":1286:1292   */\n      dup3\n        /* \"#utility.yul\":1281:1284   */\n      dup3\n        /* \"#utility.yul\":1274:1293   */\n      mstore\n        /* \"#utility.yul\":1326:1330   */\n      0x20\n        /* \"#utility.yul\":1321:1324   */\n      dup3\n        /* \"#utility.yul\":1317:1331   */\n      add\n        /* \"#utility.yul\":1302:1331   */\n      swap1\n      pop\n        /* \"#utility.yul\":1178:1337   */\n      swap3\n      swap2\n      pop\n      pop\n      jump\t// out\n        /* \"#utility.yul\":1343:1482   */\n    tag_180:\n        /* \"#utility.yul\":1432:1438   */\n      dup3\n        /* \"#utility.yul\":1427:1430   */\n      dup2\n        /* \"#utility.yul\":1422:1425   */\n      dup4\n        /* \"#utility.yul\":1416:1439   */\n      mcopy\n        /* \"#utility.yul\":1473:1474   */\n      0x00\n        /* \"#utility.yul\":1464:1470   */\n      dup4\n        /* \"#utility.yul\":1459:1462   */\n      dup4\n        /* \"#utility.yul\":1455:1471   */\n      add\n        /* \"#utility.yul\":1448:1475   */\n      mstore\n        /* \"#utility.yul\":1343:1482   */\n      pop\n      pop\n      pop\n      jump\t// out\n        /* \"#utility.yul\":1488:1590   */\n    tag_181:\n        /* \"#utility.yul\":1529:1535   */\n      0x00\n        /* \"#utility.yul\":1580:1582   */\n      0x1f\n        /* \"#utility.yul\":1576:1583   */\n      not\n        /* \"#utility.yul\":1571:1573   */\n      0x1f\n        /* \"#utility.yul\":1564:1569   */\n      dup4\n        /* \"#utility.yul\":1560:1574   */\n      add\n        /* \"#utility.yul\":1556:1584   */\n      and\n        /* \"#utility.yul\":1546:1584   */\n      swap1\n      pop\n        /* \"#utility.yul\":1488:1590   */\n      swap2\n      swap1\n      pop\n      jump\t// out\n        /* \"#utility.yul\":1596:1953   */\n    tag_182:\n        /* \"#utility.yul\":1674:1677   */\n      0x00\n        /* \"#utility.yul\":1702:1741   */\n      tag_252\n        /* \"#utility.yul\":1735:1740   */\n      dup3\n        /* \"#utility.yul\":1702:1741   */\n      tag_178\n      jump\t// in\n    tag_252:\n        /* \"#utility.yul\":1757:1818   */\n      tag_253\n        /* \"#utility.yul\":1811:1817   */\n      dup2\n        /* \"#utility.yul\":1806:1809   */\n      dup6\n        /* \"#utility.yul\":1757:1818   */\n      tag_179\n      jump\t// in\n    tag_253:\n        /* \"#utility.yul\":1750:1818   */\n      swap4\n      pop\n        /* \"#utility.yul\":1827:1892   */\n      tag_254\n        /* \"#utility.yul\":1885:1891   */\n      dup2\n        /* \"#utility.yul\":1880:1883   */\n      dup6\n        /* \"#utility.yul\":1873:1877   */\n      0x20\n        /* \"#utility.yul\":1866:1871   */\n      dup7\n        /* \"#utility.yul\":1862:1878   */\n      add\n        /* \"#utility.yul\":1827:1892   */\n      tag_180\n      jump\t// in\n    tag_254:\n        /* \"#utility.yul\":1917:1946   */\n      tag_255\n        /* \"#utility.yul\":1939:1945   */\n      dup2\n        /* \"#utility.yul\":1917:1946   */\n      tag_181\n      jump\t// in\n    tag_255:\n        /* \"#utility.yul\":1912:1915   */\n      dup5\n        /* \"#utility.yul\":1908:1947   */\n      add\n        /* \"#utility.yul\":1901:1947   */\n      swap2\n      pop\n        /* \"#utility.yul\":1678:1953   */\n      pop\n        /* \"#utility.yul\":1596:1953   */\n      swap3\n      swap2\n      pop\n      pop\n      jump\t// out\n        /* \"#utility.yul\":1959:2139   */\n    tag_72:\n        /* \"#utility.yul\":2007:2084   */\n      0x4e487b7100000000000000000000000000000000000000000000000000000000\n        /* \"#utility.yul\":2004:2005   */\n      0x00\n        /* \"#utility.yul\":1997:2085   */\n      mstore\n        /* \"#utility.yul\":2104:2108   */\n      0x21\n        /* \"#utility.yul\":2101:2102   */\n      0x04\n        /* \"#utility.yul\":2094:2109   */\n      mstore\n        /* \"#utility.yul\":2128:2132   */\n      0x24\n        /* \"#utility.yul\":2125:2126   */\n      0x00\n        /* \"#utility.yul\":2118:2133   */\n      revert\n        /* \"#utility.yul\":2145:2269   */\n    tag_183:\n        /* \"#utility.yul\":2237:2238   */\n      0x03\n        /* \"#utility.yul\":2230:2235   */\n      dup2\n        /* \"#utility.yul\":2227:2239   */\n      lt\n        /* \"#utility.yul\":2217:2263   */\n      tag_258\n      jumpi\n        /* \"#utility.yul\":2243:2261   */\n      tag_259\n      tag_72\n      jump\t// in\n    tag_259:\n        /* \"#utility.yul\":2217:2263   */\n    tag_258:\n        /* \"#utility.yul\":2145:2269   */\n      pop\n      jump\t// out\n        /* \"#utility.yul\":2275:2424   */\n    tag_184:\n        /* \"#utility.yul\":2331:2338   */\n      0x00\n        /* \"#utility.yul\":2360:2365   */\n      dup2\n        /* \"#utility.yul\":2349:2365   */\n      swap1\n      pop\n        /* \"#utility.yul\":2366:2418   */\n      tag_261\n        /* \"#utility.yul\":2412:2417   */\n      dup3\n        /* \"#utility.yul\":2366:2418   */\n      tag_183\n      jump\t// in\n    tag_261:\n        /* \"#utility.yul\":2275:2424   */\n      swap2\n      swap1\n      pop\n      jump\t// out\n        /* \"#utility.yul\":2430:2579   */\n    tag_185:\n        /* \"#utility.yul\":2497:2506   */\n      0x00\n        /* \"#utility.yul\":2530:2573   */\n      tag_263\n        /* \"#utility.yul\":2567:2572   */\n      dup3\n        /* \"#utility.yul\":2530:2573   */\n      tag_184\n      jump\t// in\n    tag_263:\n        /* \"#utility.yul\":2517:2573   */\n      swap1\n      pop\n        /* \"#utility.yul\":2430:2579   */\n      swap2\n      swap1\n      pop\n      jump\t// out\n        /* \"#utility.yul\":2585:2740   */\n    tag_186:\n        /* \"#utility.yul\":2679:2733   */\n      tag_265\n        /* \"#utility.yul\":2727:2732   */\n      dup2\n        /* \"#utility.yul\":2679:2733   */\n      tag_185\n      jump\t// in\n    tag_265:\n        /* \"#utility.yul\":2674:2677   */\n      dup3\n        /* \"#utility.yul\":2667:2734   */\n      mstore\n        /* \"#utility.yul\":2585:2740   */\n      pop\n      pop\n      jump\t// out\n        /* \"#utility.yul\":2746:2836   */\n    tag_187:\n        /* \"#utility.yul\":2780:2787   */\n      0x00\n        /* \"#utility.yul\":2823:2828   */\n      dup2\n        /* \"#utility.yul\":2816:2829   */\n      iszero\n        /* \"#utility.yul\":2809:2830   */\n      iszero\n        /* \"#utility.yul\":2798:2830   */\n      swap1\n      pop\n        /* \"#utility.yul\":2746:2836   */\n      swap2\n      swap1\n      pop\n      jump\t// out\n        /* \"#utility.yul\":2842:2941   */\n    tag_188:\n        /* \"#utility.yul\":2913:2934   */\n      tag_268\n        /* \"#utility.yul\":2928:2933   */\n      dup2\n        /* \"#utility.yul\":2913:2934   */\n      tag_187\n      jump\t// in\n    tag_268:\n        /* \"#utility.yul\":2908:2911   */\n      dup3\n        /* \"#utility.yul\":2901:2935   */\n      mstore\n        /* \"#utility.yul\":2842:2941   */\n      pop\n      pop\n      jump\t// out\n        /* \"#utility.yul\":3015:4147   */\n    tag_189:\n        /* \"#utility.yul\":3120:3123   */\n      0x00\n        /* \"#utility.yul\":3156:3160   */\n      0xa0\n        /* \"#utility.yul\":3151:3154   */\n      dup4\n        /* \"#utility.yul\":3147:3161   */\n      add\n        /* \"#utility.yul\":3241:3245   */\n      0x00\n        /* \"#utility.yul\":3234:3239   */\n      dup4\n        /* \"#utility.yul\":3230:3246   */\n      add\n        /* \"#utility.yul\":3224:3247   */\n      mload\n        /* \"#utility.yul\":3260:3323   */\n      tag_270\n        /* \"#utility.yul\":3317:3321   */\n      0x00\n        /* \"#utility.yul\":3312:3315   */\n      dup7\n        /* \"#utility.yul\":3308:3322   */\n      add\n        /* \"#utility.yul\":3294:3306   */\n      dup3\n        /* \"#utility.yul\":3260:3323   */\n      tag_177\n      jump\t// in\n    tag_270:\n        /* \"#utility.yul\":3171:3333   */\n      pop\n        /* \"#utility.yul\":3415:3419   */\n      0x20\n        /* \"#utility.yul\":3408:3413   */\n      dup4\n        /* \"#utility.yul\":3404:3420   */\n      add\n        /* \"#utility.yul\":3398:3421   */\n      mload\n        /* \"#utility.yul\":3468:3471   */\n      dup5\n        /* \"#utility.yul\":3462:3466   */\n      dup3\n        /* \"#utility.yul\":3458:3472   */\n      sub\n        /* \"#utility.yul\":3451:3455   */\n      0x20\n        /* \"#utility.yul\":3446:3449   */\n      dup7\n        /* \"#utility.yul\":3442:3456   */\n      add\n        /* \"#utility.yul\":3435:3473   */\n      mstore\n        /* \"#utility.yul\":3494:3567   */\n      tag_271\n        /* \"#utility.yul\":3562:3566   */\n      dup3\n        /* \"#utility.yul\":3548:3560   */\n      dup3\n        /* \"#utility.yul\":3494:3567   */\n      tag_182\n      jump\t// in\n    tag_271:\n        /* \"#utility.yul\":3486:3567   */\n      swap2\n      pop\n        /* \"#utility.yul\":3343:3578   */\n      pop\n        /* \"#utility.yul\":3659:3663   */\n      0x40\n        /* \"#utility.yul\":3652:3657   */\n      dup4\n        /* \"#utility.yul\":3648:3664   */\n      add\n        /* \"#utility.yul\":3642:3665   */\n      mload\n        /* \"#utility.yul\":3678:3741   */\n      tag_272\n        /* \"#utility.yul\":3735:3739   */\n      0x40\n        /* \"#utility.yul\":3730:3733   */\n      dup7\n        /* \"#utility.yul\":3726:3740   */\n      add\n        /* \"#utility.yul\":3712:3724   */\n      dup3\n        /* \"#utility.yul\":3678:3741   */\n      tag_177\n      jump\t// in\n    tag_272:\n        /* \"#utility.yul\":3588:3751   */\n      pop\n        /* \"#utility.yul\":3839:3843   */\n      0x60\n        /* \"#utility.yul\":3832:3837   */\n      dup4\n        /* \"#utility.yul\":3828:3844   */\n      add\n        /* \"#utility.yul\":3822:3845   */\n      mload\n        /* \"#utility.yul\":3858:3938   */\n      tag_273\n        /* \"#utility.yul\":3932:3936   */\n      0x60\n        /* \"#utility.yul\":3927:3930   */\n      dup7\n        /* \"#utility.yul\":3923:3937   */\n      add\n        /* \"#utility.yul\":3909:3921   */\n      dup3\n        /* \"#utility.yul\":3858:3938   */\n      tag_186\n      jump\t// in\n    tag_273:\n        /* \"#utility.yul\":3761:3948   */\n      pop\n        /* \"#utility.yul\":4034:4038   */\n      0x80\n        /* \"#utility.yul\":4027:4032   */\n      dup4\n        /* \"#utility.yul\":4023:4039   */\n      add\n        /* \"#utility.yul\":4017:4040   */\n      mload\n        /* \"#utility.yul\":4053:4110   */\n      tag_274\n        /* \"#utility.yul\":4104:4108   */\n      0x80\n        /* \"#utility.yul\":4099:4102   */\n      dup7\n        /* \"#utility.yul\":4095:4109   */\n      add\n        /* \"#utility.yul\":4081:4093   */\n      dup3\n        /* \"#utility.yul\":4053:4110   */\n      tag_188\n      jump\t// in\n    tag_274:\n        /* \"#utility.yul\":3958:4120   */\n      pop\n        /* \"#utility.yul\":4137:4141   */\n      dup1\n        /* \"#utility.yul\":4130:4141   */\n      swap2\n      pop\n        /* \"#utility.yul\":3125:4147   */\n      pop\n        /* \"#utility.yul\":3015:4147   */\n      swap3\n      swap2\n      pop\n      pop\n      jump\t// out\n        /* \"#utility.yul\":4153:4401   */\n    tag_190:\n        /* \"#utility.yul\":4268:4278   */\n      0x00\n        /* \"#utility.yul\":4303:4395   */\n      tag_276\n        /* \"#utility.yul\":4391:4394   */\n      dup4\n        /* \"#utility.yul\":4383:4389   */\n      dup4\n        /* \"#utility.yul\":4303:4395   */\n      tag_189\n      jump\t// in\n    tag_276:\n        /* \"#utility.yul\":4289:4395   */\n      swap1\n      pop\n        /* \"#utility.yul\":4153:4401   */\n      swap3\n      swap2\n      pop\n      pop\n      jump\t// out\n        /* \"#utility.yul\":4407:4543   */\n    tag_191:\n        /* \"#utility.yul\":4500:4504   */\n      0x00\n        /* \"#utility.yul\":4532:4536   */\n      0x20\n        /* \"#utility.yul\":4527:4530   */\n      dup3\n        /* \"#utility.yul\":4523:4537   */\n      add\n        /* \"#utility.yul\":4515:4537   */\n      swap1\n      pop\n        /* \"#utility.yul\":4407:4543   */\n      swap2\n      swap1\n      pop\n      jump\t// out\n        /* \"#utility.yul\":4621:5716   */\n    tag_192:\n        /* \"#utility.yul\":4786:4789   */\n      0x00\n        /* \"#utility.yul\":4815:4892   */\n      tag_279\n        /* \"#utility.yul\":4886:4891   */\n      dup3\n        /* \"#utility.yul\":4815:4892   */\n      tag_174\n      jump\t// in\n    tag_279:\n        /* \"#utility.yul\":4908:5017   */\n      tag_280\n        /* \"#utility.yul\":5010:5016   */\n      dup2\n        /* \"#utility.yul\":5005:5008   */\n      dup6\n        /* \"#utility.yul\":4908:5017   */\n      tag_175\n      jump\t// in\n    tag_280:\n        /* \"#utility.yul\":4901:5017   */\n      swap4\n      pop\n        /* \"#utility.yul\":5043:5046   */\n      dup4\n        /* \"#utility.yul\":5088:5092   */\n      0x20\n        /* \"#utility.yul\":5080:5086   */\n      dup3\n        /* \"#utility.yul\":5076:5093   */\n      mul\n        /* \"#utility.yul\":5071:5074   */\n      dup6\n        /* \"#utility.yul\":5067:5094   */\n      add\n        /* \"#utility.yul\":5118:5197   */\n      tag_281\n        /* \"#utility.yul\":5191:5196   */\n      dup6\n        /* \"#utility.yul\":5118:5197   */\n      tag_176\n      jump\t// in\n    tag_281:\n        /* \"#utility.yul\":5220:5227   */\n      dup1\n        /* \"#utility.yul\":5251:5252   */\n      0x00\n        /* \"#utility.yul\":5236:5671   */\n    tag_282:\n        /* \"#utility.yul\":5261:5267   */\n      dup6\n        /* \"#utility.yul\":5258:5259   */\n      dup2\n        /* \"#utility.yul\":5255:5268   */\n      lt\n        /* \"#utility.yul\":5236:5671   */\n      iszero\n      tag_284\n      jumpi\n        /* \"#utility.yul\":5332:5341   */\n      dup5\n        /* \"#utility.yul\":5326:5330   */\n      dup5\n        /* \"#utility.yul\":5322:5342   */\n      sub\n        /* \"#utility.yul\":5317:5320   */\n      dup10\n        /* \"#utility.yul\":5310:5343   */\n      mstore\n        /* \"#utility.yul\":5383:5389   */\n      dup2\n        /* \"#utility.yul\":5377:5390   */\n      mload\n        /* \"#utility.yul\":5411:5521   */\n      tag_285\n        /* \"#utility.yul\":5516:5520   */\n      dup6\n        /* \"#utility.yul\":5501:5514   */\n      dup3\n        /* \"#utility.yul\":5411:5521   */\n      tag_190\n      jump\t// in\n    tag_285:\n        /* \"#utility.yul\":5403:5521   */\n      swap5\n      pop\n        /* \"#utility.yul\":5544:5627   */\n      tag_286\n        /* \"#utility.yul\":5620:5626   */\n      dup4\n        /* \"#utility.yul\":5544:5627   */\n      tag_191\n      jump\t// in\n    tag_286:\n        /* \"#utility.yul\":5534:5627   */\n      swap3\n      pop\n        /* \"#utility.yul\":5656:5660   */\n      0x20\n        /* \"#utility.yul\":5651:5654   */\n      dup11\n        /* \"#utility.yul\":5647:5661   */\n      add\n        /* \"#utility.yul\":5640:5661   */\n      swap10\n      pop\n        /* \"#utility.yul\":5296:5671   */\n      pop\n        /* \"#utility.yul\":5283:5284   */\n      0x01\n        /* \"#utility.yul\":5280:5281   */\n      dup2\n        /* \"#utility.yul\":5276:5285   */\n      add\n        /* \"#utility.yul\":5271:5285   */\n      swap1\n      pop\n        /* \"#utility.yul\":5236:5671   */\n      jump(tag_282)\n    tag_284:\n        /* \"#utility.yul\":5240:5254   */\n      pop\n        /* \"#utility.yul\":5687:5691   */\n      dup3\n        /* \"#utility.yul\":5680:5691   */\n      swap8\n      pop\n        /* \"#utility.yul\":5707:5710   */\n      dup8\n        /* \"#utility.yul\":5700:5710   */\n      swap6\n      pop\n        /* \"#utility.yul\":4791:5716   */\n      pop\n      pop\n      pop\n      pop\n      pop\n        /* \"#utility.yul\":4621:5716   */\n      swap3\n      swap2\n      pop\n      pop\n      jump\t// out\n        /* \"#utility.yul\":5722:6187   */\n    tag_23:\n        /* \"#utility.yul\":5911:5915   */\n      0x00\n        /* \"#utility.yul\":5949:5951   */\n      0x20\n        /* \"#utility.yul\":5938:5947   */\n      dup3\n        /* \"#utility.yul\":5934:5952   */\n      add\n        /* \"#utility.yul\":5926:5952   */\n      swap1\n      pop\n        /* \"#utility.yul\":5998:6007   */\n      dup2\n        /* \"#utility.yul\":5992:5996   */\n      dup2\n        /* \"#utility.yul\":5988:6008   */\n      sub\n        /* \"#utility.yul\":5984:5985   */\n      0x00\n        /* \"#utility.yul\":5973:5982   */\n      dup4\n        /* \"#utility.yul\":5969:5986   */\n      add\n        /* \"#utility.yul\":5962:6009   */\n      mstore\n        /* \"#utility.yul\":6026:6180   */\n      tag_288\n        /* \"#utility.yul\":6175:6179   */\n      dup2\n        /* \"#utility.yul\":6166:6172   */\n      dup5\n        /* \"#utility.yul\":6026:6180   */\n      tag_192\n      jump\t// in\n    tag_288:\n        /* \"#utility.yul\":6018:6180   */\n      swap1\n      pop\n        /* \"#utility.yul\":5722:6187   */\n      swap3\n      swap2\n      pop\n      pop\n      jump\t// out\n        /* \"#utility.yul\":6193:6319   */\n    tag_193:\n        /* \"#utility.yul\":6230:6237   */\n      0x00\n        /* \"#utility.yul\":6270:6312   */\n      0xffffffffffffffffffffffffffffffffffffffff\n        /* \"#utility.yul\":6263:6268   */\n      dup3\n        /* \"#utility.yul\":6259:6313   */\n      and\n        /* \"#utility.yul\":6248:6313   */\n      swap1\n      pop\n        /* \"#utility.yul\":6193:6319   */\n      swap2\n      swap1\n      pop\n      jump\t// out\n        /* \"#utility.yul\":6325:6421   */\n    tag_194:\n        /* \"#utility.yul\":6362:6369   */\n      0x00\n        /* \"#utility.yul\":6391:6415   */\n      tag_291\n        /* \"#utility.yul\":6409:6414   */\n      dup3\n        /* \"#utility.yul\":6391:6415   */\n      tag_193\n      jump\t// in\n    tag_291:\n        /* \"#utility.yul\":6380:6415   */\n      swap1\n      pop\n        /* \"#utility.yul\":6325:6421   */\n      swap2\n      swap1\n      pop\n      jump\t// out\n        /* \"#utility.yul\":6427:6545   */\n    tag_195:\n        /* \"#utility.yul\":6514:6538   */\n      tag_293\n        /* \"#utility.yul\":6532:6537   */\n      dup2\n        /* \"#utility.yul\":6514:6538   */\n      tag_194\n      jump\t// in\n    tag_293:\n        /* \"#utility.yul\":6509:6512   */\n      dup3\n        /* \"#utility.yul\":6502:6539   */\n      mstore\n        /* \"#utility.yul\":6427:6545   */\n      pop\n      pop\n      jump\t// out\n        /* \"#utility.yul\":6551:6773   */\n    tag_27:\n        /* \"#utility.yul\":6644:6648   */\n      0x00\n        /* \"#utility.yul\":6682:6684   */\n      0x20\n        /* \"#utility.yul\":6671:6680   */\n      dup3\n        /* \"#utility.yul\":6667:6685   */\n      add\n        /* \"#utility.yul\":6659:6685   */\n      swap1\n      pop\n        /* \"#utility.yul\":6695:6766   */\n      tag_295\n        /* \"#utility.yul\":6763:6764   */\n      0x00\n        /* \"#utility.yul\":6752:6761   */\n      dup4\n        /* \"#utility.yul\":6748:6765   */\n      add\n        /* \"#utility.yul\":6739:6745   */\n      dup5\n        /* \"#utility.yul\":6695:6766   */\n      tag_195\n      jump\t// in\n    tag_295:\n        /* \"#utility.yul\":6551:6773   */\n      swap3\n      swap2\n      pop\n      pop\n      jump\t// out\n        /* \"#utility.yul\":6779:6854   */\n    tag_196:\n        /* \"#utility.yul\":6812:6818   */\n      0x00\n        /* \"#utility.yul\":6845:6847   */\n      0x40\n        /* \"#utility.yul\":6839:6848   */\n      mload\n        /* \"#utility.yul\":6829:6848   */\n      swap1\n      pop\n        /* \"#utility.yul\":6779:6854   */\n      swap1\n      jump\t// out\n        /* \"#utility.yul\":6860:6977   */\n    tag_197:\n        /* \"#utility.yul\":6969:6970   */\n      0x00\n        /* \"#utility.yul\":6966:6967   */\n      dup1\n        /* \"#utility.yul\":6959:6971   */\n      revert\n        /* \"#utility.yul\":6983:7100   */\n    tag_198:\n        /* \"#utility.yul\":7092:7093   */\n      0x00\n        /* \"#utility.yul\":7089:7090   */\n      dup1\n        /* \"#utility.yul\":7082:7094   */\n      revert\n        /* \"#utility.yul\":7106:7228   */\n    tag_199:\n        /* \"#utility.yul\":7179:7203   */\n      tag_300\n        /* \"#utility.yul\":7197:7202   */\n      dup2\n        /* \"#utility.yul\":7179:7203   */\n      tag_172\n      jump\t// in\n    tag_300:\n        /* \"#utility.yul\":7172:7177   */\n      dup2\n        /* \"#utility.yul\":7169:7204   */\n      eq\n        /* \"#utility.yul\":7159:7222   */\n      tag_301\n      jumpi\n        /* \"#utility.yul\":7218:7219   */\n      0x00\n        /* \"#utility.yul\":7215:7216   */\n      dup1\n        /* \"#utility.yul\":7208:7220   */\n      revert\n        /* \"#utility.yul\":7159:7222   */\n    tag_301:\n        /* \"#utility.yul\":7106:7228   */\n      pop\n      jump\t// out\n        /* \"#utility.yul\":7234:7373   */\n    tag_200:\n        /* \"#utility.yul\":7280:7285   */\n      0x00\n        /* \"#utility.yul\":7318:7324   */\n      dup2\n        /* \"#utility.yul\":7305:7325   */\n      calldataload\n        /* \"#utility.yul\":7296:7325   */\n      swap1\n      pop\n        /* \"#utility.yul\":7334:7367   */\n      tag_303\n        /* \"#utility.yul\":7361:7366   */\n      dup2\n        /* \"#utility.yul\":7334:7367   */\n      tag_199\n      jump\t// in\n    tag_303:\n        /* \"#utility.yul\":7234:7373   */\n      swap3\n      swap2\n      pop\n      pop\n      jump\t// out\n        /* \"#utility.yul\":7379:7708   */\n    tag_30:\n        /* \"#utility.yul\":7438:7444   */\n      0x00\n        /* \"#utility.yul\":7487:7489   */\n      0x20\n        /* \"#utility.yul\":7475:7484   */\n      dup3\n        /* \"#utility.yul\":7466:7473   */\n      dup5\n        /* \"#utility.yul\":7462:7485   */\n      sub\n        /* \"#utility.yul\":7458:7490   */\n      slt\n        /* \"#utility.yul\":7455:7574   */\n      iszero\n      tag_305\n      jumpi\n        /* \"#utility.yul\":7493:7572   */\n      tag_306\n      tag_197\n      jump\t// in\n    tag_306:\n        /* \"#utility.yul\":7455:7574   */\n    tag_305:\n        /* \"#utility.yul\":7613:7614   */\n      0x00\n        /* \"#utility.yul\":7638:7691   */\n      tag_307\n        /* \"#utility.yul\":7683:7690   */\n      dup5\n        /* \"#utility.yul\":7674:7680   */\n      dup3\n        /* \"#utility.yul\":7663:7672   */\n      dup6\n        /* \"#utility.yul\":7659:7681   */\n      add\n        /* \"#utility.yul\":7638:7691   */\n      tag_200\n      jump\t// in\n    tag_307:\n        /* \"#utility.yul\":7628:7691   */\n      swap2\n      pop\n        /* \"#utility.yul\":7584:7701   */\n      pop\n        /* \"#utility.yul\":7379:7708   */\n      swap3\n      swap2\n      pop\n      pop\n      jump\t// out\n        /* \"#utility.yul\":7714:7823   */\n    tag_201:\n        /* \"#utility.yul\":7795:7816   */\n      tag_309\n        /* \"#utility.yul\":7810:7815   */\n      dup2\n        /* \"#utility.yul\":7795:7816   */\n      tag_187\n      jump\t// in\n    tag_309:\n        /* \"#utility.yul\":7790:7793   */\n      dup3\n        /* \"#utility.yul\":7783:7817   */\n      mstore\n        /* \"#utility.yul\":7714:7823   */\n      pop\n      pop\n      jump\t// out\n        /* \"#utility.yul\":7829:8039   */\n    tag_33:\n        /* \"#utility.yul\":7916:7920   */\n      0x00\n        /* \"#utility.yul\":7954:7956   */\n      0x20\n        /* \"#utility.yul\":7943:7952   */\n      dup3\n        /* \"#utility.yul\":7939:7957   */\n      add\n        /* \"#utility.yul\":7931:7957   */\n      swap1\n      pop\n        /* \"#utility.yul\":7967:8032   */\n      tag_311\n        /* \"#utility.yul\":8029:8030   */\n      0x00\n        /* \"#utility.yul\":8018:8027   */\n      dup4\n        /* \"#utility.yul\":8014:8031   */\n      add\n        /* \"#utility.yul\":8005:8011   */\n      dup5\n        /* \"#utility.yul\":7967:8032   */\n      tag_201\n      jump\t// in\n    tag_311:\n        /* \"#utility.yul\":7829:8039   */\n      swap3\n      swap2\n      pop\n      pop\n      jump\t// out\n        /* \"#utility.yul\":8045:8162   */\n    tag_202:\n        /* \"#utility.yul\":8154:8155   */\n      0x00\n        /* \"#utility.yul\":8151:8152   */\n      dup1\n        /* \"#utility.yul\":8144:8156   */\n      revert\n        /* \"#utility.yul\":8168:8285   */\n    tag_203:\n        /* \"#utility.yul\":8277:8278   */\n      0x00\n        /* \"#utility.yul\":8274:8275   */\n      dup1\n        /* \"#utility.yul\":8267:8279   */\n      revert\n        /* \"#utility.yul\":8291:8471   */\n    tag_204:\n        /* \"#utility.yul\":8339:8416   */\n      0x4e487b7100000000000000000000000000000000000000000000000000000000\n        /* \"#utility.yul\":8336:8337   */\n      0x00\n        /* \"#utility.yul\":8329:8417   */\n      mstore\n        /* \"#utility.yul\":8436:8440   */\n      0x41\n        /* \"#utility.yul\":8433:8434   */\n      0x04\n        /* \"#utility.yul\":8426:8441   */\n      mstore\n        /* \"#utility.yul\":8460:8464   */\n      0x24\n        /* \"#utility.yul\":8457:8458   */\n      0x00\n        /* \"#utility.yul\":8450:8465   */\n      revert\n        /* \"#utility.yul\":8477:8758   */\n    tag_205:\n        /* \"#utility.yul\":8560:8587   */\n      tag_316\n        /* \"#utility.yul\":8582:8586   */\n      dup3\n        /* \"#utility.yul\":8560:8587   */\n      tag_181\n      jump\t// in\n    tag_316:\n        /* \"#utility.yul\":8552:8558   */\n      dup2\n        /* \"#utility.yul\":8548:8588   */\n      add\n        /* \"#utility.yul\":8690:8696   */\n      dup2\n        /* \"#utility.yul\":8678:8688   */\n      dup2\n        /* \"#utility.yul\":8675:8697   */\n      lt\n        /* \"#utility.yul\":8654:8672   */\n      0xffffffffffffffff\n        /* \"#utility.yul\":8642:8652   */\n      dup3\n        /* \"#utility.yul\":8639:8673   */\n      gt\n        /* \"#utility.yul\":8636:8698   */\n      or\n        /* \"#utility.yul\":8633:8721   */\n      iszero\n      tag_317\n      jumpi\n        /* \"#utility.yul\":8701:8719   */\n      tag_318\n      tag_204\n      jump\t// in\n    tag_318:\n        /* \"#utility.yul\":8633:8721   */\n    tag_317:\n        /* \"#utility.yul\":8741:8751   */\n      dup1\n        /* \"#utility.yul\":8737:8739   */\n      0x40\n        /* \"#utility.yul\":8730:8752   */\n      mstore\n        /* \"#utility.yul\":8520:8758   */\n      pop\n        /* \"#utility.yul\":8477:8758   */\n      pop\n      pop\n      jump\t// out\n        /* \"#utility.yul\":8764:8893   */\n    tag_206:\n        /* \"#utility.yul\":8798:8804   */\n      0x00\n        /* \"#utility.yul\":8825:8845   */\n      tag_320\n      tag_196\n      jump\t// in\n    tag_320:\n        /* \"#utility.yul\":8815:8845   */\n      swap1\n      pop\n        /* \"#utility.yul\":8854:8887   */\n      tag_321\n        /* \"#utility.yul\":8882:8886   */\n      dup3\n        /* \"#utility.yul\":8874:8880   */\n      dup3\n        /* \"#utility.yul\":8854:8887   */\n      tag_205\n      jump\t// in\n    tag_321:\n        /* \"#utility.yul\":8764:8893   */\n      swap2\n      swap1\n      pop\n      jump\t// out\n        /* \"#utility.yul\":8899:9207   */\n    tag_207:\n        /* \"#utility.yul\":8961:8965   */\n      0x00\n        /* \"#utility.yul\":9051:9069   */\n      0xffffffffffffffff\n        /* \"#utility.yul\":9043:9049   */\n      dup3\n        /* \"#utility.yul\":9040:9070   */\n      gt\n        /* \"#utility.yul\":9037:9093   */\n      iszero\n      tag_323\n      jumpi\n        /* \"#utility.yul\":9073:9091   */\n      tag_324\n      tag_204\n      jump\t// in\n    tag_324:\n        /* \"#utility.yul\":9037:9093   */\n    tag_323:\n        /* \"#utility.yul\":9111:9140   */\n      tag_325\n        /* \"#utility.yul\":9133:9139   */\n      dup3\n        /* \"#utility.yul\":9111:9140   */\n      tag_181\n      jump\t// in\n    tag_325:\n        /* \"#utility.yul\":9103:9140   */\n      swap1\n      pop\n        /* \"#utility.yul\":9195:9199   */\n      0x20\n        /* \"#utility.yul\":9189:9193   */\n      dup2\n        /* \"#utility.yul\":9185:9200   */\n      add\n        /* \"#utility.yul\":9177:9200   */\n      swap1\n      pop\n        /* \"#utility.yul\":8899:9207   */\n      swap2\n      swap1\n      pop\n      jump\t// out\n        /* \"#utility.yul\":9213:9361   */\n    tag_208:\n        /* \"#utility.yul\":9311:9317   */\n      dup3\n        /* \"#utility.yul\":9306:9309   */\n      dup2\n        /* \"#utility.yul\":9301:9304   */\n      dup4\n        /* \"#utility.yul\":9288:9318   */\n      calldatacopy\n        /* \"#utility.yul\":9352:9353   */\n      0x00\n        /* \"#utility.yul\":9343:9349   */\n      dup4\n        /* \"#utility.yul\":9338:9341   */\n      dup4\n        /* \"#utility.yul\":9334:9350   */\n      add\n        /* \"#utility.yul\":9327:9354   */\n      mstore\n        /* \"#utility.yul\":9213:9361   */\n      pop\n      pop\n      pop\n      jump\t// out\n        /* \"#utility.yul\":9367:9792   */\n    tag_209:\n        /* \"#utility.yul\":9445:9450   */\n      0x00\n        /* \"#utility.yul\":9470:9536   */\n      tag_328\n        /* \"#utility.yul\":9486:9535   */\n      tag_329\n        /* \"#utility.yul\":9528:9534   */\n      dup5\n        /* \"#utility.yul\":9486:9535   */\n      tag_207\n      jump\t// in\n    tag_329:\n        /* \"#utility.yul\":9470:9536   */\n      tag_206\n      jump\t// in\n    tag_328:\n        /* \"#utility.yul\":9461:9536   */\n      swap1\n      pop\n        /* \"#utility.yul\":9559:9565   */\n      dup3\n        /* \"#utility.yul\":9552:9557   */\n      dup2\n        /* \"#utility.yul\":9545:9566   */\n      mstore\n        /* \"#utility.yul\":9597:9601   */\n      0x20\n        /* \"#utility.yul\":9590:9595   */\n      dup2\n        /* \"#utility.yul\":9586:9602   */\n      add\n        /* \"#utility.yul\":9635:9638   */\n      dup5\n        /* \"#utility.yul\":9626:9632   */\n      dup5\n        /* \"#utility.yul\":9621:9624   */\n      dup5\n        /* \"#utility.yul\":9617:9633   */\n      add\n        /* \"#utility.yul\":9614:9639   */\n      gt\n        /* \"#utility.yul\":9611:9723   */\n      iszero\n      tag_330\n      jumpi\n        /* \"#utility.yul\":9642:9721   */\n      tag_331\n      tag_203\n      jump\t// in\n    tag_331:\n        /* \"#utility.yul\":9611:9723   */\n    tag_330:\n        /* \"#utility.yul\":9732:9786   */\n      tag_332\n        /* \"#utility.yul\":9779:9785   */\n      dup5\n        /* \"#utility.yul\":9774:9777   */\n      dup3\n        /* \"#utility.yul\":9769:9772   */\n      dup6\n        /* \"#utility.yul\":9732:9786   */\n      tag_208\n      jump\t// in\n    tag_332:\n        /* \"#utility.yul\":9451:9792   */\n      pop\n        /* \"#utility.yul\":9367:9792   */\n      swap4\n      swap3\n      pop\n      pop\n      pop\n      jump\t// out\n        /* \"#utility.yul\":9812:10152   */\n    tag_210:\n        /* \"#utility.yul\":9868:9873   */\n      0x00\n        /* \"#utility.yul\":9917:9920   */\n      dup3\n        /* \"#utility.yul\":9910:9914   */\n      0x1f\n        /* \"#utility.yul\":9902:9908   */\n      dup4\n        /* \"#utility.yul\":9898:9915   */\n      add\n        /* \"#utility.yul\":9894:9921   */\n      slt\n        /* \"#utility.yul\":9884:10006   */\n      tag_334\n      jumpi\n        /* \"#utility.yul\":9925:10004   */\n      tag_335\n      tag_202\n      jump\t// in\n    tag_335:\n        /* \"#utility.yul\":9884:10006   */\n    tag_334:\n        /* \"#utility.yul\":10042:10048   */\n      dup2\n        /* \"#utility.yul\":10029:10049   */\n      calldataload\n        /* \"#utility.yul\":10067:10146   */\n      tag_336\n        /* \"#utility.yul\":10142:10145   */\n      dup5\n        /* \"#utility.yul\":10134:10140   */\n      dup3\n        /* \"#utility.yul\":10127:10131   */\n      0x20\n        /* \"#utility.yul\":10119:10125   */\n      dup7\n        /* \"#utility.yul\":10115:10132   */\n      add\n        /* \"#utility.yul\":10067:10146   */\n      tag_209\n      jump\t// in\n    tag_336:\n        /* \"#utility.yul\":10058:10146   */\n      swap2\n      pop\n        /* \"#utility.yul\":9874:10152   */\n      pop\n        /* \"#utility.yul\":9812:10152   */\n      swap3\n      swap2\n      pop\n      pop\n      jump\t// out\n        /* \"#utility.yul\":10158:10276   */\n    tag_211:\n        /* \"#utility.yul\":10250:10251   */\n      0x03\n        /* \"#utility.yul\":10243:10248   */\n      dup2\n        /* \"#utility.yul\":10240:10252   */\n      lt\n        /* \"#utility.yul\":10230:10270   */\n      tag_338\n      jumpi\n        /* \"#utility.yul\":10266:10267   */\n      0x00\n        /* \"#utility.yul\":10263:10264   */\n      dup1\n        /* \"#utility.yul\":10256:10268   */\n      revert\n        /* \"#utility.yul\":10230:10270   */\n    tag_338:\n        /* \"#utility.yul\":10158:10276   */\n      pop\n      jump\t// out\n        /* \"#utility.yul\":10282:10459   */\n    tag_212:\n        /* \"#utility.yul\":10347:10352   */\n      0x00\n        /* \"#utility.yul\":10385:10391   */\n      dup2\n        /* \"#utility.yul\":10372:10392   */\n      calldataload\n        /* \"#utility.yul\":10363:10392   */\n      swap1\n      pop\n        /* \"#utility.yul\":10401:10453   */\n      tag_340\n        /* \"#utility.yul\":10447:10452   */\n      dup2\n        /* \"#utility.yul\":10401:10453   */\n      tag_211\n      jump\t// in\n    tag_340:\n        /* \"#utility.yul\":10282:10459   */\n      swap3\n      swap2\n      pop\n      pop\n      jump\t// out\n        /* \"#utility.yul\":10465:11302   */\n    tag_39:\n        /* \"#utility.yul\":10571:10577   */\n      0x00\n        /* \"#utility.yul\":10579:10585   */\n      dup1\n        /* \"#utility.yul\":10587:10593   */\n      0x00\n        /* \"#utility.yul\":10636:10638   */\n      0x60\n        /* \"#utility.yul\":10624:10633   */\n      dup5\n        /* \"#utility.yul\":10615:10622   */\n      dup7\n        /* \"#utility.yul\":10611:10634   */\n      sub\n        /* \"#utility.yul\":10607:10639   */\n      slt\n        /* \"#utility.yul\":10604:10723   */\n      iszero\n      tag_342\n      jumpi\n        /* \"#utility.yul\":10642:10721   */\n      tag_343\n      tag_197\n      jump\t// in\n    tag_343:\n        /* \"#utility.yul\":10604:10723   */\n    tag_342:\n        /* \"#utility.yul\":10790:10791   */\n      0x00\n        /* \"#utility.yul\":10779:10788   */\n      dup5\n        /* \"#utility.yul\":10775:10792   */\n      add\n        /* \"#utility.yul\":10762:10793   */\n      calldataload\n        /* \"#utility.yul\":10820:10838   */\n      0xffffffffffffffff\n        /* \"#utility.yul\":10812:10818   */\n      dup2\n        /* \"#utility.yul\":10809:10839   */\n      gt\n        /* \"#utility.yul\":10806:10923   */\n      iszero\n      tag_344\n      jumpi\n        /* \"#utility.yul\":10842:10921   */\n      tag_345\n      tag_198\n      jump\t// in\n    tag_345:\n        /* \"#utility.yul\":10806:10923   */\n    tag_344:\n        /* \"#utility.yul\":10947:11010   */\n      tag_346\n        /* \"#utility.yul\":11002:11009   */\n      dup7\n        /* \"#utility.yul\":10993:10999   */\n      dup3\n        /* \"#utility.yul\":10982:10991   */\n      dup8\n        /* \"#utility.yul\":10978:11000   */\n      add\n        /* \"#utility.yul\":10947:11010   */\n      tag_210\n      jump\t// in\n    tag_346:\n        /* \"#utility.yul\":10937:11010   */\n      swap4\n      pop\n        /* \"#utility.yul\":10733:11020   */\n      pop\n        /* \"#utility.yul\":11059:11061   */\n      0x20\n        /* \"#utility.yul\":11085:11138   */\n      tag_347\n        /* \"#utility.yul\":11130:11137   */\n      dup7\n        /* \"#utility.yul\":11121:11127   */\n      dup3\n        /* \"#utility.yul\":11110:11119   */\n      dup8\n        /* \"#utility.yul\":11106:11128   */\n      add\n        /* \"#utility.yul\":11085:11138   */\n      tag_200\n      jump\t// in\n    tag_347:\n        /* \"#utility.yul\":11075:11138   */\n      swap3\n      pop\n        /* \"#utility.yul\":11030:11148   */\n      pop\n        /* \"#utility.yul\":11187:11189   */\n      0x40\n        /* \"#utility.yul\":11213:11285   */\n      tag_348\n        /* \"#utility.yul\":11277:11284   */\n      dup7\n        /* \"#utility.yul\":11268:11274   */\n      dup3\n        /* \"#utility.yul\":11257:11266   */\n      dup8\n        /* \"#utility.yul\":11253:11275   */\n      add\n        /* \"#utility.yul\":11213:11285   */\n      tag_212\n      jump\t// in\n    tag_348:\n        /* \"#utility.yul\":11203:11285   */\n      swap2\n      pop\n        /* \"#utility.yul\":11158:11295   */\n      pop\n        /* \"#utility.yul\":10465:11302   */\n      swap3\n      pop\n      swap3\n      pop\n      swap3\n      jump\t// out\n        /* \"#utility.yul\":11308:11820   */\n    tag_43:\n        /* \"#utility.yul\":11395:11401   */\n      0x00\n        /* \"#utility.yul\":11403:11409   */\n      dup1\n        /* \"#utility.yul\":11452:11454   */\n      0x40\n        /* \"#utility.yul\":11440:11449   */\n      dup4\n        /* \"#utility.yul\":11431:11438   */\n      dup6\n        /* \"#utility.yul\":11427:11450   */\n      sub\n        /* \"#utility.yul\":11423:11455   */\n      slt\n        /* \"#utility.yul\":11420:11539   */\n      iszero\n      tag_350\n      jumpi\n        /* \"#utility.yul\":11458:11537   */\n      tag_351\n      tag_197\n      jump\t// in\n    tag_351:\n        /* \"#utility.yul\":11420:11539   */\n    tag_350:\n        /* \"#utility.yul\":11578:11579   */\n      0x00\n        /* \"#utility.yul\":11603:11656   */\n      tag_352\n        /* \"#utility.yul\":11648:11655   */\n      dup6\n        /* \"#utility.yul\":11639:11645   */\n      dup3\n        /* \"#utility.yul\":11628:11637   */\n      dup7\n        /* \"#utility.yul\":11624:11646   */\n      add\n        /* \"#utility.yul\":11603:11656   */\n      tag_200\n      jump\t// in\n    tag_352:\n        /* \"#utility.yul\":11593:11656   */\n      swap3\n      pop\n        /* \"#utility.yul\":11549:11666   */\n      pop\n        /* \"#utility.yul\":11705:11707   */\n      0x20\n        /* \"#utility.yul\":11731:11803   */\n      tag_353\n        /* \"#utility.yul\":11795:11802   */\n      dup6\n        /* \"#utility.yul\":11786:11792   */\n      dup3\n        /* \"#utility.yul\":11775:11784   */\n      dup7\n        /* \"#utility.yul\":11771:11793   */\n      add\n        /* \"#utility.yul\":11731:11803   */\n      tag_212\n      jump\t// in\n    tag_353:\n        /* \"#utility.yul\":11721:11803   */\n      swap2\n      pop\n        /* \"#utility.yul\":11676:11813   */\n      pop\n        /* \"#utility.yul\":11308:11820   */\n      swap3\n      pop\n      swap3\n      swap1\n      pop\n      jump\t// out\n        /* \"#utility.yul\":11826:11948   */\n    tag_213:\n        /* \"#utility.yul\":11899:11923   */\n      tag_355\n        /* \"#utility.yul\":11917:11922   */\n      dup2\n        /* \"#utility.yul\":11899:11923   */\n      tag_194\n      jump\t// in\n    tag_355:\n        /* \"#utility.yul\":11892:11897   */\n      dup2\n        /* \"#utility.yul\":11889:11924   */\n      eq\n        /* \"#utility.yul\":11879:11942   */\n      tag_356\n      jumpi\n        /* \"#utility.yul\":11938:11939   */\n      0x00\n        /* \"#utility.yul\":11935:11936   */\n      dup1\n        /* \"#utility.yul\":11928:11940   */\n      revert\n        /* \"#utility.yul\":11879:11942   */\n    tag_356:\n        /* \"#utility.yul\":11826:11948   */\n      pop\n      jump\t// out\n        /* \"#utility.yul\":11954:12093   */\n    tag_214:\n        /* \"#utility.yul\":12000:12005   */\n      0x00\n        /* \"#utility.yul\":12038:12044   */\n      dup2\n        /* \"#utility.yul\":12025:12045   */\n      calldataload\n        /* \"#utility.yul\":12016:12045   */\n      swap1\n      pop\n        /* \"#utility.yul\":12054:12087   */\n      tag_358\n        /* \"#utility.yul\":12081:12086   */\n      dup2\n        /* \"#utility.yul\":12054:12087   */\n      tag_213\n      jump\t// in\n    tag_358:\n        /* \"#utility.yul\":11954:12093   */\n      swap3\n      swap2\n      pop\n      pop\n      jump\t// out\n        /* \"#utility.yul\":12099:12428   */\n    tag_47:\n        /* \"#utility.yul\":12158:12164   */\n      0x00\n        /* \"#utility.yul\":12207:12209   */\n      0x20\n        /* \"#utility.yul\":12195:12204   */\n      dup3\n        /* \"#utility.yul\":12186:12193   */\n      dup5\n        /* \"#utility.yul\":12182:12205   */\n      sub\n        /* \"#utility.yul\":12178:12210   */\n      slt\n        /* \"#utility.yul\":12175:12294   */\n      iszero\n      tag_360\n      jumpi\n        /* \"#utility.yul\":12213:12292   */\n      tag_361\n      tag_197\n      jump\t// in\n    tag_361:\n        /* \"#utility.yul\":12175:12294   */\n    tag_360:\n        /* \"#utility.yul\":12333:12334   */\n      0x00\n        /* \"#utility.yul\":12358:12411   */\n      tag_362\n        /* \"#utility.yul\":12403:12410   */\n      dup5\n        /* \"#utility.yul\":12394:12400   */\n      dup3\n        /* \"#utility.yul\":12383:12392   */\n      dup6\n        /* \"#utility.yul\":12379:12401   */\n      add\n        /* \"#utility.yul\":12358:12411   */\n      tag_214\n      jump\t// in\n    tag_362:\n        /* \"#utility.yul\":12348:12411   */\n      swap2\n      pop\n        /* \"#utility.yul\":12304:12421   */\n      pop\n        /* \"#utility.yul\":12099:12428   */\n      swap3\n      swap2\n      pop\n      pop\n      jump\t// out\n        /* \"#utility.yul\":12434:12603   */\n    tag_215:\n        /* \"#utility.yul\":12518:12529   */\n      0x00\n        /* \"#utility.yul\":12552:12558   */\n      dup3\n        /* \"#utility.yul\":12547:12550   */\n      dup3\n        /* \"#utility.yul\":12540:12559   */\n      mstore\n        /* \"#utility.yul\":12592:12596   */\n      0x20\n        /* \"#utility.yul\":12587:12590   */\n      dup3\n        /* \"#utility.yul\":12583:12597   */\n      add\n        /* \"#utility.yul\":12568:12597   */\n      swap1\n      pop\n        /* \"#utility.yul\":12434:12603   */\n      swap3\n      swap2\n      pop\n      pop\n      jump\t// out\n        /* \"#utility.yul\":12609:12986   */\n    tag_216:\n        /* \"#utility.yul\":12697:12700   */\n      0x00\n        /* \"#utility.yul\":12725:12764   */\n      tag_365\n        /* \"#utility.yul\":12758:12763   */\n      dup3\n        /* \"#utility.yul\":12725:12764   */\n      tag_178\n      jump\t// in\n    tag_365:\n        /* \"#utility.yul\":12780:12851   */\n      tag_366\n        /* \"#utility.yul\":12844:12850   */\n      dup2\n        /* \"#utility.yul\":12839:12842   */\n      dup6\n        /* \"#utility.yul\":12780:12851   */\n      tag_215\n      jump\t// in\n    tag_366:\n        /* \"#utility.yul\":12773:12851   */\n      swap4\n      pop\n        /* \"#utility.yul\":12860:12925   */\n      tag_367\n        /* \"#utility.yul\":12918:12924   */\n      dup2\n        /* \"#utility.yul\":12913:12916   */\n      dup6\n        /* \"#utility.yul\":12906:12910   */\n      0x20\n        /* \"#utility.yul\":12899:12904   */\n      dup7\n        /* \"#utility.yul\":12895:12911   */\n      add\n        /* \"#utility.yul\":12860:12925   */\n      tag_180\n      jump\t// in\n    tag_367:\n        /* \"#utility.yul\":12950:12979   */\n      tag_368\n        /* \"#utility.yul\":12972:12978   */\n      dup2\n        /* \"#utility.yul\":12950:12979   */\n      tag_181\n      jump\t// in\n    tag_368:\n        /* \"#utility.yul\":12945:12948   */\n      dup5\n        /* \"#utility.yul\":12941:12980   */\n      add\n        /* \"#utility.yul\":12934:12980   */\n      swap2\n      pop\n        /* \"#utility.yul\":12701:12986   */\n      pop\n        /* \"#utility.yul\":12609:12986   */\n      swap3\n      swap2\n      pop\n      pop\n      jump\t// out\n        /* \"#utility.yul\":12992:13157   */\n    tag_217:\n        /* \"#utility.yul\":13096:13150   */\n      tag_370\n        /* \"#utility.yul\":13144:13149   */\n      dup2\n        /* \"#utility.yul\":13096:13150   */\n      tag_185\n      jump\t// in\n    tag_370:\n        /* \"#utility.yul\":13091:13094   */\n      dup3\n        /* \"#utility.yul\":13084:13151   */\n      mstore\n        /* \"#utility.yul\":12992:13157   */\n      pop\n      pop\n      jump\t// out\n        /* \"#utility.yul\":13163:13940   */\n    tag_53:\n        /* \"#utility.yul\":13399:13403   */\n      0x00\n        /* \"#utility.yul\":13437:13440   */\n      0xa0\n        /* \"#utility.yul\":13426:13435   */\n      dup3\n        /* \"#utility.yul\":13422:13441   */\n      add\n        /* \"#utility.yul\":13414:13441   */\n      swap1\n      pop\n        /* \"#utility.yul\":13451:13522   */\n      tag_372\n        /* \"#utility.yul\":13519:13520   */\n      0x00\n        /* \"#utility.yul\":13508:13517   */\n      dup4\n        /* \"#utility.yul\":13504:13521   */\n      add\n        /* \"#utility.yul\":13495:13501   */\n      dup9\n        /* \"#utility.yul\":13451:13522   */\n      tag_173\n      jump\t// in\n    tag_372:\n        /* \"#utility.yul\":13569:13578   */\n      dup2\n        /* \"#utility.yul\":13563:13567   */\n      dup2\n        /* \"#utility.yul\":13559:13579   */\n      sub\n        /* \"#utility.yul\":13554:13556   */\n      0x20\n        /* \"#utility.yul\":13543:13552   */\n      dup4\n        /* \"#utility.yul\":13539:13557   */\n      add\n        /* \"#utility.yul\":13532:13580   */\n      mstore\n        /* \"#utility.yul\":13597:13675   */\n      tag_373\n        /* \"#utility.yul\":13670:13674   */\n      dup2\n        /* \"#utility.yul\":13661:13667   */\n      dup8\n        /* \"#utility.yul\":13597:13675   */\n      tag_216\n      jump\t// in\n    tag_373:\n        /* \"#utility.yul\":13589:13675   */\n      swap1\n      pop\n        /* \"#utility.yul\":13685:13757   */\n      tag_374\n        /* \"#utility.yul\":13753:13755   */\n      0x40\n        /* \"#utility.yul\":13742:13751   */\n      dup4\n        /* \"#utility.yul\":13738:13756   */\n      add\n        /* \"#utility.yul\":13729:13735   */\n      dup7\n        /* \"#utility.yul\":13685:13757   */\n      tag_173\n      jump\t// in\n    tag_374:\n        /* \"#utility.yul\":13767:13856   */\n      tag_375\n        /* \"#utility.yul\":13852:13854   */\n      0x60\n        /* \"#utility.yul\":13841:13850   */\n      dup4\n        /* \"#utility.yul\":13837:13855   */\n      add\n        /* \"#utility.yul\":13828:13834   */\n      dup6\n        /* \"#utility.yul\":13767:13856   */\n      tag_217\n      jump\t// in\n    tag_375:\n        /* \"#utility.yul\":13866:13933   */\n      tag_376\n        /* \"#utility.yul\":13928:13931   */\n      0x80\n        /* \"#utility.yul\":13917:13926   */\n      dup4\n        /* \"#utility.yul\":13913:13932   */\n      add\n        /* \"#utility.yul\":13904:13910   */\n      dup5\n        /* \"#utility.yul\":13866:13933   */\n      tag_201\n      jump\t// in\n    tag_376:\n        /* \"#utility.yul\":13163:13940   */\n      swap7\n      swap6\n      pop\n      pop\n      pop\n      pop\n      pop\n      pop\n      jump\t// out\n        /* \"#utility.yul\":13946:14126   */\n    tag_218:\n        /* \"#utility.yul\":13994:14071   */\n      0x4e487b7100000000000000000000000000000000000000000000000000000000\n        /* \"#utility.yul\":13991:13992   */\n      0x00\n        /* \"#utility.yul\":13984:14072   */\n      mstore\n        /* \"#utility.yul\":14091:14095   */\n      0x22\n        /* \"#utility.yul\":14088:14089   */\n      0x04\n        /* \"#utility.yul\":14081:14096   */\n      mstore\n        /* \"#utility.yul\":14115:14119   */\n      0x24\n        /* \"#utility.yul\":14112:14113   */\n      0x00\n        /* \"#utility.yul\":14105:14120   */\n      revert\n        /* \"#utility.yul\":14132:14452   */\n    tag_65:\n        /* \"#utility.yul\":14176:14182   */\n      0x00\n        /* \"#utility.yul\":14213:14214   */\n      0x02\n        /* \"#utility.yul\":14207:14211   */\n      dup3\n        /* \"#utility.yul\":14203:14215   */\n      div\n        /* \"#utility.yul\":14193:14215   */\n      swap1\n      pop\n        /* \"#utility.yul\":14260:14261   */\n      0x01\n        /* \"#utility.yul\":14254:14258   */\n      dup3\n        /* \"#utility.yul\":14250:14262   */\n      and\n        /* \"#utility.yul\":14281:14299   */\n      dup1\n        /* \"#utility.yul\":14271:14352   */\n      tag_379\n      jumpi\n        /* \"#utility.yul\":14337:14341   */\n      0x7f\n        /* \"#utility.yul\":14329:14335   */\n      dup3\n        /* \"#utility.yul\":14325:14342   */\n      and\n        /* \"#utility.yul\":14315:14342   */\n      swap2\n      pop\n        /* \"#utility.yul\":14271:14352   */\n    tag_379:\n        /* \"#utility.yul\":14399:14401   */\n      0x20\n        /* \"#utility.yul\":14391:14397   */\n      dup3\n        /* \"#utility.yul\":14388:14402   */\n      lt\n        /* \"#utility.yul\":14368:14386   */\n      dup2\n        /* \"#utility.yul\":14365:14403   */\n      sub\n        /* \"#utility.yul\":14362:14446   */\n      tag_380\n      jumpi\n        /* \"#utility.yul\":14418:14436   */\n      tag_381\n      tag_218\n      jump\t// in\n    tag_381:\n        /* \"#utility.yul\":14362:14446   */\n    tag_380:\n        /* \"#utility.yul\":14183:14452   */\n      pop\n        /* \"#utility.yul\":14132:14452   */\n      swap2\n      swap1\n      pop\n      jump\t// out\n        /* \"#utility.yul\":14458:14638   */\n    tag_82:\n        /* \"#utility.yul\":14506:14583   */\n      0x4e487b7100000000000000000000000000000000000000000000000000000000\n        /* \"#utility.yul\":14503:14504   */\n      0x00\n        /* \"#utility.yul\":14496:14584   */\n      mstore\n        /* \"#utility.yul\":14603:14607   */\n      0x32\n        /* \"#utility.yul\":14600:14601   */\n      0x04\n        /* \"#utility.yul\":14593:14608   */\n      mstore\n        /* \"#utility.yul\":14627:14631   */\n      0x24\n        /* \"#utility.yul\":14624:14625   */\n      0x00\n        /* \"#utility.yul\":14617:14632   */\n      revert\n        /* \"#utility.yul\":14644:14824   */\n    tag_219:\n        /* \"#utility.yul\":14692:14769   */\n      0x4e487b7100000000000000000000000000000000000000000000000000000000\n        /* \"#utility.yul\":14689:14690   */\n      0x00\n        /* \"#utility.yul\":14682:14770   */\n      mstore\n        /* \"#utility.yul\":14789:14793   */\n      0x11\n        /* \"#utility.yul\":14786:14787   */\n      0x04\n        /* \"#utility.yul\":14779:14794   */\n      mstore\n        /* \"#utility.yul\":14813:14817   */\n      0x24\n        /* \"#utility.yul\":14810:14811   */\n      0x00\n        /* \"#utility.yul\":14803:14818   */\n      revert\n        /* \"#utility.yul\":14830:15024   */\n    tag_93:\n        /* \"#utility.yul\":14870:14874   */\n      0x00\n        /* \"#utility.yul\":14890:14910   */\n      tag_385\n        /* \"#utility.yul\":14908:14909   */\n      dup3\n        /* \"#utility.yul\":14890:14910   */\n      tag_172\n      jump\t// in\n    tag_385:\n        /* \"#utility.yul\":14885:14910   */\n      swap2\n      pop\n        /* \"#utility.yul\":14924:14944   */\n      tag_386\n        /* \"#utility.yul\":14942:14943   */\n      dup4\n        /* \"#utility.yul\":14924:14944   */\n      tag_172\n      jump\t// in\n    tag_386:\n        /* \"#utility.yul\":14919:14944   */\n      swap3\n      pop\n        /* \"#utility.yul\":14968:14969   */\n      dup3\n        /* \"#utility.yul\":14965:14966   */\n      dup3\n        /* \"#utility.yul\":14961:14970   */\n      sub\n        /* \"#utility.yul\":14953:14970   */\n      swap1\n      pop\n        /* \"#utility.yul\":14992:14993   */\n      dup2\n        /* \"#utility.yul\":14986:14990   */\n      dup2\n        /* \"#utility.yul\":14983:14994   */\n      gt\n        /* \"#utility.yul\":14980:15017   */\n      iszero\n      tag_387\n      jumpi\n        /* \"#utility.yul\":14997:15015   */\n      tag_388\n      tag_219\n      jump\t// in\n    tag_388:\n        /* \"#utility.yul\":14980:15017   */\n    tag_387:\n        /* \"#utility.yul\":14830:15024   */\n      swap3\n      swap2\n      pop\n      pop\n      jump\t// out\n        /* \"#utility.yul\":15030:15179   */\n    tag_220:\n        /* \"#utility.yul\":15079:15085   */\n      0x00\n        /* \"#utility.yul\":15113:15118   */\n      dup2\n        /* \"#utility.yul\":15107:15119   */\n      sload\n        /* \"#utility.yul\":15097:15119   */\n      swap1\n      pop\n        /* \"#utility.yul\":15139:15172   */\n      tag_390\n        /* \"#utility.yul\":15165:15171   */\n      dup2\n        /* \"#utility.yul\":15139:15172   */\n      tag_65\n      jump\t// in\n    tag_390:\n        /* \"#utility.yul\":15129:15172   */\n      swap1\n      pop\n        /* \"#utility.yul\":15030:15179   */\n      swap2\n      swap1\n      pop\n      jump\t// out\n        /* \"#utility.yul\":15185:15326   */\n    tag_221:\n        /* \"#utility.yul\":15234:15238   */\n      0x00\n        /* \"#utility.yul\":15257:15260   */\n      dup2\n        /* \"#utility.yul\":15249:15260   */\n      swap1\n      pop\n        /* \"#utility.yul\":15280:15283   */\n      dup2\n        /* \"#utility.yul\":15277:15278   */\n      0x00\n        /* \"#utility.yul\":15270:15284   */\n      mstore\n        /* \"#utility.yul\":15314:15318   */\n      0x20\n        /* \"#utility.yul\":15311:15312   */\n      0x00\n        /* \"#utility.yul\":15301:15319   */\n      keccak256\n        /* \"#utility.yul\":15293:15319   */\n      swap1\n      pop\n        /* \"#utility.yul\":15185:15326   */\n      swap2\n      swap1\n      pop\n      jump\t// out\n        /* \"#utility.yul\":15332:15425   */\n    tag_222:\n        /* \"#utility.yul\":15369:15375   */\n      0x00\n        /* \"#utility.yul\":15416:15418   */\n      0x20\n        /* \"#utility.yul\":15411:15413   */\n      0x1f\n        /* \"#utility.yul\":15404:15409   */\n      dup4\n        /* \"#utility.yul\":15400:15414   */\n      add\n        /* \"#utility.yul\":15396:15419   */\n      div\n        /* \"#utility.yul\":15386:15419   */\n      swap1\n      pop\n        /* \"#utility.yul\":15332:15425   */\n      swap2\n      swap1\n      pop\n      jump\t// out\n        /* \"#utility.yul\":15431:15538   */\n    tag_223:\n        /* \"#utility.yul\":15475:15483   */\n      0x00\n        /* \"#utility.yul\":15525:15530   */\n      dup3\n        /* \"#utility.yul\":15519:15523   */\n      dup3\n        /* \"#utility.yul\":15515:15531   */\n      shl\n        /* \"#utility.yul\":15494:15531   */\n      swap1\n      pop\n        /* \"#utility.yul\":15431:15538   */\n      swap3\n      swap2\n      pop\n      pop\n      jump\t// out\n        /* \"#utility.yul\":15544:15937   */\n    tag_224:\n        /* \"#utility.yul\":15613:15619   */\n      0x00\n        /* \"#utility.yul\":15663:15664   */\n      0x08\n        /* \"#utility.yul\":15651:15661   */\n      dup4\n        /* \"#utility.yul\":15647:15665   */\n      mul\n        /* \"#utility.yul\":15686:15783   */\n      tag_395\n        /* \"#utility.yul\":15716:15782   */\n      0xffffffffffffffffffffffffffffffffffffffffffffffffffffffffffffffff\n        /* \"#utility.yul\":15705:15714   */\n      dup3\n        /* \"#utility.yul\":15686:15783   */\n      tag_223\n      jump\t// in\n    tag_395:\n        /* \"#utility.yul\":15804:15843   */\n      tag_396\n        /* \"#utility.yul\":15834:15842   */\n      dup7\n        /* \"#utility.yul\":15823:15832   */\n      dup4\n        /* \"#utility.yul\":15804:15843   */\n      tag_223\n      jump\t// in\n    tag_396:\n        /* \"#utility.yul\":15792:15843   */\n      swap6\n      pop\n        /* \"#utility.yul\":15876:15880   */\n      dup1\n        /* \"#utility.yul\":15872:15881   */\n      not\n        /* \"#utility.yul\":15865:15870   */\n      dup5\n        /* \"#utility.yul\":15861:15882   */\n      and\n        /* \"#utility.yul\":15852:15882   */\n      swap4\n      pop\n        /* \"#utility.yul\":15925:15929   */\n      dup1\n        /* \"#utility.yul\":15915:15923   */\n      dup7\n        /* \"#utility.yul\":15911:15930   */\n      and\n        /* \"#utility.yul\":15904:15909   */\n      dup5\n        /* \"#utility.yul\":15901:15931   */\n      or\n        /* \"#utility.yul\":15891:15931   */\n      swap3\n      pop\n        /* \"#utility.yul\":15620:15937   */\n      pop\n      pop\n        /* \"#utility.yul\":15544:15937   */\n      swap4\n      swap3\n      pop\n      pop\n      pop\n      jump\t// out\n        /* \"#utility.yul\":15943:16003   */\n    tag_225:\n        /* \"#utility.yul\":15971:15974   */\n      0x00\n        /* \"#utility.yul\":15992:15997   */\n      dup2\n        /* \"#utility.yul\":15985:15997   */\n      swap1\n      pop\n        /* \"#utility.yul\":15943:16003   */\n      swap2\n      swap1\n      pop\n      jump\t// out\n        /* \"#utility.yul\":16009:16151   */\n    tag_226:\n        /* \"#utility.yul\":16059:16068   */\n      0x00\n        /* \"#utility.yul\":16092:16145   */\n      tag_399\n        /* \"#utility.yul\":16110:16144   */\n      tag_400\n        /* \"#utility.yul\":16119:16143   */\n      tag_401\n        /* \"#utility.yul\":16137:16142   */\n      dup5\n        /* \"#utility.yul\":16119:16143   */\n      tag_172\n      jump\t// in\n    tag_401:\n        /* \"#utility.yul\":16110:16144   */\n      tag_225\n      jump\t// in\n    tag_400:\n        /* \"#utility.yul\":16092:16145   */\n      tag_172\n      jump\t// in\n    tag_399:\n        /* \"#utility.yul\":16079:16145   */\n      swap1\n      pop\n        /* \"#utility.yul\":16009:16151   */\n      swap2\n      swap1\n      pop\n      jump\t// out\n        /* \"#utility.yul\":16157:16232   */\n    tag_227:\n        /* \"#utility.yul\":16200:16203   */\n      0x00\n        /* \"#utility.yul\":16221:16226   */\n      dup2\n        /* \"#utility.yul\":16214:16226   */\n      swap1\n      pop\n        /* \"#utility.yul\":16157:16232   */\n      swap2\n      swap1\n      pop\n      jump\t// out\n        /* \"#utility.yul\":16238:16507   */\n    tag_228:\n        /* \"#utility.yul\":16348:16387   */\n      tag_404\n        /* \"#utility.yul\":16379:16386   */\n      dup4\n        /* \"#utility.yul\":16348:16387   */\n      tag_226\n      jump\t// in\n    tag_404:\n        /* \"#utility.yul\":16409:16500   */\n      tag_405\n        /* \"#utility.yul\":16458:16499   */\n      tag_406\n        /* \"#utility.yul\":16482:16498   */\n      dup3\n        /* \"#utility.yul\":16458:16499   */\n      tag_227\n      jump\t// in\n    tag_406:\n        /* \"#utility.yul\":16450:16456   */\n      dup5\n        /* \"#utility.yul\":16443:16447   */\n      dup5\n        /* \"#utility.yul\":16437:16448   */\n      sload\n        /* \"#utility.yul\":16409:16500   */\n      tag_224\n      jump\t// in\n    tag_405:\n        /* \"#utility.yul\":16403:16407   */\n      dup3\n        /* \"#utility.yul\":16396:16501   */\n      sstore\n        /* \"#utility.yul\":16314:16507   */\n      pop\n        /* \"#utility.yul\":16238:16507   */\n      pop\n      pop\n      pop\n      jump\t// out\n        /* \"#utility.yul\":16513:16586   */\n    tag_229:\n        /* \"#utility.yul\":16558:16561   */\n      0x00\n        /* \"#utility.yul\":16513:16586   */\n      swap1\n      jump\t// out\n        /* \"#utility.yul\":16592:16781   */\n    tag_230:\n        /* \"#utility.yul\":16669:16701   */\n      tag_409\n      tag_229\n      jump\t// in\n    tag_409:\n        /* \"#utility.yul\":16710:16775   */\n      tag_410\n        /* \"#utility.yul\":16768:16774   */\n      dup2\n        /* \"#utility.yul\":16760:16766   */\n      dup5\n        /* \"#utility.yul\":16754:16758   */\n      dup5\n        /* \"#utility.yul\":16710:16775   */\n      tag_228\n      jump\t// in\n    tag_410:\n        /* \"#utility.yul\":16645:16781   */\n      pop\n        /* \"#utility.yul\":16592:16781   */\n      pop\n      pop\n      jump\t// out\n        /* \"#utility.yul\":16787:16973   */\n    tag_231:\n        /* \"#utility.yul\":16847:16967   */\n    tag_412:\n        /* \"#utility.yul\":16864:16867   */\n      dup2\n        /* \"#utility.yul\":16857:16862   */\n      dup2\n        /* \"#utility.yul\":16854:16868   */\n      lt\n        /* \"#utility.yul\":16847:16967   */\n      iszero\n      tag_414\n      jumpi\n        /* \"#utility.yul\":16918:16957   */\n      tag_415\n        /* \"#utility.yul\":16955:16956   */\n      0x00\n        /* \"#utility.yul\":16948:16953   */\n      dup3\n        /* \"#utility.yul\":16918:16957   */\n      tag_230\n      jump\t// in\n    tag_415:\n        /* \"#utility.yul\":16891:16892   */\n      0x01\n        /* \"#utility.yul\":16884:16889   */\n      dup2\n        /* \"#utility.yul\":16880:16893   */\n      add\n        /* \"#utility.yul\":16871:16893   */\n      swap1\n      pop\n        /* \"#utility.yul\":16847:16967   */\n      jump(tag_412)\n    tag_414:\n        /* \"#utility.yul\":16787:16973   */\n      pop\n      pop\n      jump\t// out\n        /* \"#utility.yul\":16979:17522   */\n    tag_232:\n        /* \"#utility.yul\":17080:17082   */\n      0x1f\n        /* \"#utility.yul\":17075:17078   */\n      dup3\n        /* \"#utility.yul\":17072:17083   */\n      gt\n        /* \"#utility.yul\":17069:17515   */\n      iszero\n      tag_417\n      jumpi\n        /* \"#utility.yul\":17114:17152   */\n      tag_418\n        /* \"#utility.yul\":17146:17151   */\n      dup2\n        /* \"#utility.yul\":17114:17152   */\n      tag_221\n      jump\t// in\n    tag_418:\n        /* \"#utility.yul\":17198:17227   */\n      tag_419\n        /* \"#utility.yul\":17216:17226   */\n      dup5\n        /* \"#utility.yul\":17198:17227   */\n      tag_222\n      jump\t// in\n    tag_419:\n        /* \"#utility.yul\":17188:17196   */\n      dup2\n        /* \"#utility.yul\":17184:17228   */\n      add\n        /* \"#utility.yul\":17381:17383   */\n      0x20\n        /* \"#utility.yul\":17369:17379   */\n      dup6\n        /* \"#utility.yul\":17366:17384   */\n      lt\n        /* \"#utility.yul\":17363:17412   */\n      iszero\n      tag_420\n      jumpi\n        /* \"#utility.yul\":17402:17410   */\n      dup2\n        /* \"#utility.yul\":17387:17410   */\n      swap1\n      pop\n        /* \"#utility.yul\":17363:17412   */\n    tag_420:\n        /* \"#utility.yul\":17425:17505   */\n      tag_421\n        /* \"#utility.yul\":17481:17503   */\n      tag_422\n        /* \"#utility.yul\":17499:17502   */\n      dup6\n        /* \"#utility.yul\":17481:17503   */\n      tag_222\n      jump\t// in\n    tag_422:\n        /* \"#utility.yul\":17471:17479   */\n      dup4\n        /* \"#utility.yul\":17467:17504   */\n      add\n        /* \"#utility.yul\":17454:17465   */\n      dup3\n        /* \"#utility.yul\":17425:17505   */\n      tag_231\n      jump\t// in\n    tag_421:\n        /* \"#utility.yul\":17084:17515   */\n      pop\n      pop\n        /* \"#utility.yul\":17069:17515   */\n    tag_417:\n        /* \"#utility.yul\":16979:17522   */\n      pop\n      pop\n      pop\n      jump\t// out\n        /* \"#utility.yul\":17528:17645   */\n    tag_233:\n        /* \"#utility.yul\":17582:17590   */\n      0x00\n        /* \"#utility.yul\":17632:17637   */\n      dup3\n        /* \"#utility.yul\":17626:17630   */\n      dup3\n        /* \"#utility.yul\":17622:17638   */\n      shr\n        /* \"#utility.yul\":17601:17638   */\n      swap1\n      pop\n        /* \"#utility.yul\":17528:17645   */\n      swap3\n      swap2\n      pop\n      pop\n      jump\t// out\n        /* \"#utility.yul\":17651:17820   */\n    tag_234:\n        /* \"#utility.yul\":17695:17701   */\n      0x00\n        /* \"#utility.yul\":17728:17779   */\n      tag_425\n        /* \"#utility.yul\":17776:17777   */\n      0x00\n        /* \"#utility.yul\":17772:17778   */\n      not\n        /* \"#utility.yul\":17764:17769   */\n      dup5\n        /* \"#utility.yul\":17761:17762   */\n      0x08\n        /* \"#utility.yul\":17757:17770   */\n      mul\n        /* \"#utility.yul\":17728:17779   */\n      tag_233\n      jump\t// in\n    tag_425:\n        /* \"#utility.yul\":17724:17780   */\n      not\n        /* \"#utility.yul\":17809:17813   */\n      dup1\n        /* \"#utility.yul\":17803:17807   */\n      dup4\n        /* \"#utility.yul\":17799:17814   */\n      and\n        /* \"#utility.yul\":17789:17814   */\n      swap2\n      pop\n        /* \"#utility.yul\":17702:17820   */\n      pop\n        /* \"#utility.yul\":17651:17820   */\n      swap3\n      swap2\n      pop\n      pop\n      jump\t// out\n        /* \"#utility.yul\":17825:18120   */\n    tag_235:\n        /* \"#utility.yul\":17901:17905   */\n      0x00\n        /* \"#utility.yul\":18047:18076   */\n      tag_427\n        /* \"#utility.yul\":18072:18075   */\n      dup4\n        /* \"#utility.yul\":18066:18070   */\n      dup4\n        /* \"#utility.yul\":18047:18076   */\n      tag_234\n      jump\t// in\n    tag_427:\n        /* \"#utility.yul\":18039:18076   */\n      swap2\n      pop\n        /* \"#utility.yul\":18109:18112   */\n      dup3\n        /* \"#utility.yul\":18106:18107   */\n      0x02\n        /* \"#utility.yul\":18102:18113   */\n      mul\n        /* \"#utility.yul\":18096:18100   */\n      dup3\n        /* \"#utility.yul\":18093:18114   */\n      or\n        /* \"#utility.yul\":18085:18114   */\n      swap1\n      pop\n        /* \"#utility.yul\":17825:18120   */\n      swap3\n      swap2\n      pop\n      pop\n      jump\t// out\n        /* \"#utility.yul\":18125:19576   */\n    tag_101:\n        /* \"#utility.yul\":18236:18239   */\n      dup2\n        /* \"#utility.yul\":18230:18234   */\n      dup2\n        /* \"#utility.yul\":18227:18240   */\n      sub\n        /* \"#utility.yul\":18224:18250   */\n      tag_429\n      jumpi\n        /* \"#utility.yul\":18243:18248   */\n      pop\n      pop\n      jump(tag_428)\n        /* \"#utility.yul\":18224:18250   */\n    tag_429:\n        /* \"#utility.yul\":18274:18308   */\n      tag_430\n        /* \"#utility.yul\":18304:18307   */\n      dup3\n        /* \"#utility.yul\":18274:18308   */\n      tag_220\n      jump\t// in\n    tag_430:\n        /* \"#utility.yul\":18373:18391   */\n      0xffffffffffffffff\n        /* \"#utility.yul\":18365:18371   */\n      dup2\n        /* \"#utility.yul\":18362:18392   */\n      gt\n        /* \"#utility.yul\":18359:18415   */\n      iszero\n      tag_431\n      jumpi\n        /* \"#utility.yul\":18395:18413   */\n      tag_432\n      tag_204\n      jump\t// in\n    tag_432:\n        /* \"#utility.yul\":18359:18415   */\n    tag_431:\n        /* \"#utility.yul\":18439:18477   */\n      tag_433\n        /* \"#utility.yul\":18471:18475   */\n      dup3\n        /* \"#utility.yul\":18465:18476   */\n      sload\n        /* \"#utility.yul\":18439:18477   */\n      tag_65\n      jump\t// in\n    tag_433:\n        /* \"#utility.yul\":18524:18591   */\n      tag_434\n        /* \"#utility.yul\":18584:18590   */\n      dup3\n        /* \"#utility.yul\":18576:18582   */\n      dup3\n        /* \"#utility.yul\":18570:18574   */\n      dup6\n        /* \"#utility.yul\":18524:18591   */\n      tag_232\n      jump\t// in\n    tag_434:\n        /* \"#utility.yul\":18618:18619   */\n      0x00\n        /* \"#utility.yul\":18647:18649   */\n      0x1f\n        /* \"#utility.yul\":18639:18645   */\n      dup4\n        /* \"#utility.yul\":18636:18650   */\n      gt\n        /* \"#utility.yul\":18664:18665   */\n      0x01\n        /* \"#utility.yul\":18659:19331   */\n      dup2\n      eq\n      tag_436\n      jumpi\n        /* \"#utility.yul\":19375:19376   */\n      0x00\n        /* \"#utility.yul\":19392:19398   */\n      dup5\n        /* \"#utility.yul\":19389:19466   */\n      iszero\n      tag_437\n      jumpi\n        /* \"#utility.yul\":19441:19450   */\n      dup3\n        /* \"#utility.yul\":19436:19439   */\n      dup8\n        /* \"#utility.yul\":19432:19451   */\n      add\n        /* \"#utility.yul\":19426:19452   */\n      sload\n        /* \"#utility.yul\":19417:19452   */\n      swap1\n      pop\n        /* \"#utility.yul\":19389:19466   */\n    tag_437:\n        /* \"#utility.yul\":19492:19559   */\n      tag_438\n        /* \"#utility.yul\":19552:19558   */\n      dup6\n        /* \"#utility.yul\":19545:19550   */\n      dup3\n        /* \"#utility.yul\":19492:19559   */\n      tag_235\n      jump\t// in\n    tag_438:\n        /* \"#utility.yul\":19486:19490   */\n      dup7\n        /* \"#utility.yul\":19479:19560   */\n      sstore\n        /* \"#utility.yul\":19348:19570   */\n      pop\n        /* \"#utility.yul\":18629:19570   */\n      jump(tag_435)\n        /* \"#utility.yul\":18659:19331   */\n    tag_436:\n        /* \"#utility.yul\":18711:18715   */\n      0x1f\n        /* \"#utility.yul\":18707:18716   */\n      not\n        /* \"#utility.yul\":18699:18705   */\n      dup5\n        /* \"#utility.yul\":18695:18717   */\n      and\n        /* \"#utility.yul\":18737:18773   */\n      tag_439\n        /* \"#utility.yul\":18769:18772   */\n      dup8\n        /* \"#utility.yul\":18737:18773   */\n      tag_221\n      jump\t// in\n    tag_439:\n        /* \"#utility.yul\":18730:18773   */\n      swap7\n      pop\n        /* \"#utility.yul\":18800:18837   */\n      tag_440\n        /* \"#utility.yul\":18832:18836   */\n      dup7\n        /* \"#utility.yul\":18800:18837   */\n      tag_221\n      jump\t// in\n    tag_440:\n        /* \"#utility.yul\":18859:18860   */\n      0x00\n        /* \"#utility.yul\":18873:19080   */\n    tag_441:\n        /* \"#utility.yul\":18887:18894   */\n      dup3\n        /* \"#utility.yul\":18884:18885   */\n      dup2\n        /* \"#utility.yul\":18881:18895   */\n      lt\n        /* \"#utility.yul\":18873:19080   */\n      iszero\n      tag_443\n      jumpi\n        /* \"#utility.yul\":18966:18975   */\n      dup5\n        /* \"#utility.yul\":18961:18964   */\n      dup10\n        /* \"#utility.yul\":18957:18976   */\n      add\n        /* \"#utility.yul\":18951:18977   */\n      sload\n        /* \"#utility.yul\":18943:18949   */\n      dup3\n        /* \"#utility.yul\":18936:18978   */\n      sstore\n        /* \"#utility.yul\":19017:19018   */\n      0x01\n        /* \"#utility.yul\":19009:19015   */\n      dup3\n        /* \"#utility.yul\":19005:19019   */\n      add\n        /* \"#utility.yul\":18995:19019   */\n      swap2\n      pop\n        /* \"#utility.yul\":19064:19065   */\n      0x01\n        /* \"#utility.yul\":19053:19062   */\n      dup6\n        /* \"#utility.yul\":19049:19066   */\n      add\n        /* \"#utility.yul\":19036:19066   */\n      swap5\n      pop\n        /* \"#utility.yul\":18910:18914   */\n      0x20\n        /* \"#utility.yul\":18907:18908   */\n      dup2\n        /* \"#utility.yul\":18903:18915   */\n      add\n        /* \"#utility.yul\":18898:18915   */\n      swap1\n      pop\n        /* \"#utility.yul\":18873:19080   */\n      jump(tag_441)\n    tag_443:\n        /* \"#utility.yul\":19108:19114   */\n      dup7\n        /* \"#utility.yul\":19099:19106   */\n      dup4\n        /* \"#utility.yul\":19096:19115   */\n      lt\n        /* \"#utility.yul\":19093:19272   */\n      iszero\n      tag_444\n      jumpi\n        /* \"#utility.yul\":19166:19175   */\n      dup5\n        /* \"#utility.yul\":19161:19164   */\n      dup10\n        /* \"#utility.yul\":19157:19176   */\n      add\n        /* \"#utility.yul\":19151:19177   */\n      sload\n        /* \"#utility.yul\":19209:19257   */\n      tag_445\n        /* \"#utility.yul\":19251:19255   */\n      0x1f\n        /* \"#utility.yul\":19243:19249   */\n      dup10\n        /* \"#utility.yul\":19239:19256   */\n      and\n        /* \"#utility.yul\":19228:19237   */\n      dup3\n        /* \"#utility.yul\":19209:19257   */\n      tag_234\n      jump\t// in\n    tag_445:\n        /* \"#utility.yul\":19201:19207   */\n      dup4\n        /* \"#utility.yul\":19194:19258   */\n      sstore\n        /* \"#utility.yul\":19116:19272   */\n      pop\n        /* \"#utility.yul\":19093:19272   */\n    tag_444:\n        /* \"#utility.yul\":19318:19319   */\n      0x01\n        /* \"#utility.yul\":19314:19315   */\n      0x02\n        /* \"#utility.yul\":19306:19312   */\n      dup9\n        /* \"#utility.yul\":19302:19316   */\n      mul\n        /* \"#utility.yul\":19298:19320   */\n      add\n        /* \"#utility.yul\":19292:19296   */\n      dup9\n        /* \"#utility.yul\":19285:19321   */\n      sstore\n        /* \"#utility.yul\":18666:19331   */\n      pop\n      pop\n      pop\n        /* \"#utility.yul\":18629:19570   */\n    tag_435:\n      pop\n        /* \"#utility.yul\":18214:19576   */\n      pop\n      pop\n      pop\n        /* \"#utility.yul\":18125:19576   */\n      pop\n      pop\n    tag_428:\n      jump\t// out\n        /* \"#utility.yul\":19582:19762   */\n    tag_106:\n        /* \"#utility.yul\":19630:19707   */\n      0x4e487b7100000000000000000000000000000000000000000000000000000000\n        /* \"#utility.yul\":19627:19628   */\n      0x00\n        /* \"#utility.yul\":19620:19708   */\n      mstore\n        /* \"#utility.yul\":19727:19731   */\n      0x31\n        /* \"#utility.yul\":19724:19725   */\n      0x04\n        /* \"#utility.yul\":19717:19732   */\n      mstore\n        /* \"#utility.yul\":19751:19755   */\n      0x24\n        /* \"#utility.yul\":19748:19749   */\n      0x00\n        /* \"#utility.yul\":19741:19756   */\n      revert\n        /* \"#utility.yul\":19768:21163   */\n    tag_121:\n        /* \"#utility.yul\":19885:19922   */\n      tag_448\n        /* \"#utility.yul\":19918:19921   */\n      dup3\n        /* \"#utility.yul\":19885:19922   */\n      tag_178\n      jump\t// in\n    tag_448:\n        /* \"#utility.yul\":19987:20005   */\n      0xffffffffffffffff\n        /* \"#utility.yul\":19979:19985   */\n      dup2\n        /* \"#utility.yul\":19976:20006   */\n      gt\n        /* \"#utility.yul\":19973:20029   */\n      iszero\n      tag_449\n      jumpi\n        /* \"#utility.yul\":20009:20027   */\n      tag_450\n      tag_204\n      jump\t// in\n    tag_450:\n        /* \"#utility.yul\":19973:20029   */\n    tag_449:\n        /* \"#utility.yul\":20053:20091   */\n      tag_451\n        /* \"#utility.yul\":20085:20089   */\n      dup3\n        /* \"#utility.yul\":20079:20090   */\n      sload\n        /* \"#utility.yul\":20053:20091   */\n      tag_65\n      jump\t// in\n    tag_451:\n        /* \"#utility.yul\":20138:20205   */\n      tag_452\n        /* \"#utility.yul\":20198:20204   */\n      dup3\n        /* \"#utility.yul\":20190:20196   */\n      dup3\n        /* \"#utility.yul\":20184:20188   */\n      dup6\n        /* \"#utility.yul\":20138:20205   */\n      tag_232\n      jump\t// in\n    tag_452:\n        /* \"#utility.yul\":20232:20233   */\n      0x00\n        /* \"#utility.yul\":20256:20260   */\n      0x20\n        /* \"#utility.yul\":20243:20260   */\n      swap1\n      pop\n        /* \"#utility.yul\":20288:20290   */\n      0x1f\n        /* \"#utility.yul\":20280:20286   */\n      dup4\n        /* \"#utility.yul\":20277:20291   */\n      gt\n        /* \"#utility.yul\":20305:20306   */\n      0x01\n        /* \"#utility.yul\":20300:20918   */\n      dup2\n      eq\n      tag_454\n      jumpi\n        /* \"#utility.yul\":20962:20963   */\n      0x00\n        /* \"#utility.yul\":20979:20985   */\n      dup5\n        /* \"#utility.yul\":20976:21053   */\n      iszero\n      tag_455\n      jumpi\n        /* \"#utility.yul\":21028:21037   */\n      dup3\n        /* \"#utility.yul\":21023:21026   */\n      dup8\n        /* \"#utility.yul\":21019:21038   */\n      add\n        /* \"#utility.yul\":21013:21039   */\n      mload\n        /* \"#utility.yul\":21004:21039   */\n      swap1\n      pop\n        /* \"#utility.yul\":20976:21053   */\n    tag_455:\n        /* \"#utility.yul\":21079:21146   */\n      tag_456\n        /* \"#utility.yul\":21139:21145   */\n      dup6\n        /* \"#utility.yul\":21132:21137   */\n      dup3\n        /* \"#utility.yul\":21079:21146   */\n      tag_235\n      jump\t// in\n    tag_456:\n        /* \"#utility.yul\":21073:21077   */\n      dup7\n        /* \"#utility.yul\":21066:21147   */\n      sstore\n        /* \"#utility.yul\":20935:21157   */\n      pop\n        /* \"#utility.yul\":20270:21157   */\n      jump(tag_453)\n        /* \"#utility.yul\":20300:20918   */\n    tag_454:\n        /* \"#utility.yul\":20352:20356   */\n      0x1f\n        /* \"#utility.yul\":20348:20357   */\n      not\n        /* \"#utility.yul\":20340:20346   */\n      dup5\n        /* \"#utility.yul\":20336:20358   */\n      and\n        /* \"#utility.yul\":20386:20423   */\n      tag_457\n        /* \"#utility.yul\":20418:20422   */\n      dup7\n        /* \"#utility.yul\":20386:20423   */\n      tag_221\n      jump\t// in\n    tag_457:\n        /* \"#utility.yul\":20445:20446   */\n      0x00\n        /* \"#utility.yul\":20459:20667   */\n    tag_458:\n        /* \"#utility.yul\":20473:20480   */\n      dup3\n        /* \"#utility.yul\":20470:20471   */\n      dup2\n        /* \"#utility.yul\":20467:20481   */\n      lt\n        /* \"#utility.yul\":20459:20667   */\n      iszero\n      tag_460\n      jumpi\n        /* \"#utility.yul\":20552:20561   */\n      dup5\n        /* \"#utility.yul\":20547:20550   */\n      dup10\n        /* \"#utility.yul\":20543:20562   */\n      add\n        /* \"#utility.yul\":20537:20563   */\n      mload\n        /* \"#utility.yul\":20529:20535   */\n      dup3\n        /* \"#utility.yul\":20522:20564   */\n      sstore\n        /* \"#utility.yul\":20603:20604   */\n      0x01\n        /* \"#utility.yul\":20595:20601   */\n      dup3\n        /* \"#utility.yul\":20591:20605   */\n      add\n        /* \"#utility.yul\":20581:20605   */\n      swap2\n      pop\n        /* \"#utility.yul\":20650:20652   */\n      0x20\n        /* \"#utility.yul\":20639:20648   */\n      dup6\n        /* \"#utility.yul\":20635:20653   */\n      add\n        /* \"#utility.yul\":20622:20653   */\n      swap5\n      pop\n        /* \"#utility.yul\":20496:20500   */\n      0x20\n        /* \"#utility.yul\":20493:20494   */\n      dup2\n        /* \"#utility.yul\":20489:20501   */\n      add\n        /* \"#utility.yul\":20484:20501   */\n      swap1\n      pop\n        /* \"#utility.yul\":20459:20667   */\n      jump(tag_458)\n    tag_460:\n        /* \"#utility.yul\":20695:20701   */\n      dup7\n        /* \"#utility.yul\":20686:20693   */\n      dup4\n        /* \"#utility.yul\":20683:20702   */\n      lt\n        /* \"#utility.yul\":20680:20859   */\n      iszero\n      tag_461\n      jumpi\n        /* \"#utility.yul\":20753:20762   */\n      dup5\n        /* \"#utility.yul\":20748:20751   */\n      dup10\n        /* \"#utility.yul\":20744:20763   */\n      add\n        /* \"#utility.yul\":20738:20764   */\n      mload\n        /* \"#utility.yul\":20796:20844   */\n      tag_462\n        /* \"#utility.yul\":20838:20842   */\n      0x1f\n        /* \"#utility.yul\":20830:20836   */\n      dup10\n        /* \"#utility.yul\":20826:20843   */\n      and\n        /* \"#utility.yul\":20815:20824   */\n      dup3\n        /* \"#utility.yul\":20796:20844   */\n      tag_234\n      jump\t// in\n    tag_462:\n        /* \"#utility.yul\":20788:20794   */\n      dup4\n        /* \"#utility.yul\":20781:20845   */\n      sstore\n        /* \"#utility.yul\":20703:20859   */\n      pop\n        /* \"#utility.yul\":20680:20859   */\n    tag_461:\n        /* \"#utility.yul\":20905:20906   */\n      0x01\n        /* \"#utility.yul\":20901:20902   */\n      0x02\n        /* \"#utility.yul\":20893:20899   */\n      dup9\n        /* \"#utility.yul\":20889:20903   */\n      mul\n        /* \"#utility.yul\":20885:20907   */\n      add\n        /* \"#utility.yul\":20879:20883   */\n      dup9\n        /* \"#utility.yul\":20872:20908   */\n      sstore\n        /* \"#utility.yul\":20307:20918   */\n      pop\n      pop\n      pop\n        /* \"#utility.yul\":20270:21157   */\n    tag_453:\n      pop\n        /* \"#utility.yul\":19860:21163   */\n      pop\n      pop\n      pop\n        /* \"#utility.yul\":19768:21163   */\n      pop\n      pop\n      jump\t// out\n        /* \"#utility.yul\":21169:21626   */\n    tag_125:\n        /* \"#utility.yul\":21327:21331   */\n      0x00\n        /* \"#utility.yul\":21365:21367   */\n      0x40\n        /* \"#utility.yul\":21354:21363   */\n      dup3\n        /* \"#utility.yul\":21350:21368   */\n      add\n        /* \"#utility.yul\":21342:21368   */\n      swap1\n      pop\n        /* \"#utility.yul\":21414:21423   */\n      dup2\n        /* \"#utility.yul\":21408:21412   */\n      dup2\n        /* \"#utility.yul\":21404:21424   */\n      sub\n        /* \"#utility.yul\":21400:21401   */\n      0x00\n        /* \"#utility.yul\":21389:21398   */\n      dup4\n        /* \"#utility.yul\":21385:21402   */\n      add\n        /* \"#utility.yul\":21378:21425   */\n      mstore\n        /* \"#utility.yul\":21442:21520   */\n      tag_464\n        /* \"#utility.yul\":21515:21519   */\n      dup2\n        /* \"#utility.yul\":21506:21512   */\n      dup6\n        /* \"#utility.yul\":21442:21520   */\n      tag_216\n      jump\t// in\n    tag_464:\n        /* \"#utility.yul\":21434:21520   */\n      swap1\n      pop\n        /* \"#utility.yul\":21530:21619   */\n      tag_465\n        /* \"#utility.yul\":21615:21617   */\n      0x20\n        /* \"#utility.yul\":21604:21613   */\n      dup4\n        /* \"#utility.yul\":21600:21618   */\n      add\n        /* \"#utility.yul\":21591:21597   */\n      dup5\n        /* \"#utility.yul\":21530:21619   */\n      tag_217\n      jump\t// in\n    tag_465:\n        /* \"#utility.yul\":21169:21626   */\n      swap4\n      swap3\n      pop\n      pop\n      pop\n      jump\t// out\n        /* \"#utility.yul\":21632:21865   */\n    tag_127:\n        /* \"#utility.yul\":21671:21674   */\n      0x00\n        /* \"#utility.yul\":21694:21718   */\n      tag_467\n        /* \"#utility.yul\":21712:21717   */\n      dup3\n        /* \"#utility.yul\":21694:21718   */\n      tag_172\n      jump\t// in\n    tag_467:\n        /* \"#utility.yul\":21685:21718   */\n      swap2\n      pop\n        /* \"#utility.yul\":21740:21806   */\n      0xffffffffffffffffffffffffffffffffffffffffffffffffffffffffffffffff\n        /* \"#utility.yul\":21733:21738   */\n      dup3\n        /* \"#utility.yul\":21730:21807   */\n      sub\n        /* \"#utility.yul\":21727:21830   */\n      tag_468\n      jumpi\n        /* \"#utility.yul\":21810:21828   */\n      tag_469\n      tag_219\n      jump\t// in\n    tag_469:\n        /* \"#utility.yul\":21727:21830   */\n    tag_468:\n        /* \"#utility.yul\":21857:21858   */\n      0x01\n        /* \"#utility.yul\":21850:21855   */\n      dup3\n        /* \"#utility.yul\":21846:21859   */\n      add\n        /* \"#utility.yul\":21839:21859   */\n      swap1\n      pop\n        /* \"#utility.yul\":21632:21865   */\n      swap2\n      swap1\n      pop\n      jump\t// out\n        /* \"#utility.yul\":21871:22127   */\n    tag_142:\n        /* \"#utility.yul\":21981:21985   */\n      0x00\n        /* \"#utility.yul\":22019:22021   */\n      0x20\n        /* \"#utility.yul\":22008:22017   */\n      dup3\n        /* \"#utility.yul\":22004:22022   */\n      add\n        /* \"#utility.yul\":21996:22022   */\n      swap1\n      pop\n        /* \"#utility.yul\":22032:22120   */\n      tag_471\n        /* \"#utility.yul\":22117:22118   */\n      0x00\n        /* \"#utility.yul\":22106:22115   */\n      dup4\n        /* \"#utility.yul\":22102:22119   */\n      add\n        /* \"#utility.yul\":22093:22099   */\n      dup5\n        /* \"#utility.yul\":22032:22120   */\n      tag_217\n      jump\t// in\n    tag_471:\n        /* \"#utility.yul\":21871:22127   */\n      swap3\n      swap2\n      pop\n      pop\n      jump\t// out\n\n    auxdata: 0xa2646970667358221220941c52ee1eb1a2f835c7ad3f5ce55d65bf2adb800f5ab98c3caf95fab63aa41c64736f6c634300081a0033\n}\n",
				"bytecode": {
					"linkReferences": {},
					"object": "608060405234801561000f575f80fd5b50335f73ffffffffffffffffffffffffffffffffffffffff168173ffffffffffffffffffffffffffffffffffffffff1603610081575f6040517f1e4fbdf70000000000000000000000000000000000000000000000000000000081526004016100789190610196565b60405180910390fd5b6100908161009660201b60201c565b506101af565b5f805f9054906101000a900473ffffffffffffffffffffffffffffffffffffffff169050815f806101000a81548173ffffffffffffffffffffffffffffffffffffffff021916908373ffffffffffffffffffffffffffffffffffffffff1602179055508173ffffffffffffffffffffffffffffffffffffffff168173ffffffffffffffffffffffffffffffffffffffff167f8be0079c531659141344cd1fd0a4f28419497f9722a3daafe3b4186f6b6457e060405160405180910390a35050565b5f73ffffffffffffffffffffffffffffffffffffffff82169050919050565b5f61018082610157565b9050919050565b61019081610176565b82525050565b5f6020820190506101a95f830184610187565b92915050565b611828806101bc5f395ff3fe608060405234801561000f575f80fd5b506004361061009c575f3560e01c8063bc97551211610064578063bc97551214610134578063cf5d7e5b14610150578063dd28d5bc1461016c578063f2fde38b14610188578063f71d96cb146101a45761009c565b8063302bcc57146100a0578063715018a6146100be5780638b5b9ccc146100c85780638da5cb5b146100e6578063bc1a97c114610104575b5f80fd5b6100a86101d8565b6040516100b59190610c91565b60405180910390f35b6100c66101de565b005b6100d06101f1565b6040516100dd9190610ee4565b60405180910390f35b6100ee610345565b6040516100fb9190610f43565b60405180910390f35b61011e60048036038101906101199190610f97565b61036c565b60405161012b9190610fd1565b60405180910390f35b61014e60048036038101906101499190610f97565b610389565b005b61016a60048036038101906101659190611139565b610610565b005b610186600480360381019061018191906111a5565b610851565b005b6101a2600480360381019061019d919061120d565b61096e565b005b6101be60048036038101906101b99190610f97565b6109f2565b6040516101cf95949392919061128f565b60405180910390f35b60035481565b6101e6610ad2565b6101ef5f610b59565b565b60606001805480602002602001604051908101604052809291908181526020015f905b8282101561033c578382905f5260205f2090600402016040518060a00160405290815f820154815260200160018201805461024e90611314565b80601f016020809104026020016040519081016040528092919081815260200182805461027a90611314565b80156102c55780601f1061029c576101008083540402835291602001916102c5565b820191905f5260205f20905b8154815290600101906020018083116102a857829003601f168201915b5050505050815260200160028201548152602001600382015f9054906101000a900460ff1660028111156102fc576102fb610d52565b5b600281111561030e5761030d610d52565b5b81526020016003820160019054906101000a900460ff16151515158152505081526020019060010190610214565b50505050905090565b5f805f9054906101000a900473ffffffffffffffffffffffffffffffffffffffff16905090565b6002602052805f5260405f205f915054906101000a900460ff1681565b610391610ad2565b60025f8281526020019081526020015f205f9054906101000a900460ff1615806103e95750600181815481106103ca576103c9611344565b5b905f5260205f20906004020160030160019054906101000a900460ff16155b15610420576040517f2a645edb00000000000000000000000000000000000000000000000000000000815260040160405180910390fd5b5f5b6001805490508110156105b757816001828154811061044457610443611344565b5b905f5260205f2090600402015f0154036105aa57600180808054905061046a919061139e565b8154811061047b5761047a611344565b5b905f5260205f2090600402016001828154811061049b5761049a611344565b5b905f5260205f2090600402015f820154815f0155600182018160010190816104c39190611583565b5060028201548160020155600382015f9054906101000a900460ff16816003015f6101000a81548160ff0219169083600281111561050457610503610d52565b5b02179055506003820160019054906101000a900460ff168160030160016101000a81548160ff021916908315150217905550905050600180548061054b5761054a611668565b5b600190038181905f5260205f2090600402015f8082015f9055600182015f6105739190610c21565b600282015f9055600382015f6101000a81549060ff02191690556003820160016101000a81549060ff0219169055505090556105b7565b8080600101915050610422565b505f60025f8381526020019081526020015f205f6101000a81548160ff021916908315150217905550807f472b3e8e7d6db01a16c1e1666261fd89c7e703b36abc2c0e7118ba8d1ad8f64e60405160405180910390a250565b610618610ad2565b5f835103610652576040517f2ef1310500000000000000000000000000000000000000000000000000000000815260040160405180910390fd5b60128210806106615750602882115b15610698576040517f4530cb7000000000000000000000000000000000000000000000000000000000815260040160405180910390fd5b60025f60035481526020019081526020015f205f9054906101000a900460ff16156106ef576040517fee45714200000000000000000000000000000000000000000000000000000000815260040160405180910390fd5b60016040518060a00160405280600354815260200185815260200184815260200183600281111561072357610722610d52565b5b815260200160011515815250908060018154018082558091505060019003905f5260205f2090600402015f909190919091505f820151815f015560208201518160010190816107729190611695565b50604082015181600201556060820151816003015f6101000a81548160ff021916908360028111156107a7576107a6610d52565b5b021790555060808201518160030160016101000a81548160ff0219169083151502179055505050600160025f60035481526020019081526020015f205f6101000a81548160ff0219169083151502179055506003547ffdbb69f4bc2a26c4265c73add57d553e91987499dc011fd3565c6e33318c5272848360405161082d929190611764565b60405180910390a260035f81548092919061084790611792565b9190505550505050565b610859610ad2565b60025f8381526020019081526020015f205f9054906101000a900460ff1615806108b157506001828154811061089257610891611344565b5b905f5260205f20906004020160030160019054906101000a900460ff16155b156108e8576040517f2a645edb00000000000000000000000000000000000000000000000000000000815260040160405180910390fd5b80600183815481106108fd576108fc611344565b5b905f5260205f2090600402016003015f6101000a81548160ff0219169083600281111561092d5761092c610d52565b5b0217905550817fc033153203c4a2bce1d3b64a994a0f1aafad144bfa669ecb28dc8fbd89b0c5168260405161096291906117d9565b60405180910390a25050565b610976610ad2565b5f73ffffffffffffffffffffffffffffffffffffffff168173ffffffffffffffffffffffffffffffffffffffff16036109e6575f6040517f1e4fbdf70000000000000000000000000000000000000000000000000000000081526004016109dd9190610f43565b60405180910390fd5b6109ef81610b59565b50565b60018181548110610a01575f80fd5b905f5260205f2090600402015f91509050805f015490806001018054610a2690611314565b80601f0160208091040260200160405190810160405280929190818152602001828054610a5290611314565b8015610a9d5780601f10610a7457610100808354040283529160200191610a9d565b820191905f5260205f20905b815481529060010190602001808311610a8057829003601f168201915b505050505090806002015490806003015f9054906101000a900460ff16908060030160019054906101000a900460ff16905085565b610ada610c1a565b73ffffffffffffffffffffffffffffffffffffffff16610af8610345565b73ffffffffffffffffffffffffffffffffffffffff1614610b5757610b1b610c1a565b6040517f118cdaa7000000000000000000000000000000000000000000000000000000008152600401610b4e9190610f43565b60405180910390fd5b565b5f805f9054906101000a900473ffffffffffffffffffffffffffffffffffffffff169050815f806101000a81548173ffffffffffffffffffffffffffffffffffffffff021916908373ffffffffffffffffffffffffffffffffffffffff1602179055508173ffffffffffffffffffffffffffffffffffffffff168173ffffffffffffffffffffffffffffffffffffffff167f8be0079c531659141344cd1fd0a4f28419497f9722a3daafe3b4186f6b6457e060405160405180910390a35050565b5f33905090565b508054610c2d90611314565b5f825580601f10610c3e5750610c5b565b601f0160209004905f5260205f2090810190610c5a9190610c5e565b5b50565b5b80821115610c75575f815f905550600101610c5f565b5090565b5f819050919050565b610c8b81610c79565b82525050565b5f602082019050610ca45f830184610c82565b92915050565b5f81519050919050565b5f82825260208201905092915050565b5f819050602082019050919050565b610cdc81610c79565b82525050565b5f81519050919050565b5f82825260208201905092915050565b8281835e5f83830152505050565b5f601f19601f8301169050919050565b5f610d2482610ce2565b610d2e8185610cec565b9350610d3e818560208601610cfc565b610d4781610d0a565b840191505092915050565b7f4e487b71000000000000000000000000000000000000000000000000000000005f52602160045260245ffd5b60038110610d9057610d8f610d52565b5b50565b5f819050610da082610d7f565b919050565b5f610daf82610d93565b9050919050565b610dbf81610da5565b82525050565b5f8115159050919050565b610dd981610dc5565b82525050565b5f60a083015f830151610df45f860182610cd3565b5060208301518482036020860152610e0c8282610d1a565b9150506040830151610e216040860182610cd3565b506060830151610e346060860182610db6565b506080830151610e476080860182610dd0565b508091505092915050565b5f610e5d8383610ddf565b905092915050565b5f602082019050919050565b5f610e7b82610caa565b610e858185610cb4565b935083602082028501610e9785610cc4565b805f5b85811015610ed25784840389528151610eb38582610e52565b9450610ebe83610e65565b925060208a01995050600181019050610e9a565b50829750879550505050505092915050565b5f6020820190508181035f830152610efc8184610e71565b905092915050565b5f73ffffffffffffffffffffffffffffffffffffffff82169050919050565b5f610f2d82610f04565b9050919050565b610f3d81610f23565b82525050565b5f602082019050610f565f830184610f34565b92915050565b5f604051905090565b5f80fd5b5f80fd5b610f7681610c79565b8114610f80575f80fd5b50565b5f81359050610f9181610f6d565b92915050565b5f60208284031215610fac57610fab610f65565b5b5f610fb984828501610f83565b91505092915050565b610fcb81610dc5565b82525050565b5f602082019050610fe45f830184610fc2565b92915050565b5f80fd5b5f80fd5b7f4e487b71000000000000000000000000000000000000000000000000000000005f52604160045260245ffd5b61102882610d0a565b810181811067ffffffffffffffff8211171561104757611046610ff2565b5b80604052505050565b5f611059610f5c565b9050611065828261101f565b919050565b5f67ffffffffffffffff82111561108457611083610ff2565b5b61108d82610d0a565b9050602081019050919050565b828183375f83830152505050565b5f6110ba6110b58461106a565b611050565b9050828152602081018484840111156110d6576110d5610fee565b5b6110e184828561109a565b509392505050565b5f82601f8301126110fd576110fc610fea565b5b813561110d8482602086016110a8565b91505092915050565b60038110611122575f80fd5b50565b5f8135905061113381611116565b92915050565b5f805f606084860312156111505761114f610f65565b5b5f84013567ffffffffffffffff81111561116d5761116c610f69565b5b611179868287016110e9565b935050602061118a86828701610f83565b925050604061119b86828701611125565b9150509250925092565b5f80604083850312156111bb576111ba610f65565b5b5f6111c885828601610f83565b92505060206111d985828601611125565b9150509250929050565b6111ec81610f23565b81146111f6575f80fd5b50565b5f81359050611207816111e3565b92915050565b5f6020828403121561122257611221610f65565b5b5f61122f848285016111f9565b91505092915050565b5f82825260208201905092915050565b5f61125282610ce2565b61125c8185611238565b935061126c818560208601610cfc565b61127581610d0a565b840191505092915050565b61128981610da5565b82525050565b5f60a0820190506112a25f830188610c82565b81810360208301526112b48187611248565b90506112c36040830186610c82565b6112d06060830185611280565b6112dd6080830184610fc2565b9695505050505050565b7f4e487b71000000000000000000000000000000000000000000000000000000005f52602260045260245ffd5b5f600282049050600182168061132b57607f821691505b60208210810361133e5761133d6112e7565b5b50919050565b7f4e487b71000000000000000000000000000000000000000000000000000000005f52603260045260245ffd5b7f4e487b71000000000000000000000000000000000000000000000000000000005f52601160045260245ffd5b5f6113a882610c79565b91506113b383610c79565b92508282039050818111156113cb576113ca611371565b5b92915050565b5f815490506113df81611314565b9050919050565b5f819050815f5260205f209050919050565b5f6020601f8301049050919050565b5f82821b905092915050565b5f600883026114427fffffffffffffffffffffffffffffffffffffffffffffffffffffffffffffffff82611407565b61144c8683611407565b95508019841693508086168417925050509392505050565b5f819050919050565b5f61148761148261147d84610c79565b611464565b610c79565b9050919050565b5f819050919050565b6114a08361146d565b6114b46114ac8261148e565b848454611413565b825550505050565b5f90565b6114c86114bc565b6114d3818484611497565b505050565b5b818110156114f6576114eb5f826114c0565b6001810190506114d9565b5050565b601f82111561153b5761150c816113e6565b611515846113f8565b81016020851015611524578190505b611538611530856113f8565b8301826114d8565b50505b505050565b5f82821c905092915050565b5f61155b5f1984600802611540565b1980831691505092915050565b5f611573838361154c565b9150826002028217905092915050565b818103611591575050611666565b61159a826113d1565b67ffffffffffffffff8111156115b3576115b2610ff2565b5b6115bd8254611314565b6115c88282856114fa565b5f601f8311600181146115f5575f84156115e3578287015490505b6115ed8582611568565b86555061165f565b601f198416611603876113e6565b965061160e866113e6565b5f5b8281101561163557848901548255600182019150600185019450602081019050611610565b86831015611652578489015461164e601f89168261154c565b8355505b6001600288020188555050505b5050505050505b565b7f4e487b71000000000000000000000000000000000000000000000000000000005f52603160045260245ffd5b61169e82610ce2565b67ffffffffffffffff8111156116b7576116b6610ff2565b5b6116c18254611314565b6116cc8282856114fa565b5f60209050601f8311600181146116fd575f84156116eb578287015190505b6116f58582611568565b86555061175c565b601f19841661170b866113e6565b5f5b828110156117325784890151825560018201915060208501945060208101905061170d565b8683101561174f578489015161174b601f89168261154c565b8355505b6001600288020188555050505b505050505050565b5f6040820190508181035f83015261177c8185611248565b905061178b6020830184611280565b9392505050565b5f61179c82610c79565b91507fffffffffffffffffffffffffffffffffffffffffffffffffffffffffffffffff82036117ce576117cd611371565b5b600182019050919050565b5f6020820190506117ec5f830184611280565b9291505056fea2646970667358221220941c52ee1eb1a2f835c7ad3f5ce55d65bf2adb800f5ab98c3caf95fab63aa41c64736f6c634300081a0033",
					"opcodes": "PUSH1 0x80 PUSH1 0x40 MSTORE CALLVALUE DUP1 ISZERO PUSH2 0xF JUMPI PUSH0 DUP1 REVERT JUMPDEST POP CALLER PUSH0 PUSH20 0xFFFFFFFFFFFFFFFFFFFFFFFFFFFFFFFFFFFFFFFF AND DUP2 PUSH20 0xFFFFFFFFFFFFFFFFFFFFFFFFFFFFFFFFFFFFFFFF AND SUB PUSH2 0x81 JUMPI PUSH0 PUSH1 0x40 MLOAD PUSH32 0x1E4FBDF700000000000000000000000000000000000000000000000000000000 DUP2 MSTORE PUSH1 0x4 ADD PUSH2 0x78 SWAP2 SWAP1 PUSH2 0x196 JUMP JUMPDEST PUSH1 0x40 MLOAD DUP1 SWAP2 SUB SWAP1 REVERT JUMPDEST PUSH2 0x90 DUP2 PUSH2 0x96 PUSH1 0x20 SHL PUSH1 0x20 SHR JUMP JUMPDEST POP PUSH2 0x1AF JUMP JUMPDEST PUSH0 DUP1 PUSH0 SWAP1 SLOAD SWAP1 PUSH2 0x100 EXP SWAP1 DIV PUSH20 0xFFFFFFFFFFFFFFFFFFFFFFFFFFFFFFFFFFFFFFFF AND SWAP1 POP DUP2 PUSH0 DUP1 PUSH2 0x100 EXP DUP2 SLOAD DUP2 PUSH20 0xFFFFFFFFFFFFFFFFFFFFFFFFFFFFFFFFFFFFFFFF MUL NOT AND SWAP1 DUP4 PUSH20 0xFFFFFFFFFFFFFFFFFFFFFFFFFFFFFFFFFFFFFFFF AND MUL OR SWAP1 SSTORE POP DUP2 PUSH20 0xFFFFFFFFFFFFFFFFFFFFFFFFFFFFFFFFFFFFFFFF AND DUP2 PUSH20 0xFFFFFFFFFFFFFFFFFFFFFFFFFFFFFFFFFFFFFFFF AND PUSH32 0x8BE0079C531659141344CD1FD0A4F28419497F9722A3DAAFE3B4186F6B6457E0 PUSH1 0x40 MLOAD PUSH1 0x40 MLOAD DUP1 SWAP2 SUB SWAP1 LOG3 POP POP JUMP JUMPDEST PUSH0 PUSH20 0xFFFFFFFFFFFFFFFFFFFFFFFFFFFFFFFFFFFFFFFF DUP3 AND SWAP1 POP SWAP2 SWAP1 POP JUMP JUMPDEST PUSH0 PUSH2 0x180 DUP3 PUSH2 0x157 JUMP JUMPDEST SWAP1 POP SWAP2 SWAP1 POP JUMP JUMPDEST PUSH2 0x190 DUP2 PUSH2 0x176 JUMP JUMPDEST DUP3 MSTORE POP POP JUMP JUMPDEST PUSH0 PUSH1 0x20 DUP3 ADD SWAP1 POP PUSH2 0x1A9 PUSH0 DUP4 ADD DUP5 PUSH2 0x187 JUMP JUMPDEST SWAP3 SWAP2 POP POP JUMP JUMPDEST PUSH2 0x1828 DUP1 PUSH2 0x1BC PUSH0 CODECOPY PUSH0 RETURN INVALID PUSH1 0x80 PUSH1 0x40 MSTORE CALLVALUE DUP1 ISZERO PUSH2 0xF JUMPI PUSH0 DUP1 REVERT JUMPDEST POP PUSH1 0x4 CALLDATASIZE LT PUSH2 0x9C JUMPI PUSH0 CALLDATALOAD PUSH1 0xE0 SHR DUP1 PUSH4 0xBC975512 GT PUSH2 0x64 JUMPI DUP1 PUSH4 0xBC975512 EQ PUSH2 0x134 JUMPI DUP1 PUSH4 0xCF5D7E5B EQ PUSH2 0x150 JUMPI DUP1 PUSH4 0xDD28D5BC EQ PUSH2 0x16C JUMPI DUP1 PUSH4 0xF2FDE38B EQ PUSH2 0x188 JUMPI DUP1 PUSH4 0xF71D96CB EQ PUSH2 0x1A4 JUMPI PUSH2 0x9C JUMP JUMPDEST DUP1 PUSH4 0x302BCC57 EQ PUSH2 0xA0 JUMPI DUP1 PUSH4 0x715018A6 EQ PUSH2 0xBE JUMPI DUP1 PUSH4 0x8B5B9CCC EQ PUSH2 0xC8 JUMPI DUP1 PUSH4 0x8DA5CB5B EQ PUSH2 0xE6 JUMPI DUP1 PUSH4 0xBC1A97C1 EQ PUSH2 0x104 JUMPI JUMPDEST PUSH0 DUP1 REVERT JUMPDEST PUSH2 0xA8 PUSH2 0x1D8 JUMP JUMPDEST PUSH1 0x40 MLOAD PUSH2 0xB5 SWAP2 SWAP1 PUSH2 0xC91 JUMP JUMPDEST PUSH1 0x40 MLOAD DUP1 SWAP2 SUB SWAP1 RETURN JUMPDEST PUSH2 0xC6 PUSH2 0x1DE JUMP JUMPDEST STOP JUMPDEST PUSH2 0xD0 PUSH2 0x1F1 JUMP JUMPDEST PUSH1 0x40 MLOAD PUSH2 0xDD SWAP2 SWAP1 PUSH2 0xEE4 JUMP JUMPDEST PUSH1 0x40 MLOAD DUP1 SWAP2 SUB SWAP1 RETURN JUMPDEST PUSH2 0xEE PUSH2 0x345 JUMP JUMPDEST PUSH1 0x40 MLOAD PUSH2 0xFB SWAP2 SWAP1 PUSH2 0xF43 JUMP JUMPDEST PUSH1 0x40 MLOAD DUP1 SWAP2 SUB SWAP1 RETURN JUMPDEST PUSH2 0x11E PUSH1 0x4 DUP1 CALLDATASIZE SUB DUP2 ADD SWAP1 PUSH2 0x119 SWAP2 SWAP1 PUSH2 0xF97 JUMP JUMPDEST PUSH2 0x36C JUMP JUMPDEST PUSH1 0x40 MLOAD PUSH2 0x12B SWAP2 SWAP1 PUSH2 0xFD1 JUMP JUMPDEST PUSH1 0x40 MLOAD DUP1 SWAP2 SUB SWAP1 RETURN JUMPDEST PUSH2 0x14E PUSH1 0x4 DUP1 CALLDATASIZE SUB DUP2 ADD SWAP1 PUSH2 0x149 SWAP2 SWAP1 PUSH2 0xF97 JUMP JUMPDEST PUSH2 0x389 JUMP JUMPDEST STOP JUMPDEST PUSH2 0x16A PUSH1 0x4 DUP1 CALLDATASIZE SUB DUP2 ADD SWAP1 PUSH2 0x165 SWAP2 SWAP1 PUSH2 0x1139 JUMP JUMPDEST PUSH2 0x610 JUMP JUMPDEST STOP JUMPDEST PUSH2 0x186 PUSH1 0x4 DUP1 CALLDATASIZE SUB DUP2 ADD SWAP1 PUSH2 0x181 SWAP2 SWAP1 PUSH2 0x11A5 JUMP JUMPDEST PUSH2 0x851 JUMP JUMPDEST STOP JUMPDEST PUSH2 0x1A2 PUSH1 0x4 DUP1 CALLDATASIZE SUB DUP2 ADD SWAP1 PUSH2 0x19D SWAP2 SWAP1 PUSH2 0x120D JUMP JUMPDEST PUSH2 0x96E JUMP JUMPDEST STOP JUMPDEST PUSH2 0x1BE PUSH1 0x4 DUP1 CALLDATASIZE SUB DUP2 ADD SWAP1 PUSH2 0x1B9 SWAP2 SWAP1 PUSH2 0xF97 JUMP JUMPDEST PUSH2 0x9F2 JUMP JUMPDEST PUSH1 0x40 MLOAD PUSH2 0x1CF SWAP6 SWAP5 SWAP4 SWAP3 SWAP2 SWAP1 PUSH2 0x128F JUMP JUMPDEST PUSH1 0x40 MLOAD DUP1 SWAP2 SUB SWAP1 RETURN JUMPDEST PUSH1 0x3 SLOAD DUP2 JUMP JUMPDEST PUSH2 0x1E6 PUSH2 0xAD2 JUMP JUMPDEST PUSH2 0x1EF PUSH0 PUSH2 0xB59 JUMP JUMPDEST JUMP JUMPDEST PUSH1 0x60 PUSH1 0x1 DUP1 SLOAD DUP1 PUSH1 0x20 MUL PUSH1 0x20 ADD PUSH1 0x40 MLOAD SWAP1 DUP2 ADD PUSH1 0x40 MSTORE DUP1 SWAP3 SWAP2 SWAP1 DUP2 DUP2 MSTORE PUSH1 0x20 ADD PUSH0 SWAP1 JUMPDEST DUP3 DUP3 LT ISZERO PUSH2 0x33C JUMPI DUP4 DUP3 SWAP1 PUSH0 MSTORE PUSH1 0x20 PUSH0 KECCAK256 SWAP1 PUSH1 0x4 MUL ADD PUSH1 0x40 MLOAD DUP1 PUSH1 0xA0 ADD PUSH1 0x40 MSTORE SWAP1 DUP2 PUSH0 DUP3 ADD SLOAD DUP2 MSTORE PUSH1 0x20 ADD PUSH1 0x1 DUP3 ADD DUP1 SLOAD PUSH2 0x24E SWAP1 PUSH2 0x1314 JUMP JUMPDEST DUP1 PUSH1 0x1F ADD PUSH1 0x20 DUP1 SWAP2 DIV MUL PUSH1 0x20 ADD PUSH1 0x40 MLOAD SWAP1 DUP2 ADD PUSH1 0x40 MSTORE DUP1 SWAP3 SWAP2 SWAP1 DUP2 DUP2 MSTORE PUSH1 0x20 ADD DUP3 DUP1 SLOAD PUSH2 0x27A SWAP1 PUSH2 0x1314 JUMP JUMPDEST DUP1 ISZERO PUSH2 0x2C5 JUMPI DUP1 PUSH1 0x1F LT PUSH2 0x29C JUMPI PUSH2 0x100 DUP1 DUP4 SLOAD DIV MUL DUP4 MSTORE SWAP2 PUSH1 0x20 ADD SWAP2 PUSH2 0x2C5 JUMP JUMPDEST DUP3 ADD SWAP2 SWAP1 PUSH0 MSTORE PUSH1 0x20 PUSH0 KECCAK256 SWAP1 JUMPDEST DUP2 SLOAD DUP2 MSTORE SWAP1 PUSH1 0x1 ADD SWAP1 PUSH1 0x20 ADD DUP1 DUP4 GT PUSH2 0x2A8 JUMPI DUP3 SWAP1 SUB PUSH1 0x1F AND DUP3 ADD SWAP2 JUMPDEST POP POP POP POP POP DUP2 MSTORE PUSH1 0x20 ADD PUSH1 0x2 DUP3 ADD SLOAD DUP2 MSTORE PUSH1 0x20 ADD PUSH1 0x3 DUP3 ADD PUSH0 SWAP1 SLOAD SWAP1 PUSH2 0x100 EXP SWAP1 DIV PUSH1 0xFF AND PUSH1 0x2 DUP2 GT ISZERO PUSH2 0x2FC JUMPI PUSH2 0x2FB PUSH2 0xD52 JUMP JUMPDEST JUMPDEST PUSH1 0x2 DUP2 GT ISZERO PUSH2 0x30E JUMPI PUSH2 0x30D PUSH2 0xD52 JUMP JUMPDEST JUMPDEST DUP2 MSTORE PUSH1 0x20 ADD PUSH1 0x3 DUP3 ADD PUSH1 0x1 SWAP1 SLOAD SWAP1 PUSH2 0x100 EXP SWAP1 DIV PUSH1 0xFF AND ISZERO ISZERO ISZERO ISZERO DUP2 MSTORE POP POP DUP2 MSTORE PUSH1 0x20 ADD SWAP1 PUSH1 0x1 ADD SWAP1 PUSH2 0x214 JUMP JUMPDEST POP POP POP POP SWAP1 POP SWAP1 JUMP JUMPDEST PUSH0 DUP1 PUSH0 SWAP1 SLOAD SWAP1 PUSH2 0x100 EXP SWAP1 DIV PUSH20 0xFFFFFFFFFFFFFFFFFFFFFFFFFFFFFFFFFFFFFFFF AND SWAP1 POP SWAP1 JUMP JUMPDEST PUSH1 0x2 PUSH1 0x20 MSTORE DUP1 PUSH0 MSTORE PUSH1 0x40 PUSH0 KECCAK256 PUSH0 SWAP2 POP SLOAD SWAP1 PUSH2 0x100 EXP SWAP1 DIV PUSH1 0xFF AND DUP2 JUMP JUMPDEST PUSH2 0x391 PUSH2 0xAD2 JUMP JUMPDEST PUSH1 0x2 PUSH0 DUP3 DUP2 MSTORE PUSH1 0x20 ADD SWAP1 DUP2 MSTORE PUSH1 0x20 ADD PUSH0 KECCAK256 PUSH0 SWAP1 SLOAD SWAP1 PUSH2 0x100 EXP SWAP1 DIV PUSH1 0xFF AND ISZERO DUP1 PUSH2 0x3E9 JUMPI POP PUSH1 0x1 DUP2 DUP2 SLOAD DUP2 LT PUSH2 0x3CA JUMPI PUSH2 0x3C9 PUSH2 0x1344 JUMP JUMPDEST JUMPDEST SWAP1 PUSH0 MSTORE PUSH1 0x20 PUSH0 KECCAK256 SWAP1 PUSH1 0x4 MUL ADD PUSH1 0x3 ADD PUSH1 0x1 SWAP1 SLOAD SWAP1 PUSH2 0x100 EXP SWAP1 DIV PUSH1 0xFF AND ISZERO JUMPDEST ISZERO PUSH2 0x420 JUMPI PUSH1 0x40 MLOAD PUSH32 0x2A645EDB00000000000000000000000000000000000000000000000000000000 DUP2 MSTORE PUSH1 0x4 ADD PUSH1 0x40 MLOAD DUP1 SWAP2 SUB SWAP1 REVERT JUMPDEST PUSH0 JUMPDEST PUSH1 0x1 DUP1 SLOAD SWAP1 POP DUP2 LT ISZERO PUSH2 0x5B7 JUMPI DUP2 PUSH1 0x1 DUP3 DUP2 SLOAD DUP2 LT PUSH2 0x444 JUMPI PUSH2 0x443 PUSH2 0x1344 JUMP JUMPDEST JUMPDEST SWAP1 PUSH0 MSTORE PUSH1 0x20 PUSH0 KECCAK256 SWAP1 PUSH1 0x4 MUL ADD PUSH0 ADD SLOAD SUB PUSH2 0x5AA JUMPI PUSH1 0x1 DUP1 DUP1 DUP1 SLOAD SWAP1 POP PUSH2 0x46A SWAP2 SWAP1 PUSH2 0x139E JUMP JUMPDEST DUP2 SLOAD DUP2 LT PUSH2 0x47B JUMPI PUSH2 0x47A PUSH2 0x1344 JUMP JUMPDEST JUMPDEST SWAP1 PUSH0 MSTORE PUSH1 0x20 PUSH0 KECCAK256 SWAP1 PUSH1 0x4 MUL ADD PUSH1 0x1 DUP3 DUP2 SLOAD DUP2 LT PUSH2 0x49B JUMPI PUSH2 0x49A PUSH2 0x1344 JUMP JUMPDEST JUMPDEST SWAP1 PUSH0 MSTORE PUSH1 0x20 PUSH0 KECCAK256 SWAP1 PUSH1 0x4 MUL ADD PUSH0 DUP3 ADD SLOAD DUP2 PUSH0 ADD SSTORE PUSH1 0x1 DUP3 ADD DUP2 PUSH1 0x1 ADD SWAP1 DUP2 PUSH2 0x4C3 SWAP2 SWAP1 PUSH2 0x1583 JUMP JUMPDEST POP PUSH1 0x2 DUP3 ADD SLOAD DUP2 PUSH1 0x2 ADD SSTORE PUSH1 0x3 DUP3 ADD PUSH0 SWAP1 SLOAD SWAP1 PUSH2 0x100 EXP SWAP1 DIV PUSH1 0xFF AND DUP2 PUSH1 0x3 ADD PUSH0 PUSH2 0x100 EXP DUP2 SLOAD DUP2 PUSH1 0xFF MUL NOT AND SWAP1 DUP4 PUSH1 0x2 DUP2 GT ISZERO PUSH2 0x504 JUMPI PUSH2 0x503 PUSH2 0xD52 JUMP JUMPDEST JUMPDEST MUL OR SWAP1 SSTORE POP PUSH1 0x3 DUP3 ADD PUSH1 0x1 SWAP1 SLOAD SWAP1 PUSH2 0x100 EXP SWAP1 DIV PUSH1 0xFF AND DUP2 PUSH1 0x3 ADD PUSH1 0x1 PUSH2 0x100 EXP DUP2 SLOAD DUP2 PUSH1 0xFF MUL NOT AND SWAP1 DUP4 ISZERO ISZERO MUL OR SWAP1 SSTORE POP SWAP1 POP POP PUSH1 0x1 DUP1 SLOAD DUP1 PUSH2 0x54B JUMPI PUSH2 0x54A PUSH2 0x1668 JUMP JUMPDEST JUMPDEST PUSH1 0x1 SWAP1 SUB DUP2 DUP2 SWAP1 PUSH0 MSTORE PUSH1 0x20 PUSH0 KECCAK256 SWAP1 PUSH1 0x4 MUL ADD PUSH0 DUP1 DUP3 ADD PUSH0 SWAP1 SSTORE PUSH1 0x1 DUP3 ADD PUSH0 PUSH2 0x573 SWAP2 SWAP1 PUSH2 0xC21 JUMP JUMPDEST PUSH1 0x2 DUP3 ADD PUSH0 SWAP1 SSTORE PUSH1 0x3 DUP3 ADD PUSH0 PUSH2 0x100 EXP DUP2 SLOAD SWAP1 PUSH1 0xFF MUL NOT AND SWAP1 SSTORE PUSH1 0x3 DUP3 ADD PUSH1 0x1 PUSH2 0x100 EXP DUP2 SLOAD SWAP1 PUSH1 0xFF MUL NOT AND SWAP1 SSTORE POP POP SWAP1 SSTORE PUSH2 0x5B7 JUMP JUMPDEST DUP1 DUP1 PUSH1 0x1 ADD SWAP2 POP POP PUSH2 0x422 JUMP JUMPDEST POP PUSH0 PUSH1 0x2 PUSH0 DUP4 DUP2 MSTORE PUSH1 0x20 ADD SWAP1 DUP2 MSTORE PUSH1 0x20 ADD PUSH0 KECCAK256 PUSH0 PUSH2 0x100 EXP DUP2 SLOAD DUP2 PUSH1 0xFF MUL NOT AND SWAP1 DUP4 ISZERO ISZERO MUL OR SWAP1 SSTORE POP DUP1 PUSH32 0x472B3E8E7D6DB01A16C1E1666261FD89C7E703B36ABC2C0E7118BA8D1AD8F64E PUSH1 0x40 MLOAD PUSH1 0x40 MLOAD DUP1 SWAP2 SUB SWAP1 LOG2 POP JUMP JUMPDEST PUSH2 0x618 PUSH2 0xAD2 JUMP JUMPDEST PUSH0 DUP4 MLOAD SUB PUSH2 0x652 JUMPI PUSH1 0x40 MLOAD PUSH32 0x2EF1310500000000000000000000000000000000000000000000000000000000 DUP2 MSTORE PUSH1 0x4 ADD PUSH1 0x40 MLOAD DUP1 SWAP2 SUB SWAP1 REVERT JUMPDEST PUSH1 0x12 DUP3 LT DUP1 PUSH2 0x661 JUMPI POP PUSH1 0x28 DUP3 GT JUMPDEST ISZERO PUSH2 0x698 JUMPI PUSH1 0x40 MLOAD PUSH32 0x4530CB7000000000000000000000000000000000000000000000000000000000 DUP2 MSTORE PUSH1 0x4 ADD PUSH1 0x40 MLOAD DUP1 SWAP2 SUB SWAP1 REVERT JUMPDEST PUSH1 0x2 PUSH0 PUSH1 0x3 SLOAD DUP2 MSTORE PUSH1 0x20 ADD SWAP1 DUP2 MSTORE PUSH1 0x20 ADD PUSH0 KECCAK256 PUSH0 SWAP1 SLOAD SWAP1 PUSH2 0x100 EXP SWAP1 DIV PUSH1 0xFF AND ISZERO PUSH2 0x6EF JUMPI PUSH1 0x40 MLOAD PUSH32 0xEE45714200000000000000000000000000000000000000000000000000000000 DUP2 MSTORE PUSH1 0x4 ADD PUSH1 0x40 MLOAD DUP1 SWAP2 SUB SWAP1 REVERT JUMPDEST PUSH1 0x1 PUSH1 0x40 MLOAD DUP1 PUSH1 0xA0 ADD PUSH1 0x40 MSTORE DUP1 PUSH1 0x3 SLOAD DUP2 MSTORE PUSH1 0x20 ADD DUP6 DUP2 MSTORE PUSH1 0x20 ADD DUP5 DUP2 MSTORE PUSH1 0x20 ADD DUP4 PUSH1 0x2 DUP2 GT ISZERO PUSH2 0x723 JUMPI PUSH2 0x722 PUSH2 0xD52 JUMP JUMPDEST JUMPDEST DUP2 MSTORE PUSH1 0x20 ADD PUSH1 0x1 ISZERO ISZERO DUP2 MSTORE POP SWAP1 DUP1 PUSH1 0x1 DUP2 SLOAD ADD DUP1 DUP3 SSTORE DUP1 SWAP2 POP POP PUSH1 0x1 SWAP1 SUB SWAP1 PUSH0 MSTORE PUSH1 0x20 PUSH0 KECCAK256 SWAP1 PUSH1 0x4 MUL ADD PUSH0 SWAP1 SWAP2 SWAP1 SWAP2 SWAP1 SWAP2 POP PUSH0 DUP3 ADD MLOAD DUP2 PUSH0 ADD SSTORE PUSH1 0x20 DUP3 ADD MLOAD DUP2 PUSH1 0x1 ADD SWAP1 DUP2 PUSH2 0x772 SWAP2 SWAP1 PUSH2 0x1695 JUMP JUMPDEST POP PUSH1 0x40 DUP3 ADD MLOAD DUP2 PUSH1 0x2 ADD SSTORE PUSH1 0x60 DUP3 ADD MLOAD DUP2 PUSH1 0x3 ADD PUSH0 PUSH2 0x100 EXP DUP2 SLOAD DUP2 PUSH1 0xFF MUL NOT AND SWAP1 DUP4 PUSH1 0x2 DUP2 GT ISZERO PUSH2 0x7A7 JUMPI PUSH2 0x7A6 PUSH2 0xD52 JUMP JUMPDEST JUMPDEST MUL OR SWAP1 SSTORE POP PUSH1 0x80 DUP3 ADD MLOAD DUP2 PUSH1 0x3 ADD PUSH1 0x1 PUSH2 0x100 EXP DUP2 SLOAD DUP2 PUSH1 0xFF MUL NOT AND SWAP1 DUP4 ISZERO ISZERO MUL OR SWAP1 SSTORE POP POP POP PUSH1 0x1 PUSH1 0x2 PUSH0 PUSH1 0x3 SLOAD DUP2 MSTORE PUSH1 0x20 ADD SWAP1 DUP2 MSTORE PUSH1 0x20 ADD PUSH0 KECCAK256 PUSH0 PUSH2 0x100 EXP DUP2 SLOAD DUP2 PUSH1 0xFF MUL NOT AND SWAP1 DUP4 ISZERO ISZERO MUL OR SWAP1 SSTORE POP PUSH1 0x3 SLOAD PUSH32 0xFDBB69F4BC2A26C4265C73ADD57D553E91987499DC011FD3565C6E33318C5272 DUP5 DUP4 PUSH1 0x40 MLOAD PUSH2 0x82D SWAP3 SWAP2 SWAP1 PUSH2 0x1764 JUMP JUMPDEST PUSH1 0x40 MLOAD DUP1 SWAP2 SUB SWAP1 LOG2 PUSH1 0x3 PUSH0 DUP2 SLOAD DUP1 SWAP3 SWAP2 SWAP1 PUSH2 0x847 SWAP1 PUSH2 0x1792 JUMP JUMPDEST SWAP2 SWAP1 POP SSTORE POP POP POP POP JUMP JUMPDEST PUSH2 0x859 PUSH2 0xAD2 JUMP JUMPDEST PUSH1 0x2 PUSH0 DUP4 DUP2 MSTORE PUSH1 0x20 ADD SWAP1 DUP2 MSTORE PUSH1 0x20 ADD PUSH0 KECCAK256 PUSH0 SWAP1 SLOAD SWAP1 PUSH2 0x100 EXP SWAP1 DIV PUSH1 0xFF AND ISZERO DUP1 PUSH2 0x8B1 JUMPI POP PUSH1 0x1 DUP3 DUP2 SLOAD DUP2 LT PUSH2 0x892 JUMPI PUSH2 0x891 PUSH2 0x1344 JUMP JUMPDEST JUMPDEST SWAP1 PUSH0 MSTORE PUSH1 0x20 PUSH0 KECCAK256 SWAP1 PUSH1 0x4 MUL ADD PUSH1 0x3 ADD PUSH1 0x1 SWAP1 SLOAD SWAP1 PUSH2 0x100 EXP SWAP1 DIV PUSH1 0xFF AND ISZERO JUMPDEST ISZERO PUSH2 0x8E8 JUMPI PUSH1 0x40 MLOAD PUSH32 0x2A645EDB00000000000000000000000000000000000000000000000000000000 DUP2 MSTORE PUSH1 0x4 ADD PUSH1 0x40 MLOAD DUP1 SWAP2 SUB SWAP1 REVERT JUMPDEST DUP1 PUSH1 0x1 DUP4 DUP2 SLOAD DUP2 LT PUSH2 0x8FD JUMPI PUSH2 0x8FC PUSH2 0x1344 JUMP JUMPDEST JUMPDEST SWAP1 PUSH0 MSTORE PUSH1 0x20 PUSH0 KECCAK256 SWAP1 PUSH1 0x4 MUL ADD PUSH1 0x3 ADD PUSH0 PUSH2 0x100 EXP DUP2 SLOAD DUP2 PUSH1 0xFF MUL NOT AND SWAP1 DUP4 PUSH1 0x2 DUP2 GT ISZERO PUSH2 0x92D JUMPI PUSH2 0x92C PUSH2 0xD52 JUMP JUMPDEST JUMPDEST MUL OR SWAP1 SSTORE POP DUP2 PUSH32 0xC033153203C4A2BCE1D3B64A994A0F1AAFAD144BFA669ECB28DC8FBD89B0C516 DUP3 PUSH1 0x40 MLOAD PUSH2 0x962 SWAP2 SWAP1 PUSH2 0x17D9 JUMP JUMPDEST PUSH1 0x40 MLOAD DUP1 SWAP2 SUB SWAP1 LOG2 POP POP JUMP JUMPDEST PUSH2 0x976 PUSH2 0xAD2 JUMP JUMPDEST PUSH0 PUSH20 0xFFFFFFFFFFFFFFFFFFFFFFFFFFFFFFFFFFFFFFFF AND DUP2 PUSH20 0xFFFFFFFFFFFFFFFFFFFFFFFFFFFFFFFFFFFFFFFF AND SUB PUSH2 0x9E6 JUMPI PUSH0 PUSH1 0x40 MLOAD PUSH32 0x1E4FBDF700000000000000000000000000000000000000000000000000000000 DUP2 MSTORE PUSH1 0x4 ADD PUSH2 0x9DD SWAP2 SWAP1 PUSH2 0xF43 JUMP JUMPDEST PUSH1 0x40 MLOAD DUP1 SWAP2 SUB SWAP1 REVERT JUMPDEST PUSH2 0x9EF DUP2 PUSH2 0xB59 JUMP JUMPDEST POP JUMP JUMPDEST PUSH1 0x1 DUP2 DUP2 SLOAD DUP2 LT PUSH2 0xA01 JUMPI PUSH0 DUP1 REVERT JUMPDEST SWAP1 PUSH0 MSTORE PUSH1 0x20 PUSH0 KECCAK256 SWAP1 PUSH1 0x4 MUL ADD PUSH0 SWAP2 POP SWAP1 POP DUP1 PUSH0 ADD SLOAD SWAP1 DUP1 PUSH1 0x1 ADD DUP1 SLOAD PUSH2 0xA26 SWAP1 PUSH2 0x1314 JUMP JUMPDEST DUP1 PUSH1 0x1F ADD PUSH1 0x20 DUP1 SWAP2 DIV MUL PUSH1 0x20 ADD PUSH1 0x40 MLOAD SWAP1 DUP2 ADD PUSH1 0x40 MSTORE DUP1 SWAP3 SWAP2 SWAP1 DUP2 DUP2 MSTORE PUSH1 0x20 ADD DUP3 DUP1 SLOAD PUSH2 0xA52 SWAP1 PUSH2 0x1314 JUMP JUMPDEST DUP1 ISZERO PUSH2 0xA9D JUMPI DUP1 PUSH1 0x1F LT PUSH2 0xA74 JUMPI PUSH2 0x100 DUP1 DUP4 SLOAD DIV MUL DUP4 MSTORE SWAP2 PUSH1 0x20 ADD SWAP2 PUSH2 0xA9D JUMP JUMPDEST DUP3 ADD SWAP2 SWAP1 PUSH0 MSTORE PUSH1 0x20 PUSH0 KECCAK256 SWAP1 JUMPDEST DUP2 SLOAD DUP2 MSTORE SWAP1 PUSH1 0x1 ADD SWAP1 PUSH1 0x20 ADD DUP1 DUP4 GT PUSH2 0xA80 JUMPI DUP3 SWAP1 SUB PUSH1 0x1F AND DUP3 ADD SWAP2 JUMPDEST POP POP POP POP POP SWAP1 DUP1 PUSH1 0x2 ADD SLOAD SWAP1 DUP1 PUSH1 0x3 ADD PUSH0 SWAP1 SLOAD SWAP1 PUSH2 0x100 EXP SWAP1 DIV PUSH1 0xFF AND SWAP1 DUP1 PUSH1 0x3 ADD PUSH1 0x1 SWAP1 SLOAD SWAP1 PUSH2 0x100 EXP SWAP1 DIV PUSH1 0xFF AND SWAP1 POP DUP6 JUMP JUMPDEST PUSH2 0xADA PUSH2 0xC1A JUMP JUMPDEST PUSH20 0xFFFFFFFFFFFFFFFFFFFFFFFFFFFFFFFFFFFFFFFF AND PUSH2 0xAF8 PUSH2 0x345 JUMP JUMPDEST PUSH20 0xFFFFFFFFFFFFFFFFFFFFFFFFFFFFFFFFFFFFFFFF AND EQ PUSH2 0xB57 JUMPI PUSH2 0xB1B PUSH2 0xC1A JUMP JUMPDEST PUSH1 0x40 MLOAD PUSH32 0x118CDAA700000000000000000000000000000000000000000000000000000000 DUP2 MSTORE PUSH1 0x4 ADD PUSH2 0xB4E SWAP2 SWAP1 PUSH2 0xF43 JUMP JUMPDEST PUSH1 0x40 MLOAD DUP1 SWAP2 SUB SWAP1 REVERT JUMPDEST JUMP JUMPDEST PUSH0 DUP1 PUSH0 SWAP1 SLOAD SWAP1 PUSH2 0x100 EXP SWAP1 DIV PUSH20 0xFFFFFFFFFFFFFFFFFFFFFFFFFFFFFFFFFFFFFFFF AND SWAP1 POP DUP2 PUSH0 DUP1 PUSH2 0x100 EXP DUP2 SLOAD DUP2 PUSH20 0xFFFFFFFFFFFFFFFFFFFFFFFFFFFFFFFFFFFFFFFF MUL NOT AND SWAP1 DUP4 PUSH20 0xFFFFFFFFFFFFFFFFFFFFFFFFFFFFFFFFFFFFFFFF AND MUL OR SWAP1 SSTORE POP DUP2 PUSH20 0xFFFFFFFFFFFFFFFFFFFFFFFFFFFFFFFFFFFFFFFF AND DUP2 PUSH20 0xFFFFFFFFFFFFFFFFFFFFFFFFFFFFFFFFFFFFFFFF AND PUSH32 0x8BE0079C531659141344CD1FD0A4F28419497F9722A3DAAFE3B4186F6B6457E0 PUSH1 0x40 MLOAD PUSH1 0x40 MLOAD DUP1 SWAP2 SUB SWAP1 LOG3 POP POP JUMP JUMPDEST PUSH0 CALLER SWAP1 POP SWAP1 JUMP JUMPDEST POP DUP1 SLOAD PUSH2 0xC2D SWAP1 PUSH2 0x1314 JUMP JUMPDEST PUSH0 DUP3 SSTORE DUP1 PUSH1 0x1F LT PUSH2 0xC3E JUMPI POP PUSH2 0xC5B JUMP JUMPDEST PUSH1 0x1F ADD PUSH1 0x20 SWAP1 DIV SWAP1 PUSH0 MSTORE PUSH1 0x20 PUSH0 KECCAK256 SWAP1 DUP2 ADD SWAP1 PUSH2 0xC5A SWAP2 SWAP1 PUSH2 0xC5E JUMP JUMPDEST JUMPDEST POP JUMP JUMPDEST JUMPDEST DUP1 DUP3 GT ISZERO PUSH2 0xC75 JUMPI PUSH0 DUP2 PUSH0 SWAP1 SSTORE POP PUSH1 0x1 ADD PUSH2 0xC5F JUMP JUMPDEST POP SWAP1 JUMP JUMPDEST PUSH0 DUP2 SWAP1 POP SWAP2 SWAP1 POP JUMP JUMPDEST PUSH2 0xC8B DUP2 PUSH2 0xC79 JUMP JUMPDEST DUP3 MSTORE POP POP JUMP JUMPDEST PUSH0 PUSH1 0x20 DUP3 ADD SWAP1 POP PUSH2 0xCA4 PUSH0 DUP4 ADD DUP5 PUSH2 0xC82 JUMP JUMPDEST SWAP3 SWAP2 POP POP JUMP JUMPDEST PUSH0 DUP2 MLOAD SWAP1 POP SWAP2 SWAP1 POP JUMP JUMPDEST PUSH0 DUP3 DUP3 MSTORE PUSH1 0x20 DUP3 ADD SWAP1 POP SWAP3 SWAP2 POP POP JUMP JUMPDEST PUSH0 DUP2 SWAP1 POP PUSH1 0x20 DUP3 ADD SWAP1 POP SWAP2 SWAP1 POP JUMP JUMPDEST PUSH2 0xCDC DUP2 PUSH2 0xC79 JUMP JUMPDEST DUP3 MSTORE POP POP JUMP JUMPDEST PUSH0 DUP2 MLOAD SWAP1 POP SWAP2 SWAP1 POP JUMP JUMPDEST PUSH0 DUP3 DUP3 MSTORE PUSH1 0x20 DUP3 ADD SWAP1 POP SWAP3 SWAP2 POP POP JUMP JUMPDEST DUP3 DUP2 DUP4 MCOPY PUSH0 DUP4 DUP4 ADD MSTORE POP POP POP JUMP JUMPDEST PUSH0 PUSH1 0x1F NOT PUSH1 0x1F DUP4 ADD AND SWAP1 POP SWAP2 SWAP1 POP JUMP JUMPDEST PUSH0 PUSH2 0xD24 DUP3 PUSH2 0xCE2 JUMP JUMPDEST PUSH2 0xD2E DUP2 DUP6 PUSH2 0xCEC JUMP JUMPDEST SWAP4 POP PUSH2 0xD3E DUP2 DUP6 PUSH1 0x20 DUP7 ADD PUSH2 0xCFC JUMP JUMPDEST PUSH2 0xD47 DUP2 PUSH2 0xD0A JUMP JUMPDEST DUP5 ADD SWAP2 POP POP SWAP3 SWAP2 POP POP JUMP JUMPDEST PUSH32 0x4E487B7100000000000000000000000000000000000000000000000000000000 PUSH0 MSTORE PUSH1 0x21 PUSH1 0x4 MSTORE PUSH1 0x24 PUSH0 REVERT JUMPDEST PUSH1 0x3 DUP2 LT PUSH2 0xD90 JUMPI PUSH2 0xD8F PUSH2 0xD52 JUMP JUMPDEST JUMPDEST POP JUMP JUMPDEST PUSH0 DUP2 SWAP1 POP PUSH2 0xDA0 DUP3 PUSH2 0xD7F JUMP JUMPDEST SWAP2 SWAP1 POP JUMP JUMPDEST PUSH0 PUSH2 0xDAF DUP3 PUSH2 0xD93 JUMP JUMPDEST SWAP1 POP SWAP2 SWAP1 POP JUMP JUMPDEST PUSH2 0xDBF DUP2 PUSH2 0xDA5 JUMP JUMPDEST DUP3 MSTORE POP POP JUMP JUMPDEST PUSH0 DUP2 ISZERO ISZERO SWAP1 POP SWAP2 SWAP1 POP JUMP JUMPDEST PUSH2 0xDD9 DUP2 PUSH2 0xDC5 JUMP JUMPDEST DUP3 MSTORE POP POP JUMP JUMPDEST PUSH0 PUSH1 0xA0 DUP4 ADD PUSH0 DUP4 ADD MLOAD PUSH2 0xDF4 PUSH0 DUP7 ADD DUP3 PUSH2 0xCD3 JUMP JUMPDEST POP PUSH1 0x20 DUP4 ADD MLOAD DUP5 DUP3 SUB PUSH1 0x20 DUP7 ADD MSTORE PUSH2 0xE0C DUP3 DUP3 PUSH2 0xD1A JUMP JUMPDEST SWAP2 POP POP PUSH1 0x40 DUP4 ADD MLOAD PUSH2 0xE21 PUSH1 0x40 DUP7 ADD DUP3 PUSH2 0xCD3 JUMP JUMPDEST POP PUSH1 0x60 DUP4 ADD MLOAD PUSH2 0xE34 PUSH1 0x60 DUP7 ADD DUP3 PUSH2 0xDB6 JUMP JUMPDEST POP PUSH1 0x80 DUP4 ADD MLOAD PUSH2 0xE47 PUSH1 0x80 DUP7 ADD DUP3 PUSH2 0xDD0 JUMP JUMPDEST POP DUP1 SWAP2 POP POP SWAP3 SWAP2 POP POP JUMP JUMPDEST PUSH0 PUSH2 0xE5D DUP4 DUP4 PUSH2 0xDDF JUMP JUMPDEST SWAP1 POP SWAP3 SWAP2 POP POP JUMP JUMPDEST PUSH0 PUSH1 0x20 DUP3 ADD SWAP1 POP SWAP2 SWAP1 POP JUMP JUMPDEST PUSH0 PUSH2 0xE7B DUP3 PUSH2 0xCAA JUMP JUMPDEST PUSH2 0xE85 DUP2 DUP6 PUSH2 0xCB4 JUMP JUMPDEST SWAP4 POP DUP4 PUSH1 0x20 DUP3 MUL DUP6 ADD PUSH2 0xE97 DUP6 PUSH2 0xCC4 JUMP JUMPDEST DUP1 PUSH0 JUMPDEST DUP6 DUP2 LT ISZERO PUSH2 0xED2 JUMPI DUP5 DUP5 SUB DUP10 MSTORE DUP2 MLOAD PUSH2 0xEB3 DUP6 DUP3 PUSH2 0xE52 JUMP JUMPDEST SWAP5 POP PUSH2 0xEBE DUP4 PUSH2 0xE65 JUMP JUMPDEST SWAP3 POP PUSH1 0x20 DUP11 ADD SWAP10 POP POP PUSH1 0x1 DUP2 ADD SWAP1 POP PUSH2 0xE9A JUMP JUMPDEST POP DUP3 SWAP8 POP DUP8 SWAP6 POP POP POP POP POP POP SWAP3 SWAP2 POP POP JUMP JUMPDEST PUSH0 PUSH1 0x20 DUP3 ADD SWAP1 POP DUP2 DUP2 SUB PUSH0 DUP4 ADD MSTORE PUSH2 0xEFC DUP2 DUP5 PUSH2 0xE71 JUMP JUMPDEST SWAP1 POP SWAP3 SWAP2 POP POP JUMP JUMPDEST PUSH0 PUSH20 0xFFFFFFFFFFFFFFFFFFFFFFFFFFFFFFFFFFFFFFFF DUP3 AND SWAP1 POP SWAP2 SWAP1 POP JUMP JUMPDEST PUSH0 PUSH2 0xF2D DUP3 PUSH2 0xF04 JUMP JUMPDEST SWAP1 POP SWAP2 SWAP1 POP JUMP JUMPDEST PUSH2 0xF3D DUP2 PUSH2 0xF23 JUMP JUMPDEST DUP3 MSTORE POP POP JUMP JUMPDEST PUSH0 PUSH1 0x20 DUP3 ADD SWAP1 POP PUSH2 0xF56 PUSH0 DUP4 ADD DUP5 PUSH2 0xF34 JUMP JUMPDEST SWAP3 SWAP2 POP POP JUMP JUMPDEST PUSH0 PUSH1 0x40 MLOAD SWAP1 POP SWAP1 JUMP JUMPDEST PUSH0 DUP1 REVERT JUMPDEST PUSH0 DUP1 REVERT JUMPDEST PUSH2 0xF76 DUP2 PUSH2 0xC79 JUMP JUMPDEST DUP2 EQ PUSH2 0xF80 JUMPI PUSH0 DUP1 REVERT JUMPDEST POP JUMP JUMPDEST PUSH0 DUP2 CALLDATALOAD SWAP1 POP PUSH2 0xF91 DUP2 PUSH2 0xF6D JUMP JUMPDEST SWAP3 SWAP2 POP POP JUMP JUMPDEST PUSH0 PUSH1 0x20 DUP3 DUP5 SUB SLT ISZERO PUSH2 0xFAC JUMPI PUSH2 0xFAB PUSH2 0xF65 JUMP JUMPDEST JUMPDEST PUSH0 PUSH2 0xFB9 DUP5 DUP3 DUP6 ADD PUSH2 0xF83 JUMP JUMPDEST SWAP2 POP POP SWAP3 SWAP2 POP POP JUMP JUMPDEST PUSH2 0xFCB DUP2 PUSH2 0xDC5 JUMP JUMPDEST DUP3 MSTORE POP POP JUMP JUMPDEST PUSH0 PUSH1 0x20 DUP3 ADD SWAP1 POP PUSH2 0xFE4 PUSH0 DUP4 ADD DUP5 PUSH2 0xFC2 JUMP JUMPDEST SWAP3 SWAP2 POP POP JUMP JUMPDEST PUSH0 DUP1 REVERT JUMPDEST PUSH0 DUP1 REVERT JUMPDEST PUSH32 0x4E487B7100000000000000000000000000000000000000000000000000000000 PUSH0 MSTORE PUSH1 0x41 PUSH1 0x4 MSTORE PUSH1 0x24 PUSH0 REVERT JUMPDEST PUSH2 0x1028 DUP3 PUSH2 0xD0A JUMP JUMPDEST DUP2 ADD DUP2 DUP2 LT PUSH8 0xFFFFFFFFFFFFFFFF DUP3 GT OR ISZERO PUSH2 0x1047 JUMPI PUSH2 0x1046 PUSH2 0xFF2 JUMP JUMPDEST JUMPDEST DUP1 PUSH1 0x40 MSTORE POP POP POP JUMP JUMPDEST PUSH0 PUSH2 0x1059 PUSH2 0xF5C JUMP JUMPDEST SWAP1 POP PUSH2 0x1065 DUP3 DUP3 PUSH2 0x101F JUMP JUMPDEST SWAP2 SWAP1 POP JUMP JUMPDEST PUSH0 PUSH8 0xFFFFFFFFFFFFFFFF DUP3 GT ISZERO PUSH2 0x1084 JUMPI PUSH2 0x1083 PUSH2 0xFF2 JUMP JUMPDEST JUMPDEST PUSH2 0x108D DUP3 PUSH2 0xD0A JUMP JUMPDEST SWAP1 POP PUSH1 0x20 DUP2 ADD SWAP1 POP SWAP2 SWAP1 POP JUMP JUMPDEST DUP3 DUP2 DUP4 CALLDATACOPY PUSH0 DUP4 DUP4 ADD MSTORE POP POP POP JUMP JUMPDEST PUSH0 PUSH2 0x10BA PUSH2 0x10B5 DUP5 PUSH2 0x106A JUMP JUMPDEST PUSH2 0x1050 JUMP JUMPDEST SWAP1 POP DUP3 DUP2 MSTORE PUSH1 0x20 DUP2 ADD DUP5 DUP5 DUP5 ADD GT ISZERO PUSH2 0x10D6 JUMPI PUSH2 0x10D5 PUSH2 0xFEE JUMP JUMPDEST JUMPDEST PUSH2 0x10E1 DUP5 DUP3 DUP6 PUSH2 0x109A JUMP JUMPDEST POP SWAP4 SWAP3 POP POP POP JUMP JUMPDEST PUSH0 DUP3 PUSH1 0x1F DUP4 ADD SLT PUSH2 0x10FD JUMPI PUSH2 0x10FC PUSH2 0xFEA JUMP JUMPDEST JUMPDEST DUP2 CALLDATALOAD PUSH2 0x110D DUP5 DUP3 PUSH1 0x20 DUP7 ADD PUSH2 0x10A8 JUMP JUMPDEST SWAP2 POP POP SWAP3 SWAP2 POP POP JUMP JUMPDEST PUSH1 0x3 DUP2 LT PUSH2 0x1122 JUMPI PUSH0 DUP1 REVERT JUMPDEST POP JUMP JUMPDEST PUSH0 DUP2 CALLDATALOAD SWAP1 POP PUSH2 0x1133 DUP2 PUSH2 0x1116 JUMP JUMPDEST SWAP3 SWAP2 POP POP JUMP JUMPDEST PUSH0 DUP1 PUSH0 PUSH1 0x60 DUP5 DUP7 SUB SLT ISZERO PUSH2 0x1150 JUMPI PUSH2 0x114F PUSH2 0xF65 JUMP JUMPDEST JUMPDEST PUSH0 DUP5 ADD CALLDATALOAD PUSH8 0xFFFFFFFFFFFFFFFF DUP2 GT ISZERO PUSH2 0x116D JUMPI PUSH2 0x116C PUSH2 0xF69 JUMP JUMPDEST JUMPDEST PUSH2 0x1179 DUP7 DUP3 DUP8 ADD PUSH2 0x10E9 JUMP JUMPDEST SWAP4 POP POP PUSH1 0x20 PUSH2 0x118A DUP7 DUP3 DUP8 ADD PUSH2 0xF83 JUMP JUMPDEST SWAP3 POP POP PUSH1 0x40 PUSH2 0x119B DUP7 DUP3 DUP8 ADD PUSH2 0x1125 JUMP JUMPDEST SWAP2 POP POP SWAP3 POP SWAP3 POP SWAP3 JUMP JUMPDEST PUSH0 DUP1 PUSH1 0x40 DUP4 DUP6 SUB SLT ISZERO PUSH2 0x11BB JUMPI PUSH2 0x11BA PUSH2 0xF65 JUMP JUMPDEST JUMPDEST PUSH0 PUSH2 0x11C8 DUP6 DUP3 DUP7 ADD PUSH2 0xF83 JUMP JUMPDEST SWAP3 POP POP PUSH1 0x20 PUSH2 0x11D9 DUP6 DUP3 DUP7 ADD PUSH2 0x1125 JUMP JUMPDEST SWAP2 POP POP SWAP3 POP SWAP3 SWAP1 POP JUMP JUMPDEST PUSH2 0x11EC DUP2 PUSH2 0xF23 JUMP JUMPDEST DUP2 EQ PUSH2 0x11F6 JUMPI PUSH0 DUP1 REVERT JUMPDEST POP JUMP JUMPDEST PUSH0 DUP2 CALLDATALOAD SWAP1 POP PUSH2 0x1207 DUP2 PUSH2 0x11E3 JUMP JUMPDEST SWAP3 SWAP2 POP POP JUMP JUMPDEST PUSH0 PUSH1 0x20 DUP3 DUP5 SUB SLT ISZERO PUSH2 0x1222 JUMPI PUSH2 0x1221 PUSH2 0xF65 JUMP JUMPDEST JUMPDEST PUSH0 PUSH2 0x122F DUP5 DUP3 DUP6 ADD PUSH2 0x11F9 JUMP JUMPDEST SWAP2 POP POP SWAP3 SWAP2 POP POP JUMP JUMPDEST PUSH0 DUP3 DUP3 MSTORE PUSH1 0x20 DUP3 ADD SWAP1 POP SWAP3 SWAP2 POP POP JUMP JUMPDEST PUSH0 PUSH2 0x1252 DUP3 PUSH2 0xCE2 JUMP JUMPDEST PUSH2 0x125C DUP2 DUP6 PUSH2 0x1238 JUMP JUMPDEST SWAP4 POP PUSH2 0x126C DUP2 DUP6 PUSH1 0x20 DUP7 ADD PUSH2 0xCFC JUMP JUMPDEST PUSH2 0x1275 DUP2 PUSH2 0xD0A JUMP JUMPDEST DUP5 ADD SWAP2 POP POP SWAP3 SWAP2 POP POP JUMP JUMPDEST PUSH2 0x1289 DUP2 PUSH2 0xDA5 JUMP JUMPDEST DUP3 MSTORE POP POP JUMP JUMPDEST PUSH0 PUSH1 0xA0 DUP3 ADD SWAP1 POP PUSH2 0x12A2 PUSH0 DUP4 ADD DUP9 PUSH2 0xC82 JUMP JUMPDEST DUP2 DUP2 SUB PUSH1 0x20 DUP4 ADD MSTORE PUSH2 0x12B4 DUP2 DUP8 PUSH2 0x1248 JUMP JUMPDEST SWAP1 POP PUSH2 0x12C3 PUSH1 0x40 DUP4 ADD DUP7 PUSH2 0xC82 JUMP JUMPDEST PUSH2 0x12D0 PUSH1 0x60 DUP4 ADD DUP6 PUSH2 0x1280 JUMP JUMPDEST PUSH2 0x12DD PUSH1 0x80 DUP4 ADD DUP5 PUSH2 0xFC2 JUMP JUMPDEST SWAP7 SWAP6 POP POP POP POP POP POP JUMP JUMPDEST PUSH32 0x4E487B7100000000000000000000000000000000000000000000000000000000 PUSH0 MSTORE PUSH1 0x22 PUSH1 0x4 MSTORE PUSH1 0x24 PUSH0 REVERT JUMPDEST PUSH0 PUSH1 0x2 DUP3 DIV SWAP1 POP PUSH1 0x1 DUP3 AND DUP1 PUSH2 0x132B JUMPI PUSH1 0x7F DUP3 AND SWAP2 POP JUMPDEST PUSH1 0x20 DUP3 LT DUP2 SUB PUSH2 0x133E JUMPI PUSH2 0x133D PUSH2 0x12E7 JUMP JUMPDEST JUMPDEST POP SWAP2 SWAP1 POP JUMP JUMPDEST PUSH32 0x4E487B7100000000000000000000000000000000000000000000000000000000 PUSH0 MSTORE PUSH1 0x32 PUSH1 0x4 MSTORE PUSH1 0x24 PUSH0 REVERT JUMPDEST PUSH32 0x4E487B7100000000000000000000000000000000000000000000000000000000 PUSH0 MSTORE PUSH1 0x11 PUSH1 0x4 MSTORE PUSH1 0x24 PUSH0 REVERT JUMPDEST PUSH0 PUSH2 0x13A8 DUP3 PUSH2 0xC79 JUMP JUMPDEST SWAP2 POP PUSH2 0x13B3 DUP4 PUSH2 0xC79 JUMP JUMPDEST SWAP3 POP DUP3 DUP3 SUB SWAP1 POP DUP2 DUP2 GT ISZERO PUSH2 0x13CB JUMPI PUSH2 0x13CA PUSH2 0x1371 JUMP JUMPDEST JUMPDEST SWAP3 SWAP2 POP POP JUMP JUMPDEST PUSH0 DUP2 SLOAD SWAP1 POP PUSH2 0x13DF DUP2 PUSH2 0x1314 JUMP JUMPDEST SWAP1 POP SWAP2 SWAP1 POP JUMP JUMPDEST PUSH0 DUP2 SWAP1 POP DUP2 PUSH0 MSTORE PUSH1 0x20 PUSH0 KECCAK256 SWAP1 POP SWAP2 SWAP1 POP JUMP JUMPDEST PUSH0 PUSH1 0x20 PUSH1 0x1F DUP4 ADD DIV SWAP1 POP SWAP2 SWAP1 POP JUMP JUMPDEST PUSH0 DUP3 DUP3 SHL SWAP1 POP SWAP3 SWAP2 POP POP JUMP JUMPDEST PUSH0 PUSH1 0x8 DUP4 MUL PUSH2 0x1442 PUSH32 0xFFFFFFFFFFFFFFFFFFFFFFFFFFFFFFFFFFFFFFFFFFFFFFFFFFFFFFFFFFFFFFFF DUP3 PUSH2 0x1407 JUMP JUMPDEST PUSH2 0x144C DUP7 DUP4 PUSH2 0x1407 JUMP JUMPDEST SWAP6 POP DUP1 NOT DUP5 AND SWAP4 POP DUP1 DUP7 AND DUP5 OR SWAP3 POP POP POP SWAP4 SWAP3 POP POP POP JUMP JUMPDEST PUSH0 DUP2 SWAP1 POP SWAP2 SWAP1 POP JUMP JUMPDEST PUSH0 PUSH2 0x1487 PUSH2 0x1482 PUSH2 0x147D DUP5 PUSH2 0xC79 JUMP JUMPDEST PUSH2 0x1464 JUMP JUMPDEST PUSH2 0xC79 JUMP JUMPDEST SWAP1 POP SWAP2 SWAP1 POP JUMP JUMPDEST PUSH0 DUP2 SWAP1 POP SWAP2 SWAP1 POP JUMP JUMPDEST PUSH2 0x14A0 DUP4 PUSH2 0x146D JUMP JUMPDEST PUSH2 0x14B4 PUSH2 0x14AC DUP3 PUSH2 0x148E JUMP JUMPDEST DUP5 DUP5 SLOAD PUSH2 0x1413 JUMP JUMPDEST DUP3 SSTORE POP POP POP POP JUMP JUMPDEST PUSH0 SWAP1 JUMP JUMPDEST PUSH2 0x14C8 PUSH2 0x14BC JUMP JUMPDEST PUSH2 0x14D3 DUP2 DUP5 DUP5 PUSH2 0x1497 JUMP JUMPDEST POP POP POP JUMP JUMPDEST JUMPDEST DUP2 DUP2 LT ISZERO PUSH2 0x14F6 JUMPI PUSH2 0x14EB PUSH0 DUP3 PUSH2 0x14C0 JUMP JUMPDEST PUSH1 0x1 DUP2 ADD SWAP1 POP PUSH2 0x14D9 JUMP JUMPDEST POP POP JUMP JUMPDEST PUSH1 0x1F DUP3 GT ISZERO PUSH2 0x153B JUMPI PUSH2 0x150C DUP2 PUSH2 0x13E6 JUMP JUMPDEST PUSH2 0x1515 DUP5 PUSH2 0x13F8 JUMP JUMPDEST DUP2 ADD PUSH1 0x20 DUP6 LT ISZERO PUSH2 0x1524 JUMPI DUP2 SWAP1 POP JUMPDEST PUSH2 0x1538 PUSH2 0x1530 DUP6 PUSH2 0x13F8 JUMP JUMPDEST DUP4 ADD DUP3 PUSH2 0x14D8 JUMP JUMPDEST POP POP JUMPDEST POP POP POP JUMP JUMPDEST PUSH0 DUP3 DUP3 SHR SWAP1 POP SWAP3 SWAP2 POP POP JUMP JUMPDEST PUSH0 PUSH2 0x155B PUSH0 NOT DUP5 PUSH1 0x8 MUL PUSH2 0x1540 JUMP JUMPDEST NOT DUP1 DUP4 AND SWAP2 POP POP SWAP3 SWAP2 POP POP JUMP JUMPDEST PUSH0 PUSH2 0x1573 DUP4 DUP4 PUSH2 0x154C JUMP JUMPDEST SWAP2 POP DUP3 PUSH1 0x2 MUL DUP3 OR SWAP1 POP SWAP3 SWAP2 POP POP JUMP JUMPDEST DUP2 DUP2 SUB PUSH2 0x1591 JUMPI POP POP PUSH2 0x1666 JUMP JUMPDEST PUSH2 0x159A DUP3 PUSH2 0x13D1 JUMP JUMPDEST PUSH8 0xFFFFFFFFFFFFFFFF DUP2 GT ISZERO PUSH2 0x15B3 JUMPI PUSH2 0x15B2 PUSH2 0xFF2 JUMP JUMPDEST JUMPDEST PUSH2 0x15BD DUP3 SLOAD PUSH2 0x1314 JUMP JUMPDEST PUSH2 0x15C8 DUP3 DUP3 DUP6 PUSH2 0x14FA JUMP JUMPDEST PUSH0 PUSH1 0x1F DUP4 GT PUSH1 0x1 DUP2 EQ PUSH2 0x15F5 JUMPI PUSH0 DUP5 ISZERO PUSH2 0x15E3 JUMPI DUP3 DUP8 ADD SLOAD SWAP1 POP JUMPDEST PUSH2 0x15ED DUP6 DUP3 PUSH2 0x1568 JUMP JUMPDEST DUP7 SSTORE POP PUSH2 0x165F JUMP JUMPDEST PUSH1 0x1F NOT DUP5 AND PUSH2 0x1603 DUP8 PUSH2 0x13E6 JUMP JUMPDEST SWAP7 POP PUSH2 0x160E DUP7 PUSH2 0x13E6 JUMP JUMPDEST PUSH0 JUMPDEST DUP3 DUP2 LT ISZERO PUSH2 0x1635 JUMPI DUP5 DUP10 ADD SLOAD DUP3 SSTORE PUSH1 0x1 DUP3 ADD SWAP2 POP PUSH1 0x1 DUP6 ADD SWAP5 POP PUSH1 0x20 DUP2 ADD SWAP1 POP PUSH2 0x1610 JUMP JUMPDEST DUP7 DUP4 LT ISZERO PUSH2 0x1652 JUMPI DUP5 DUP10 ADD SLOAD PUSH2 0x164E PUSH1 0x1F DUP10 AND DUP3 PUSH2 0x154C JUMP JUMPDEST DUP4 SSTORE POP JUMPDEST PUSH1 0x1 PUSH1 0x2 DUP9 MUL ADD DUP9 SSTORE POP POP POP JUMPDEST POP POP POP POP POP POP JUMPDEST JUMP JUMPDEST PUSH32 0x4E487B7100000000000000000000000000000000000000000000000000000000 PUSH0 MSTORE PUSH1 0x31 PUSH1 0x4 MSTORE PUSH1 0x24 PUSH0 REVERT JUMPDEST PUSH2 0x169E DUP3 PUSH2 0xCE2 JUMP JUMPDEST PUSH8 0xFFFFFFFFFFFFFFFF DUP2 GT ISZERO PUSH2 0x16B7 JUMPI PUSH2 0x16B6 PUSH2 0xFF2 JUMP JUMPDEST JUMPDEST PUSH2 0x16C1 DUP3 SLOAD PUSH2 0x1314 JUMP JUMPDEST PUSH2 0x16CC DUP3 DUP3 DUP6 PUSH2 0x14FA JUMP JUMPDEST PUSH0 PUSH1 0x20 SWAP1 POP PUSH1 0x1F DUP4 GT PUSH1 0x1 DUP2 EQ PUSH2 0x16FD JUMPI PUSH0 DUP5 ISZERO PUSH2 0x16EB JUMPI DUP3 DUP8 ADD MLOAD SWAP1 POP JUMPDEST PUSH2 0x16F5 DUP6 DUP3 PUSH2 0x1568 JUMP JUMPDEST DUP7 SSTORE POP PUSH2 0x175C JUMP JUMPDEST PUSH1 0x1F NOT DUP5 AND PUSH2 0x170B DUP7 PUSH2 0x13E6 JUMP JUMPDEST PUSH0 JUMPDEST DUP3 DUP2 LT ISZERO PUSH2 0x1732 JUMPI DUP5 DUP10 ADD MLOAD DUP3 SSTORE PUSH1 0x1 DUP3 ADD SWAP2 POP PUSH1 0x20 DUP6 ADD SWAP5 POP PUSH1 0x20 DUP2 ADD SWAP1 POP PUSH2 0x170D JUMP JUMPDEST DUP7 DUP4 LT ISZERO PUSH2 0x174F JUMPI DUP5 DUP10 ADD MLOAD PUSH2 0x174B PUSH1 0x1F DUP10 AND DUP3 PUSH2 0x154C JUMP JUMPDEST DUP4 SSTORE POP JUMPDEST PUSH1 0x1 PUSH1 0x2 DUP9 MUL ADD DUP9 SSTORE POP POP POP JUMPDEST POP POP POP POP POP POP JUMP JUMPDEST PUSH0 PUSH1 0x40 DUP3 ADD SWAP1 POP DUP2 DUP2 SUB PUSH0 DUP4 ADD MSTORE PUSH2 0x177C DUP2 DUP6 PUSH2 0x1248 JUMP JUMPDEST SWAP1 POP PUSH2 0x178B PUSH1 0x20 DUP4 ADD DUP5 PUSH2 0x1280 JUMP JUMPDEST SWAP4 SWAP3 POP POP POP JUMP JUMPDEST PUSH0 PUSH2 0x179C DUP3 PUSH2 0xC79 JUMP JUMPDEST SWAP2 POP PUSH32 0xFFFFFFFFFFFFFFFFFFFFFFFFFFFFFFFFFFFFFFFFFFFFFFFFFFFFFFFFFFFFFFFF DUP3 SUB PUSH2 0x17CE JUMPI PUSH2 0x17CD PUSH2 0x1371 JUMP JUMPDEST JUMPDEST PUSH1 0x1 DUP3 ADD SWAP1 POP SWAP2 SWAP1 POP JUMP JUMPDEST PUSH0 PUSH1 0x20 DUP3 ADD SWAP1 POP PUSH2 0x17EC PUSH0 DUP4 ADD DUP5 PUSH2 0x1280 JUMP JUMPDEST SWAP3 SWAP2 POP POP JUMP INVALID LOG2 PUSH5 0x6970667358 0x22 SLT KECCAK256 SWAP5 SHR MSTORE 0xEE 0x1E 0xB1 LOG2 0xF8 CALLDATALOAD 0xC7 0xAD EXTCODEHASH TLOAD 0xE5 TSTORE PUSH6 0xBF2ADB800F5A 0xB9 DUP13 EXTCODECOPY 0xAF SWAP6 STATICCALL 0xB6 GASPRICE LOG4 SHR PUSH5 0x736F6C6343 STOP ADDMOD BYTE STOP CALLER "
				},
				"gasEstimates": {
					"creation": {
						"codeDepositCost": "1236800",
						"executionCost": "infinite",
						"totalCost": "infinite"
					},
					"external": {
						"addPlayer(string,uint256,uint8)": "infinite",
						"getPlayers()": "infinite",
						"owner()": "2582",
						"playerCount()": "2426",
						"playerExists(uint256)": "2874",
						"players(uint256)": "infinite",
						"removePlayer(uint256)": "infinite",
						"renounceOwnership()": "infinite",
						"transferOwnership(address)": "infinite",
						"updatePlayerExperience(uint256,uint8)": "infinite"
					}
				},
				"methodIdentifiers": {
					"addPlayer(string,uint256,uint8)": "cf5d7e5b",
					"getPlayers()": "8b5b9ccc",
					"owner()": "8da5cb5b",
					"playerCount()": "302bcc57",
					"playerExists(uint256)": "bc1a97c1",
					"players(uint256)": "f71d96cb",
					"removePlayer(uint256)": "bc975512",
					"renounceOwnership()": "715018a6",
					"transferOwnership(address)": "f2fde38b",
					"updatePlayerExperience(uint256,uint8)": "dd28d5bc"
				}
			},
			"storageLayout": {
				"storage": [
					{
						"astId": 8,
						"contract": "contracts/PlayerRegistry.sol:PlayerRegistry",
						"label": "_owner",
						"offset": 0,
						"slot": "0",
						"type": "t_address"
					},
					{
						"astId": 210,
						"contract": "contracts/PlayerRegistry.sol:PlayerRegistry",
						"label": "players",
						"offset": 0,
						"slot": "1",
						"type": "t_array(t_struct(Player)206_storage)dyn_storage"
					},
					{
						"astId": 214,
						"contract": "contracts/PlayerRegistry.sol:PlayerRegistry",
						"label": "playerExists",
						"offset": 0,
						"slot": "2",
						"type": "t_mapping(t_uint256,t_bool)"
					},
					{
						"astId": 216,
						"contract": "contracts/PlayerRegistry.sol:PlayerRegistry",
						"label": "playerCount",
						"offset": 0,
						"slot": "3",
						"type": "t_uint256"
					}
				],
				"types": {
					"t_address": {
						"encoding": "inplace",
						"label": "address",
						"numberOfBytes": "20"
					},
					"t_array(t_struct(Player)206_storage)dyn_storage": {
						"base": "t_struct(Player)206_storage",
						"encoding": "dynamic_array",
						"label": "struct PlayerRegistry.Player[]",
						"numberOfBytes": "32"
					},
					"t_bool": {
						"encoding": "inplace",
						"label": "bool",
						"numberOfBytes": "1"
					},
					"t_enum(ExperienceLevel)194": {
						"encoding": "inplace",
						"label": "enum PlayerRegistry.ExperienceLevel",
						"numberOfBytes": "1"
					},
					"t_mapping(t_uint256,t_bool)": {
						"encoding": "mapping",
						"key": "t_uint256",
						"label": "mapping(uint256 => bool)",
						"numberOfBytes": "32",
						"value": "t_bool"
					},
					"t_string_storage": {
						"encoding": "bytes",
						"label": "string",
						"numberOfBytes": "32"
					},
					"t_struct(Player)206_storage": {
						"encoding": "inplace",
						"label": "struct PlayerRegistry.Player",
						"members": [
							{
								"astId": 196,
								"contract": "contracts/PlayerRegistry.sol:PlayerRegistry",
								"label": "id",
								"offset": 0,
								"slot": "0",
								"type": "t_uint256"
							},
							{
								"astId": 198,
								"contract": "contracts/PlayerRegistry.sol:PlayerRegistry",
								"label": "name",
								"offset": 0,
								"slot": "1",
								"type": "t_string_storage"
							},
							{
								"astId": 200,
								"contract": "contracts/PlayerRegistry.sol:PlayerRegistry",
								"label": "age",
								"offset": 0,
								"slot": "2",
								"type": "t_uint256"
							},
							{
								"astId": 203,
								"contract": "contracts/PlayerRegistry.sol:PlayerRegistry",
								"label": "experience",
								"offset": 0,
								"slot": "3",
								"type": "t_enum(ExperienceLevel)194"
							},
							{
								"astId": 205,
								"contract": "contracts/PlayerRegistry.sol:PlayerRegistry",
								"label": "isActive",
								"offset": 1,
								"slot": "3",
								"type": "t_bool"
							}
						],
						"numberOfBytes": "128"
					},
					"t_uint256": {
						"encoding": "inplace",
						"label": "uint256",
						"numberOfBytes": "32"
					}
				}
			},
			"userdoc": {
				"kind": "user",
				"methods": {},
				"version": 1
			}
		}
	}
}