{
	"contracts/Struct.sol": {
		"SchoolRecord": {
			"abi": [
				{
					"inputs": [
						{
							"internalType": "uint256",
							"name": "_id",
							"type": "uint256"
						},
						{
							"internalType": "string",
							"name": "_name",
							"type": "string"
						},
						{
							"internalType": "uint256",
							"name": "_age",
							"type": "uint256"
						},
						{
							"internalType": "string",
							"name": "_country",
							"type": "string"
						},
						{
							"internalType": "string",
							"name": "_major",
							"type": "string"
						}
					],
					"name": "addStudent",
					"outputs": [],
					"stateMutability": "nonpayable",
					"type": "function"
				},
				{
					"inputs": [],
					"name": "callParentHello",
					"outputs": [
						{
							"internalType": "string",
							"name": "",
							"type": "string"
						}
					],
					"stateMutability": "pure",
					"type": "function"
				},
				{
					"inputs": [
						{
							"internalType": "uint256",
							"name": "_id",
							"type": "uint256"
						}
					],
					"name": "getStudent",
					"outputs": [
						{
							"internalType": "string",
							"name": "",
							"type": "string"
						},
						{
							"internalType": "uint256",
							"name": "",
							"type": "uint256"
						},
						{
							"internalType": "string",
							"name": "",
							"type": "string"
						},
						{
							"internalType": "string",
							"name": "",
							"type": "string"
						}
					],
					"stateMutability": "view",
					"type": "function"
				},
				{
					"inputs": [],
					"name": "number",
					"outputs": [
						{
							"internalType": "uint256",
							"name": "",
							"type": "uint256"
						}
					],
					"stateMutability": "view",
					"type": "function"
				},
				{
					"inputs": [],
					"name": "sayHello",
					"outputs": [
						{
							"internalType": "string",
							"name": "",
							"type": "string"
						}
					],
					"stateMutability": "pure",
					"type": "function"
				},
				{
					"inputs": [
						{
							"internalType": "uint256",
							"name": "_number",
							"type": "uint256"
						}
					],
					"name": "setNumber",
					"outputs": [],
					"stateMutability": "nonpayable",
					"type": "function"
				},
				{
					"inputs": [
						{
							"internalType": "uint256",
							"name": "_number",
							"type": "uint256"
						}
					],
					"name": "setNumberWithCalldata",
					"outputs": [],
					"stateMutability": "nonpayable",
					"type": "function"
				},
				{
					"inputs": [
						{
							"internalType": "uint256",
							"name": "",
							"type": "uint256"
						}
					],
					"name": "students",
					"outputs": [
						{
							"internalType": "string",
							"name": "name",
							"type": "string"
						},
						{
							"internalType": "uint256",
							"name": "age",
							"type": "uint256"
						},
						{
							"internalType": "string",
							"name": "country",
							"type": "string"
						},
						{
							"internalType": "string",
							"name": "major",
							"type": "string"
						}
					],
					"stateMutability": "view",
					"type": "function"
				}
			],
			"devdoc": {
				"kind": "dev",
				"methods": {},
				"version": 1
			},
			"evm": {
				"assembly": "    /* \"contracts/Struct.sol\":325:1675  contract SchoolRecord is Parent {... */\n  mstore(0x40, 0x80)\n  callvalue\n  dup1\n  iszero\n  tag_1\n  jumpi\n  0x00\n  dup1\n  revert\ntag_1:\n  pop\n  dataSize(sub_0)\n  dup1\n  dataOffset(sub_0)\n  0x00\n  codecopy\n  0x00\n  return\nstop\n\nsub_0: assembly {\n        /* \"contracts/Struct.sol\":325:1675  contract SchoolRecord is Parent {... */\n      mstore(0x40, 0x80)\n      callvalue\n      dup1\n      iszero\n      tag_1\n      jumpi\n      0x00\n      dup1\n      revert\n    tag_1:\n      pop\n      jumpi(tag_2, lt(calldatasize, 0x04))\n      shr(0xe0, calldataload(0x00))\n      dup1\n      0x642f9163\n      gt\n      tag_11\n      jumpi\n      dup1\n      0x642f9163\n      eq\n      tag_7\n      jumpi\n      dup1\n      0x8381f58a\n      eq\n      tag_8\n      jumpi\n      dup1\n      0xd635880c\n      eq\n      tag_9\n      jumpi\n      dup1\n      0xef5fb05b\n      eq\n      tag_10\n      jumpi\n      jump(tag_2)\n    tag_11:\n      dup1\n      0x06ead22e\n      eq\n      tag_3\n      jumpi\n      dup1\n      0x16a880b6\n      eq\n      tag_4\n      jumpi\n      dup1\n      0x3fb5c1cb\n      eq\n      tag_5\n      jumpi\n      dup1\n      0x43d4e7ff\n      eq\n      tag_6\n      jumpi\n    tag_2:\n      0x00\n      dup1\n      revert\n        /* \"contracts/Struct.sol\":587:627  mapping(uint => Student) public students */\n    tag_3:\n      tag_12\n      0x04\n      dup1\n      calldatasize\n      sub\n      dup2\n      add\n      swap1\n      tag_13\n      swap2\n      swap1\n      tag_14\n      jump\t// in\n    tag_13:\n      tag_15\n      jump\t// in\n    tag_12:\n      mload(0x40)\n      tag_16\n      swap5\n      swap4\n      swap3\n      swap2\n      swap1\n      tag_17\n      jump\t// in\n    tag_16:\n      mload(0x40)\n      dup1\n      swap2\n      sub\n      swap1\n      return\n        /* \"contracts/Struct.sol\":1570:1673  function callParentHello() public pure returns (string memory) {... */\n    tag_4:\n      tag_18\n      tag_19\n      jump\t// in\n    tag_18:\n      mload(0x40)\n      tag_20\n      swap2\n      swap1\n      tag_21\n      jump\t// in\n    tag_20:\n      mload(0x40)\n      dup1\n      swap2\n      sub\n      swap1\n      return\n        /* \"contracts/Struct.sol\":675:748  function setNumber(uint _number) public {... */\n    tag_5:\n      tag_22\n      0x04\n      dup1\n      calldatasize\n      sub\n      dup2\n      add\n      swap1\n      tag_23\n      swap2\n      swap1\n      tag_14\n      jump\t// in\n    tag_23:\n      tag_24\n      jump\t// in\n    tag_22:\n      stop\n        /* \"contracts/Struct.sol\":1280:1367  function setNumberWithCalldata(uint _number) external {... */\n    tag_6:\n      tag_25\n      0x04\n      dup1\n      calldatasize\n      sub\n      dup2\n      add\n      swap1\n      tag_26\n      swap2\n      swap1\n      tag_14\n      jump\t// in\n    tag_26:\n      tag_27\n      jump\t// in\n    tag_25:\n      stop\n        /* \"contracts/Struct.sol\":1034:1237  function getStudent(uint _id) public view returns (string memory, uint, string memory, string memory) {... */\n    tag_7:\n      tag_28\n      0x04\n      dup1\n      calldatasize\n      sub\n      dup2\n      add\n      swap1\n      tag_29\n      swap2\n      swap1\n      tag_14\n      jump\t// in\n    tag_29:\n      tag_30\n      jump\t// in\n    tag_28:\n      mload(0x40)\n      tag_31\n      swap5\n      swap4\n      swap3\n      swap2\n      swap1\n      tag_17\n      jump\t// in\n    tag_31:\n      mload(0x40)\n      dup1\n      swap2\n      sub\n      swap1\n      return\n        /* \"contracts/Struct.sol\":392:410  uint public number */\n    tag_8:\n      tag_32\n      tag_33\n      jump\t// in\n    tag_32:\n      mload(0x40)\n      tag_34\n      swap2\n      swap1\n      tag_35\n      jump\t// in\n    tag_34:\n      mload(0x40)\n      dup1\n      swap2\n      sub\n      swap1\n      return\n        /* \"contracts/Struct.sol\":791:977  function addStudent(uint _id, string memory _name, uint _age, string memory _country, string memory _major) public {... */\n    tag_9:\n      tag_36\n      0x04\n      dup1\n      calldatasize\n      sub\n      dup2\n      add\n      swap1\n      tag_37\n      swap2\n      swap1\n      tag_38\n      jump\t// in\n    tag_37:\n      tag_39\n      jump\t// in\n    tag_36:\n      stop\n        /* \"contracts/Struct.sol\":1408:1522  function sayHello() public pure override returns (string memory) {... */\n    tag_10:\n      tag_40\n      tag_41\n      jump\t// in\n    tag_40:\n      mload(0x40)\n      tag_42\n      swap2\n      swap1\n      tag_21\n      jump\t// in\n    tag_42:\n      mload(0x40)\n      dup1\n      swap2\n      sub\n      swap1\n      return\n        /* \"contracts/Struct.sol\":587:627  mapping(uint => Student) public students */\n    tag_15:\n      mstore(0x20, 0x01)\n      dup1\n      0x00\n      mstore\n      keccak256(0x00, 0x40)\n      0x00\n      swap2\n      pop\n      swap1\n      pop\n      dup1\n      0x00\n      add\n      dup1\n      sload\n      tag_43\n      swap1\n      tag_44\n      jump\t// in\n    tag_43:\n      dup1\n      0x1f\n      add\n      0x20\n      dup1\n      swap2\n      div\n      mul\n      0x20\n      add\n      mload(0x40)\n      swap1\n      dup2\n      add\n      0x40\n      mstore\n      dup1\n      swap3\n      swap2\n      swap1\n      dup2\n      dup2\n      mstore\n      0x20\n      add\n      dup3\n      dup1\n      sload\n      tag_45\n      swap1\n      tag_44\n      jump\t// in\n    tag_45:\n      dup1\n      iszero\n      tag_46\n      jumpi\n      dup1\n      0x1f\n      lt\n      tag_47\n      jumpi\n      0x0100\n      dup1\n      dup4\n      sload\n      div\n      mul\n      dup4\n      mstore\n      swap2\n      0x20\n      add\n      swap2\n      jump(tag_46)\n    tag_47:\n      dup3\n      add\n      swap2\n      swap1\n      0x00\n      mstore\n      keccak256(0x00, 0x20)\n      swap1\n    tag_48:\n      dup2\n      sload\n      dup2\n      mstore\n      swap1\n      0x01\n      add\n      swap1\n      0x20\n      add\n      dup1\n      dup4\n      gt\n      tag_48\n      jumpi\n      dup3\n      swap1\n      sub\n      0x1f\n      and\n      dup3\n      add\n      swap2\n    tag_46:\n      pop\n      pop\n      pop\n      pop\n      pop\n      swap1\n      dup1\n      0x01\n      add\n      sload\n      swap1\n      dup1\n      0x02\n      add\n      dup1\n      sload\n      tag_49\n      swap1\n      tag_44\n      jump\t// in\n    tag_49:\n      dup1\n      0x1f\n      add\n      0x20\n      dup1\n      swap2\n      div\n      mul\n      0x20\n      add\n      mload(0x40)\n      swap1\n      dup2\n      add\n      0x40\n      mstore\n      dup1\n      swap3\n      swap2\n      swap1\n      dup2\n      dup2\n      mstore\n      0x20\n      add\n      dup3\n      dup1\n      sload\n      tag_50\n      swap1\n      tag_44\n      jump\t// in\n    tag_50:\n      dup1\n      iszero\n      tag_51\n      jumpi\n      dup1\n      0x1f\n      lt\n      tag_52\n      jumpi\n      0x0100\n      dup1\n      dup4\n      sload\n      div\n      mul\n      dup4\n      mstore\n      swap2\n      0x20\n      add\n      swap2\n      jump(tag_51)\n    tag_52:\n      dup3\n      add\n      swap2\n      swap1\n      0x00\n      mstore\n      keccak256(0x00, 0x20)\n      swap1\n    tag_53:\n      dup2\n      sload\n      dup2\n      mstore\n      swap1\n      0x01\n      add\n      swap1\n      0x20\n      add\n      dup1\n      dup4\n      gt\n      tag_53\n      jumpi\n      dup3\n      swap1\n      sub\n      0x1f\n      and\n      dup3\n      add\n      swap2\n    tag_51:\n      pop\n      pop\n      pop\n      pop\n      pop\n      swap1\n      dup1\n      0x03\n      add\n      dup1\n      sload\n      tag_54\n      swap1\n      tag_44\n      jump\t// in\n    tag_54:\n      dup1\n      0x1f\n      add\n      0x20\n      dup1\n      swap2\n      div\n      mul\n      0x20\n      add\n      mload(0x40)\n      swap1\n      dup2\n      add\n      0x40\n      mstore\n      dup1\n      swap3\n      swap2\n      swap1\n      dup2\n      dup2\n      mstore\n      0x20\n      add\n      dup3\n      dup1\n      sload\n      tag_55\n      swap1\n      tag_44\n      jump\t// in\n    tag_55:\n      dup1\n      iszero\n      tag_56\n      jumpi\n      dup1\n      0x1f\n      lt\n      tag_57\n      jumpi\n      0x0100\n      dup1\n      dup4\n      sload\n      div\n      mul\n      dup4\n      mstore\n      swap2\n      0x20\n      add\n      swap2\n      jump(tag_56)\n    tag_57:\n      dup3\n      add\n      swap2\n      swap1\n      0x00\n      mstore\n      keccak256(0x00, 0x20)\n      swap1\n    tag_58:\n      dup2\n      sload\n      dup2\n      mstore\n      swap1\n      0x01\n      add\n      swap1\n      0x20\n      add\n      dup1\n      dup4\n      gt\n      tag_58\n      jumpi\n      dup3\n      swap1\n      sub\n      0x1f\n      and\n      dup3\n      add\n      swap2\n    tag_56:\n      pop\n      pop\n      pop\n      pop\n      pop\n      swap1\n      pop\n      dup5\n      jump\t// out\n        /* \"contracts/Struct.sol\":1570:1673  function callParentHello() public pure returns (string memory) {... */\n    tag_19:\n        /* \"contracts/Struct.sol\":1618:1631  string memory */\n      0x60\n        /* \"contracts/Struct.sol\":1650:1666  super.sayHello() */\n      tag_60\n        /* \"contracts/Struct.sol\":1650:1664  super.sayHello */\n      tag_61\n        /* \"contracts/Struct.sol\":1650:1666  super.sayHello() */\n      jump\t// in\n    tag_60:\n        /* \"contracts/Struct.sol\":1643:1666  return super.sayHello() */\n      swap1\n      pop\n        /* \"contracts/Struct.sol\":1570:1673  function callParentHello() public pure returns (string memory) {... */\n      swap1\n      jump\t// out\n        /* \"contracts/Struct.sol\":675:748  function setNumber(uint _number) public {... */\n    tag_24:\n        /* \"contracts/Struct.sol\":734:741  _number */\n      dup1\n        /* \"contracts/Struct.sol\":725:731  number */\n      0x00\n        /* \"contracts/Struct.sol\":725:741  number = _number */\n      dup2\n      swap1\n      sstore\n      pop\n        /* \"contracts/Struct.sol\":675:748  function setNumber(uint _number) public {... */\n      pop\n      jump\t// out\n        /* \"contracts/Struct.sol\":1280:1367  function setNumberWithCalldata(uint _number) external {... */\n    tag_27:\n        /* \"contracts/Struct.sol\":1353:1360  _number */\n      dup1\n        /* \"contracts/Struct.sol\":1344:1350  number */\n      0x00\n        /* \"contracts/Struct.sol\":1344:1360  number = _number */\n      dup2\n      swap1\n      sstore\n      pop\n        /* \"contracts/Struct.sol\":1280:1367  function setNumberWithCalldata(uint _number) external {... */\n      pop\n      jump\t// out\n        /* \"contracts/Struct.sol\":1034:1237  function getStudent(uint _id) public view returns (string memory, uint, string memory, string memory) {... */\n    tag_30:\n        /* \"contracts/Struct.sol\":1085:1098  string memory */\n      0x60\n        /* \"contracts/Struct.sol\":1100:1104  uint */\n      0x00\n        /* \"contracts/Struct.sol\":1106:1119  string memory */\n      0x60\n        /* \"contracts/Struct.sol\":1121:1134  string memory */\n      dup1\n        /* \"contracts/Struct.sol\":1146:1162  Student memory s */\n      0x00\n        /* \"contracts/Struct.sol\":1165:1173  students */\n      0x01\n        /* \"contracts/Struct.sol\":1165:1178  students[_id] */\n      0x00\n        /* \"contracts/Struct.sol\":1174:1177  _id */\n      dup8\n        /* \"contracts/Struct.sol\":1165:1178  students[_id] */\n      dup2\n      mstore\n      0x20\n      add\n      swap1\n      dup2\n      mstore\n      0x20\n      add\n      0x00\n      keccak256\n        /* \"contracts/Struct.sol\":1146:1178  Student memory s = students[_id] */\n      mload(0x40)\n      dup1\n      0x80\n      add\n      0x40\n      mstore\n      swap1\n      dup2\n      0x00\n      dup3\n      add\n      dup1\n      sload\n      tag_65\n      swap1\n      tag_44\n      jump\t// in\n    tag_65:\n      dup1\n      0x1f\n      add\n      0x20\n      dup1\n      swap2\n      div\n      mul\n      0x20\n      add\n      mload(0x40)\n      swap1\n      dup2\n      add\n      0x40\n      mstore\n      dup1\n      swap3\n      swap2\n      swap1\n      dup2\n      dup2\n      mstore\n      0x20\n      add\n      dup3\n      dup1\n      sload\n      tag_66\n      swap1\n      tag_44\n      jump\t// in\n    tag_66:\n      dup1\n      iszero\n      tag_67\n      jumpi\n      dup1\n      0x1f\n      lt\n      tag_68\n      jumpi\n      0x0100\n      dup1\n      dup4\n      sload\n      div\n      mul\n      dup4\n      mstore\n      swap2\n      0x20\n      add\n      swap2\n      jump(tag_67)\n    tag_68:\n      dup3\n      add\n      swap2\n      swap1\n      0x00\n      mstore\n      keccak256(0x00, 0x20)\n      swap1\n    tag_69:\n      dup2\n      sload\n      dup2\n      mstore\n      swap1\n      0x01\n      add\n      swap1\n      0x20\n      add\n      dup1\n      dup4\n      gt\n      tag_69\n      jumpi\n      dup3\n      swap1\n      sub\n      0x1f\n      and\n      dup3\n      add\n      swap2\n    tag_67:\n      pop\n      pop\n      pop\n      pop\n      pop\n      dup2\n      mstore\n      0x20\n      add\n      0x01\n      dup3\n      add\n      sload\n      dup2\n      mstore\n      0x20\n      add\n      0x02\n      dup3\n      add\n      dup1\n      sload\n      tag_70\n      swap1\n      tag_44\n      jump\t// in\n    tag_70:\n      dup1\n      0x1f\n      add\n      0x20\n      dup1\n      swap2\n      div\n      mul\n      0x20\n      add\n      mload(0x40)\n      swap1\n      dup2\n      add\n      0x40\n      mstore\n      dup1\n      swap3\n      swap2\n      swap1\n      dup2\n      dup2\n      mstore\n      0x20\n      add\n      dup3\n      dup1\n      sload\n      tag_71\n      swap1\n      tag_44\n      jump\t// in\n    tag_71:\n      dup1\n      iszero\n      tag_72\n      jumpi\n      dup1\n      0x1f\n      lt\n      tag_73\n      jumpi\n      0x0100\n      dup1\n      dup4\n      sload\n      div\n      mul\n      dup4\n      mstore\n      swap2\n      0x20\n      add\n      swap2\n      jump(tag_72)\n    tag_73:\n      dup3\n      add\n      swap2\n      swap1\n      0x00\n      mstore\n      keccak256(0x00, 0x20)\n      swap1\n    tag_74:\n      dup2\n      sload\n      dup2\n      mstore\n      swap1\n      0x01\n      add\n      swap1\n      0x20\n      add\n      dup1\n      dup4\n      gt\n      tag_74\n      jumpi\n      dup3\n      swap1\n      sub\n      0x1f\n      and\n      dup3\n      add\n      swap2\n    tag_72:\n      pop\n      pop\n      pop\n      pop\n      pop\n      dup2\n      mstore\n      0x20\n      add\n      0x03\n      dup3\n      add\n      dup1\n      sload\n      tag_75\n      swap1\n      tag_44\n      jump\t// in\n    tag_75:\n      dup1\n      0x1f\n      add\n      0x20\n      dup1\n      swap2\n      div\n      mul\n      0x20\n      add\n      mload(0x40)\n      swap1\n      dup2\n      add\n      0x40\n      mstore\n      dup1\n      swap3\n      swap2\n      swap1\n      dup2\n      dup2\n      mstore\n      0x20\n      add\n      dup3\n      dup1\n      sload\n      tag_76\n      swap1\n      tag_44\n      jump\t// in\n    tag_76:\n      dup1\n      iszero\n      tag_77\n      jumpi\n      dup1\n      0x1f\n      lt\n      tag_78\n      jumpi\n      0x0100\n      dup1\n      dup4\n      sload\n      div\n      mul\n      dup4\n      mstore\n      swap2\n      0x20\n      add\n      swap2\n      jump(tag_77)\n    tag_78:\n      dup3\n      add\n      swap2\n      swap1\n      0x00\n      mstore\n      keccak256(0x00, 0x20)\n      swap1\n    tag_79:\n      dup2\n      sload\n      dup2\n      mstore\n      swap1\n      0x01\n      add\n      swap1\n      0x20\n      add\n      dup1\n      dup4\n      gt\n      tag_79\n      jumpi\n      dup3\n      swap1\n      sub\n      0x1f\n      and\n      dup3\n      add\n      swap2\n    tag_77:\n      pop\n      pop\n      pop\n      pop\n      pop\n      dup2\n      mstore\n      pop\n      pop\n      swap1\n      pop\n        /* \"contracts/Struct.sol\":1196:1197  s */\n      dup1\n        /* \"contracts/Struct.sol\":1196:1202  s.name */\n      0x00\n      add\n      mload\n        /* \"contracts/Struct.sol\":1204:1205  s */\n      dup2\n        /* \"contracts/Struct.sol\":1204:1209  s.age */\n      0x20\n      add\n      mload\n        /* \"contracts/Struct.sol\":1211:1212  s */\n      dup3\n        /* \"contracts/Struct.sol\":1211:1220  s.country */\n      0x40\n      add\n      mload\n        /* \"contracts/Struct.sol\":1222:1223  s */\n      dup4\n        /* \"contracts/Struct.sol\":1222:1229  s.major */\n      0x60\n      add\n      mload\n        /* \"contracts/Struct.sol\":1188:1230  return (s.name, s.age, s.country, s.major) */\n      swap5\n      pop\n      swap5\n      pop\n      swap5\n      pop\n      swap5\n      pop\n      pop\n        /* \"contracts/Struct.sol\":1034:1237  function getStudent(uint _id) public view returns (string memory, uint, string memory, string memory) {... */\n      swap2\n      swap4\n      pop\n      swap2\n      swap4\n      jump\t// out\n        /* \"contracts/Struct.sol\":392:410  uint public number */\n    tag_33:\n      sload(0x00)\n      dup2\n      jump\t// out\n        /* \"contracts/Struct.sol\":791:977  function addStudent(uint _id, string memory _name, uint _age, string memory _country, string memory _major) public {... */\n    tag_39:\n        /* \"contracts/Struct.sol\":932:970  Student(_name, _age, _country, _major) */\n      mload(0x40)\n      dup1\n      0x80\n      add\n      0x40\n      mstore\n      dup1\n        /* \"contracts/Struct.sol\":940:945  _name */\n      dup6\n        /* \"contracts/Struct.sol\":932:970  Student(_name, _age, _country, _major) */\n      dup2\n      mstore\n      0x20\n      add\n        /* \"contracts/Struct.sol\":947:951  _age */\n      dup5\n        /* \"contracts/Struct.sol\":932:970  Student(_name, _age, _country, _major) */\n      dup2\n      mstore\n      0x20\n      add\n        /* \"contracts/Struct.sol\":953:961  _country */\n      dup4\n        /* \"contracts/Struct.sol\":932:970  Student(_name, _age, _country, _major) */\n      dup2\n      mstore\n      0x20\n      add\n        /* \"contracts/Struct.sol\":963:969  _major */\n      dup3\n        /* \"contracts/Struct.sol\":932:970  Student(_name, _age, _country, _major) */\n      dup2\n      mstore\n      pop\n        /* \"contracts/Struct.sol\":916:924  students */\n      0x01\n        /* \"contracts/Struct.sol\":916:929  students[_id] */\n      0x00\n        /* \"contracts/Struct.sol\":925:928  _id */\n      dup8\n        /* \"contracts/Struct.sol\":916:929  students[_id] */\n      dup2\n      mstore\n      0x20\n      add\n      swap1\n      dup2\n      mstore\n      0x20\n      add\n      0x00\n      keccak256\n        /* \"contracts/Struct.sol\":916:970  students[_id] = Student(_name, _age, _country, _major) */\n      0x00\n      dup3\n      add\n      mload\n      dup2\n      0x00\n      add\n      swap1\n      dup2\n      tag_81\n      swap2\n      swap1\n      tag_82\n      jump\t// in\n    tag_81:\n      pop\n      0x20\n      dup3\n      add\n      mload\n      dup2\n      0x01\n      add\n      sstore\n      0x40\n      dup3\n      add\n      mload\n      dup2\n      0x02\n      add\n      swap1\n      dup2\n      tag_83\n      swap2\n      swap1\n      tag_82\n      jump\t// in\n    tag_83:\n      pop\n      0x60\n      dup3\n      add\n      mload\n      dup2\n      0x03\n      add\n      swap1\n      dup2\n      tag_84\n      swap2\n      swap1\n      tag_82\n      jump\t// in\n    tag_84:\n      pop\n      swap1\n      pop\n      pop\n        /* \"contracts/Struct.sol\":791:977  function addStudent(uint _id, string memory _name, uint _age, string memory _country, string memory _major) public {... */\n      pop\n      pop\n      pop\n      pop\n      pop\n      jump\t// out\n        /* \"contracts/Struct.sol\":1408:1522  function sayHello() public pure override returns (string memory) {... */\n    tag_41:\n        /* \"contracts/Struct.sol\":1458:1471  string memory */\n      0x60\n        /* \"contracts/Struct.sol\":1483:1515  return \"Hello from SchoolRecord\" */\n      mload(0x40)\n      dup1\n      0x40\n      add\n      0x40\n      mstore\n      dup1\n      0x17\n      dup2\n      mstore\n      0x20\n      add\n      0x48656c6c6f2066726f6d205363686f6f6c5265636f7264000000000000000000\n      dup2\n      mstore\n      pop\n      swap1\n      pop\n        /* \"contracts/Struct.sol\":1408:1522  function sayHello() public pure override returns (string memory) {... */\n      swap1\n      jump\t// out\n        /* \"contracts/Struct.sol\":153:260  function sayHello() public pure virtual returns (string memory) {... */\n    tag_61:\n        /* \"contracts/Struct.sol\":202:215  string memory */\n      0x60\n        /* \"contracts/Struct.sol\":227:253  return \"Hello from Parent\" */\n      mload(0x40)\n      dup1\n      0x40\n      add\n      0x40\n      mstore\n      dup1\n      0x11\n      dup2\n      mstore\n      0x20\n      add\n      0x48656c6c6f2066726f6d20506172656e74000000000000000000000000000000\n      dup2\n      mstore\n      pop\n      swap1\n      pop\n        /* \"contracts/Struct.sol\":153:260  function sayHello() public pure virtual returns (string memory) {... */\n      swap1\n      jump\t// out\n        /* \"#utility.yul\":7:82   */\n    tag_87:\n        /* \"#utility.yul\":40:46   */\n      0x00\n        /* \"#utility.yul\":73:75   */\n      0x40\n        /* \"#utility.yul\":67:76   */\n      mload\n        /* \"#utility.yul\":57:76   */\n      swap1\n      pop\n        /* \"#utility.yul\":7:82   */\n      swap1\n      jump\t// out\n        /* \"#utility.yul\":88:205   */\n    tag_88:\n        /* \"#utility.yul\":197:198   */\n      0x00\n        /* \"#utility.yul\":194:195   */\n      dup1\n        /* \"#utility.yul\":187:199   */\n      revert\n        /* \"#utility.yul\":211:328   */\n    tag_89:\n        /* \"#utility.yul\":320:321   */\n      0x00\n        /* \"#utility.yul\":317:318   */\n      dup1\n        /* \"#utility.yul\":310:322   */\n      revert\n        /* \"#utility.yul\":334:411   */\n    tag_90:\n        /* \"#utility.yul\":371:378   */\n      0x00\n        /* \"#utility.yul\":400:405   */\n      dup2\n        /* \"#utility.yul\":389:405   */\n      swap1\n      pop\n        /* \"#utility.yul\":334:411   */\n      swap2\n      swap1\n      pop\n      jump\t// out\n        /* \"#utility.yul\":417:539   */\n    tag_91:\n        /* \"#utility.yul\":490:514   */\n      tag_130\n        /* \"#utility.yul\":508:513   */\n      dup2\n        /* \"#utility.yul\":490:514   */\n      tag_90\n      jump\t// in\n    tag_130:\n        /* \"#utility.yul\":483:488   */\n      dup2\n        /* \"#utility.yul\":480:515   */\n      eq\n        /* \"#utility.yul\":470:533   */\n      tag_131\n      jumpi\n        /* \"#utility.yul\":529:530   */\n      0x00\n        /* \"#utility.yul\":526:527   */\n      dup1\n        /* \"#utility.yul\":519:531   */\n      revert\n        /* \"#utility.yul\":470:533   */\n    tag_131:\n        /* \"#utility.yul\":417:539   */\n      pop\n      jump\t// out\n        /* \"#utility.yul\":545:684   */\n    tag_92:\n        /* \"#utility.yul\":591:596   */\n      0x00\n        /* \"#utility.yul\":629:635   */\n      dup2\n        /* \"#utility.yul\":616:636   */\n      calldataload\n        /* \"#utility.yul\":607:636   */\n      swap1\n      pop\n        /* \"#utility.yul\":645:678   */\n      tag_133\n        /* \"#utility.yul\":672:677   */\n      dup2\n        /* \"#utility.yul\":645:678   */\n      tag_91\n      jump\t// in\n    tag_133:\n        /* \"#utility.yul\":545:684   */\n      swap3\n      swap2\n      pop\n      pop\n      jump\t// out\n        /* \"#utility.yul\":690:1019   */\n    tag_14:\n        /* \"#utility.yul\":749:755   */\n      0x00\n        /* \"#utility.yul\":798:800   */\n      0x20\n        /* \"#utility.yul\":786:795   */\n      dup3\n        /* \"#utility.yul\":777:784   */\n      dup5\n        /* \"#utility.yul\":773:796   */\n      sub\n        /* \"#utility.yul\":769:801   */\n      slt\n        /* \"#utility.yul\":766:885   */\n      iszero\n      tag_135\n      jumpi\n        /* \"#utility.yul\":804:883   */\n      tag_136\n      tag_88\n      jump\t// in\n    tag_136:\n        /* \"#utility.yul\":766:885   */\n    tag_135:\n        /* \"#utility.yul\":924:925   */\n      0x00\n        /* \"#utility.yul\":949:1002   */\n      tag_137\n        /* \"#utility.yul\":994:1001   */\n      dup5\n        /* \"#utility.yul\":985:991   */\n      dup3\n        /* \"#utility.yul\":974:983   */\n      dup6\n        /* \"#utility.yul\":970:992   */\n      add\n        /* \"#utility.yul\":949:1002   */\n      tag_92\n      jump\t// in\n    tag_137:\n        /* \"#utility.yul\":939:1002   */\n      swap2\n      pop\n        /* \"#utility.yul\":895:1012   */\n      pop\n        /* \"#utility.yul\":690:1019   */\n      swap3\n      swap2\n      pop\n      pop\n      jump\t// out\n        /* \"#utility.yul\":1025:1124   */\n    tag_93:\n        /* \"#utility.yul\":1077:1083   */\n      0x00\n        /* \"#utility.yul\":1111:1116   */\n      dup2\n        /* \"#utility.yul\":1105:1117   */\n      mload\n        /* \"#utility.yul\":1095:1117   */\n      swap1\n      pop\n        /* \"#utility.yul\":1025:1124   */\n      swap2\n      swap1\n      pop\n      jump\t// out\n        /* \"#utility.yul\":1130:1299   */\n    tag_94:\n        /* \"#utility.yul\":1214:1225   */\n      0x00\n        /* \"#utility.yul\":1248:1254   */\n      dup3\n        /* \"#utility.yul\":1243:1246   */\n      dup3\n        /* \"#utility.yul\":1236:1255   */\n      mstore\n        /* \"#utility.yul\":1288:1292   */\n      0x20\n        /* \"#utility.yul\":1283:1286   */\n      dup3\n        /* \"#utility.yul\":1279:1293   */\n      add\n        /* \"#utility.yul\":1264:1293   */\n      swap1\n      pop\n        /* \"#utility.yul\":1130:1299   */\n      swap3\n      swap2\n      pop\n      pop\n      jump\t// out\n        /* \"#utility.yul\":1305:1444   */\n    tag_95:\n        /* \"#utility.yul\":1394:1400   */\n      dup3\n        /* \"#utility.yul\":1389:1392   */\n      dup2\n        /* \"#utility.yul\":1384:1387   */\n      dup4\n        /* \"#utility.yul\":1378:1401   */\n      mcopy\n        /* \"#utility.yul\":1435:1436   */\n      0x00\n        /* \"#utility.yul\":1426:1432   */\n      dup4\n        /* \"#utility.yul\":1421:1424   */\n      dup4\n        /* \"#utility.yul\":1417:1433   */\n      add\n        /* \"#utility.yul\":1410:1437   */\n      mstore\n        /* \"#utility.yul\":1305:1444   */\n      pop\n      pop\n      pop\n      jump\t// out\n        /* \"#utility.yul\":1450:1552   */\n    tag_96:\n        /* \"#utility.yul\":1491:1497   */\n      0x00\n        /* \"#utility.yul\":1542:1544   */\n      0x1f\n        /* \"#utility.yul\":1538:1545   */\n      not\n        /* \"#utility.yul\":1533:1535   */\n      0x1f\n        /* \"#utility.yul\":1526:1531   */\n      dup4\n        /* \"#utility.yul\":1522:1536   */\n      add\n        /* \"#utility.yul\":1518:1546   */\n      and\n        /* \"#utility.yul\":1508:1546   */\n      swap1\n      pop\n        /* \"#utility.yul\":1450:1552   */\n      swap2\n      swap1\n      pop\n      jump\t// out\n        /* \"#utility.yul\":1558:1935   */\n    tag_97:\n        /* \"#utility.yul\":1646:1649   */\n      0x00\n        /* \"#utility.yul\":1674:1713   */\n      tag_143\n        /* \"#utility.yul\":1707:1712   */\n      dup3\n        /* \"#utility.yul\":1674:1713   */\n      tag_93\n      jump\t// in\n    tag_143:\n        /* \"#utility.yul\":1729:1800   */\n      tag_144\n        /* \"#utility.yul\":1793:1799   */\n      dup2\n        /* \"#utility.yul\":1788:1791   */\n      dup6\n        /* \"#utility.yul\":1729:1800   */\n      tag_94\n      jump\t// in\n    tag_144:\n        /* \"#utility.yul\":1722:1800   */\n      swap4\n      pop\n        /* \"#utility.yul\":1809:1874   */\n      tag_145\n        /* \"#utility.yul\":1867:1873   */\n      dup2\n        /* \"#utility.yul\":1862:1865   */\n      dup6\n        /* \"#utility.yul\":1855:1859   */\n      0x20\n        /* \"#utility.yul\":1848:1853   */\n      dup7\n        /* \"#utility.yul\":1844:1860   */\n      add\n        /* \"#utility.yul\":1809:1874   */\n      tag_95\n      jump\t// in\n    tag_145:\n        /* \"#utility.yul\":1899:1928   */\n      tag_146\n        /* \"#utility.yul\":1921:1927   */\n      dup2\n        /* \"#utility.yul\":1899:1928   */\n      tag_96\n      jump\t// in\n    tag_146:\n        /* \"#utility.yul\":1894:1897   */\n      dup5\n        /* \"#utility.yul\":1890:1929   */\n      add\n        /* \"#utility.yul\":1883:1929   */\n      swap2\n      pop\n        /* \"#utility.yul\":1650:1935   */\n      pop\n        /* \"#utility.yul\":1558:1935   */\n      swap3\n      swap2\n      pop\n      pop\n      jump\t// out\n        /* \"#utility.yul\":1941:2059   */\n    tag_98:\n        /* \"#utility.yul\":2028:2052   */\n      tag_148\n        /* \"#utility.yul\":2046:2051   */\n      dup2\n        /* \"#utility.yul\":2028:2052   */\n      tag_90\n      jump\t// in\n    tag_148:\n        /* \"#utility.yul\":2023:2026   */\n      dup3\n        /* \"#utility.yul\":2016:2053   */\n      mstore\n        /* \"#utility.yul\":1941:2059   */\n      pop\n      pop\n      jump\t// out\n        /* \"#utility.yul\":2065:2891   */\n    tag_17:\n        /* \"#utility.yul\":2302:2306   */\n      0x00\n        /* \"#utility.yul\":2340:2343   */\n      0x80\n        /* \"#utility.yul\":2329:2338   */\n      dup3\n        /* \"#utility.yul\":2325:2344   */\n      add\n        /* \"#utility.yul\":2317:2344   */\n      swap1\n      pop\n        /* \"#utility.yul\":2390:2399   */\n      dup2\n        /* \"#utility.yul\":2384:2388   */\n      dup2\n        /* \"#utility.yul\":2380:2400   */\n      sub\n        /* \"#utility.yul\":2376:2377   */\n      0x00\n        /* \"#utility.yul\":2365:2374   */\n      dup4\n        /* \"#utility.yul\":2361:2378   */\n      add\n        /* \"#utility.yul\":2354:2401   */\n      mstore\n        /* \"#utility.yul\":2418:2496   */\n      tag_150\n        /* \"#utility.yul\":2491:2495   */\n      dup2\n        /* \"#utility.yul\":2482:2488   */\n      dup8\n        /* \"#utility.yul\":2418:2496   */\n      tag_97\n      jump\t// in\n    tag_150:\n        /* \"#utility.yul\":2410:2496   */\n      swap1\n      pop\n        /* \"#utility.yul\":2506:2578   */\n      tag_151\n        /* \"#utility.yul\":2574:2576   */\n      0x20\n        /* \"#utility.yul\":2563:2572   */\n      dup4\n        /* \"#utility.yul\":2559:2577   */\n      add\n        /* \"#utility.yul\":2550:2556   */\n      dup7\n        /* \"#utility.yul\":2506:2578   */\n      tag_98\n      jump\t// in\n    tag_151:\n        /* \"#utility.yul\":2625:2634   */\n      dup2\n        /* \"#utility.yul\":2619:2623   */\n      dup2\n        /* \"#utility.yul\":2615:2635   */\n      sub\n        /* \"#utility.yul\":2610:2612   */\n      0x40\n        /* \"#utility.yul\":2599:2608   */\n      dup4\n        /* \"#utility.yul\":2595:2613   */\n      add\n        /* \"#utility.yul\":2588:2636   */\n      mstore\n        /* \"#utility.yul\":2653:2731   */\n      tag_152\n        /* \"#utility.yul\":2726:2730   */\n      dup2\n        /* \"#utility.yul\":2717:2723   */\n      dup6\n        /* \"#utility.yul\":2653:2731   */\n      tag_97\n      jump\t// in\n    tag_152:\n        /* \"#utility.yul\":2645:2731   */\n      swap1\n      pop\n        /* \"#utility.yul\":2778:2787   */\n      dup2\n        /* \"#utility.yul\":2772:2776   */\n      dup2\n        /* \"#utility.yul\":2768:2788   */\n      sub\n        /* \"#utility.yul\":2763:2765   */\n      0x60\n        /* \"#utility.yul\":2752:2761   */\n      dup4\n        /* \"#utility.yul\":2748:2766   */\n      add\n        /* \"#utility.yul\":2741:2789   */\n      mstore\n        /* \"#utility.yul\":2806:2884   */\n      tag_153\n        /* \"#utility.yul\":2879:2883   */\n      dup2\n        /* \"#utility.yul\":2870:2876   */\n      dup5\n        /* \"#utility.yul\":2806:2884   */\n      tag_97\n      jump\t// in\n    tag_153:\n        /* \"#utility.yul\":2798:2884   */\n      swap1\n      pop\n        /* \"#utility.yul\":2065:2891   */\n      swap6\n      swap5\n      pop\n      pop\n      pop\n      pop\n      pop\n      jump\t// out\n        /* \"#utility.yul\":2897:3210   */\n    tag_21:\n        /* \"#utility.yul\":3010:3014   */\n      0x00\n        /* \"#utility.yul\":3048:3050   */\n      0x20\n        /* \"#utility.yul\":3037:3046   */\n      dup3\n        /* \"#utility.yul\":3033:3051   */\n      add\n        /* \"#utility.yul\":3025:3051   */\n      swap1\n      pop\n        /* \"#utility.yul\":3097:3106   */\n      dup2\n        /* \"#utility.yul\":3091:3095   */\n      dup2\n        /* \"#utility.yul\":3087:3107   */\n      sub\n        /* \"#utility.yul\":3083:3084   */\n      0x00\n        /* \"#utility.yul\":3072:3081   */\n      dup4\n        /* \"#utility.yul\":3068:3085   */\n      add\n        /* \"#utility.yul\":3061:3108   */\n      mstore\n        /* \"#utility.yul\":3125:3203   */\n      tag_155\n        /* \"#utility.yul\":3198:3202   */\n      dup2\n        /* \"#utility.yul\":3189:3195   */\n      dup5\n        /* \"#utility.yul\":3125:3203   */\n      tag_97\n      jump\t// in\n    tag_155:\n        /* \"#utility.yul\":3117:3203   */\n      swap1\n      pop\n        /* \"#utility.yul\":2897:3210   */\n      swap3\n      swap2\n      pop\n      pop\n      jump\t// out\n        /* \"#utility.yul\":3216:3438   */\n    tag_35:\n        /* \"#utility.yul\":3309:3313   */\n      0x00\n        /* \"#utility.yul\":3347:3349   */\n      0x20\n        /* \"#utility.yul\":3336:3345   */\n      dup3\n        /* \"#utility.yul\":3332:3350   */\n      add\n        /* \"#utility.yul\":3324:3350   */\n      swap1\n      pop\n        /* \"#utility.yul\":3360:3431   */\n      tag_157\n        /* \"#utility.yul\":3428:3429   */\n      0x00\n        /* \"#utility.yul\":3417:3426   */\n      dup4\n        /* \"#utility.yul\":3413:3430   */\n      add\n        /* \"#utility.yul\":3404:3410   */\n      dup5\n        /* \"#utility.yul\":3360:3431   */\n      tag_98\n      jump\t// in\n    tag_157:\n        /* \"#utility.yul\":3216:3438   */\n      swap3\n      swap2\n      pop\n      pop\n      jump\t// out\n        /* \"#utility.yul\":3444:3561   */\n    tag_99:\n        /* \"#utility.yul\":3553:3554   */\n      0x00\n        /* \"#utility.yul\":3550:3551   */\n      dup1\n        /* \"#utility.yul\":3543:3555   */\n      revert\n        /* \"#utility.yul\":3567:3684   */\n    tag_100:\n        /* \"#utility.yul\":3676:3677   */\n      0x00\n        /* \"#utility.yul\":3673:3674   */\n      dup1\n        /* \"#utility.yul\":3666:3678   */\n      revert\n        /* \"#utility.yul\":3690:3870   */\n    tag_101:\n        /* \"#utility.yul\":3738:3815   */\n      0x4e487b7100000000000000000000000000000000000000000000000000000000\n        /* \"#utility.yul\":3735:3736   */\n      0x00\n        /* \"#utility.yul\":3728:3816   */\n      mstore\n        /* \"#utility.yul\":3835:3839   */\n      0x41\n        /* \"#utility.yul\":3832:3833   */\n      0x04\n        /* \"#utility.yul\":3825:3840   */\n      mstore\n        /* \"#utility.yul\":3859:3863   */\n      0x24\n        /* \"#utility.yul\":3856:3857   */\n      0x00\n        /* \"#utility.yul\":3849:3864   */\n      revert\n        /* \"#utility.yul\":3876:4157   */\n    tag_102:\n        /* \"#utility.yul\":3959:3986   */\n      tag_162\n        /* \"#utility.yul\":3981:3985   */\n      dup3\n        /* \"#utility.yul\":3959:3986   */\n      tag_96\n      jump\t// in\n    tag_162:\n        /* \"#utility.yul\":3951:3957   */\n      dup2\n        /* \"#utility.yul\":3947:3987   */\n      add\n        /* \"#utility.yul\":4089:4095   */\n      dup2\n        /* \"#utility.yul\":4077:4087   */\n      dup2\n        /* \"#utility.yul\":4074:4096   */\n      lt\n        /* \"#utility.yul\":4053:4071   */\n      0xffffffffffffffff\n        /* \"#utility.yul\":4041:4051   */\n      dup3\n        /* \"#utility.yul\":4038:4072   */\n      gt\n        /* \"#utility.yul\":4035:4097   */\n      or\n        /* \"#utility.yul\":4032:4120   */\n      iszero\n      tag_163\n      jumpi\n        /* \"#utility.yul\":4100:4118   */\n      tag_164\n      tag_101\n      jump\t// in\n    tag_164:\n        /* \"#utility.yul\":4032:4120   */\n    tag_163:\n        /* \"#utility.yul\":4140:4150   */\n      dup1\n        /* \"#utility.yul\":4136:4138   */\n      0x40\n        /* \"#utility.yul\":4129:4151   */\n      mstore\n        /* \"#utility.yul\":3919:4157   */\n      pop\n        /* \"#utility.yul\":3876:4157   */\n      pop\n      pop\n      jump\t// out\n        /* \"#utility.yul\":4163:4292   */\n    tag_103:\n        /* \"#utility.yul\":4197:4203   */\n      0x00\n        /* \"#utility.yul\":4224:4244   */\n      tag_166\n      tag_87\n      jump\t// in\n    tag_166:\n        /* \"#utility.yul\":4214:4244   */\n      swap1\n      pop\n        /* \"#utility.yul\":4253:4286   */\n      tag_167\n        /* \"#utility.yul\":4281:4285   */\n      dup3\n        /* \"#utility.yul\":4273:4279   */\n      dup3\n        /* \"#utility.yul\":4253:4286   */\n      tag_102\n      jump\t// in\n    tag_167:\n        /* \"#utility.yul\":4163:4292   */\n      swap2\n      swap1\n      pop\n      jump\t// out\n        /* \"#utility.yul\":4298:4606   */\n    tag_104:\n        /* \"#utility.yul\":4360:4364   */\n      0x00\n        /* \"#utility.yul\":4450:4468   */\n      0xffffffffffffffff\n        /* \"#utility.yul\":4442:4448   */\n      dup3\n        /* \"#utility.yul\":4439:4469   */\n      gt\n        /* \"#utility.yul\":4436:4492   */\n      iszero\n      tag_169\n      jumpi\n        /* \"#utility.yul\":4472:4490   */\n      tag_170\n      tag_101\n      jump\t// in\n    tag_170:\n        /* \"#utility.yul\":4436:4492   */\n    tag_169:\n        /* \"#utility.yul\":4510:4539   */\n      tag_171\n        /* \"#utility.yul\":4532:4538   */\n      dup3\n        /* \"#utility.yul\":4510:4539   */\n      tag_96\n      jump\t// in\n    tag_171:\n        /* \"#utility.yul\":4502:4539   */\n      swap1\n      pop\n        /* \"#utility.yul\":4594:4598   */\n      0x20\n        /* \"#utility.yul\":4588:4592   */\n      dup2\n        /* \"#utility.yul\":4584:4599   */\n      add\n        /* \"#utility.yul\":4576:4599   */\n      swap1\n      pop\n        /* \"#utility.yul\":4298:4606   */\n      swap2\n      swap1\n      pop\n      jump\t// out\n        /* \"#utility.yul\":4612:4760   */\n    tag_105:\n        /* \"#utility.yul\":4710:4716   */\n      dup3\n        /* \"#utility.yul\":4705:4708   */\n      dup2\n        /* \"#utility.yul\":4700:4703   */\n      dup4\n        /* \"#utility.yul\":4687:4717   */\n      calldatacopy\n        /* \"#utility.yul\":4751:4752   */\n      0x00\n        /* \"#utility.yul\":4742:4748   */\n      dup4\n        /* \"#utility.yul\":4737:4740   */\n      dup4\n        /* \"#utility.yul\":4733:4749   */\n      add\n        /* \"#utility.yul\":4726:4753   */\n      mstore\n        /* \"#utility.yul\":4612:4760   */\n      pop\n      pop\n      pop\n      jump\t// out\n        /* \"#utility.yul\":4766:5191   */\n    tag_106:\n        /* \"#utility.yul\":4844:4849   */\n      0x00\n        /* \"#utility.yul\":4869:4935   */\n      tag_174\n        /* \"#utility.yul\":4885:4934   */\n      tag_175\n        /* \"#utility.yul\":4927:4933   */\n      dup5\n        /* \"#utility.yul\":4885:4934   */\n      tag_104\n      jump\t// in\n    tag_175:\n        /* \"#utility.yul\":4869:4935   */\n      tag_103\n      jump\t// in\n    tag_174:\n        /* \"#utility.yul\":4860:4935   */\n      swap1\n      pop\n        /* \"#utility.yul\":4958:4964   */\n      dup3\n        /* \"#utility.yul\":4951:4956   */\n      dup2\n        /* \"#utility.yul\":4944:4965   */\n      mstore\n        /* \"#utility.yul\":4996:5000   */\n      0x20\n        /* \"#utility.yul\":4989:4994   */\n      dup2\n        /* \"#utility.yul\":4985:5001   */\n      add\n        /* \"#utility.yul\":5034:5037   */\n      dup5\n        /* \"#utility.yul\":5025:5031   */\n      dup5\n        /* \"#utility.yul\":5020:5023   */\n      dup5\n        /* \"#utility.yul\":5016:5032   */\n      add\n        /* \"#utility.yul\":5013:5038   */\n      gt\n        /* \"#utility.yul\":5010:5122   */\n      iszero\n      tag_176\n      jumpi\n        /* \"#utility.yul\":5041:5120   */\n      tag_177\n      tag_100\n      jump\t// in\n    tag_177:\n        /* \"#utility.yul\":5010:5122   */\n    tag_176:\n        /* \"#utility.yul\":5131:5185   */\n      tag_178\n        /* \"#utility.yul\":5178:5184   */\n      dup5\n        /* \"#utility.yul\":5173:5176   */\n      dup3\n        /* \"#utility.yul\":5168:5171   */\n      dup6\n        /* \"#utility.yul\":5131:5185   */\n      tag_105\n      jump\t// in\n    tag_178:\n        /* \"#utility.yul\":4850:5191   */\n      pop\n        /* \"#utility.yul\":4766:5191   */\n      swap4\n      swap3\n      pop\n      pop\n      pop\n      jump\t// out\n        /* \"#utility.yul\":5211:5551   */\n    tag_107:\n        /* \"#utility.yul\":5267:5272   */\n      0x00\n        /* \"#utility.yul\":5316:5319   */\n      dup3\n        /* \"#utility.yul\":5309:5313   */\n      0x1f\n        /* \"#utility.yul\":5301:5307   */\n      dup4\n        /* \"#utility.yul\":5297:5314   */\n      add\n        /* \"#utility.yul\":5293:5320   */\n      slt\n        /* \"#utility.yul\":5283:5405   */\n      tag_180\n      jumpi\n        /* \"#utility.yul\":5324:5403   */\n      tag_181\n      tag_99\n      jump\t// in\n    tag_181:\n        /* \"#utility.yul\":5283:5405   */\n    tag_180:\n        /* \"#utility.yul\":5441:5447   */\n      dup2\n        /* \"#utility.yul\":5428:5448   */\n      calldataload\n        /* \"#utility.yul\":5466:5545   */\n      tag_182\n        /* \"#utility.yul\":5541:5544   */\n      dup5\n        /* \"#utility.yul\":5533:5539   */\n      dup3\n        /* \"#utility.yul\":5526:5530   */\n      0x20\n        /* \"#utility.yul\":5518:5524   */\n      dup7\n        /* \"#utility.yul\":5514:5531   */\n      add\n        /* \"#utility.yul\":5466:5545   */\n      tag_106\n      jump\t// in\n    tag_182:\n        /* \"#utility.yul\":5457:5545   */\n      swap2\n      pop\n        /* \"#utility.yul\":5273:5551   */\n      pop\n        /* \"#utility.yul\":5211:5551   */\n      swap3\n      swap2\n      pop\n      pop\n      jump\t// out\n        /* \"#utility.yul\":5557:7008   */\n    tag_38:\n        /* \"#utility.yul\":5682:5688   */\n      0x00\n        /* \"#utility.yul\":5690:5696   */\n      dup1\n        /* \"#utility.yul\":5698:5704   */\n      0x00\n        /* \"#utility.yul\":5706:5712   */\n      dup1\n        /* \"#utility.yul\":5714:5720   */\n      0x00\n        /* \"#utility.yul\":5763:5766   */\n      0xa0\n        /* \"#utility.yul\":5751:5760   */\n      dup7\n        /* \"#utility.yul\":5742:5749   */\n      dup9\n        /* \"#utility.yul\":5738:5761   */\n      sub\n        /* \"#utility.yul\":5734:5767   */\n      slt\n        /* \"#utility.yul\":5731:5851   */\n      iszero\n      tag_184\n      jumpi\n        /* \"#utility.yul\":5770:5849   */\n      tag_185\n      tag_88\n      jump\t// in\n    tag_185:\n        /* \"#utility.yul\":5731:5851   */\n    tag_184:\n        /* \"#utility.yul\":5890:5891   */\n      0x00\n        /* \"#utility.yul\":5915:5968   */\n      tag_186\n        /* \"#utility.yul\":5960:5967   */\n      dup9\n        /* \"#utility.yul\":5951:5957   */\n      dup3\n        /* \"#utility.yul\":5940:5949   */\n      dup10\n        /* \"#utility.yul\":5936:5958   */\n      add\n        /* \"#utility.yul\":5915:5968   */\n      tag_92\n      jump\t// in\n    tag_186:\n        /* \"#utility.yul\":5905:5968   */\n      swap6\n      pop\n        /* \"#utility.yul\":5861:5978   */\n      pop\n        /* \"#utility.yul\":6045:6047   */\n      0x20\n        /* \"#utility.yul\":6034:6043   */\n      dup7\n        /* \"#utility.yul\":6030:6048   */\n      add\n        /* \"#utility.yul\":6017:6049   */\n      calldataload\n        /* \"#utility.yul\":6076:6094   */\n      0xffffffffffffffff\n        /* \"#utility.yul\":6068:6074   */\n      dup2\n        /* \"#utility.yul\":6065:6095   */\n      gt\n        /* \"#utility.yul\":6062:6179   */\n      iszero\n      tag_187\n      jumpi\n        /* \"#utility.yul\":6098:6177   */\n      tag_188\n      tag_89\n      jump\t// in\n    tag_188:\n        /* \"#utility.yul\":6062:6179   */\n    tag_187:\n        /* \"#utility.yul\":6203:6266   */\n      tag_189\n        /* \"#utility.yul\":6258:6265   */\n      dup9\n        /* \"#utility.yul\":6249:6255   */\n      dup3\n        /* \"#utility.yul\":6238:6247   */\n      dup10\n        /* \"#utility.yul\":6234:6256   */\n      add\n        /* \"#utility.yul\":6203:6266   */\n      tag_107\n      jump\t// in\n    tag_189:\n        /* \"#utility.yul\":6193:6266   */\n      swap5\n      pop\n        /* \"#utility.yul\":5988:6276   */\n      pop\n        /* \"#utility.yul\":6315:6317   */\n      0x40\n        /* \"#utility.yul\":6341:6394   */\n      tag_190\n        /* \"#utility.yul\":6386:6393   */\n      dup9\n        /* \"#utility.yul\":6377:6383   */\n      dup3\n        /* \"#utility.yul\":6366:6375   */\n      dup10\n        /* \"#utility.yul\":6362:6384   */\n      add\n        /* \"#utility.yul\":6341:6394   */\n      tag_92\n      jump\t// in\n    tag_190:\n        /* \"#utility.yul\":6331:6394   */\n      swap4\n      pop\n        /* \"#utility.yul\":6286:6404   */\n      pop\n        /* \"#utility.yul\":6471:6473   */\n      0x60\n        /* \"#utility.yul\":6460:6469   */\n      dup7\n        /* \"#utility.yul\":6456:6474   */\n      add\n        /* \"#utility.yul\":6443:6475   */\n      calldataload\n        /* \"#utility.yul\":6502:6520   */\n      0xffffffffffffffff\n        /* \"#utility.yul\":6494:6500   */\n      dup2\n        /* \"#utility.yul\":6491:6521   */\n      gt\n        /* \"#utility.yul\":6488:6605   */\n      iszero\n      tag_191\n      jumpi\n        /* \"#utility.yul\":6524:6603   */\n      tag_192\n      tag_89\n      jump\t// in\n    tag_192:\n        /* \"#utility.yul\":6488:6605   */\n    tag_191:\n        /* \"#utility.yul\":6629:6692   */\n      tag_193\n        /* \"#utility.yul\":6684:6691   */\n      dup9\n        /* \"#utility.yul\":6675:6681   */\n      dup3\n        /* \"#utility.yul\":6664:6673   */\n      dup10\n        /* \"#utility.yul\":6660:6682   */\n      add\n        /* \"#utility.yul\":6629:6692   */\n      tag_107\n      jump\t// in\n    tag_193:\n        /* \"#utility.yul\":6619:6692   */\n      swap3\n      pop\n        /* \"#utility.yul\":6414:6702   */\n      pop\n        /* \"#utility.yul\":6769:6772   */\n      0x80\n        /* \"#utility.yul\":6758:6767   */\n      dup7\n        /* \"#utility.yul\":6754:6773   */\n      add\n        /* \"#utility.yul\":6741:6774   */\n      calldataload\n        /* \"#utility.yul\":6801:6819   */\n      0xffffffffffffffff\n        /* \"#utility.yul\":6793:6799   */\n      dup2\n        /* \"#utility.yul\":6790:6820   */\n      gt\n        /* \"#utility.yul\":6787:6904   */\n      iszero\n      tag_194\n      jumpi\n        /* \"#utility.yul\":6823:6902   */\n      tag_195\n      tag_89\n      jump\t// in\n    tag_195:\n        /* \"#utility.yul\":6787:6904   */\n    tag_194:\n        /* \"#utility.yul\":6928:6991   */\n      tag_196\n        /* \"#utility.yul\":6983:6990   */\n      dup9\n        /* \"#utility.yul\":6974:6980   */\n      dup3\n        /* \"#utility.yul\":6963:6972   */\n      dup10\n        /* \"#utility.yul\":6959:6981   */\n      add\n        /* \"#utility.yul\":6928:6991   */\n      tag_107\n      jump\t// in\n    tag_196:\n        /* \"#utility.yul\":6918:6991   */\n      swap2\n      pop\n        /* \"#utility.yul\":6712:7001   */\n      pop\n        /* \"#utility.yul\":5557:7008   */\n      swap3\n      swap6\n      pop\n      swap3\n      swap6\n      swap1\n      swap4\n      pop\n      jump\t// out\n        /* \"#utility.yul\":7014:7194   */\n    tag_108:\n        /* \"#utility.yul\":7062:7139   */\n      0x4e487b7100000000000000000000000000000000000000000000000000000000\n        /* \"#utility.yul\":7059:7060   */\n      0x00\n        /* \"#utility.yul\":7052:7140   */\n      mstore\n        /* \"#utility.yul\":7159:7163   */\n      0x22\n        /* \"#utility.yul\":7156:7157   */\n      0x04\n        /* \"#utility.yul\":7149:7164   */\n      mstore\n        /* \"#utility.yul\":7183:7187   */\n      0x24\n        /* \"#utility.yul\":7180:7181   */\n      0x00\n        /* \"#utility.yul\":7173:7188   */\n      revert\n        /* \"#utility.yul\":7200:7520   */\n    tag_44:\n        /* \"#utility.yul\":7244:7250   */\n      0x00\n        /* \"#utility.yul\":7281:7282   */\n      0x02\n        /* \"#utility.yul\":7275:7279   */\n      dup3\n        /* \"#utility.yul\":7271:7283   */\n      div\n        /* \"#utility.yul\":7261:7283   */\n      swap1\n      pop\n        /* \"#utility.yul\":7328:7329   */\n      0x01\n        /* \"#utility.yul\":7322:7326   */\n      dup3\n        /* \"#utility.yul\":7318:7330   */\n      and\n        /* \"#utility.yul\":7349:7367   */\n      dup1\n        /* \"#utility.yul\":7339:7420   */\n      tag_199\n      jumpi\n        /* \"#utility.yul\":7405:7409   */\n      0x7f\n        /* \"#utility.yul\":7397:7403   */\n      dup3\n        /* \"#utility.yul\":7393:7410   */\n      and\n        /* \"#utility.yul\":7383:7410   */\n      swap2\n      pop\n        /* \"#utility.yul\":7339:7420   */\n    tag_199:\n        /* \"#utility.yul\":7467:7469   */\n      0x20\n        /* \"#utility.yul\":7459:7465   */\n      dup3\n        /* \"#utility.yul\":7456:7470   */\n      lt\n        /* \"#utility.yul\":7436:7454   */\n      dup2\n        /* \"#utility.yul\":7433:7471   */\n      sub\n        /* \"#utility.yul\":7430:7514   */\n      tag_200\n      jumpi\n        /* \"#utility.yul\":7486:7504   */\n      tag_201\n      tag_108\n      jump\t// in\n    tag_201:\n        /* \"#utility.yul\":7430:7514   */\n    tag_200:\n        /* \"#utility.yul\":7251:7520   */\n      pop\n        /* \"#utility.yul\":7200:7520   */\n      swap2\n      swap1\n      pop\n      jump\t// out\n        /* \"#utility.yul\":7526:7667   */\n    tag_109:\n        /* \"#utility.yul\":7575:7579   */\n      0x00\n        /* \"#utility.yul\":7598:7601   */\n      dup2\n        /* \"#utility.yul\":7590:7601   */\n      swap1\n      pop\n        /* \"#utility.yul\":7621:7624   */\n      dup2\n        /* \"#utility.yul\":7618:7619   */\n      0x00\n        /* \"#utility.yul\":7611:7625   */\n      mstore\n        /* \"#utility.yul\":7655:7659   */\n      0x20\n        /* \"#utility.yul\":7652:7653   */\n      0x00\n        /* \"#utility.yul\":7642:7660   */\n      keccak256\n        /* \"#utility.yul\":7634:7660   */\n      swap1\n      pop\n        /* \"#utility.yul\":7526:7667   */\n      swap2\n      swap1\n      pop\n      jump\t// out\n        /* \"#utility.yul\":7673:7766   */\n    tag_110:\n        /* \"#utility.yul\":7710:7716   */\n      0x00\n        /* \"#utility.yul\":7757:7759   */\n      0x20\n        /* \"#utility.yul\":7752:7754   */\n      0x1f\n        /* \"#utility.yul\":7745:7750   */\n      dup4\n        /* \"#utility.yul\":7741:7755   */\n      add\n        /* \"#utility.yul\":7737:7760   */\n      div\n        /* \"#utility.yul\":7727:7760   */\n      swap1\n      pop\n        /* \"#utility.yul\":7673:7766   */\n      swap2\n      swap1\n      pop\n      jump\t// out\n        /* \"#utility.yul\":7772:7879   */\n    tag_111:\n        /* \"#utility.yul\":7816:7824   */\n      0x00\n        /* \"#utility.yul\":7866:7871   */\n      dup3\n        /* \"#utility.yul\":7860:7864   */\n      dup3\n        /* \"#utility.yul\":7856:7872   */\n      shl\n        /* \"#utility.yul\":7835:7872   */\n      swap1\n      pop\n        /* \"#utility.yul\":7772:7879   */\n      swap3\n      swap2\n      pop\n      pop\n      jump\t// out\n        /* \"#utility.yul\":7885:8278   */\n    tag_112:\n        /* \"#utility.yul\":7954:7960   */\n      0x00\n        /* \"#utility.yul\":8004:8005   */\n      0x08\n        /* \"#utility.yul\":7992:8002   */\n      dup4\n        /* \"#utility.yul\":7988:8006   */\n      mul\n        /* \"#utility.yul\":8027:8124   */\n      tag_206\n        /* \"#utility.yul\":8057:8123   */\n      0xffffffffffffffffffffffffffffffffffffffffffffffffffffffffffffffff\n        /* \"#utility.yul\":8046:8055   */\n      dup3\n        /* \"#utility.yul\":8027:8124   */\n      tag_111\n      jump\t// in\n    tag_206:\n        /* \"#utility.yul\":8145:8184   */\n      tag_207\n        /* \"#utility.yul\":8175:8183   */\n      dup7\n        /* \"#utility.yul\":8164:8173   */\n      dup4\n        /* \"#utility.yul\":8145:8184   */\n      tag_111\n      jump\t// in\n    tag_207:\n        /* \"#utility.yul\":8133:8184   */\n      swap6\n      pop\n        /* \"#utility.yul\":8217:8221   */\n      dup1\n        /* \"#utility.yul\":8213:8222   */\n      not\n        /* \"#utility.yul\":8206:8211   */\n      dup5\n        /* \"#utility.yul\":8202:8223   */\n      and\n        /* \"#utility.yul\":8193:8223   */\n      swap4\n      pop\n        /* \"#utility.yul\":8266:8270   */\n      dup1\n        /* \"#utility.yul\":8256:8264   */\n      dup7\n        /* \"#utility.yul\":8252:8271   */\n      and\n        /* \"#utility.yul\":8245:8250   */\n      dup5\n        /* \"#utility.yul\":8242:8272   */\n      or\n        /* \"#utility.yul\":8232:8272   */\n      swap3\n      pop\n        /* \"#utility.yul\":7961:8278   */\n      pop\n      pop\n        /* \"#utility.yul\":7885:8278   */\n      swap4\n      swap3\n      pop\n      pop\n      pop\n      jump\t// out\n        /* \"#utility.yul\":8284:8344   */\n    tag_113:\n        /* \"#utility.yul\":8312:8315   */\n      0x00\n        /* \"#utility.yul\":8333:8338   */\n      dup2\n        /* \"#utility.yul\":8326:8338   */\n      swap1\n      pop\n        /* \"#utility.yul\":8284:8344   */\n      swap2\n      swap1\n      pop\n      jump\t// out\n        /* \"#utility.yul\":8350:8492   */\n    tag_114:\n        /* \"#utility.yul\":8400:8409   */\n      0x00\n        /* \"#utility.yul\":8433:8486   */\n      tag_210\n        /* \"#utility.yul\":8451:8485   */\n      tag_211\n        /* \"#utility.yul\":8460:8484   */\n      tag_212\n        /* \"#utility.yul\":8478:8483   */\n      dup5\n        /* \"#utility.yul\":8460:8484   */\n      tag_90\n      jump\t// in\n    tag_212:\n        /* \"#utility.yul\":8451:8485   */\n      tag_113\n      jump\t// in\n    tag_211:\n        /* \"#utility.yul\":8433:8486   */\n      tag_90\n      jump\t// in\n    tag_210:\n        /* \"#utility.yul\":8420:8486   */\n      swap1\n      pop\n        /* \"#utility.yul\":8350:8492   */\n      swap2\n      swap1\n      pop\n      jump\t// out\n        /* \"#utility.yul\":8498:8573   */\n    tag_115:\n        /* \"#utility.yul\":8541:8544   */\n      0x00\n        /* \"#utility.yul\":8562:8567   */\n      dup2\n        /* \"#utility.yul\":8555:8567   */\n      swap1\n      pop\n        /* \"#utility.yul\":8498:8573   */\n      swap2\n      swap1\n      pop\n      jump\t// out\n        /* \"#utility.yul\":8579:8848   */\n    tag_116:\n        /* \"#utility.yul\":8689:8728   */\n      tag_215\n        /* \"#utility.yul\":8720:8727   */\n      dup4\n        /* \"#utility.yul\":8689:8728   */\n      tag_114\n      jump\t// in\n    tag_215:\n        /* \"#utility.yul\":8750:8841   */\n      tag_216\n        /* \"#utility.yul\":8799:8840   */\n      tag_217\n        /* \"#utility.yul\":8823:8839   */\n      dup3\n        /* \"#utility.yul\":8799:8840   */\n      tag_115\n      jump\t// in\n    tag_217:\n        /* \"#utility.yul\":8791:8797   */\n      dup5\n        /* \"#utility.yul\":8784:8788   */\n      dup5\n        /* \"#utility.yul\":8778:8789   */\n      sload\n        /* \"#utility.yul\":8750:8841   */\n      tag_112\n      jump\t// in\n    tag_216:\n        /* \"#utility.yul\":8744:8748   */\n      dup3\n        /* \"#utility.yul\":8737:8842   */\n      sstore\n        /* \"#utility.yul\":8655:8848   */\n      pop\n        /* \"#utility.yul\":8579:8848   */\n      pop\n      pop\n      pop\n      jump\t// out\n        /* \"#utility.yul\":8854:8927   */\n    tag_117:\n        /* \"#utility.yul\":8899:8902   */\n      0x00\n        /* \"#utility.yul\":8854:8927   */\n      swap1\n      jump\t// out\n        /* \"#utility.yul\":8933:9122   */\n    tag_118:\n        /* \"#utility.yul\":9010:9042   */\n      tag_220\n      tag_117\n      jump\t// in\n    tag_220:\n        /* \"#utility.yul\":9051:9116   */\n      tag_221\n        /* \"#utility.yul\":9109:9115   */\n      dup2\n        /* \"#utility.yul\":9101:9107   */\n      dup5\n        /* \"#utility.yul\":9095:9099   */\n      dup5\n        /* \"#utility.yul\":9051:9116   */\n      tag_116\n      jump\t// in\n    tag_221:\n        /* \"#utility.yul\":8986:9122   */\n      pop\n        /* \"#utility.yul\":8933:9122   */\n      pop\n      pop\n      jump\t// out\n        /* \"#utility.yul\":9128:9314   */\n    tag_119:\n        /* \"#utility.yul\":9188:9308   */\n    tag_223:\n        /* \"#utility.yul\":9205:9208   */\n      dup2\n        /* \"#utility.yul\":9198:9203   */\n      dup2\n        /* \"#utility.yul\":9195:9209   */\n      lt\n        /* \"#utility.yul\":9188:9308   */\n      iszero\n      tag_225\n      jumpi\n        /* \"#utility.yul\":9259:9298   */\n      tag_226\n        /* \"#utility.yul\":9296:9297   */\n      0x00\n        /* \"#utility.yul\":9289:9294   */\n      dup3\n        /* \"#utility.yul\":9259:9298   */\n      tag_118\n      jump\t// in\n    tag_226:\n        /* \"#utility.yul\":9232:9233   */\n      0x01\n        /* \"#utility.yul\":9225:9230   */\n      dup2\n        /* \"#utility.yul\":9221:9234   */\n      add\n        /* \"#utility.yul\":9212:9234   */\n      swap1\n      pop\n        /* \"#utility.yul\":9188:9308   */\n      jump(tag_223)\n    tag_225:\n        /* \"#utility.yul\":9128:9314   */\n      pop\n      pop\n      jump\t// out\n        /* \"#utility.yul\":9320:9863   */\n    tag_120:\n        /* \"#utility.yul\":9421:9423   */\n      0x1f\n        /* \"#utility.yul\":9416:9419   */\n      dup3\n        /* \"#utility.yul\":9413:9424   */\n      gt\n        /* \"#utility.yul\":9410:9856   */\n      iszero\n      tag_228\n      jumpi\n        /* \"#utility.yul\":9455:9493   */\n      tag_229\n        /* \"#utility.yul\":9487:9492   */\n      dup2\n        /* \"#utility.yul\":9455:9493   */\n      tag_109\n      jump\t// in\n    tag_229:\n        /* \"#utility.yul\":9539:9568   */\n      tag_230\n        /* \"#utility.yul\":9557:9567   */\n      dup5\n        /* \"#utility.yul\":9539:9568   */\n      tag_110\n      jump\t// in\n    tag_230:\n        /* \"#utility.yul\":9529:9537   */\n      dup2\n        /* \"#utility.yul\":9525:9569   */\n      add\n        /* \"#utility.yul\":9722:9724   */\n      0x20\n        /* \"#utility.yul\":9710:9720   */\n      dup6\n        /* \"#utility.yul\":9707:9725   */\n      lt\n        /* \"#utility.yul\":9704:9753   */\n      iszero\n      tag_231\n      jumpi\n        /* \"#utility.yul\":9743:9751   */\n      dup2\n        /* \"#utility.yul\":9728:9751   */\n      swap1\n      pop\n        /* \"#utility.yul\":9704:9753   */\n    tag_231:\n        /* \"#utility.yul\":9766:9846   */\n      tag_232\n        /* \"#utility.yul\":9822:9844   */\n      tag_233\n        /* \"#utility.yul\":9840:9843   */\n      dup6\n        /* \"#utility.yul\":9822:9844   */\n      tag_110\n      jump\t// in\n    tag_233:\n        /* \"#utility.yul\":9812:9820   */\n      dup4\n        /* \"#utility.yul\":9808:9845   */\n      add\n        /* \"#utility.yul\":9795:9806   */\n      dup3\n        /* \"#utility.yul\":9766:9846   */\n      tag_119\n      jump\t// in\n    tag_232:\n        /* \"#utility.yul\":9425:9856   */\n      pop\n      pop\n        /* \"#utility.yul\":9410:9856   */\n    tag_228:\n        /* \"#utility.yul\":9320:9863   */\n      pop\n      pop\n      pop\n      jump\t// out\n        /* \"#utility.yul\":9869:9986   */\n    tag_121:\n        /* \"#utility.yul\":9923:9931   */\n      0x00\n        /* \"#utility.yul\":9973:9978   */\n      dup3\n        /* \"#utility.yul\":9967:9971   */\n      dup3\n        /* \"#utility.yul\":9963:9979   */\n      shr\n        /* \"#utility.yul\":9942:9979   */\n      swap1\n      pop\n        /* \"#utility.yul\":9869:9986   */\n      swap3\n      swap2\n      pop\n      pop\n      jump\t// out\n        /* \"#utility.yul\":9992:10161   */\n    tag_122:\n        /* \"#utility.yul\":10036:10042   */\n      0x00\n        /* \"#utility.yul\":10069:10120   */\n      tag_236\n        /* \"#utility.yul\":10117:10118   */\n      0x00\n        /* \"#utility.yul\":10113:10119   */\n      not\n        /* \"#utility.yul\":10105:10110   */\n      dup5\n        /* \"#utility.yul\":10102:10103   */\n      0x08\n        /* \"#utility.yul\":10098:10111   */\n      mul\n        /* \"#utility.yul\":10069:10120   */\n      tag_121\n      jump\t// in\n    tag_236:\n        /* \"#utility.yul\":10065:10121   */\n      not\n        /* \"#utility.yul\":10150:10154   */\n      dup1\n        /* \"#utility.yul\":10144:10148   */\n      dup4\n        /* \"#utility.yul\":10140:10155   */\n      and\n        /* \"#utility.yul\":10130:10155   */\n      swap2\n      pop\n        /* \"#utility.yul\":10043:10161   */\n      pop\n        /* \"#utility.yul\":9992:10161   */\n      swap3\n      swap2\n      pop\n      pop\n      jump\t// out\n        /* \"#utility.yul\":10166:10461   */\n    tag_123:\n        /* \"#utility.yul\":10242:10246   */\n      0x00\n        /* \"#utility.yul\":10388:10417   */\n      tag_238\n        /* \"#utility.yul\":10413:10416   */\n      dup4\n        /* \"#utility.yul\":10407:10411   */\n      dup4\n        /* \"#utility.yul\":10388:10417   */\n      tag_122\n      jump\t// in\n    tag_238:\n        /* \"#utility.yul\":10380:10417   */\n      swap2\n      pop\n        /* \"#utility.yul\":10450:10453   */\n      dup3\n        /* \"#utility.yul\":10447:10448   */\n      0x02\n        /* \"#utility.yul\":10443:10454   */\n      mul\n        /* \"#utility.yul\":10437:10441   */\n      dup3\n        /* \"#utility.yul\":10434:10455   */\n      or\n        /* \"#utility.yul\":10426:10455   */\n      swap1\n      pop\n        /* \"#utility.yul\":10166:10461   */\n      swap3\n      swap2\n      pop\n      pop\n      jump\t// out\n        /* \"#utility.yul\":10466:11861   */\n    tag_82:\n        /* \"#utility.yul\":10583:10620   */\n      tag_240\n        /* \"#utility.yul\":10616:10619   */\n      dup3\n        /* \"#utility.yul\":10583:10620   */\n      tag_93\n      jump\t// in\n    tag_240:\n        /* \"#utility.yul\":10685:10703   */\n      0xffffffffffffffff\n        /* \"#utility.yul\":10677:10683   */\n      dup2\n        /* \"#utility.yul\":10674:10704   */\n      gt\n        /* \"#utility.yul\":10671:10727   */\n      iszero\n      tag_241\n      jumpi\n        /* \"#utility.yul\":10707:10725   */\n      tag_242\n      tag_101\n      jump\t// in\n    tag_242:\n        /* \"#utility.yul\":10671:10727   */\n    tag_241:\n        /* \"#utility.yul\":10751:10789   */\n      tag_243\n        /* \"#utility.yul\":10783:10787   */\n      dup3\n        /* \"#utility.yul\":10777:10788   */\n      sload\n        /* \"#utility.yul\":10751:10789   */\n      tag_44\n      jump\t// in\n    tag_243:\n        /* \"#utility.yul\":10836:10903   */\n      tag_244\n        /* \"#utility.yul\":10896:10902   */\n      dup3\n        /* \"#utility.yul\":10888:10894   */\n      dup3\n        /* \"#utility.yul\":10882:10886   */\n      dup6\n        /* \"#utility.yul\":10836:10903   */\n      tag_120\n      jump\t// in\n    tag_244:\n        /* \"#utility.yul\":10930:10931   */\n      0x00\n        /* \"#utility.yul\":10954:10958   */\n      0x20\n        /* \"#utility.yul\":10941:10958   */\n      swap1\n      pop\n        /* \"#utility.yul\":10986:10988   */\n      0x1f\n        /* \"#utility.yul\":10978:10984   */\n      dup4\n        /* \"#utility.yul\":10975:10989   */\n      gt\n        /* \"#utility.yul\":11003:11004   */\n      0x01\n        /* \"#utility.yul\":10998:11616   */\n      dup2\n      eq\n      tag_246\n      jumpi\n        /* \"#utility.yul\":11660:11661   */\n      0x00\n        /* \"#utility.yul\":11677:11683   */\n      dup5\n        /* \"#utility.yul\":11674:11751   */\n      iszero\n      tag_247\n      jumpi\n        /* \"#utility.yul\":11726:11735   */\n      dup3\n        /* \"#utility.yul\":11721:11724   */\n      dup8\n        /* \"#utility.yul\":11717:11736   */\n      add\n        /* \"#utility.yul\":11711:11737   */\n      mload\n        /* \"#utility.yul\":11702:11737   */\n      swap1\n      pop\n        /* \"#utility.yul\":11674:11751   */\n    tag_247:\n        /* \"#utility.yul\":11777:11844   */\n      tag_248\n        /* \"#utility.yul\":11837:11843   */\n      dup6\n        /* \"#utility.yul\":11830:11835   */\n      dup3\n        /* \"#utility.yul\":11777:11844   */\n      tag_123\n      jump\t// in\n    tag_248:\n        /* \"#utility.yul\":11771:11775   */\n      dup7\n        /* \"#utility.yul\":11764:11845   */\n      sstore\n        /* \"#utility.yul\":11633:11855   */\n      pop\n        /* \"#utility.yul\":10968:11855   */\n      jump(tag_245)\n        /* \"#utility.yul\":10998:11616   */\n    tag_246:\n        /* \"#utility.yul\":11050:11054   */\n      0x1f\n        /* \"#utility.yul\":11046:11055   */\n      not\n        /* \"#utility.yul\":11038:11044   */\n      dup5\n        /* \"#utility.yul\":11034:11056   */\n      and\n        /* \"#utility.yul\":11084:11121   */\n      tag_249\n        /* \"#utility.yul\":11116:11120   */\n      dup7\n        /* \"#utility.yul\":11084:11121   */\n      tag_109\n      jump\t// in\n    tag_249:\n        /* \"#utility.yul\":11143:11144   */\n      0x00\n        /* \"#utility.yul\":11157:11365   */\n    tag_250:\n        /* \"#utility.yul\":11171:11178   */\n      dup3\n        /* \"#utility.yul\":11168:11169   */\n      dup2\n        /* \"#utility.yul\":11165:11179   */\n      lt\n        /* \"#utility.yul\":11157:11365   */\n      iszero\n      tag_252\n      jumpi\n        /* \"#utility.yul\":11250:11259   */\n      dup5\n        /* \"#utility.yul\":11245:11248   */\n      dup10\n        /* \"#utility.yul\":11241:11260   */\n      add\n        /* \"#utility.yul\":11235:11261   */\n      mload\n        /* \"#utility.yul\":11227:11233   */\n      dup3\n        /* \"#utility.yul\":11220:11262   */\n      sstore\n        /* \"#utility.yul\":11301:11302   */\n      0x01\n        /* \"#utility.yul\":11293:11299   */\n      dup3\n        /* \"#utility.yul\":11289:11303   */\n      add\n        /* \"#utility.yul\":11279:11303   */\n      swap2\n      pop\n        /* \"#utility.yul\":11348:11350   */\n      0x20\n        /* \"#utility.yul\":11337:11346   */\n      dup6\n        /* \"#utility.yul\":11333:11351   */\n      add\n        /* \"#utility.yul\":11320:11351   */\n      swap5\n      pop\n        /* \"#utility.yul\":11194:11198   */\n      0x20\n        /* \"#utility.yul\":11191:11192   */\n      dup2\n        /* \"#utility.yul\":11187:11199   */\n      add\n        /* \"#utility.yul\":11182:11199   */\n      swap1\n      pop\n        /* \"#utility.yul\":11157:11365   */\n      jump(tag_250)\n    tag_252:\n        /* \"#utility.yul\":11393:11399   */\n      dup7\n        /* \"#utility.yul\":11384:11391   */\n      dup4\n        /* \"#utility.yul\":11381:11400   */\n      lt\n        /* \"#utility.yul\":11378:11557   */\n      iszero\n      tag_253\n      jumpi\n        /* \"#utility.yul\":11451:11460   */\n      dup5\n        /* \"#utility.yul\":11446:11449   */\n      dup10\n        /* \"#utility.yul\":11442:11461   */\n      add\n        /* \"#utility.yul\":11436:11462   */\n      mload\n        /* \"#utility.yul\":11494:11542   */\n      tag_254\n        /* \"#utility.yul\":11536:11540   */\n      0x1f\n        /* \"#utility.yul\":11528:11534   */\n      dup10\n        /* \"#utility.yul\":11524:11541   */\n      and\n        /* \"#utility.yul\":11513:11522   */\n      dup3\n        /* \"#utility.yul\":11494:11542   */\n      tag_122\n      jump\t// in\n    tag_254:\n        /* \"#utility.yul\":11486:11492   */\n      dup4\n        /* \"#utility.yul\":11479:11543   */\n      sstore\n        /* \"#utility.yul\":11401:11557   */\n      pop\n        /* \"#utility.yul\":11378:11557   */\n    tag_253:\n        /* \"#utility.yul\":11603:11604   */\n      0x01\n        /* \"#utility.yul\":11599:11600   */\n      0x02\n        /* \"#utility.yul\":11591:11597   */\n      dup9\n        /* \"#utility.yul\":11587:11601   */\n      mul\n        /* \"#utility.yul\":11583:11605   */\n      add\n        /* \"#utility.yul\":11577:11581   */\n      dup9\n        /* \"#utility.yul\":11570:11606   */\n      sstore\n        /* \"#utility.yul\":11005:11616   */\n      pop\n      pop\n      pop\n        /* \"#utility.yul\":10968:11855   */\n    tag_245:\n      pop\n        /* \"#utility.yul\":10558:11861   */\n      pop\n      pop\n      pop\n        /* \"#utility.yul\":10466:11861   */\n      pop\n      pop\n      jump\t// out\n\n    auxdata: 0xa264697066735822122082616a4cad136b896209a11180fc454da9b33a4266e31635d54f65cc9bcb2bcf64736f6c634300081a0033\n}\n",
				"bytecode": {
					"linkReferences": {},
					"object": "6080604052348015600e575f80fd5b50610cf88061001c5f395ff3fe608060405234801561000f575f80fd5b5060043610610086575f3560e01c8063642f916311610059578063642f9163146101135780638381f58a14610146578063d635880c14610164578063ef5fb05b1461018057610086565b806306ead22e1461008a57806316a880b6146100bd5780633fb5c1cb146100db57806343d4e7ff146100f7575b5f80fd5b6100a4600480360381019061009f91906106c7565b61019e565b6040516100b49493929190610771565b60405180910390f35b6100c561035c565b6040516100d291906107c9565b60405180910390f35b6100f560048036038101906100f091906106c7565b61036b565b005b610111600480360381019061010c91906106c7565b610374565b005b61012d600480360381019061012891906106c7565b61037d565b60405161013d9493929190610771565b60405180910390f35b61014e61057e565b60405161015b91906107e9565b60405180910390f35b61017e6004803603810190610179919061092e565b610583565b005b610188610609565b60405161019591906107c9565b60405180910390f35b6001602052805f5260405f205f91509050805f0180546101bd90610a26565b80601f01602080910402602001604051908101604052809291908181526020018280546101e990610a26565b80156102345780601f1061020b57610100808354040283529160200191610234565b820191905f5260205f20905b81548152906001019060200180831161021757829003601f168201915b50505050509080600101549080600201805461024f90610a26565b80601f016020809104026020016040519081016040528092919081815260200182805461027b90610a26565b80156102c65780601f1061029d576101008083540402835291602001916102c6565b820191905f5260205f20905b8154815290600101906020018083116102a957829003601f168201915b5050505050908060030180546102db90610a26565b80601f016020809104026020016040519081016040528092919081815260200182805461030790610a26565b80156103525780601f1061032957610100808354040283529160200191610352565b820191905f5260205f20905b81548152906001019060200180831161033557829003601f168201915b5050505050905084565b6060610366610646565b905090565b805f8190555050565b805f8190555050565b60605f6060805f60015f8781526020019081526020015f206040518060800160405290815f820180546103af90610a26565b80601f01602080910402602001604051908101604052809291908181526020018280546103db90610a26565b80156104265780601f106103fd57610100808354040283529160200191610426565b820191905f5260205f20905b81548152906001019060200180831161040957829003601f168201915b505050505081526020016001820154815260200160028201805461044990610a26565b80601f016020809104026020016040519081016040528092919081815260200182805461047590610a26565b80156104c05780601f10610497576101008083540402835291602001916104c0565b820191905f5260205f20905b8154815290600101906020018083116104a357829003601f168201915b505050505081526020016003820180546104d990610a26565b80601f016020809104026020016040519081016040528092919081815260200182805461050590610a26565b80156105505780601f1061052757610100808354040283529160200191610550565b820191905f5260205f20905b81548152906001019060200180831161053357829003601f168201915b5050505050815250509050805f01518160200151826040015183606001519450945094509450509193509193565b5f5481565b60405180608001604052808581526020018481526020018381526020018281525060015f8781526020019081526020015f205f820151815f0190816105c89190610bf3565b506020820151816001015560408201518160020190816105e89190610bf3565b5060608201518160030190816105fe9190610bf3565b509050505050505050565b60606040518060400160405280601781526020017f48656c6c6f2066726f6d205363686f6f6c5265636f7264000000000000000000815250905090565b60606040518060400160405280601181526020017f48656c6c6f2066726f6d20506172656e74000000000000000000000000000000815250905090565b5f604051905090565b5f80fd5b5f80fd5b5f819050919050565b6106a681610694565b81146106b0575f80fd5b50565b5f813590506106c18161069d565b92915050565b5f602082840312156106dc576106db61068c565b5b5f6106e9848285016106b3565b91505092915050565b5f81519050919050565b5f82825260208201905092915050565b8281835e5f83830152505050565b5f601f19601f8301169050919050565b5f610734826106f2565b61073e81856106fc565b935061074e81856020860161070c565b6107578161071a565b840191505092915050565b61076b81610694565b82525050565b5f6080820190508181035f830152610789818761072a565b90506107986020830186610762565b81810360408301526107aa818561072a565b905081810360608301526107be818461072a565b905095945050505050565b5f6020820190508181035f8301526107e1818461072a565b905092915050565b5f6020820190506107fc5f830184610762565b92915050565b5f80fd5b5f80fd5b7f4e487b71000000000000000000000000000000000000000000000000000000005f52604160045260245ffd5b6108408261071a565b810181811067ffffffffffffffff8211171561085f5761085e61080a565b5b80604052505050565b5f610871610683565b905061087d8282610837565b919050565b5f67ffffffffffffffff82111561089c5761089b61080a565b5b6108a58261071a565b9050602081019050919050565b828183375f83830152505050565b5f6108d26108cd84610882565b610868565b9050828152602081018484840111156108ee576108ed610806565b5b6108f98482856108b2565b509392505050565b5f82601f83011261091557610914610802565b5b81356109258482602086016108c0565b91505092915050565b5f805f805f60a086880312156109475761094661068c565b5b5f610954888289016106b3565b955050602086013567ffffffffffffffff81111561097557610974610690565b5b61098188828901610901565b9450506040610992888289016106b3565b935050606086013567ffffffffffffffff8111156109b3576109b2610690565b5b6109bf88828901610901565b925050608086013567ffffffffffffffff8111156109e0576109df610690565b5b6109ec88828901610901565b9150509295509295909350565b7f4e487b71000000000000000000000000000000000000000000000000000000005f52602260045260245ffd5b5f6002820490506001821680610a3d57607f821691505b602082108103610a5057610a4f6109f9565b5b50919050565b5f819050815f5260205f209050919050565b5f6020601f8301049050919050565b5f82821b905092915050565b5f60088302610ab27fffffffffffffffffffffffffffffffffffffffffffffffffffffffffffffffff82610a77565b610abc8683610a77565b95508019841693508086168417925050509392505050565b5f819050919050565b5f610af7610af2610aed84610694565b610ad4565b610694565b9050919050565b5f819050919050565b610b1083610add565b610b24610b1c82610afe565b848454610a83565b825550505050565b5f90565b610b38610b2c565b610b43818484610b07565b505050565b5b81811015610b6657610b5b5f82610b30565b600181019050610b49565b5050565b601f821115610bab57610b7c81610a56565b610b8584610a68565b81016020851015610b94578190505b610ba8610ba085610a68565b830182610b48565b50505b505050565b5f82821c905092915050565b5f610bcb5f1984600802610bb0565b1980831691505092915050565b5f610be38383610bbc565b9150826002028217905092915050565b610bfc826106f2565b67ffffffffffffffff811115610c1557610c1461080a565b5b610c1f8254610a26565b610c2a828285610b6a565b5f60209050601f831160018114610c5b575f8415610c49578287015190505b610c538582610bd8565b865550610cba565b601f198416610c6986610a56565b5f5b82811015610c9057848901518255600182019150602085019450602081019050610c6b565b86831015610cad5784890151610ca9601f891682610bbc565b8355505b6001600288020188555050505b50505050505056fea264697066735822122082616a4cad136b896209a11180fc454da9b33a4266e31635d54f65cc9bcb2bcf64736f6c634300081a0033",
					"opcodes": "PUSH1 0x80 PUSH1 0x40 MSTORE CALLVALUE DUP1 ISZERO PUSH1 0xE JUMPI PUSH0 DUP1 REVERT JUMPDEST POP PUSH2 0xCF8 DUP1 PUSH2 0x1C PUSH0 CODECOPY PUSH0 RETURN INVALID PUSH1 0x80 PUSH1 0x40 MSTORE CALLVALUE DUP1 ISZERO PUSH2 0xF JUMPI PUSH0 DUP1 REVERT JUMPDEST POP PUSH1 0x4 CALLDATASIZE LT PUSH2 0x86 JUMPI PUSH0 CALLDATALOAD PUSH1 0xE0 SHR DUP1 PUSH4 0x642F9163 GT PUSH2 0x59 JUMPI DUP1 PUSH4 0x642F9163 EQ PUSH2 0x113 JUMPI DUP1 PUSH4 0x8381F58A EQ PUSH2 0x146 JUMPI DUP1 PUSH4 0xD635880C EQ PUSH2 0x164 JUMPI DUP1 PUSH4 0xEF5FB05B EQ PUSH2 0x180 JUMPI PUSH2 0x86 JUMP JUMPDEST DUP1 PUSH4 0x6EAD22E EQ PUSH2 0x8A JUMPI DUP1 PUSH4 0x16A880B6 EQ PUSH2 0xBD JUMPI DUP1 PUSH4 0x3FB5C1CB EQ PUSH2 0xDB JUMPI DUP1 PUSH4 0x43D4E7FF EQ PUSH2 0xF7 JUMPI JUMPDEST PUSH0 DUP1 REVERT JUMPDEST PUSH2 0xA4 PUSH1 0x4 DUP1 CALLDATASIZE SUB DUP2 ADD SWAP1 PUSH2 0x9F SWAP2 SWAP1 PUSH2 0x6C7 JUMP JUMPDEST PUSH2 0x19E JUMP JUMPDEST PUSH1 0x40 MLOAD PUSH2 0xB4 SWAP5 SWAP4 SWAP3 SWAP2 SWAP1 PUSH2 0x771 JUMP JUMPDEST PUSH1 0x40 MLOAD DUP1 SWAP2 SUB SWAP1 RETURN JUMPDEST PUSH2 0xC5 PUSH2 0x35C JUMP JUMPDEST PUSH1 0x40 MLOAD PUSH2 0xD2 SWAP2 SWAP1 PUSH2 0x7C9 JUMP JUMPDEST PUSH1 0x40 MLOAD DUP1 SWAP2 SUB SWAP1 RETURN JUMPDEST PUSH2 0xF5 PUSH1 0x4 DUP1 CALLDATASIZE SUB DUP2 ADD SWAP1 PUSH2 0xF0 SWAP2 SWAP1 PUSH2 0x6C7 JUMP JUMPDEST PUSH2 0x36B JUMP JUMPDEST STOP JUMPDEST PUSH2 0x111 PUSH1 0x4 DUP1 CALLDATASIZE SUB DUP2 ADD SWAP1 PUSH2 0x10C SWAP2 SWAP1 PUSH2 0x6C7 JUMP JUMPDEST PUSH2 0x374 JUMP JUMPDEST STOP JUMPDEST PUSH2 0x12D PUSH1 0x4 DUP1 CALLDATASIZE SUB DUP2 ADD SWAP1 PUSH2 0x128 SWAP2 SWAP1 PUSH2 0x6C7 JUMP JUMPDEST PUSH2 0x37D JUMP JUMPDEST PUSH1 0x40 MLOAD PUSH2 0x13D SWAP5 SWAP4 SWAP3 SWAP2 SWAP1 PUSH2 0x771 JUMP JUMPDEST PUSH1 0x40 MLOAD DUP1 SWAP2 SUB SWAP1 RETURN JUMPDEST PUSH2 0x14E PUSH2 0x57E JUMP JUMPDEST PUSH1 0x40 MLOAD PUSH2 0x15B SWAP2 SWAP1 PUSH2 0x7E9 JUMP JUMPDEST PUSH1 0x40 MLOAD DUP1 SWAP2 SUB SWAP1 RETURN JUMPDEST PUSH2 0x17E PUSH1 0x4 DUP1 CALLDATASIZE SUB DUP2 ADD SWAP1 PUSH2 0x179 SWAP2 SWAP1 PUSH2 0x92E JUMP JUMPDEST PUSH2 0x583 JUMP JUMPDEST STOP JUMPDEST PUSH2 0x188 PUSH2 0x609 JUMP JUMPDEST PUSH1 0x40 MLOAD PUSH2 0x195 SWAP2 SWAP1 PUSH2 0x7C9 JUMP JUMPDEST PUSH1 0x40 MLOAD DUP1 SWAP2 SUB SWAP1 RETURN JUMPDEST PUSH1 0x1 PUSH1 0x20 MSTORE DUP1 PUSH0 MSTORE PUSH1 0x40 PUSH0 KECCAK256 PUSH0 SWAP2 POP SWAP1 POP DUP1 PUSH0 ADD DUP1 SLOAD PUSH2 0x1BD SWAP1 PUSH2 0xA26 JUMP JUMPDEST DUP1 PUSH1 0x1F ADD PUSH1 0x20 DUP1 SWAP2 DIV MUL PUSH1 0x20 ADD PUSH1 0x40 MLOAD SWAP1 DUP2 ADD PUSH1 0x40 MSTORE DUP1 SWAP3 SWAP2 SWAP1 DUP2 DUP2 MSTORE PUSH1 0x20 ADD DUP3 DUP1 SLOAD PUSH2 0x1E9 SWAP1 PUSH2 0xA26 JUMP JUMPDEST DUP1 ISZERO PUSH2 0x234 JUMPI DUP1 PUSH1 0x1F LT PUSH2 0x20B JUMPI PUSH2 0x100 DUP1 DUP4 SLOAD DIV MUL DUP4 MSTORE SWAP2 PUSH1 0x20 ADD SWAP2 PUSH2 0x234 JUMP JUMPDEST DUP3 ADD SWAP2 SWAP1 PUSH0 MSTORE PUSH1 0x20 PUSH0 KECCAK256 SWAP1 JUMPDEST DUP2 SLOAD DUP2 MSTORE SWAP1 PUSH1 0x1 ADD SWAP1 PUSH1 0x20 ADD DUP1 DUP4 GT PUSH2 0x217 JUMPI DUP3 SWAP1 SUB PUSH1 0x1F AND DUP3 ADD SWAP2 JUMPDEST POP POP POP POP POP SWAP1 DUP1 PUSH1 0x1 ADD SLOAD SWAP1 DUP1 PUSH1 0x2 ADD DUP1 SLOAD PUSH2 0x24F SWAP1 PUSH2 0xA26 JUMP JUMPDEST DUP1 PUSH1 0x1F ADD PUSH1 0x20 DUP1 SWAP2 DIV MUL PUSH1 0x20 ADD PUSH1 0x40 MLOAD SWAP1 DUP2 ADD PUSH1 0x40 MSTORE DUP1 SWAP3 SWAP2 SWAP1 DUP2 DUP2 MSTORE PUSH1 0x20 ADD DUP3 DUP1 SLOAD PUSH2 0x27B SWAP1 PUSH2 0xA26 JUMP JUMPDEST DUP1 ISZERO PUSH2 0x2C6 JUMPI DUP1 PUSH1 0x1F LT PUSH2 0x29D JUMPI PUSH2 0x100 DUP1 DUP4 SLOAD DIV MUL DUP4 MSTORE SWAP2 PUSH1 0x20 ADD SWAP2 PUSH2 0x2C6 JUMP JUMPDEST DUP3 ADD SWAP2 SWAP1 PUSH0 MSTORE PUSH1 0x20 PUSH0 KECCAK256 SWAP1 JUMPDEST DUP2 SLOAD DUP2 MSTORE SWAP1 PUSH1 0x1 ADD SWAP1 PUSH1 0x20 ADD DUP1 DUP4 GT PUSH2 0x2A9 JUMPI DUP3 SWAP1 SUB PUSH1 0x1F AND DUP3 ADD SWAP2 JUMPDEST POP POP POP POP POP SWAP1 DUP1 PUSH1 0x3 ADD DUP1 SLOAD PUSH2 0x2DB SWAP1 PUSH2 0xA26 JUMP JUMPDEST DUP1 PUSH1 0x1F ADD PUSH1 0x20 DUP1 SWAP2 DIV MUL PUSH1 0x20 ADD PUSH1 0x40 MLOAD SWAP1 DUP2 ADD PUSH1 0x40 MSTORE DUP1 SWAP3 SWAP2 SWAP1 DUP2 DUP2 MSTORE PUSH1 0x20 ADD DUP3 DUP1 SLOAD PUSH2 0x307 SWAP1 PUSH2 0xA26 JUMP JUMPDEST DUP1 ISZERO PUSH2 0x352 JUMPI DUP1 PUSH1 0x1F LT PUSH2 0x329 JUMPI PUSH2 0x100 DUP1 DUP4 SLOAD DIV MUL DUP4 MSTORE SWAP2 PUSH1 0x20 ADD SWAP2 PUSH2 0x352 JUMP JUMPDEST DUP3 ADD SWAP2 SWAP1 PUSH0 MSTORE PUSH1 0x20 PUSH0 KECCAK256 SWAP1 JUMPDEST DUP2 SLOAD DUP2 MSTORE SWAP1 PUSH1 0x1 ADD SWAP1 PUSH1 0x20 ADD DUP1 DUP4 GT PUSH2 0x335 JUMPI DUP3 SWAP1 SUB PUSH1 0x1F AND DUP3 ADD SWAP2 JUMPDEST POP POP POP POP POP SWAP1 POP DUP5 JUMP JUMPDEST PUSH1 0x60 PUSH2 0x366 PUSH2 0x646 JUMP JUMPDEST SWAP1 POP SWAP1 JUMP JUMPDEST DUP1 PUSH0 DUP2 SWAP1 SSTORE POP POP JUMP JUMPDEST DUP1 PUSH0 DUP2 SWAP1 SSTORE POP POP JUMP JUMPDEST PUSH1 0x60 PUSH0 PUSH1 0x60 DUP1 PUSH0 PUSH1 0x1 PUSH0 DUP8 DUP2 MSTORE PUSH1 0x20 ADD SWAP1 DUP2 MSTORE PUSH1 0x20 ADD PUSH0 KECCAK256 PUSH1 0x40 MLOAD DUP1 PUSH1 0x80 ADD PUSH1 0x40 MSTORE SWAP1 DUP2 PUSH0 DUP3 ADD DUP1 SLOAD PUSH2 0x3AF SWAP1 PUSH2 0xA26 JUMP JUMPDEST DUP1 PUSH1 0x1F ADD PUSH1 0x20 DUP1 SWAP2 DIV MUL PUSH1 0x20 ADD PUSH1 0x40 MLOAD SWAP1 DUP2 ADD PUSH1 0x40 MSTORE DUP1 SWAP3 SWAP2 SWAP1 DUP2 DUP2 MSTORE PUSH1 0x20 ADD DUP3 DUP1 SLOAD PUSH2 0x3DB SWAP1 PUSH2 0xA26 JUMP JUMPDEST DUP1 ISZERO PUSH2 0x426 JUMPI DUP1 PUSH1 0x1F LT PUSH2 0x3FD JUMPI PUSH2 0x100 DUP1 DUP4 SLOAD DIV MUL DUP4 MSTORE SWAP2 PUSH1 0x20 ADD SWAP2 PUSH2 0x426 JUMP JUMPDEST DUP3 ADD SWAP2 SWAP1 PUSH0 MSTORE PUSH1 0x20 PUSH0 KECCAK256 SWAP1 JUMPDEST DUP2 SLOAD DUP2 MSTORE SWAP1 PUSH1 0x1 ADD SWAP1 PUSH1 0x20 ADD DUP1 DUP4 GT PUSH2 0x409 JUMPI DUP3 SWAP1 SUB PUSH1 0x1F AND DUP3 ADD SWAP2 JUMPDEST POP POP POP POP POP DUP2 MSTORE PUSH1 0x20 ADD PUSH1 0x1 DUP3 ADD SLOAD DUP2 MSTORE PUSH1 0x20 ADD PUSH1 0x2 DUP3 ADD DUP1 SLOAD PUSH2 0x449 SWAP1 PUSH2 0xA26 JUMP JUMPDEST DUP1 PUSH1 0x1F ADD PUSH1 0x20 DUP1 SWAP2 DIV MUL PUSH1 0x20 ADD PUSH1 0x40 MLOAD SWAP1 DUP2 ADD PUSH1 0x40 MSTORE DUP1 SWAP3 SWAP2 SWAP1 DUP2 DUP2 MSTORE PUSH1 0x20 ADD DUP3 DUP1 SLOAD PUSH2 0x475 SWAP1 PUSH2 0xA26 JUMP JUMPDEST DUP1 ISZERO PUSH2 0x4C0 JUMPI DUP1 PUSH1 0x1F LT PUSH2 0x497 JUMPI PUSH2 0x100 DUP1 DUP4 SLOAD DIV MUL DUP4 MSTORE SWAP2 PUSH1 0x20 ADD SWAP2 PUSH2 0x4C0 JUMP JUMPDEST DUP3 ADD SWAP2 SWAP1 PUSH0 MSTORE PUSH1 0x20 PUSH0 KECCAK256 SWAP1 JUMPDEST DUP2 SLOAD DUP2 MSTORE SWAP1 PUSH1 0x1 ADD SWAP1 PUSH1 0x20 ADD DUP1 DUP4 GT PUSH2 0x4A3 JUMPI DUP3 SWAP1 SUB PUSH1 0x1F AND DUP3 ADD SWAP2 JUMPDEST POP POP POP POP POP DUP2 MSTORE PUSH1 0x20 ADD PUSH1 0x3 DUP3 ADD DUP1 SLOAD PUSH2 0x4D9 SWAP1 PUSH2 0xA26 JUMP JUMPDEST DUP1 PUSH1 0x1F ADD PUSH1 0x20 DUP1 SWAP2 DIV MUL PUSH1 0x20 ADD PUSH1 0x40 MLOAD SWAP1 DUP2 ADD PUSH1 0x40 MSTORE DUP1 SWAP3 SWAP2 SWAP1 DUP2 DUP2 MSTORE PUSH1 0x20 ADD DUP3 DUP1 SLOAD PUSH2 0x505 SWAP1 PUSH2 0xA26 JUMP JUMPDEST DUP1 ISZERO PUSH2 0x550 JUMPI DUP1 PUSH1 0x1F LT PUSH2 0x527 JUMPI PUSH2 0x100 DUP1 DUP4 SLOAD DIV MUL DUP4 MSTORE SWAP2 PUSH1 0x20 ADD SWAP2 PUSH2 0x550 JUMP JUMPDEST DUP3 ADD SWAP2 SWAP1 PUSH0 MSTORE PUSH1 0x20 PUSH0 KECCAK256 SWAP1 JUMPDEST DUP2 SLOAD DUP2 MSTORE SWAP1 PUSH1 0x1 ADD SWAP1 PUSH1 0x20 ADD DUP1 DUP4 GT PUSH2 0x533 JUMPI DUP3 SWAP1 SUB PUSH1 0x1F AND DUP3 ADD SWAP2 JUMPDEST POP POP POP POP POP DUP2 MSTORE POP POP SWAP1 POP DUP1 PUSH0 ADD MLOAD DUP2 PUSH1 0x20 ADD MLOAD DUP3 PUSH1 0x40 ADD MLOAD DUP4 PUSH1 0x60 ADD MLOAD SWAP5 POP SWAP5 POP SWAP5 POP SWAP5 POP POP SWAP2 SWAP4 POP SWAP2 SWAP4 JUMP JUMPDEST PUSH0 SLOAD DUP2 JUMP JUMPDEST PUSH1 0x40 MLOAD DUP1 PUSH1 0x80 ADD PUSH1 0x40 MSTORE DUP1 DUP6 DUP2 MSTORE PUSH1 0x20 ADD DUP5 DUP2 MSTORE PUSH1 0x20 ADD DUP4 DUP2 MSTORE PUSH1 0x20 ADD DUP3 DUP2 MSTORE POP PUSH1 0x1 PUSH0 DUP8 DUP2 MSTORE PUSH1 0x20 ADD SWAP1 DUP2 MSTORE PUSH1 0x20 ADD PUSH0 KECCAK256 PUSH0 DUP3 ADD MLOAD DUP2 PUSH0 ADD SWAP1 DUP2 PUSH2 0x5C8 SWAP2 SWAP1 PUSH2 0xBF3 JUMP JUMPDEST POP PUSH1 0x20 DUP3 ADD MLOAD DUP2 PUSH1 0x1 ADD SSTORE PUSH1 0x40 DUP3 ADD MLOAD DUP2 PUSH1 0x2 ADD SWAP1 DUP2 PUSH2 0x5E8 SWAP2 SWAP1 PUSH2 0xBF3 JUMP JUMPDEST POP PUSH1 0x60 DUP3 ADD MLOAD DUP2 PUSH1 0x3 ADD SWAP1 DUP2 PUSH2 0x5FE SWAP2 SWAP1 PUSH2 0xBF3 JUMP JUMPDEST POP SWAP1 POP POP POP POP POP POP POP JUMP JUMPDEST PUSH1 0x60 PUSH1 0x40 MLOAD DUP1 PUSH1 0x40 ADD PUSH1 0x40 MSTORE DUP1 PUSH1 0x17 DUP2 MSTORE PUSH1 0x20 ADD PUSH32 0x48656C6C6F2066726F6D205363686F6F6C5265636F7264000000000000000000 DUP2 MSTORE POP SWAP1 POP SWAP1 JUMP JUMPDEST PUSH1 0x60 PUSH1 0x40 MLOAD DUP1 PUSH1 0x40 ADD PUSH1 0x40 MSTORE DUP1 PUSH1 0x11 DUP2 MSTORE PUSH1 0x20 ADD PUSH32 0x48656C6C6F2066726F6D20506172656E74000000000000000000000000000000 DUP2 MSTORE POP SWAP1 POP SWAP1 JUMP JUMPDEST PUSH0 PUSH1 0x40 MLOAD SWAP1 POP SWAP1 JUMP JUMPDEST PUSH0 DUP1 REVERT JUMPDEST PUSH0 DUP1 REVERT JUMPDEST PUSH0 DUP2 SWAP1 POP SWAP2 SWAP1 POP JUMP JUMPDEST PUSH2 0x6A6 DUP2 PUSH2 0x694 JUMP JUMPDEST DUP2 EQ PUSH2 0x6B0 JUMPI PUSH0 DUP1 REVERT JUMPDEST POP JUMP JUMPDEST PUSH0 DUP2 CALLDATALOAD SWAP1 POP PUSH2 0x6C1 DUP2 PUSH2 0x69D JUMP JUMPDEST SWAP3 SWAP2 POP POP JUMP JUMPDEST PUSH0 PUSH1 0x20 DUP3 DUP5 SUB SLT ISZERO PUSH2 0x6DC JUMPI PUSH2 0x6DB PUSH2 0x68C JUMP JUMPDEST JUMPDEST PUSH0 PUSH2 0x6E9 DUP5 DUP3 DUP6 ADD PUSH2 0x6B3 JUMP JUMPDEST SWAP2 POP POP SWAP3 SWAP2 POP POP JUMP JUMPDEST PUSH0 DUP2 MLOAD SWAP1 POP SWAP2 SWAP1 POP JUMP JUMPDEST PUSH0 DUP3 DUP3 MSTORE PUSH1 0x20 DUP3 ADD SWAP1 POP SWAP3 SWAP2 POP POP JUMP JUMPDEST DUP3 DUP2 DUP4 MCOPY PUSH0 DUP4 DUP4 ADD MSTORE POP POP POP JUMP JUMPDEST PUSH0 PUSH1 0x1F NOT PUSH1 0x1F DUP4 ADD AND SWAP1 POP SWAP2 SWAP1 POP JUMP JUMPDEST PUSH0 PUSH2 0x734 DUP3 PUSH2 0x6F2 JUMP JUMPDEST PUSH2 0x73E DUP2 DUP6 PUSH2 0x6FC JUMP JUMPDEST SWAP4 POP PUSH2 0x74E DUP2 DUP6 PUSH1 0x20 DUP7 ADD PUSH2 0x70C JUMP JUMPDEST PUSH2 0x757 DUP2 PUSH2 0x71A JUMP JUMPDEST DUP5 ADD SWAP2 POP POP SWAP3 SWAP2 POP POP JUMP JUMPDEST PUSH2 0x76B DUP2 PUSH2 0x694 JUMP JUMPDEST DUP3 MSTORE POP POP JUMP JUMPDEST PUSH0 PUSH1 0x80 DUP3 ADD SWAP1 POP DUP2 DUP2 SUB PUSH0 DUP4 ADD MSTORE PUSH2 0x789 DUP2 DUP8 PUSH2 0x72A JUMP JUMPDEST SWAP1 POP PUSH2 0x798 PUSH1 0x20 DUP4 ADD DUP7 PUSH2 0x762 JUMP JUMPDEST DUP2 DUP2 SUB PUSH1 0x40 DUP4 ADD MSTORE PUSH2 0x7AA DUP2 DUP6 PUSH2 0x72A JUMP JUMPDEST SWAP1 POP DUP2 DUP2 SUB PUSH1 0x60 DUP4 ADD MSTORE PUSH2 0x7BE DUP2 DUP5 PUSH2 0x72A JUMP JUMPDEST SWAP1 POP SWAP6 SWAP5 POP POP POP POP POP JUMP JUMPDEST PUSH0 PUSH1 0x20 DUP3 ADD SWAP1 POP DUP2 DUP2 SUB PUSH0 DUP4 ADD MSTORE PUSH2 0x7E1 DUP2 DUP5 PUSH2 0x72A JUMP JUMPDEST SWAP1 POP SWAP3 SWAP2 POP POP JUMP JUMPDEST PUSH0 PUSH1 0x20 DUP3 ADD SWAP1 POP PUSH2 0x7FC PUSH0 DUP4 ADD DUP5 PUSH2 0x762 JUMP JUMPDEST SWAP3 SWAP2 POP POP JUMP JUMPDEST PUSH0 DUP1 REVERT JUMPDEST PUSH0 DUP1 REVERT JUMPDEST PUSH32 0x4E487B7100000000000000000000000000000000000000000000000000000000 PUSH0 MSTORE PUSH1 0x41 PUSH1 0x4 MSTORE PUSH1 0x24 PUSH0 REVERT JUMPDEST PUSH2 0x840 DUP3 PUSH2 0x71A JUMP JUMPDEST DUP2 ADD DUP2 DUP2 LT PUSH8 0xFFFFFFFFFFFFFFFF DUP3 GT OR ISZERO PUSH2 0x85F JUMPI PUSH2 0x85E PUSH2 0x80A JUMP JUMPDEST JUMPDEST DUP1 PUSH1 0x40 MSTORE POP POP POP JUMP JUMPDEST PUSH0 PUSH2 0x871 PUSH2 0x683 JUMP JUMPDEST SWAP1 POP PUSH2 0x87D DUP3 DUP3 PUSH2 0x837 JUMP JUMPDEST SWAP2 SWAP1 POP JUMP JUMPDEST PUSH0 PUSH8 0xFFFFFFFFFFFFFFFF DUP3 GT ISZERO PUSH2 0x89C JUMPI PUSH2 0x89B PUSH2 0x80A JUMP JUMPDEST JUMPDEST PUSH2 0x8A5 DUP3 PUSH2 0x71A JUMP JUMPDEST SWAP1 POP PUSH1 0x20 DUP2 ADD SWAP1 POP SWAP2 SWAP1 POP JUMP JUMPDEST DUP3 DUP2 DUP4 CALLDATACOPY PUSH0 DUP4 DUP4 ADD MSTORE POP POP POP JUMP JUMPDEST PUSH0 PUSH2 0x8D2 PUSH2 0x8CD DUP5 PUSH2 0x882 JUMP JUMPDEST PUSH2 0x868 JUMP JUMPDEST SWAP1 POP DUP3 DUP2 MSTORE PUSH1 0x20 DUP2 ADD DUP5 DUP5 DUP5 ADD GT ISZERO PUSH2 0x8EE JUMPI PUSH2 0x8ED PUSH2 0x806 JUMP JUMPDEST JUMPDEST PUSH2 0x8F9 DUP5 DUP3 DUP6 PUSH2 0x8B2 JUMP JUMPDEST POP SWAP4 SWAP3 POP POP POP JUMP JUMPDEST PUSH0 DUP3 PUSH1 0x1F DUP4 ADD SLT PUSH2 0x915 JUMPI PUSH2 0x914 PUSH2 0x802 JUMP JUMPDEST JUMPDEST DUP2 CALLDATALOAD PUSH2 0x925 DUP5 DUP3 PUSH1 0x20 DUP7 ADD PUSH2 0x8C0 JUMP JUMPDEST SWAP2 POP POP SWAP3 SWAP2 POP POP JUMP JUMPDEST PUSH0 DUP1 PUSH0 DUP1 PUSH0 PUSH1 0xA0 DUP7 DUP9 SUB SLT ISZERO PUSH2 0x947 JUMPI PUSH2 0x946 PUSH2 0x68C JUMP JUMPDEST JUMPDEST PUSH0 PUSH2 0x954 DUP9 DUP3 DUP10 ADD PUSH2 0x6B3 JUMP JUMPDEST SWAP6 POP POP PUSH1 0x20 DUP7 ADD CALLDATALOAD PUSH8 0xFFFFFFFFFFFFFFFF DUP2 GT ISZERO PUSH2 0x975 JUMPI PUSH2 0x974 PUSH2 0x690 JUMP JUMPDEST JUMPDEST PUSH2 0x981 DUP9 DUP3 DUP10 ADD PUSH2 0x901 JUMP JUMPDEST SWAP5 POP POP PUSH1 0x40 PUSH2 0x992 DUP9 DUP3 DUP10 ADD PUSH2 0x6B3 JUMP JUMPDEST SWAP4 POP POP PUSH1 0x60 DUP7 ADD CALLDATALOAD PUSH8 0xFFFFFFFFFFFFFFFF DUP2 GT ISZERO PUSH2 0x9B3 JUMPI PUSH2 0x9B2 PUSH2 0x690 JUMP JUMPDEST JUMPDEST PUSH2 0x9BF DUP9 DUP3 DUP10 ADD PUSH2 0x901 JUMP JUMPDEST SWAP3 POP POP PUSH1 0x80 DUP7 ADD CALLDATALOAD PUSH8 0xFFFFFFFFFFFFFFFF DUP2 GT ISZERO PUSH2 0x9E0 JUMPI PUSH2 0x9DF PUSH2 0x690 JUMP JUMPDEST JUMPDEST PUSH2 0x9EC DUP9 DUP3 DUP10 ADD PUSH2 0x901 JUMP JUMPDEST SWAP2 POP POP SWAP3 SWAP6 POP SWAP3 SWAP6 SWAP1 SWAP4 POP JUMP JUMPDEST PUSH32 0x4E487B7100000000000000000000000000000000000000000000000000000000 PUSH0 MSTORE PUSH1 0x22 PUSH1 0x4 MSTORE PUSH1 0x24 PUSH0 REVERT JUMPDEST PUSH0 PUSH1 0x2 DUP3 DIV SWAP1 POP PUSH1 0x1 DUP3 AND DUP1 PUSH2 0xA3D JUMPI PUSH1 0x7F DUP3 AND SWAP2 POP JUMPDEST PUSH1 0x20 DUP3 LT DUP2 SUB PUSH2 0xA50 JUMPI PUSH2 0xA4F PUSH2 0x9F9 JUMP JUMPDEST JUMPDEST POP SWAP2 SWAP1 POP JUMP JUMPDEST PUSH0 DUP2 SWAP1 POP DUP2 PUSH0 MSTORE PUSH1 0x20 PUSH0 KECCAK256 SWAP1 POP SWAP2 SWAP1 POP JUMP JUMPDEST PUSH0 PUSH1 0x20 PUSH1 0x1F DUP4 ADD DIV SWAP1 POP SWAP2 SWAP1 POP JUMP JUMPDEST PUSH0 DUP3 DUP3 SHL SWAP1 POP SWAP3 SWAP2 POP POP JUMP JUMPDEST PUSH0 PUSH1 0x8 DUP4 MUL PUSH2 0xAB2 PUSH32 0xFFFFFFFFFFFFFFFFFFFFFFFFFFFFFFFFFFFFFFFFFFFFFFFFFFFFFFFFFFFFFFFF DUP3 PUSH2 0xA77 JUMP JUMPDEST PUSH2 0xABC DUP7 DUP4 PUSH2 0xA77 JUMP JUMPDEST SWAP6 POP DUP1 NOT DUP5 AND SWAP4 POP DUP1 DUP7 AND DUP5 OR SWAP3 POP POP POP SWAP4 SWAP3 POP POP POP JUMP JUMPDEST PUSH0 DUP2 SWAP1 POP SWAP2 SWAP1 POP JUMP JUMPDEST PUSH0 PUSH2 0xAF7 PUSH2 0xAF2 PUSH2 0xAED DUP5 PUSH2 0x694 JUMP JUMPDEST PUSH2 0xAD4 JUMP JUMPDEST PUSH2 0x694 JUMP JUMPDEST SWAP1 POP SWAP2 SWAP1 POP JUMP JUMPDEST PUSH0 DUP2 SWAP1 POP SWAP2 SWAP1 POP JUMP JUMPDEST PUSH2 0xB10 DUP4 PUSH2 0xADD JUMP JUMPDEST PUSH2 0xB24 PUSH2 0xB1C DUP3 PUSH2 0xAFE JUMP JUMPDEST DUP5 DUP5 SLOAD PUSH2 0xA83 JUMP JUMPDEST DUP3 SSTORE POP POP POP POP JUMP JUMPDEST PUSH0 SWAP1 JUMP JUMPDEST PUSH2 0xB38 PUSH2 0xB2C JUMP JUMPDEST PUSH2 0xB43 DUP2 DUP5 DUP5 PUSH2 0xB07 JUMP JUMPDEST POP POP POP JUMP JUMPDEST JUMPDEST DUP2 DUP2 LT ISZERO PUSH2 0xB66 JUMPI PUSH2 0xB5B PUSH0 DUP3 PUSH2 0xB30 JUMP JUMPDEST PUSH1 0x1 DUP2 ADD SWAP1 POP PUSH2 0xB49 JUMP JUMPDEST POP POP JUMP JUMPDEST PUSH1 0x1F DUP3 GT ISZERO PUSH2 0xBAB JUMPI PUSH2 0xB7C DUP2 PUSH2 0xA56 JUMP JUMPDEST PUSH2 0xB85 DUP5 PUSH2 0xA68 JUMP JUMPDEST DUP2 ADD PUSH1 0x20 DUP6 LT ISZERO PUSH2 0xB94 JUMPI DUP2 SWAP1 POP JUMPDEST PUSH2 0xBA8 PUSH2 0xBA0 DUP6 PUSH2 0xA68 JUMP JUMPDEST DUP4 ADD DUP3 PUSH2 0xB48 JUMP JUMPDEST POP POP JUMPDEST POP POP POP JUMP JUMPDEST PUSH0 DUP3 DUP3 SHR SWAP1 POP SWAP3 SWAP2 POP POP JUMP JUMPDEST PUSH0 PUSH2 0xBCB PUSH0 NOT DUP5 PUSH1 0x8 MUL PUSH2 0xBB0 JUMP JUMPDEST NOT DUP1 DUP4 AND SWAP2 POP POP SWAP3 SWAP2 POP POP JUMP JUMPDEST PUSH0 PUSH2 0xBE3 DUP4 DUP4 PUSH2 0xBBC JUMP JUMPDEST SWAP2 POP DUP3 PUSH1 0x2 MUL DUP3 OR SWAP1 POP SWAP3 SWAP2 POP POP JUMP JUMPDEST PUSH2 0xBFC DUP3 PUSH2 0x6F2 JUMP JUMPDEST PUSH8 0xFFFFFFFFFFFFFFFF DUP2 GT ISZERO PUSH2 0xC15 JUMPI PUSH2 0xC14 PUSH2 0x80A JUMP JUMPDEST JUMPDEST PUSH2 0xC1F DUP3 SLOAD PUSH2 0xA26 JUMP JUMPDEST PUSH2 0xC2A DUP3 DUP3 DUP6 PUSH2 0xB6A JUMP JUMPDEST PUSH0 PUSH1 0x20 SWAP1 POP PUSH1 0x1F DUP4 GT PUSH1 0x1 DUP2 EQ PUSH2 0xC5B JUMPI PUSH0 DUP5 ISZERO PUSH2 0xC49 JUMPI DUP3 DUP8 ADD MLOAD SWAP1 POP JUMPDEST PUSH2 0xC53 DUP6 DUP3 PUSH2 0xBD8 JUMP JUMPDEST DUP7 SSTORE POP PUSH2 0xCBA JUMP JUMPDEST PUSH1 0x1F NOT DUP5 AND PUSH2 0xC69 DUP7 PUSH2 0xA56 JUMP JUMPDEST PUSH0 JUMPDEST DUP3 DUP2 LT ISZERO PUSH2 0xC90 JUMPI DUP5 DUP10 ADD MLOAD DUP3 SSTORE PUSH1 0x1 DUP3 ADD SWAP2 POP PUSH1 0x20 DUP6 ADD SWAP5 POP PUSH1 0x20 DUP2 ADD SWAP1 POP PUSH2 0xC6B JUMP JUMPDEST DUP7 DUP4 LT ISZERO PUSH2 0xCAD JUMPI DUP5 DUP10 ADD MLOAD PUSH2 0xCA9 PUSH1 0x1F DUP10 AND DUP3 PUSH2 0xBBC JUMP JUMPDEST DUP4 SSTORE POP JUMPDEST PUSH1 0x1 PUSH1 0x2 DUP9 MUL ADD DUP9 SSTORE POP POP POP JUMPDEST POP POP POP POP POP POP JUMP INVALID LOG2 PUSH5 0x6970667358 0x22 SLT KECCAK256 DUP3 PUSH2 0x6A4C 0xAD SGT PUSH12 0x896209A11180FC454DA9B33A TIMESTAMP PUSH7 0xE31635D54F65CC SWAP12 0xCB 0x2B 0xCF PUSH5 0x736F6C6343 STOP ADDMOD BYTE STOP CALLER "
				},
				"gasEstimates": {
					"creation": {
						"codeDepositCost": "664000",
						"executionCost": "694",
						"totalCost": "664694"
					},
					"external": {
						"addStudent(uint256,string,uint256,string,string)": "infinite",
						"callParentHello()": "infinite",
						"getStudent(uint256)": "infinite",
						"number()": "2446",
						"sayHello()": "infinite",
						"setNumber(uint256)": "22559",
						"setNumberWithCalldata(uint256)": "22581",
						"students(uint256)": "infinite"
					}
				},
				"methodIdentifiers": {
					"addStudent(uint256,string,uint256,string,string)": "d635880c",
					"callParentHello()": "16a880b6",
					"getStudent(uint256)": "642f9163",
					"number()": "8381f58a",
					"sayHello()": "ef5fb05b",
					"setNumber(uint256)": "3fb5c1cb",
					"setNumberWithCalldata(uint256)": "43d4e7ff",
					"students(uint256)": "06ead22e"
				}
			},
			"storageLayout": {
				"storage": [
					{
						"astId": 14,
						"contract": "contracts/Struct.sol:SchoolRecord",
						"label": "number",
						"offset": 0,
						"slot": "0",
						"type": "t_uint256"
					},
					{
						"astId": 28,
						"contract": "contracts/Struct.sol:SchoolRecord",
						"label": "students",
						"offset": 0,
						"slot": "1",
						"type": "t_mapping(t_uint256,t_struct(Student)23_storage)"
					}
				],
				"types": {
					"t_mapping(t_uint256,t_struct(Student)23_storage)": {
						"encoding": "mapping",
						"key": "t_uint256",
						"label": "mapping(uint256 => struct SchoolRecord.Student)",
						"numberOfBytes": "32",
						"value": "t_struct(Student)23_storage"
					},
					"t_string_storage": {
						"encoding": "bytes",
						"label": "string",
						"numberOfBytes": "32"
					},
					"t_struct(Student)23_storage": {
						"encoding": "inplace",
						"label": "struct SchoolRecord.Student",
						"members": [
							{
								"astId": 16,
								"contract": "contracts/Struct.sol:SchoolRecord",
								"label": "name",
								"offset": 0,
								"slot": "0",
								"type": "t_string_storage"
							},
							{
								"astId": 18,
								"contract": "contracts/Struct.sol:SchoolRecord",
								"label": "age",
								"offset": 0,
								"slot": "1",
								"type": "t_uint256"
							},
							{
								"astId": 20,
								"contract": "contracts/Struct.sol:SchoolRecord",
								"label": "country",
								"offset": 0,
								"slot": "2",
								"type": "t_string_storage"
							},
							{
								"astId": 22,
								"contract": "contracts/Struct.sol:SchoolRecord",
								"label": "major",
								"offset": 0,
								"slot": "3",
								"type": "t_string_storage"
							}
						],
						"numberOfBytes": "128"
					},
					"t_uint256": {
						"encoding": "inplace",
						"label": "uint256",
						"numberOfBytes": "32"
					}
				}
			},
			"userdoc": {
				"kind": "user",
				"methods": {},
				"version": 1
			}
		}
	}
}