{
	"contracts/CallVsDelegateCall.sol": {
		"ContractC": {
			"abi": [
				{
					"inputs": [
						{
							"internalType": "address",
							"name": "_contractLAddress",
							"type": "address"
						},
						{
							"internalType": "uint256",
							"name": "_newValue",
							"type": "uint256"
						}
					],
					"name": "interactingWithL",
					"outputs": [],
					"stateMutability": "nonpayable",
					"type": "function"
				},
				{
					"inputs": [],
					"name": "valueC",
					"outputs": [
						{
							"internalType": "uint256",
							"name": "",
							"type": "uint256"
						}
					],
					"stateMutability": "view",
					"type": "function"
				},
				{
					"inputs": [
						{
							"internalType": "uint256",
							"name": "",
							"type": "uint256"
						}
					],
					"name": "valueMap",
					"outputs": [
						{
							"internalType": "uint256",
							"name": "",
							"type": "uint256"
						}
					],
					"stateMutability": "view",
					"type": "function"
				}
			],
			"devdoc": {
				"kind": "dev",
				"methods": {},
				"version": 1
			},
			"evm": {
				"assembly": "    /* \"contracts/CallVsDelegateCall.sol\":1384:1989  contract ContractC {... */\n  mstore(0x40, 0x80)\n    /* \"contracts/CallVsDelegateCall.sol\":1571:1573  30 */\n  0x1e\n    /* \"contracts/CallVsDelegateCall.sol\":1550:1573  uint public valueC = 30 */\n  0x01\n  sstore\n    /* \"contracts/CallVsDelegateCall.sol\":1384:1989  contract ContractC {... */\n  callvalue\n  dup1\n  iszero\n  tag_1\n  jumpi\n  revert(0x00, 0x00)\ntag_1:\n  pop\n  dataSize(sub_0)\n  dup1\n  dataOffset(sub_0)\n  0x00\n  codecopy\n  0x00\n  return\nstop\n\nsub_0: assembly {\n        /* \"contracts/CallVsDelegateCall.sol\":1384:1989  contract ContractC {... */\n      mstore(0x40, 0x80)\n      callvalue\n      dup1\n      iszero\n      tag_1\n      jumpi\n      revert(0x00, 0x00)\n    tag_1:\n      pop\n      jumpi(tag_2, lt(calldatasize, 0x04))\n      shr(0xe0, calldataload(0x00))\n      dup1\n      0xb786ed67\n      eq\n      tag_3\n      jumpi\n      dup1\n      0xdaae8ba2\n      eq\n      tag_4\n      jumpi\n      dup1\n      0xff8284d8\n      eq\n      tag_5\n      jumpi\n    tag_2:\n      revert(0x00, 0x00)\n        /* \"contracts/CallVsDelegateCall.sol\":1654:1987  function interactingWithL(address _contractLAddress, uint _newValue) public {... */\n    tag_3:\n      tag_6\n      0x04\n      dup1\n      calldatasize\n      sub\n      dup2\n      add\n      swap1\n      tag_7\n      swap2\n      swap1\n      tag_8\n      jump\t// in\n    tag_7:\n      tag_9\n      jump\t// in\n    tag_6:\n      stop\n        /* \"contracts/CallVsDelegateCall.sol\":1456:1493  mapping(uint => uint) public valueMap */\n    tag_4:\n      tag_10\n      0x04\n      dup1\n      calldatasize\n      sub\n      dup2\n      add\n      swap1\n      tag_11\n      swap2\n      swap1\n      tag_12\n      jump\t// in\n    tag_11:\n      tag_13\n      jump\t// in\n    tag_10:\n      mload(0x40)\n      tag_14\n      swap2\n      swap1\n      tag_15\n      jump\t// in\n    tag_14:\n      mload(0x40)\n      dup1\n      swap2\n      sub\n      swap1\n      return\n        /* \"contracts/CallVsDelegateCall.sol\":1550:1573  uint public valueC = 30 */\n    tag_5:\n      tag_16\n      tag_17\n      jump\t// in\n    tag_16:\n      mload(0x40)\n      tag_18\n      swap2\n      swap1\n      tag_15\n      jump\t// in\n    tag_18:\n      mload(0x40)\n      dup1\n      swap2\n      sub\n      swap1\n      return\n        /* \"contracts/CallVsDelegateCall.sol\":1654:1987  function interactingWithL(address _contractLAddress, uint _newValue) public {... */\n    tag_9:\n        /* \"contracts/CallVsDelegateCall.sol\":1741:1753  bool success */\n      0x00\n        /* \"contracts/CallVsDelegateCall.sol\":1759:1776  _contractLAddress */\n      dup3\n        /* \"contracts/CallVsDelegateCall.sol\":1759:1789  _contractLAddress.delegatecall */\n      0xffffffffffffffffffffffffffffffffffffffff\n      and\n        /* \"contracts/CallVsDelegateCall.sol\":1857:1863  valueC */\n      sload(0x01)\n        /* \"contracts/CallVsDelegateCall.sol\":1865:1874  _newValue */\n      dup4\n        /* \"contracts/CallVsDelegateCall.sol\":1803:1875  abi.encodeWithSignature(\"setValue(uint256, uint256)\", valueC, _newValue) */\n      add(0x24, mload(0x40))\n      tag_20\n      swap3\n      swap2\n      swap1\n      tag_21\n      jump\t// in\n    tag_20:\n      mload(0x40)\n      0x20\n      dup2\n      dup4\n      sub\n      sub\n      dup2\n      mstore\n      swap1\n      0x40\n      mstore\n      and(not(0xffffffffffffffffffffffffffffffffffffffffffffffffffffffff), 0x3c784ba700000000000000000000000000000000000000000000000000000000)\n      0x20\n      dup3\n      add\n      dup1\n      mload\n      0xffffffffffffffffffffffffffffffffffffffffffffffffffffffff\n      dup4\n      dup2\n      dup4\n      and\n      or\n      dup4\n      mstore\n      pop\n      pop\n      pop\n      pop\n        /* \"contracts/CallVsDelegateCall.sol\":1759:1885  _contractLAddress.delegatecall(... */\n      mload(0x40)\n      tag_22\n      swap2\n      swap1\n      tag_23\n      jump\t// in\n    tag_22:\n      0x00\n      mload(0x40)\n      dup1\n      dup4\n      sub\n      dup2\n      dup6\n      gas\n      delegatecall\n      swap2\n      pop\n      pop\n      returndatasize\n      dup1\n      0x00\n      dup2\n      eq\n      tag_26\n      jumpi\n      mload(0x40)\n      swap2\n      pop\n      and(add(returndatasize, 0x3f), not(0x1f))\n      dup3\n      add\n      0x40\n      mstore\n      returndatasize\n      dup3\n      mstore\n      returndatasize\n      0x00\n      0x20\n      dup5\n      add\n      returndatacopy\n      jump(tag_25)\n    tag_26:\n      0x60\n      swap2\n      pop\n    tag_25:\n      pop\n        /* \"contracts/CallVsDelegateCall.sol\":1740:1885  (bool success, ) = _contractLAddress.delegatecall(... */\n      pop\n      swap1\n      pop\n        /* \"contracts/CallVsDelegateCall.sol\":1948:1955  success */\n      dup1\n        /* \"contracts/CallVsDelegateCall.sol\":1940:1979  require(success, \"Delegatecall failed\") */\n      tag_27\n      jumpi\n      mload(0x40)\n      0x08c379a000000000000000000000000000000000000000000000000000000000\n      dup2\n      mstore\n      0x04\n      add\n      tag_28\n      swap1\n      tag_29\n      jump\t// in\n    tag_28:\n      mload(0x40)\n      dup1\n      swap2\n      sub\n      swap1\n      revert\n    tag_27:\n        /* \"contracts/CallVsDelegateCall.sol\":1730:1987  {... */\n      pop\n        /* \"contracts/CallVsDelegateCall.sol\":1654:1987  function interactingWithL(address _contractLAddress, uint _newValue) public {... */\n      pop\n      pop\n      jump\t// out\n        /* \"contracts/CallVsDelegateCall.sol\":1456:1493  mapping(uint => uint) public valueMap */\n    tag_13:\n      mstore(0x20, 0x00)\n      dup1\n      0x00\n      mstore\n      keccak256(0x00, 0x40)\n      0x00\n      swap2\n      pop\n      swap1\n      pop\n      sload\n      dup2\n      jump\t// out\n        /* \"contracts/CallVsDelegateCall.sol\":1550:1573  uint public valueC = 30 */\n    tag_17:\n      sload(0x01)\n      dup2\n      jump\t// out\n        /* \"#utility.yul\":88:205   */\n    tag_31:\n        /* \"#utility.yul\":197:198   */\n      0x00\n        /* \"#utility.yul\":194:195   */\n      0x00\n        /* \"#utility.yul\":187:199   */\n      revert\n        /* \"#utility.yul\":334:460   */\n    tag_33:\n        /* \"#utility.yul\":371:378   */\n      0x00\n        /* \"#utility.yul\":411:453   */\n      0xffffffffffffffffffffffffffffffffffffffff\n        /* \"#utility.yul\":404:409   */\n      dup3\n        /* \"#utility.yul\":400:454   */\n      and\n        /* \"#utility.yul\":389:454   */\n      swap1\n      pop\n        /* \"#utility.yul\":334:460   */\n      swap2\n      swap1\n      pop\n      jump\t// out\n        /* \"#utility.yul\":466:562   */\n    tag_34:\n        /* \"#utility.yul\":503:510   */\n      0x00\n        /* \"#utility.yul\":532:556   */\n      tag_54\n        /* \"#utility.yul\":550:555   */\n      dup3\n        /* \"#utility.yul\":532:556   */\n      tag_33\n      jump\t// in\n    tag_54:\n        /* \"#utility.yul\":521:556   */\n      swap1\n      pop\n        /* \"#utility.yul\":466:562   */\n      swap2\n      swap1\n      pop\n      jump\t// out\n        /* \"#utility.yul\":568:690   */\n    tag_35:\n        /* \"#utility.yul\":641:665   */\n      tag_56\n        /* \"#utility.yul\":659:664   */\n      dup2\n        /* \"#utility.yul\":641:665   */\n      tag_34\n      jump\t// in\n    tag_56:\n        /* \"#utility.yul\":634:639   */\n      dup2\n        /* \"#utility.yul\":631:666   */\n      eq\n        /* \"#utility.yul\":621:684   */\n      tag_57\n      jumpi\n        /* \"#utility.yul\":680:681   */\n      0x00\n        /* \"#utility.yul\":677:678   */\n      0x00\n        /* \"#utility.yul\":670:682   */\n      revert\n        /* \"#utility.yul\":621:684   */\n    tag_57:\n        /* \"#utility.yul\":568:690   */\n      pop\n      jump\t// out\n        /* \"#utility.yul\":696:835   */\n    tag_36:\n        /* \"#utility.yul\":742:747   */\n      0x00\n        /* \"#utility.yul\":780:786   */\n      dup2\n        /* \"#utility.yul\":767:787   */\n      calldataload\n        /* \"#utility.yul\":758:787   */\n      swap1\n      pop\n        /* \"#utility.yul\":796:829   */\n      tag_59\n        /* \"#utility.yul\":823:828   */\n      dup2\n        /* \"#utility.yul\":796:829   */\n      tag_35\n      jump\t// in\n    tag_59:\n        /* \"#utility.yul\":696:835   */\n      swap3\n      swap2\n      pop\n      pop\n      jump\t// out\n        /* \"#utility.yul\":841:918   */\n    tag_37:\n        /* \"#utility.yul\":878:885   */\n      0x00\n        /* \"#utility.yul\":907:912   */\n      dup2\n        /* \"#utility.yul\":896:912   */\n      swap1\n      pop\n        /* \"#utility.yul\":841:918   */\n      swap2\n      swap1\n      pop\n      jump\t// out\n        /* \"#utility.yul\":924:1046   */\n    tag_38:\n        /* \"#utility.yul\":997:1021   */\n      tag_62\n        /* \"#utility.yul\":1015:1020   */\n      dup2\n        /* \"#utility.yul\":997:1021   */\n      tag_37\n      jump\t// in\n    tag_62:\n        /* \"#utility.yul\":990:995   */\n      dup2\n        /* \"#utility.yul\":987:1022   */\n      eq\n        /* \"#utility.yul\":977:1040   */\n      tag_63\n      jumpi\n        /* \"#utility.yul\":1036:1037   */\n      0x00\n        /* \"#utility.yul\":1033:1034   */\n      0x00\n        /* \"#utility.yul\":1026:1038   */\n      revert\n        /* \"#utility.yul\":977:1040   */\n    tag_63:\n        /* \"#utility.yul\":924:1046   */\n      pop\n      jump\t// out\n        /* \"#utility.yul\":1052:1191   */\n    tag_39:\n        /* \"#utility.yul\":1098:1103   */\n      0x00\n        /* \"#utility.yul\":1136:1142   */\n      dup2\n        /* \"#utility.yul\":1123:1143   */\n      calldataload\n        /* \"#utility.yul\":1114:1143   */\n      swap1\n      pop\n        /* \"#utility.yul\":1152:1185   */\n      tag_65\n        /* \"#utility.yul\":1179:1184   */\n      dup2\n        /* \"#utility.yul\":1152:1185   */\n      tag_38\n      jump\t// in\n    tag_65:\n        /* \"#utility.yul\":1052:1191   */\n      swap3\n      swap2\n      pop\n      pop\n      jump\t// out\n        /* \"#utility.yul\":1197:1671   */\n    tag_8:\n        /* \"#utility.yul\":1265:1271   */\n      0x00\n        /* \"#utility.yul\":1273:1279   */\n      0x00\n        /* \"#utility.yul\":1322:1324   */\n      0x40\n        /* \"#utility.yul\":1310:1319   */\n      dup4\n        /* \"#utility.yul\":1301:1308   */\n      dup6\n        /* \"#utility.yul\":1297:1320   */\n      sub\n        /* \"#utility.yul\":1293:1325   */\n      slt\n        /* \"#utility.yul\":1290:1409   */\n      iszero\n      tag_67\n      jumpi\n        /* \"#utility.yul\":1328:1407   */\n      tag_68\n      tag_31\n      jump\t// in\n    tag_68:\n        /* \"#utility.yul\":1290:1409   */\n    tag_67:\n        /* \"#utility.yul\":1448:1449   */\n      0x00\n        /* \"#utility.yul\":1473:1526   */\n      tag_69\n        /* \"#utility.yul\":1518:1525   */\n      dup6\n        /* \"#utility.yul\":1509:1515   */\n      dup3\n        /* \"#utility.yul\":1498:1507   */\n      dup7\n        /* \"#utility.yul\":1494:1516   */\n      add\n        /* \"#utility.yul\":1473:1526   */\n      tag_36\n      jump\t// in\n    tag_69:\n        /* \"#utility.yul\":1463:1526   */\n      swap3\n      pop\n        /* \"#utility.yul\":1419:1536   */\n      pop\n        /* \"#utility.yul\":1575:1577   */\n      0x20\n        /* \"#utility.yul\":1601:1654   */\n      tag_70\n        /* \"#utility.yul\":1646:1653   */\n      dup6\n        /* \"#utility.yul\":1637:1643   */\n      dup3\n        /* \"#utility.yul\":1626:1635   */\n      dup7\n        /* \"#utility.yul\":1622:1644   */\n      add\n        /* \"#utility.yul\":1601:1654   */\n      tag_39\n      jump\t// in\n    tag_70:\n        /* \"#utility.yul\":1591:1654   */\n      swap2\n      pop\n        /* \"#utility.yul\":1546:1664   */\n      pop\n        /* \"#utility.yul\":1197:1671   */\n      swap3\n      pop\n      swap3\n      swap1\n      pop\n      jump\t// out\n        /* \"#utility.yul\":1677:2006   */\n    tag_12:\n        /* \"#utility.yul\":1736:1742   */\n      0x00\n        /* \"#utility.yul\":1785:1787   */\n      0x20\n        /* \"#utility.yul\":1773:1782   */\n      dup3\n        /* \"#utility.yul\":1764:1771   */\n      dup5\n        /* \"#utility.yul\":1760:1783   */\n      sub\n        /* \"#utility.yul\":1756:1788   */\n      slt\n        /* \"#utility.yul\":1753:1872   */\n      iszero\n      tag_72\n      jumpi\n        /* \"#utility.yul\":1791:1870   */\n      tag_73\n      tag_31\n      jump\t// in\n    tag_73:\n        /* \"#utility.yul\":1753:1872   */\n    tag_72:\n        /* \"#utility.yul\":1911:1912   */\n      0x00\n        /* \"#utility.yul\":1936:1989   */\n      tag_74\n        /* \"#utility.yul\":1981:1988   */\n      dup5\n        /* \"#utility.yul\":1972:1978   */\n      dup3\n        /* \"#utility.yul\":1961:1970   */\n      dup6\n        /* \"#utility.yul\":1957:1979   */\n      add\n        /* \"#utility.yul\":1936:1989   */\n      tag_39\n      jump\t// in\n    tag_74:\n        /* \"#utility.yul\":1926:1989   */\n      swap2\n      pop\n        /* \"#utility.yul\":1882:1999   */\n      pop\n        /* \"#utility.yul\":1677:2006   */\n      swap3\n      swap2\n      pop\n      pop\n      jump\t// out\n        /* \"#utility.yul\":2012:2130   */\n    tag_40:\n        /* \"#utility.yul\":2099:2123   */\n      tag_76\n        /* \"#utility.yul\":2117:2122   */\n      dup2\n        /* \"#utility.yul\":2099:2123   */\n      tag_37\n      jump\t// in\n    tag_76:\n        /* \"#utility.yul\":2094:2097   */\n      dup3\n        /* \"#utility.yul\":2087:2124   */\n      mstore\n        /* \"#utility.yul\":2012:2130   */\n      pop\n      pop\n      jump\t// out\n        /* \"#utility.yul\":2136:2358   */\n    tag_15:\n        /* \"#utility.yul\":2229:2233   */\n      0x00\n        /* \"#utility.yul\":2267:2269   */\n      0x20\n        /* \"#utility.yul\":2256:2265   */\n      dup3\n        /* \"#utility.yul\":2252:2270   */\n      add\n        /* \"#utility.yul\":2244:2270   */\n      swap1\n      pop\n        /* \"#utility.yul\":2280:2351   */\n      tag_78\n        /* \"#utility.yul\":2348:2349   */\n      0x00\n        /* \"#utility.yul\":2337:2346   */\n      dup4\n        /* \"#utility.yul\":2333:2350   */\n      add\n        /* \"#utility.yul\":2324:2330   */\n      dup5\n        /* \"#utility.yul\":2280:2351   */\n      tag_40\n      jump\t// in\n    tag_78:\n        /* \"#utility.yul\":2136:2358   */\n      swap3\n      swap2\n      pop\n      pop\n      jump\t// out\n        /* \"#utility.yul\":2364:2696   */\n    tag_21:\n        /* \"#utility.yul\":2485:2489   */\n      0x00\n        /* \"#utility.yul\":2523:2525   */\n      0x40\n        /* \"#utility.yul\":2512:2521   */\n      dup3\n        /* \"#utility.yul\":2508:2526   */\n      add\n        /* \"#utility.yul\":2500:2526   */\n      swap1\n      pop\n        /* \"#utility.yul\":2536:2607   */\n      tag_80\n        /* \"#utility.yul\":2604:2605   */\n      0x00\n        /* \"#utility.yul\":2593:2602   */\n      dup4\n        /* \"#utility.yul\":2589:2606   */\n      add\n        /* \"#utility.yul\":2580:2586   */\n      dup6\n        /* \"#utility.yul\":2536:2607   */\n      tag_40\n      jump\t// in\n    tag_80:\n        /* \"#utility.yul\":2617:2689   */\n      tag_81\n        /* \"#utility.yul\":2685:2687   */\n      0x20\n        /* \"#utility.yul\":2674:2683   */\n      dup4\n        /* \"#utility.yul\":2670:2688   */\n      add\n        /* \"#utility.yul\":2661:2667   */\n      dup5\n        /* \"#utility.yul\":2617:2689   */\n      tag_40\n      jump\t// in\n    tag_81:\n        /* \"#utility.yul\":2364:2696   */\n      swap4\n      swap3\n      pop\n      pop\n      pop\n      jump\t// out\n        /* \"#utility.yul\":2702:2800   */\n    tag_41:\n        /* \"#utility.yul\":2753:2759   */\n      0x00\n        /* \"#utility.yul\":2787:2792   */\n      dup2\n        /* \"#utility.yul\":2781:2793   */\n      mload\n        /* \"#utility.yul\":2771:2793   */\n      swap1\n      pop\n        /* \"#utility.yul\":2702:2800   */\n      swap2\n      swap1\n      pop\n      jump\t// out\n        /* \"#utility.yul\":2806:2953   */\n    tag_42:\n        /* \"#utility.yul\":2907:2918   */\n      0x00\n        /* \"#utility.yul\":2944:2947   */\n      dup2\n        /* \"#utility.yul\":2929:2947   */\n      swap1\n      pop\n        /* \"#utility.yul\":2806:2953   */\n      swap3\n      swap2\n      pop\n      pop\n      jump\t// out\n        /* \"#utility.yul\":2959:3098   */\n    tag_43:\n        /* \"#utility.yul\":3048:3054   */\n      dup3\n        /* \"#utility.yul\":3043:3046   */\n      dup2\n        /* \"#utility.yul\":3038:3041   */\n      dup4\n        /* \"#utility.yul\":3032:3055   */\n      mcopy\n        /* \"#utility.yul\":3089:3090   */\n      0x00\n        /* \"#utility.yul\":3080:3086   */\n      dup4\n        /* \"#utility.yul\":3075:3078   */\n      dup4\n        /* \"#utility.yul\":3071:3087   */\n      add\n        /* \"#utility.yul\":3064:3091   */\n      mstore\n        /* \"#utility.yul\":2959:3098   */\n      pop\n      pop\n      pop\n      jump\t// out\n        /* \"#utility.yul\":3104:3490   */\n    tag_44:\n        /* \"#utility.yul\":3208:3211   */\n      0x00\n        /* \"#utility.yul\":3236:3274   */\n      tag_86\n        /* \"#utility.yul\":3268:3273   */\n      dup3\n        /* \"#utility.yul\":3236:3274   */\n      tag_41\n      jump\t// in\n    tag_86:\n        /* \"#utility.yul\":3290:3378   */\n      tag_87\n        /* \"#utility.yul\":3371:3377   */\n      dup2\n        /* \"#utility.yul\":3366:3369   */\n      dup6\n        /* \"#utility.yul\":3290:3378   */\n      tag_42\n      jump\t// in\n    tag_87:\n        /* \"#utility.yul\":3283:3378   */\n      swap4\n      pop\n        /* \"#utility.yul\":3387:3452   */\n      tag_88\n        /* \"#utility.yul\":3445:3451   */\n      dup2\n        /* \"#utility.yul\":3440:3443   */\n      dup6\n        /* \"#utility.yul\":3433:3437   */\n      0x20\n        /* \"#utility.yul\":3426:3431   */\n      dup7\n        /* \"#utility.yul\":3422:3438   */\n      add\n        /* \"#utility.yul\":3387:3452   */\n      tag_43\n      jump\t// in\n    tag_88:\n        /* \"#utility.yul\":3477:3483   */\n      dup1\n        /* \"#utility.yul\":3472:3475   */\n      dup5\n        /* \"#utility.yul\":3468:3484   */\n      add\n        /* \"#utility.yul\":3461:3484   */\n      swap2\n      pop\n        /* \"#utility.yul\":3212:3490   */\n      pop\n        /* \"#utility.yul\":3104:3490   */\n      swap3\n      swap2\n      pop\n      pop\n      jump\t// out\n        /* \"#utility.yul\":3496:3767   */\n    tag_23:\n        /* \"#utility.yul\":3626:3629   */\n      0x00\n        /* \"#utility.yul\":3648:3741   */\n      tag_90\n        /* \"#utility.yul\":3737:3740   */\n      dup3\n        /* \"#utility.yul\":3728:3734   */\n      dup5\n        /* \"#utility.yul\":3648:3741   */\n      tag_44\n      jump\t// in\n    tag_90:\n        /* \"#utility.yul\":3641:3741   */\n      swap2\n      pop\n        /* \"#utility.yul\":3758:3761   */\n      dup2\n        /* \"#utility.yul\":3751:3761   */\n      swap1\n      pop\n        /* \"#utility.yul\":3496:3767   */\n      swap3\n      swap2\n      pop\n      pop\n      jump\t// out\n        /* \"#utility.yul\":3773:3942   */\n    tag_45:\n        /* \"#utility.yul\":3857:3868   */\n      0x00\n        /* \"#utility.yul\":3891:3897   */\n      dup3\n        /* \"#utility.yul\":3886:3889   */\n      dup3\n        /* \"#utility.yul\":3879:3898   */\n      mstore\n        /* \"#utility.yul\":3931:3935   */\n      0x20\n        /* \"#utility.yul\":3926:3929   */\n      dup3\n        /* \"#utility.yul\":3922:3936   */\n      add\n        /* \"#utility.yul\":3907:3936   */\n      swap1\n      pop\n        /* \"#utility.yul\":3773:3942   */\n      swap3\n      swap2\n      pop\n      pop\n      jump\t// out\n        /* \"#utility.yul\":3948:4117   */\n    tag_46:\n        /* \"#utility.yul\":4088:4109   */\n      0x44656c656761746563616c6c206661696c656400000000000000000000000000\n        /* \"#utility.yul\":4084:4085   */\n      0x00\n        /* \"#utility.yul\":4076:4082   */\n      dup3\n        /* \"#utility.yul\":4072:4086   */\n      add\n        /* \"#utility.yul\":4065:4110   */\n      mstore\n        /* \"#utility.yul\":3948:4117   */\n      pop\n      jump\t// out\n        /* \"#utility.yul\":4123:4489   */\n    tag_47:\n        /* \"#utility.yul\":4265:4268   */\n      0x00\n        /* \"#utility.yul\":4286:4353   */\n      tag_94\n        /* \"#utility.yul\":4350:4352   */\n      0x13\n        /* \"#utility.yul\":4345:4348   */\n      dup4\n        /* \"#utility.yul\":4286:4353   */\n      tag_45\n      jump\t// in\n    tag_94:\n        /* \"#utility.yul\":4279:4353   */\n      swap2\n      pop\n        /* \"#utility.yul\":4362:4455   */\n      tag_95\n        /* \"#utility.yul\":4451:4454   */\n      dup3\n        /* \"#utility.yul\":4362:4455   */\n      tag_46\n      jump\t// in\n    tag_95:\n        /* \"#utility.yul\":4480:4482   */\n      0x20\n        /* \"#utility.yul\":4475:4478   */\n      dup3\n        /* \"#utility.yul\":4471:4483   */\n      add\n        /* \"#utility.yul\":4464:4483   */\n      swap1\n      pop\n        /* \"#utility.yul\":4123:4489   */\n      swap2\n      swap1\n      pop\n      jump\t// out\n        /* \"#utility.yul\":4495:4914   */\n    tag_29:\n        /* \"#utility.yul\":4661:4665   */\n      0x00\n        /* \"#utility.yul\":4699:4701   */\n      0x20\n        /* \"#utility.yul\":4688:4697   */\n      dup3\n        /* \"#utility.yul\":4684:4702   */\n      add\n        /* \"#utility.yul\":4676:4702   */\n      swap1\n      pop\n        /* \"#utility.yul\":4748:4757   */\n      dup2\n        /* \"#utility.yul\":4742:4746   */\n      dup2\n        /* \"#utility.yul\":4738:4758   */\n      sub\n        /* \"#utility.yul\":4734:4735   */\n      0x00\n        /* \"#utility.yul\":4723:4732   */\n      dup4\n        /* \"#utility.yul\":4719:4736   */\n      add\n        /* \"#utility.yul\":4712:4759   */\n      mstore\n        /* \"#utility.yul\":4776:4907   */\n      tag_97\n        /* \"#utility.yul\":4902:4906   */\n      dup2\n        /* \"#utility.yul\":4776:4907   */\n      tag_47\n      jump\t// in\n    tag_97:\n        /* \"#utility.yul\":4768:4907   */\n      swap1\n      pop\n        /* \"#utility.yul\":4495:4914   */\n      swap2\n      swap1\n      pop\n      jump\t// out\n\n    auxdata: 0xa2646970667358221220feefc1d7f1bdf844171830438250a92b4bc32a3043b1b6598f5225ad1dd85ad664736f6c634300081e0033\n}\n",
				"bytecode": {
					"linkReferences": {},
					"object": "6080604052601e6001553480156013575f5ffd5b50610463806100215f395ff3fe608060405234801561000f575f5ffd5b506004361061003f575f3560e01c8063b786ed6714610043578063daae8ba21461005f578063ff8284d81461008f575b5f5ffd5b61005d60048036038101906100589190610295565b6100ad565b005b610079600480360381019061007491906102d3565b6101ea565b604051610086919061030d565b60405180910390f35b6100976101fe565b6040516100a4919061030d565b60405180910390f35b5f8273ffffffffffffffffffffffffffffffffffffffff16600154836040516024016100da929190610326565b6040516020818303038152906040527f3c784ba7000000000000000000000000000000000000000000000000000000007bffffffffffffffffffffffffffffffffffffffffffffffffffffffff19166020820180517bffffffffffffffffffffffffffffffffffffffffffffffffffffffff8381831617835250505050604051610164919061039f565b5f60405180830381855af49150503d805f811461019c576040519150601f19603f3d011682016040523d82523d5f602084013e6101a1565b606091505b50509050806101e5576040517f08c379a00000000000000000000000000000000000000000000000000000000081526004016101dc9061040f565b60405180910390fd5b505050565b5f602052805f5260405f205f915090505481565b60015481565b5f5ffd5b5f73ffffffffffffffffffffffffffffffffffffffff82169050919050565b5f61023182610208565b9050919050565b61024181610227565b811461024b575f5ffd5b50565b5f8135905061025c81610238565b92915050565b5f819050919050565b61027481610262565b811461027e575f5ffd5b50565b5f8135905061028f8161026b565b92915050565b5f5f604083850312156102ab576102aa610204565b5b5f6102b88582860161024e565b92505060206102c985828601610281565b9150509250929050565b5f602082840312156102e8576102e7610204565b5b5f6102f584828501610281565b91505092915050565b61030781610262565b82525050565b5f6020820190506103205f8301846102fe565b92915050565b5f6040820190506103395f8301856102fe565b61034660208301846102fe565b9392505050565b5f81519050919050565b5f81905092915050565b8281835e5f83830152505050565b5f6103798261034d565b6103838185610357565b9350610393818560208601610361565b80840191505092915050565b5f6103aa828461036f565b915081905092915050565b5f82825260208201905092915050565b7f44656c656761746563616c6c206661696c6564000000000000000000000000005f82015250565b5f6103f96013836103b5565b9150610404826103c5565b602082019050919050565b5f6020820190508181035f830152610426816103ed565b905091905056fea2646970667358221220feefc1d7f1bdf844171830438250a92b4bc32a3043b1b6598f5225ad1dd85ad664736f6c634300081e0033",
					"opcodes": "PUSH1 0x80 PUSH1 0x40 MSTORE PUSH1 0x1E PUSH1 0x1 SSTORE CALLVALUE DUP1 ISZERO PUSH1 0x13 JUMPI PUSH0 PUSH0 REVERT JUMPDEST POP PUSH2 0x463 DUP1 PUSH2 0x21 PUSH0 CODECOPY PUSH0 RETURN INVALID PUSH1 0x80 PUSH1 0x40 MSTORE CALLVALUE DUP1 ISZERO PUSH2 0xF JUMPI PUSH0 PUSH0 REVERT JUMPDEST POP PUSH1 0x4 CALLDATASIZE LT PUSH2 0x3F JUMPI PUSH0 CALLDATALOAD PUSH1 0xE0 SHR DUP1 PUSH4 0xB786ED67 EQ PUSH2 0x43 JUMPI DUP1 PUSH4 0xDAAE8BA2 EQ PUSH2 0x5F JUMPI DUP1 PUSH4 0xFF8284D8 EQ PUSH2 0x8F JUMPI JUMPDEST PUSH0 PUSH0 REVERT JUMPDEST PUSH2 0x5D PUSH1 0x4 DUP1 CALLDATASIZE SUB DUP2 ADD SWAP1 PUSH2 0x58 SWAP2 SWAP1 PUSH2 0x295 JUMP JUMPDEST PUSH2 0xAD JUMP JUMPDEST STOP JUMPDEST PUSH2 0x79 PUSH1 0x4 DUP1 CALLDATASIZE SUB DUP2 ADD SWAP1 PUSH2 0x74 SWAP2 SWAP1 PUSH2 0x2D3 JUMP JUMPDEST PUSH2 0x1EA JUMP JUMPDEST PUSH1 0x40 MLOAD PUSH2 0x86 SWAP2 SWAP1 PUSH2 0x30D JUMP JUMPDEST PUSH1 0x40 MLOAD DUP1 SWAP2 SUB SWAP1 RETURN JUMPDEST PUSH2 0x97 PUSH2 0x1FE JUMP JUMPDEST PUSH1 0x40 MLOAD PUSH2 0xA4 SWAP2 SWAP1 PUSH2 0x30D JUMP JUMPDEST PUSH1 0x40 MLOAD DUP1 SWAP2 SUB SWAP1 RETURN JUMPDEST PUSH0 DUP3 PUSH20 0xFFFFFFFFFFFFFFFFFFFFFFFFFFFFFFFFFFFFFFFF AND PUSH1 0x1 SLOAD DUP4 PUSH1 0x40 MLOAD PUSH1 0x24 ADD PUSH2 0xDA SWAP3 SWAP2 SWAP1 PUSH2 0x326 JUMP JUMPDEST PUSH1 0x40 MLOAD PUSH1 0x20 DUP2 DUP4 SUB SUB DUP2 MSTORE SWAP1 PUSH1 0x40 MSTORE PUSH32 0x3C784BA700000000000000000000000000000000000000000000000000000000 PUSH28 0xFFFFFFFFFFFFFFFFFFFFFFFFFFFFFFFFFFFFFFFFFFFFFFFFFFFFFFFF NOT AND PUSH1 0x20 DUP3 ADD DUP1 MLOAD PUSH28 0xFFFFFFFFFFFFFFFFFFFFFFFFFFFFFFFFFFFFFFFFFFFFFFFFFFFFFFFF DUP4 DUP2 DUP4 AND OR DUP4 MSTORE POP POP POP POP PUSH1 0x40 MLOAD PUSH2 0x164 SWAP2 SWAP1 PUSH2 0x39F JUMP JUMPDEST PUSH0 PUSH1 0x40 MLOAD DUP1 DUP4 SUB DUP2 DUP6 GAS DELEGATECALL SWAP2 POP POP RETURNDATASIZE DUP1 PUSH0 DUP2 EQ PUSH2 0x19C JUMPI PUSH1 0x40 MLOAD SWAP2 POP PUSH1 0x1F NOT PUSH1 0x3F RETURNDATASIZE ADD AND DUP3 ADD PUSH1 0x40 MSTORE RETURNDATASIZE DUP3 MSTORE RETURNDATASIZE PUSH0 PUSH1 0x20 DUP5 ADD RETURNDATACOPY PUSH2 0x1A1 JUMP JUMPDEST PUSH1 0x60 SWAP2 POP JUMPDEST POP POP SWAP1 POP DUP1 PUSH2 0x1E5 JUMPI PUSH1 0x40 MLOAD PUSH32 0x8C379A000000000000000000000000000000000000000000000000000000000 DUP2 MSTORE PUSH1 0x4 ADD PUSH2 0x1DC SWAP1 PUSH2 0x40F JUMP JUMPDEST PUSH1 0x40 MLOAD DUP1 SWAP2 SUB SWAP1 REVERT JUMPDEST POP POP POP JUMP JUMPDEST PUSH0 PUSH1 0x20 MSTORE DUP1 PUSH0 MSTORE PUSH1 0x40 PUSH0 KECCAK256 PUSH0 SWAP2 POP SWAP1 POP SLOAD DUP2 JUMP JUMPDEST PUSH1 0x1 SLOAD DUP2 JUMP JUMPDEST PUSH0 PUSH0 REVERT JUMPDEST PUSH0 PUSH20 0xFFFFFFFFFFFFFFFFFFFFFFFFFFFFFFFFFFFFFFFF DUP3 AND SWAP1 POP SWAP2 SWAP1 POP JUMP JUMPDEST PUSH0 PUSH2 0x231 DUP3 PUSH2 0x208 JUMP JUMPDEST SWAP1 POP SWAP2 SWAP1 POP JUMP JUMPDEST PUSH2 0x241 DUP2 PUSH2 0x227 JUMP JUMPDEST DUP2 EQ PUSH2 0x24B JUMPI PUSH0 PUSH0 REVERT JUMPDEST POP JUMP JUMPDEST PUSH0 DUP2 CALLDATALOAD SWAP1 POP PUSH2 0x25C DUP2 PUSH2 0x238 JUMP JUMPDEST SWAP3 SWAP2 POP POP JUMP JUMPDEST PUSH0 DUP2 SWAP1 POP SWAP2 SWAP1 POP JUMP JUMPDEST PUSH2 0x274 DUP2 PUSH2 0x262 JUMP JUMPDEST DUP2 EQ PUSH2 0x27E JUMPI PUSH0 PUSH0 REVERT JUMPDEST POP JUMP JUMPDEST PUSH0 DUP2 CALLDATALOAD SWAP1 POP PUSH2 0x28F DUP2 PUSH2 0x26B JUMP JUMPDEST SWAP3 SWAP2 POP POP JUMP JUMPDEST PUSH0 PUSH0 PUSH1 0x40 DUP4 DUP6 SUB SLT ISZERO PUSH2 0x2AB JUMPI PUSH2 0x2AA PUSH2 0x204 JUMP JUMPDEST JUMPDEST PUSH0 PUSH2 0x2B8 DUP6 DUP3 DUP7 ADD PUSH2 0x24E JUMP JUMPDEST SWAP3 POP POP PUSH1 0x20 PUSH2 0x2C9 DUP6 DUP3 DUP7 ADD PUSH2 0x281 JUMP JUMPDEST SWAP2 POP POP SWAP3 POP SWAP3 SWAP1 POP JUMP JUMPDEST PUSH0 PUSH1 0x20 DUP3 DUP5 SUB SLT ISZERO PUSH2 0x2E8 JUMPI PUSH2 0x2E7 PUSH2 0x204 JUMP JUMPDEST JUMPDEST PUSH0 PUSH2 0x2F5 DUP5 DUP3 DUP6 ADD PUSH2 0x281 JUMP JUMPDEST SWAP2 POP POP SWAP3 SWAP2 POP POP JUMP JUMPDEST PUSH2 0x307 DUP2 PUSH2 0x262 JUMP JUMPDEST DUP3 MSTORE POP POP JUMP JUMPDEST PUSH0 PUSH1 0x20 DUP3 ADD SWAP1 POP PUSH2 0x320 PUSH0 DUP4 ADD DUP5 PUSH2 0x2FE JUMP JUMPDEST SWAP3 SWAP2 POP POP JUMP JUMPDEST PUSH0 PUSH1 0x40 DUP3 ADD SWAP1 POP PUSH2 0x339 PUSH0 DUP4 ADD DUP6 PUSH2 0x2FE JUMP JUMPDEST PUSH2 0x346 PUSH1 0x20 DUP4 ADD DUP5 PUSH2 0x2FE JUMP JUMPDEST SWAP4 SWAP3 POP POP POP JUMP JUMPDEST PUSH0 DUP2 MLOAD SWAP1 POP SWAP2 SWAP1 POP JUMP JUMPDEST PUSH0 DUP2 SWAP1 POP SWAP3 SWAP2 POP POP JUMP JUMPDEST DUP3 DUP2 DUP4 MCOPY PUSH0 DUP4 DUP4 ADD MSTORE POP POP POP JUMP JUMPDEST PUSH0 PUSH2 0x379 DUP3 PUSH2 0x34D JUMP JUMPDEST PUSH2 0x383 DUP2 DUP6 PUSH2 0x357 JUMP JUMPDEST SWAP4 POP PUSH2 0x393 DUP2 DUP6 PUSH1 0x20 DUP7 ADD PUSH2 0x361 JUMP JUMPDEST DUP1 DUP5 ADD SWAP2 POP POP SWAP3 SWAP2 POP POP JUMP JUMPDEST PUSH0 PUSH2 0x3AA DUP3 DUP5 PUSH2 0x36F JUMP JUMPDEST SWAP2 POP DUP2 SWAP1 POP SWAP3 SWAP2 POP POP JUMP JUMPDEST PUSH0 DUP3 DUP3 MSTORE PUSH1 0x20 DUP3 ADD SWAP1 POP SWAP3 SWAP2 POP POP JUMP JUMPDEST PUSH32 0x44656C656761746563616C6C206661696C656400000000000000000000000000 PUSH0 DUP3 ADD MSTORE POP JUMP JUMPDEST PUSH0 PUSH2 0x3F9 PUSH1 0x13 DUP4 PUSH2 0x3B5 JUMP JUMPDEST SWAP2 POP PUSH2 0x404 DUP3 PUSH2 0x3C5 JUMP JUMPDEST PUSH1 0x20 DUP3 ADD SWAP1 POP SWAP2 SWAP1 POP JUMP JUMPDEST PUSH0 PUSH1 0x20 DUP3 ADD SWAP1 POP DUP2 DUP2 SUB PUSH0 DUP4 ADD MSTORE PUSH2 0x426 DUP2 PUSH2 0x3ED JUMP JUMPDEST SWAP1 POP SWAP2 SWAP1 POP JUMP INVALID LOG2 PUSH5 0x6970667358 0x22 SLT KECCAK256 INVALID 0xEF 0xC1 0xD7 CALL 0xBD EXTCALL PREVRANDAO OR XOR ADDRESS NUMBER DUP3 POP 0xA9 0x2B 0x4B 0xC3 0x2A ADDRESS NUMBER 0xB1 0xB6 MSIZE DUP16 MSTORE 0x25 0xAD SAR 0xD8 GAS 0xD6 PUSH5 0x736F6C6343 STOP ADDMOD 0x1E STOP CALLER "
				},
				"gasEstimates": {
					"creation": {
						"codeDepositCost": "224600",
						"executionCost": "22373",
						"totalCost": "246973"
					},
					"external": {
						"interactingWithL(address,uint256)": "infinite",
						"valueC()": "2447",
						"valueMap(uint256)": "infinite"
					}
				},
				"methodIdentifiers": {
					"interactingWithL(address,uint256)": "b786ed67",
					"valueC()": "ff8284d8",
					"valueMap(uint256)": "daae8ba2"
				}
			},
			"storageLayout": {
				"storage": [
					{
						"astId": 82,
						"contract": "contracts/CallVsDelegateCall.sol:ContractC",
						"label": "valueMap",
						"offset": 0,
						"slot": "0",
						"type": "t_mapping(t_uint256,t_uint256)"
					},
					{
						"astId": 85,
						"contract": "contracts/CallVsDelegateCall.sol:ContractC",
						"label": "valueC",
						"offset": 0,
						"slot": "1",
						"type": "t_uint256"
					}
				],
				"types": {
					"t_mapping(t_uint256,t_uint256)": {
						"encoding": "mapping",
						"key": "t_uint256",
						"label": "mapping(uint256 => uint256)",
						"numberOfBytes": "32",
						"value": "t_uint256"
					},
					"t_uint256": {
						"encoding": "inplace",
						"label": "uint256",
						"numberOfBytes": "32"
					}
				}
			},
			"userdoc": {
				"kind": "user",
				"methods": {},
				"version": 1
			}
		}
	}
}