{
	"contracts/Todo.sol": {
		"TodoList": {
			"abi": [
				{
					"anonymous": false,
					"inputs": [
						{
							"indexed": false,
							"internalType": "uint256",
							"name": "id",
							"type": "uint256"
						},
						{
							"indexed": false,
							"internalType": "string",
							"name": "content",
							"type": "string"
						}
					],
					"name": "TodoAdded",
					"type": "event"
				},
				{
					"anonymous": false,
					"inputs": [
						{
							"indexed": false,
							"internalType": "uint256",
							"name": "id",
							"type": "uint256"
						},
						{
							"indexed": false,
							"internalType": "enum TodoList.Status",
							"name": "status",
							"type": "uint8"
						}
					],
					"name": "TodoStatusUpdated",
					"type": "event"
				},
				{
					"inputs": [
						{
							"internalType": "string",
							"name": "_content",
							"type": "string"
						}
					],
					"name": "addTodo",
					"outputs": [],
					"stateMutability": "nonpayable",
					"type": "function"
				},
				{
					"inputs": [],
					"name": "getAllTodoIds",
					"outputs": [
						{
							"internalType": "uint256[]",
							"name": "",
							"type": "uint256[]"
						}
					],
					"stateMutability": "view",
					"type": "function"
				},
				{
					"inputs": [
						{
							"internalType": "uint256",
							"name": "_id",
							"type": "uint256"
						}
					],
					"name": "getTodo",
					"outputs": [
						{
							"internalType": "uint256",
							"name": "",
							"type": "uint256"
						},
						{
							"internalType": "string",
							"name": "",
							"type": "string"
						},
						{
							"internalType": "enum TodoList.Status",
							"name": "",
							"type": "uint8"
						}
					],
					"stateMutability": "view",
					"type": "function"
				},
				{
					"inputs": [],
					"name": "getTodoCount",
					"outputs": [
						{
							"internalType": "uint256",
							"name": "",
							"type": "uint256"
						}
					],
					"stateMutability": "view",
					"type": "function"
				},
				{
					"inputs": [],
					"name": "nextId",
					"outputs": [
						{
							"internalType": "uint256",
							"name": "",
							"type": "uint256"
						}
					],
					"stateMutability": "view",
					"type": "function"
				},
				{
					"inputs": [
						{
							"internalType": "uint256",
							"name": "",
							"type": "uint256"
						}
					],
					"name": "todoIds",
					"outputs": [
						{
							"internalType": "uint256",
							"name": "",
							"type": "uint256"
						}
					],
					"stateMutability": "view",
					"type": "function"
				},
				{
					"inputs": [
						{
							"internalType": "uint256",
							"name": "",
							"type": "uint256"
						}
					],
					"name": "todos",
					"outputs": [
						{
							"internalType": "uint256",
							"name": "id",
							"type": "uint256"
						},
						{
							"internalType": "string",
							"name": "content",
							"type": "string"
						},
						{
							"internalType": "enum TodoList.Status",
							"name": "status",
							"type": "uint8"
						}
					],
					"stateMutability": "view",
					"type": "function"
				},
				{
					"inputs": [
						{
							"internalType": "uint256",
							"name": "_id",
							"type": "uint256"
						},
						{
							"internalType": "enum TodoList.Status",
							"name": "_status",
							"type": "uint8"
						}
					],
					"name": "updateStatus",
					"outputs": [],
					"stateMutability": "nonpayable",
					"type": "function"
				}
			],
			"devdoc": {
				"kind": "dev",
				"methods": {},
				"version": 1
			},
			"evm": {
				"assembly": "    /* \"contracts/Todo.sol\":58:1509  contract TodoList {... */\n  mstore(0x40, 0x80)\n  callvalue\n  dup1\n  iszero\n  tag_1\n  jumpi\n  0x00\n  dup1\n  revert\ntag_1:\n  pop\n  dataSize(sub_0)\n  dup1\n  dataOffset(sub_0)\n  0x00\n  codecopy\n  0x00\n  return\nstop\n\nsub_0: assembly {\n        /* \"contracts/Todo.sol\":58:1509  contract TodoList {... */\n      mstore(0x40, 0x80)\n      callvalue\n      dup1\n      iszero\n      tag_1\n      jumpi\n      0x00\n      dup1\n      revert\n    tag_1:\n      pop\n      jumpi(tag_2, lt(calldatasize, 0x04))\n      shr(0xe0, calldataload(0x00))\n      dup1\n      0x95ffebf5\n      gt\n      tag_11\n      jumpi\n      dup1\n      0x95ffebf5\n      eq\n      tag_7\n      jumpi\n      dup1\n      0xbc8bc2b4\n      eq\n      tag_8\n      jumpi\n      dup1\n      0xd368ca4d\n      eq\n      tag_9\n      jumpi\n      dup1\n      0xdd68afb6\n      eq\n      tag_10\n      jumpi\n      jump(tag_2)\n    tag_11:\n      dup1\n      0x03c5c31f\n      eq\n      tag_3\n      jumpi\n      dup1\n      0x104a7cd8\n      eq\n      tag_4\n      jumpi\n      dup1\n      0x3a1b3d31\n      eq\n      tag_5\n      jumpi\n      dup1\n      0x61b8ce8c\n      eq\n      tag_6\n      jumpi\n    tag_2:\n      0x00\n      dup1\n      revert\n        /* \"contracts/Todo.sol\":352:373  uint[] public todoIds */\n    tag_3:\n      tag_12\n      0x04\n      dup1\n      calldatasize\n      sub\n      dup2\n      add\n      swap1\n      tag_13\n      swap2\n      swap1\n      tag_14\n      jump\t// in\n    tag_13:\n      tag_15\n      jump\t// in\n    tag_12:\n      mload(0x40)\n      tag_16\n      swap2\n      swap1\n      tag_17\n      jump\t// in\n    tag_16:\n      mload(0x40)\n      dup1\n      swap2\n      sub\n      swap1\n      return\n        /* \"contracts/Todo.sol\":1296:1385  function getTodoCount() public view returns (uint) {... */\n    tag_4:\n      tag_18\n      tag_19\n      jump\t// in\n    tag_18:\n      mload(0x40)\n      tag_20\n      swap2\n      swap1\n      tag_17\n      jump\t// in\n    tag_20:\n      mload(0x40)\n      dup1\n      swap2\n      sub\n      swap1\n      return\n        /* \"contracts/Todo.sol\":795:995  function updateStatus(uint _id, Status _status) public {... */\n    tag_5:\n      tag_21\n      0x04\n      dup1\n      calldatasize\n      sub\n      dup2\n      add\n      swap1\n      tag_22\n      swap2\n      swap1\n      tag_23\n      jump\t// in\n    tag_22:\n      tag_24\n      jump\t// in\n    tag_21:\n      stop\n        /* \"contracts/Todo.sol\":379:397  uint public nextId */\n    tag_6:\n      tag_25\n      tag_26\n      jump\t// in\n    tag_25:\n      mload(0x40)\n      tag_27\n      swap2\n      swap1\n      tag_17\n      jump\t// in\n    tag_27:\n      mload(0x40)\n      dup1\n      swap2\n      sub\n      swap1\n      return\n        /* \"contracts/Todo.sol\":545:754  function addTodo(string memory _content) public {... */\n    tag_7:\n      tag_28\n      0x04\n      dup1\n      calldatasize\n      sub\n      dup2\n      add\n      swap1\n      tag_29\n      swap2\n      swap1\n      tag_30\n      jump\t// in\n    tag_29:\n      tag_31\n      jump\t// in\n    tag_28:\n      stop\n        /* \"contracts/Todo.sol\":312:346  mapping(uint => Todo) public todos */\n    tag_8:\n      tag_32\n      0x04\n      dup1\n      calldatasize\n      sub\n      dup2\n      add\n      swap1\n      tag_33\n      swap2\n      swap1\n      tag_14\n      jump\t// in\n    tag_33:\n      tag_34\n      jump\t// in\n    tag_32:\n      mload(0x40)\n      tag_35\n      swap4\n      swap3\n      swap2\n      swap1\n      tag_36\n      jump\t// in\n    tag_35:\n      mload(0x40)\n      dup1\n      swap2\n      sub\n      swap1\n      return\n        /* \"contracts/Todo.sol\":1415:1507  function getAllTodoIds() public view returns (uint[] memory) {... */\n    tag_9:\n      tag_37\n      tag_38\n      jump\t// in\n    tag_37:\n      mload(0x40)\n      tag_39\n      swap2\n      swap1\n      tag_40\n      jump\t// in\n    tag_39:\n      mload(0x40)\n      dup1\n      swap2\n      sub\n      swap1\n      return\n        /* \"contracts/Todo.sol\":1034:1253  function getTodo(uint _id) public view returns (uint, string memory, Status) {... */\n    tag_10:\n      tag_41\n      0x04\n      dup1\n      calldatasize\n      sub\n      dup2\n      add\n      swap1\n      tag_42\n      swap2\n      swap1\n      tag_14\n      jump\t// in\n    tag_42:\n      tag_43\n      jump\t// in\n    tag_41:\n      mload(0x40)\n      tag_44\n      swap4\n      swap3\n      swap2\n      swap1\n      tag_36\n      jump\t// in\n    tag_44:\n      mload(0x40)\n      dup1\n      swap2\n      sub\n      swap1\n      return\n        /* \"contracts/Todo.sol\":352:373  uint[] public todoIds */\n    tag_15:\n      0x01\n      dup2\n      dup2\n      sload\n      dup2\n      lt\n      tag_45\n      jumpi\n      0x00\n      dup1\n      revert\n    tag_45:\n      swap1\n      0x00\n      mstore\n      keccak256(0x00, 0x20)\n      add\n      0x00\n      swap2\n      pop\n      swap1\n      pop\n      sload\n      dup2\n      jump\t// out\n        /* \"contracts/Todo.sol\":1296:1385  function getTodoCount() public view returns (uint) {... */\n    tag_19:\n        /* \"contracts/Todo.sol\":1341:1345  uint */\n      0x00\n        /* \"contracts/Todo.sol\":1364:1371  todoIds */\n      0x01\n        /* \"contracts/Todo.sol\":1364:1378  todoIds.length */\n      dup1\n      sload\n      swap1\n      pop\n        /* \"contracts/Todo.sol\":1357:1378  return todoIds.length */\n      swap1\n      pop\n        /* \"contracts/Todo.sol\":1296:1385  function getTodoCount() public view returns (uint) {... */\n      swap1\n      jump\t// out\n        /* \"contracts/Todo.sol\":795:995  function updateStatus(uint _id, Status _status) public {... */\n    tag_24:\n        /* \"contracts/Todo.sol\":874:880  nextId */\n      sload(0x02)\n        /* \"contracts/Todo.sol\":868:871  _id */\n      dup3\n        /* \"contracts/Todo.sol\":868:880  _id < nextId */\n      lt\n        /* \"contracts/Todo.sol\":860:905  require(_id < nextId, \"Todo does not exist.\") */\n      tag_49\n      jumpi\n      mload(0x40)\n      0x08c379a000000000000000000000000000000000000000000000000000000000\n      dup2\n      mstore\n      0x04\n      add\n      tag_50\n      swap1\n      tag_51\n      jump\t// in\n    tag_50:\n      mload(0x40)\n      dup1\n      swap2\n      sub\n      swap1\n      revert\n    tag_49:\n        /* \"contracts/Todo.sol\":935:942  _status */\n      dup1\n        /* \"contracts/Todo.sol\":915:920  todos */\n      0x00\n        /* \"contracts/Todo.sol\":915:925  todos[_id] */\n      dup1\n        /* \"contracts/Todo.sol\":921:924  _id */\n      dup5\n        /* \"contracts/Todo.sol\":915:925  todos[_id] */\n      dup2\n      mstore\n      0x20\n      add\n      swap1\n      dup2\n      mstore\n      0x20\n      add\n      0x00\n      keccak256\n        /* \"contracts/Todo.sol\":915:932  todos[_id].status */\n      0x02\n      add\n      0x00\n        /* \"contracts/Todo.sol\":915:942  todos[_id].status = _status */\n      0x0100\n      exp\n      dup2\n      sload\n      dup2\n      0xff\n      mul\n      not\n      and\n      swap1\n      dup4\n      0x02\n      dup2\n      gt\n      iszero\n      tag_52\n      jumpi\n      tag_53\n      tag_54\n      jump\t// in\n    tag_53:\n    tag_52:\n      mul\n      or\n      swap1\n      sstore\n      pop\n        /* \"contracts/Todo.sol\":957:988  TodoStatusUpdated(_id, _status) */\n      0xa2ac6e13d73f6324f71f35c45e0c9a3e0678b88f564555fb214e1219f073a4d9\n        /* \"contracts/Todo.sol\":975:978  _id */\n      dup3\n        /* \"contracts/Todo.sol\":980:987  _status */\n      dup3\n        /* \"contracts/Todo.sol\":957:988  TodoStatusUpdated(_id, _status) */\n      mload(0x40)\n      tag_55\n      swap3\n      swap2\n      swap1\n      tag_56\n      jump\t// in\n    tag_55:\n      mload(0x40)\n      dup1\n      swap2\n      sub\n      swap1\n      log1\n        /* \"contracts/Todo.sol\":795:995  function updateStatus(uint _id, Status _status) public {... */\n      pop\n      pop\n      jump\t// out\n        /* \"contracts/Todo.sol\":379:397  uint public nextId */\n    tag_26:\n      sload(0x02)\n      dup2\n      jump\t// out\n        /* \"contracts/Todo.sol\":545:754  function addTodo(string memory _content) public {... */\n    tag_31:\n        /* \"contracts/Todo.sol\":619:657  Todo(nextId, _content, Status.Pending) */\n      mload(0x40)\n      dup1\n      0x60\n      add\n      0x40\n      mstore\n      dup1\n        /* \"contracts/Todo.sol\":624:630  nextId */\n      sload(0x02)\n        /* \"contracts/Todo.sol\":619:657  Todo(nextId, _content, Status.Pending) */\n      dup2\n      mstore\n      0x20\n      add\n        /* \"contracts/Todo.sol\":632:640  _content */\n      dup3\n        /* \"contracts/Todo.sol\":619:657  Todo(nextId, _content, Status.Pending) */\n      dup2\n      mstore\n      0x20\n      add\n        /* \"contracts/Todo.sol\":642:656  Status.Pending */\n      0x00\n        /* \"contracts/Todo.sol\":619:657  Todo(nextId, _content, Status.Pending) */\n      0x02\n      dup2\n      gt\n      iszero\n      tag_58\n      jumpi\n      tag_59\n      tag_54\n      jump\t// in\n    tag_59:\n    tag_58:\n      dup2\n      mstore\n      pop\n        /* \"contracts/Todo.sol\":603:608  todos */\n      0x00\n        /* \"contracts/Todo.sol\":603:616  todos[nextId] */\n      dup1\n        /* \"contracts/Todo.sol\":609:615  nextId */\n      sload(0x02)\n        /* \"contracts/Todo.sol\":603:616  todos[nextId] */\n      dup2\n      mstore\n      0x20\n      add\n      swap1\n      dup2\n      mstore\n      0x20\n      add\n      0x00\n      keccak256\n        /* \"contracts/Todo.sol\":603:657  todos[nextId] = Todo(nextId, _content, Status.Pending) */\n      0x00\n      dup3\n      add\n      mload\n      dup2\n      0x00\n      add\n      sstore\n      0x20\n      dup3\n      add\n      mload\n      dup2\n      0x01\n      add\n      swap1\n      dup2\n      tag_60\n      swap2\n      swap1\n      tag_61\n      jump\t// in\n    tag_60:\n      pop\n      0x40\n      dup3\n      add\n      mload\n      dup2\n      0x02\n      add\n      exp(0x0100, 0x00)\n      dup2\n      sload\n      dup2\n      0xff\n      mul\n      not\n      and\n      swap1\n      dup4\n      0x02\n      dup2\n      gt\n      iszero\n      tag_62\n      jumpi\n      tag_63\n      tag_54\n      jump\t// in\n    tag_63:\n    tag_62:\n      mul\n      or\n      swap1\n      sstore\n      pop\n      swap1\n      pop\n      pop\n        /* \"contracts/Todo.sol\":667:674  todoIds */\n      0x01\n        /* \"contracts/Todo.sol\":680:686  nextId */\n      sload(0x02)\n        /* \"contracts/Todo.sol\":667:687  todoIds.push(nextId) */\n      swap1\n      dup1\n      0x01\n      dup2\n      sload\n      add\n      dup1\n      dup3\n      sstore\n      dup1\n      swap2\n      pop\n      pop\n      0x01\n      swap1\n      sub\n      swap1\n      0x00\n      mstore\n      keccak256(0x00, 0x20)\n      add\n      0x00\n      swap1\n      swap2\n      swap1\n      swap2\n      swap1\n      swap2\n      pop\n      sstore\n        /* \"contracts/Todo.sol\":702:729  TodoAdded(nextId, _content) */\n      0x606222d2d9b2ffe82e59c226d772a363312cfce0027119e88e27c4db155e882d\n        /* \"contracts/Todo.sol\":712:718  nextId */\n      sload(0x02)\n        /* \"contracts/Todo.sol\":720:728  _content */\n      dup3\n        /* \"contracts/Todo.sol\":702:729  TodoAdded(nextId, _content) */\n      mload(0x40)\n      tag_65\n      swap3\n      swap2\n      swap1\n      tag_66\n      jump\t// in\n    tag_65:\n      mload(0x40)\n      dup1\n      swap2\n      sub\n      swap1\n      log1\n        /* \"contracts/Todo.sol\":739:745  nextId */\n      0x02\n      0x00\n        /* \"contracts/Todo.sol\":739:747  nextId++ */\n      dup2\n      sload\n      dup1\n      swap3\n      swap2\n      swap1\n      tag_67\n      swap1\n      tag_68\n      jump\t// in\n    tag_67:\n      swap2\n      swap1\n      pop\n      sstore\n      pop\n        /* \"contracts/Todo.sol\":545:754  function addTodo(string memory _content) public {... */\n      pop\n      jump\t// out\n        /* \"contracts/Todo.sol\":312:346  mapping(uint => Todo) public todos */\n    tag_34:\n      mstore(0x20, 0x00)\n      dup1\n      0x00\n      mstore\n      keccak256(0x00, 0x40)\n      0x00\n      swap2\n      pop\n      swap1\n      pop\n      dup1\n      0x00\n      add\n      sload\n      swap1\n      dup1\n      0x01\n      add\n      dup1\n      sload\n      tag_69\n      swap1\n      tag_70\n      jump\t// in\n    tag_69:\n      dup1\n      0x1f\n      add\n      0x20\n      dup1\n      swap2\n      div\n      mul\n      0x20\n      add\n      mload(0x40)\n      swap1\n      dup2\n      add\n      0x40\n      mstore\n      dup1\n      swap3\n      swap2\n      swap1\n      dup2\n      dup2\n      mstore\n      0x20\n      add\n      dup3\n      dup1\n      sload\n      tag_71\n      swap1\n      tag_70\n      jump\t// in\n    tag_71:\n      dup1\n      iszero\n      tag_72\n      jumpi\n      dup1\n      0x1f\n      lt\n      tag_73\n      jumpi\n      0x0100\n      dup1\n      dup4\n      sload\n      div\n      mul\n      dup4\n      mstore\n      swap2\n      0x20\n      add\n      swap2\n      jump(tag_72)\n    tag_73:\n      dup3\n      add\n      swap2\n      swap1\n      0x00\n      mstore\n      keccak256(0x00, 0x20)\n      swap1\n    tag_74:\n      dup2\n      sload\n      dup2\n      mstore\n      swap1\n      0x01\n      add\n      swap1\n      0x20\n      add\n      dup1\n      dup4\n      gt\n      tag_74\n      jumpi\n      dup3\n      swap1\n      sub\n      0x1f\n      and\n      dup3\n      add\n      swap2\n    tag_72:\n      pop\n      pop\n      pop\n      pop\n      pop\n      swap1\n      dup1\n      0x02\n      add\n      0x00\n      swap1\n      sload\n      swap1\n      0x0100\n      exp\n      swap1\n      div\n      0xff\n      and\n      swap1\n      pop\n      dup4\n      jump\t// out\n        /* \"contracts/Todo.sol\":1415:1507  function getAllTodoIds() public view returns (uint[] memory) {... */\n    tag_38:\n        /* \"contracts/Todo.sol\":1461:1474  uint[] memory */\n      0x60\n        /* \"contracts/Todo.sol\":1493:1500  todoIds */\n      0x01\n        /* \"contracts/Todo.sol\":1486:1500  return todoIds */\n      dup1\n      sload\n      dup1\n      0x20\n      mul\n      0x20\n      add\n      mload(0x40)\n      swap1\n      dup2\n      add\n      0x40\n      mstore\n      dup1\n      swap3\n      swap2\n      swap1\n      dup2\n      dup2\n      mstore\n      0x20\n      add\n      dup3\n      dup1\n      sload\n      dup1\n      iszero\n      tag_76\n      jumpi\n      0x20\n      mul\n      dup3\n      add\n      swap2\n      swap1\n      0x00\n      mstore\n      keccak256(0x00, 0x20)\n      swap1\n    tag_77:\n      dup2\n      sload\n      dup2\n      mstore\n      0x20\n      add\n      swap1\n      0x01\n      add\n      swap1\n      dup1\n      dup4\n      gt\n      tag_77\n      jumpi\n    tag_76:\n      pop\n      pop\n      pop\n      pop\n      pop\n      swap1\n      pop\n        /* \"contracts/Todo.sol\":1415:1507  function getAllTodoIds() public view returns (uint[] memory) {... */\n      swap1\n      jump\t// out\n        /* \"contracts/Todo.sol\":1034:1253  function getTodo(uint _id) public view returns (uint, string memory, Status) {... */\n    tag_43:\n        /* \"contracts/Todo.sol\":1082:1086  uint */\n      0x00\n        /* \"contracts/Todo.sol\":1088:1101  string memory */\n      0x60\n        /* \"contracts/Todo.sol\":1103:1109  Status */\n      0x00\n        /* \"contracts/Todo.sol\":1135:1141  nextId */\n      sload(0x02)\n        /* \"contracts/Todo.sol\":1129:1132  _id */\n      dup5\n        /* \"contracts/Todo.sol\":1129:1141  _id < nextId */\n      lt\n        /* \"contracts/Todo.sol\":1121:1166  require(_id < nextId, \"Todo does not exist.\") */\n      tag_79\n      jumpi\n      mload(0x40)\n      0x08c379a000000000000000000000000000000000000000000000000000000000\n      dup2\n      mstore\n      0x04\n      add\n      tag_80\n      swap1\n      tag_51\n      jump\t// in\n    tag_80:\n      mload(0x40)\n      dup1\n      swap2\n      sub\n      swap1\n      revert\n    tag_79:\n        /* \"contracts/Todo.sol\":1176:1189  Todo memory t */\n      0x00\n        /* \"contracts/Todo.sol\":1192:1197  todos */\n      dup1\n        /* \"contracts/Todo.sol\":1192:1202  todos[_id] */\n      0x00\n        /* \"contracts/Todo.sol\":1198:1201  _id */\n      dup7\n        /* \"contracts/Todo.sol\":1192:1202  todos[_id] */\n      dup2\n      mstore\n      0x20\n      add\n      swap1\n      dup2\n      mstore\n      0x20\n      add\n      0x00\n      keccak256\n        /* \"contracts/Todo.sol\":1176:1202  Todo memory t = todos[_id] */\n      mload(0x40)\n      dup1\n      0x60\n      add\n      0x40\n      mstore\n      swap1\n      dup2\n      0x00\n      dup3\n      add\n      sload\n      dup2\n      mstore\n      0x20\n      add\n      0x01\n      dup3\n      add\n      dup1\n      sload\n      tag_81\n      swap1\n      tag_70\n      jump\t// in\n    tag_81:\n      dup1\n      0x1f\n      add\n      0x20\n      dup1\n      swap2\n      div\n      mul\n      0x20\n      add\n      mload(0x40)\n      swap1\n      dup2\n      add\n      0x40\n      mstore\n      dup1\n      swap3\n      swap2\n      swap1\n      dup2\n      dup2\n      mstore\n      0x20\n      add\n      dup3\n      dup1\n      sload\n      tag_82\n      swap1\n      tag_70\n      jump\t// in\n    tag_82:\n      dup1\n      iszero\n      tag_83\n      jumpi\n      dup1\n      0x1f\n      lt\n      tag_84\n      jumpi\n      0x0100\n      dup1\n      dup4\n      sload\n      div\n      mul\n      dup4\n      mstore\n      swap2\n      0x20\n      add\n      swap2\n      jump(tag_83)\n    tag_84:\n      dup3\n      add\n      swap2\n      swap1\n      0x00\n      mstore\n      keccak256(0x00, 0x20)\n      swap1\n    tag_85:\n      dup2\n      sload\n      dup2\n      mstore\n      swap1\n      0x01\n      add\n      swap1\n      0x20\n      add\n      dup1\n      dup4\n      gt\n      tag_85\n      jumpi\n      dup3\n      swap1\n      sub\n      0x1f\n      and\n      dup3\n      add\n      swap2\n    tag_83:\n      pop\n      pop\n      pop\n      pop\n      pop\n      dup2\n      mstore\n      0x20\n      add\n      0x02\n      dup3\n      add\n      0x00\n      swap1\n      sload\n      swap1\n      0x0100\n      exp\n      swap1\n      div\n      0xff\n      and\n      0x02\n      dup2\n      gt\n      iszero\n      tag_86\n      jumpi\n      tag_87\n      tag_54\n      jump\t// in\n    tag_87:\n    tag_86:\n      0x02\n      dup2\n      gt\n      iszero\n      tag_88\n      jumpi\n      tag_89\n      tag_54\n      jump\t// in\n    tag_89:\n    tag_88:\n      dup2\n      mstore\n      pop\n      pop\n      swap1\n      pop\n        /* \"contracts/Todo.sol\":1220:1221  t */\n      dup1\n        /* \"contracts/Todo.sol\":1220:1224  t.id */\n      0x00\n      add\n      mload\n        /* \"contracts/Todo.sol\":1226:1227  t */\n      dup2\n        /* \"contracts/Todo.sol\":1226:1235  t.content */\n      0x20\n      add\n      mload\n        /* \"contracts/Todo.sol\":1237:1238  t */\n      dup3\n        /* \"contracts/Todo.sol\":1237:1245  t.status */\n      0x40\n      add\n      mload\n        /* \"contracts/Todo.sol\":1212:1246  return (t.id, t.content, t.status) */\n      swap4\n      pop\n      swap4\n      pop\n      swap4\n      pop\n      pop\n        /* \"contracts/Todo.sol\":1034:1253  function getTodo(uint _id) public view returns (uint, string memory, Status) {... */\n      swap2\n      swap4\n      swap1\n      swap3\n      pop\n      jump\t// out\n        /* \"#utility.yul\":7:82   */\n    tag_90:\n        /* \"#utility.yul\":40:46   */\n      0x00\n        /* \"#utility.yul\":73:75   */\n      0x40\n        /* \"#utility.yul\":67:76   */\n      mload\n        /* \"#utility.yul\":57:76   */\n      swap1\n      pop\n        /* \"#utility.yul\":7:82   */\n      swap1\n      jump\t// out\n        /* \"#utility.yul\":88:205   */\n    tag_91:\n        /* \"#utility.yul\":197:198   */\n      0x00\n        /* \"#utility.yul\":194:195   */\n      dup1\n        /* \"#utility.yul\":187:199   */\n      revert\n        /* \"#utility.yul\":211:328   */\n    tag_92:\n        /* \"#utility.yul\":320:321   */\n      0x00\n        /* \"#utility.yul\":317:318   */\n      dup1\n        /* \"#utility.yul\":310:322   */\n      revert\n        /* \"#utility.yul\":334:411   */\n    tag_93:\n        /* \"#utility.yul\":371:378   */\n      0x00\n        /* \"#utility.yul\":400:405   */\n      dup2\n        /* \"#utility.yul\":389:405   */\n      swap1\n      pop\n        /* \"#utility.yul\":334:411   */\n      swap2\n      swap1\n      pop\n      jump\t// out\n        /* \"#utility.yul\":417:539   */\n    tag_94:\n        /* \"#utility.yul\":490:514   */\n      tag_149\n        /* \"#utility.yul\":508:513   */\n      dup2\n        /* \"#utility.yul\":490:514   */\n      tag_93\n      jump\t// in\n    tag_149:\n        /* \"#utility.yul\":483:488   */\n      dup2\n        /* \"#utility.yul\":480:515   */\n      eq\n        /* \"#utility.yul\":470:533   */\n      tag_150\n      jumpi\n        /* \"#utility.yul\":529:530   */\n      0x00\n        /* \"#utility.yul\":526:527   */\n      dup1\n        /* \"#utility.yul\":519:531   */\n      revert\n        /* \"#utility.yul\":470:533   */\n    tag_150:\n        /* \"#utility.yul\":417:539   */\n      pop\n      jump\t// out\n        /* \"#utility.yul\":545:684   */\n    tag_95:\n        /* \"#utility.yul\":591:596   */\n      0x00\n        /* \"#utility.yul\":629:635   */\n      dup2\n        /* \"#utility.yul\":616:636   */\n      calldataload\n        /* \"#utility.yul\":607:636   */\n      swap1\n      pop\n        /* \"#utility.yul\":645:678   */\n      tag_152\n        /* \"#utility.yul\":672:677   */\n      dup2\n        /* \"#utility.yul\":645:678   */\n      tag_94\n      jump\t// in\n    tag_152:\n        /* \"#utility.yul\":545:684   */\n      swap3\n      swap2\n      pop\n      pop\n      jump\t// out\n        /* \"#utility.yul\":690:1019   */\n    tag_14:\n        /* \"#utility.yul\":749:755   */\n      0x00\n        /* \"#utility.yul\":798:800   */\n      0x20\n        /* \"#utility.yul\":786:795   */\n      dup3\n        /* \"#utility.yul\":777:784   */\n      dup5\n        /* \"#utility.yul\":773:796   */\n      sub\n        /* \"#utility.yul\":769:801   */\n      slt\n        /* \"#utility.yul\":766:885   */\n      iszero\n      tag_154\n      jumpi\n        /* \"#utility.yul\":804:883   */\n      tag_155\n      tag_91\n      jump\t// in\n    tag_155:\n        /* \"#utility.yul\":766:885   */\n    tag_154:\n        /* \"#utility.yul\":924:925   */\n      0x00\n        /* \"#utility.yul\":949:1002   */\n      tag_156\n        /* \"#utility.yul\":994:1001   */\n      dup5\n        /* \"#utility.yul\":985:991   */\n      dup3\n        /* \"#utility.yul\":974:983   */\n      dup6\n        /* \"#utility.yul\":970:992   */\n      add\n        /* \"#utility.yul\":949:1002   */\n      tag_95\n      jump\t// in\n    tag_156:\n        /* \"#utility.yul\":939:1002   */\n      swap2\n      pop\n        /* \"#utility.yul\":895:1012   */\n      pop\n        /* \"#utility.yul\":690:1019   */\n      swap3\n      swap2\n      pop\n      pop\n      jump\t// out\n        /* \"#utility.yul\":1025:1143   */\n    tag_96:\n        /* \"#utility.yul\":1112:1136   */\n      tag_158\n        /* \"#utility.yul\":1130:1135   */\n      dup2\n        /* \"#utility.yul\":1112:1136   */\n      tag_93\n      jump\t// in\n    tag_158:\n        /* \"#utility.yul\":1107:1110   */\n      dup3\n        /* \"#utility.yul\":1100:1137   */\n      mstore\n        /* \"#utility.yul\":1025:1143   */\n      pop\n      pop\n      jump\t// out\n        /* \"#utility.yul\":1149:1371   */\n    tag_17:\n        /* \"#utility.yul\":1242:1246   */\n      0x00\n        /* \"#utility.yul\":1280:1282   */\n      0x20\n        /* \"#utility.yul\":1269:1278   */\n      dup3\n        /* \"#utility.yul\":1265:1283   */\n      add\n        /* \"#utility.yul\":1257:1283   */\n      swap1\n      pop\n        /* \"#utility.yul\":1293:1364   */\n      tag_160\n        /* \"#utility.yul\":1361:1362   */\n      0x00\n        /* \"#utility.yul\":1350:1359   */\n      dup4\n        /* \"#utility.yul\":1346:1363   */\n      add\n        /* \"#utility.yul\":1337:1343   */\n      dup5\n        /* \"#utility.yul\":1293:1364   */\n      tag_96\n      jump\t// in\n    tag_160:\n        /* \"#utility.yul\":1149:1371   */\n      swap3\n      swap2\n      pop\n      pop\n      jump\t// out\n        /* \"#utility.yul\":1377:1484   */\n    tag_97:\n        /* \"#utility.yul\":1458:1459   */\n      0x03\n        /* \"#utility.yul\":1451:1456   */\n      dup2\n        /* \"#utility.yul\":1448:1460   */\n      lt\n        /* \"#utility.yul\":1438:1478   */\n      tag_162\n      jumpi\n        /* \"#utility.yul\":1474:1475   */\n      0x00\n        /* \"#utility.yul\":1471:1472   */\n      dup1\n        /* \"#utility.yul\":1464:1476   */\n      revert\n        /* \"#utility.yul\":1438:1478   */\n    tag_162:\n        /* \"#utility.yul\":1377:1484   */\n      pop\n      jump\t// out\n        /* \"#utility.yul\":1490:1645   */\n    tag_98:\n        /* \"#utility.yul\":1544:1549   */\n      0x00\n        /* \"#utility.yul\":1582:1588   */\n      dup2\n        /* \"#utility.yul\":1569:1589   */\n      calldataload\n        /* \"#utility.yul\":1560:1589   */\n      swap1\n      pop\n        /* \"#utility.yul\":1598:1639   */\n      tag_164\n        /* \"#utility.yul\":1633:1638   */\n      dup2\n        /* \"#utility.yul\":1598:1639   */\n      tag_97\n      jump\t// in\n    tag_164:\n        /* \"#utility.yul\":1490:1645   */\n      swap3\n      swap2\n      pop\n      pop\n      jump\t// out\n        /* \"#utility.yul\":1651:2141   */\n    tag_23:\n        /* \"#utility.yul\":1727:1733   */\n      0x00\n        /* \"#utility.yul\":1735:1741   */\n      dup1\n        /* \"#utility.yul\":1784:1786   */\n      0x40\n        /* \"#utility.yul\":1772:1781   */\n      dup4\n        /* \"#utility.yul\":1763:1770   */\n      dup6\n        /* \"#utility.yul\":1759:1782   */\n      sub\n        /* \"#utility.yul\":1755:1787   */\n      slt\n        /* \"#utility.yul\":1752:1871   */\n      iszero\n      tag_166\n      jumpi\n        /* \"#utility.yul\":1790:1869   */\n      tag_167\n      tag_91\n      jump\t// in\n    tag_167:\n        /* \"#utility.yul\":1752:1871   */\n    tag_166:\n        /* \"#utility.yul\":1910:1911   */\n      0x00\n        /* \"#utility.yul\":1935:1988   */\n      tag_168\n        /* \"#utility.yul\":1980:1987   */\n      dup6\n        /* \"#utility.yul\":1971:1977   */\n      dup3\n        /* \"#utility.yul\":1960:1969   */\n      dup7\n        /* \"#utility.yul\":1956:1978   */\n      add\n        /* \"#utility.yul\":1935:1988   */\n      tag_95\n      jump\t// in\n    tag_168:\n        /* \"#utility.yul\":1925:1988   */\n      swap3\n      pop\n        /* \"#utility.yul\":1881:1998   */\n      pop\n        /* \"#utility.yul\":2037:2039   */\n      0x20\n        /* \"#utility.yul\":2063:2124   */\n      tag_169\n        /* \"#utility.yul\":2116:2123   */\n      dup6\n        /* \"#utility.yul\":2107:2113   */\n      dup3\n        /* \"#utility.yul\":2096:2105   */\n      dup7\n        /* \"#utility.yul\":2092:2114   */\n      add\n        /* \"#utility.yul\":2063:2124   */\n      tag_98\n      jump\t// in\n    tag_169:\n        /* \"#utility.yul\":2053:2124   */\n      swap2\n      pop\n        /* \"#utility.yul\":2008:2134   */\n      pop\n        /* \"#utility.yul\":1651:2141   */\n      swap3\n      pop\n      swap3\n      swap1\n      pop\n      jump\t// out\n        /* \"#utility.yul\":2147:2264   */\n    tag_99:\n        /* \"#utility.yul\":2256:2257   */\n      0x00\n        /* \"#utility.yul\":2253:2254   */\n      dup1\n        /* \"#utility.yul\":2246:2258   */\n      revert\n        /* \"#utility.yul\":2270:2387   */\n    tag_100:\n        /* \"#utility.yul\":2379:2380   */\n      0x00\n        /* \"#utility.yul\":2376:2377   */\n      dup1\n        /* \"#utility.yul\":2369:2381   */\n      revert\n        /* \"#utility.yul\":2393:2495   */\n    tag_101:\n        /* \"#utility.yul\":2434:2440   */\n      0x00\n        /* \"#utility.yul\":2485:2487   */\n      0x1f\n        /* \"#utility.yul\":2481:2488   */\n      not\n        /* \"#utility.yul\":2476:2478   */\n      0x1f\n        /* \"#utility.yul\":2469:2474   */\n      dup4\n        /* \"#utility.yul\":2465:2479   */\n      add\n        /* \"#utility.yul\":2461:2489   */\n      and\n        /* \"#utility.yul\":2451:2489   */\n      swap1\n      pop\n        /* \"#utility.yul\":2393:2495   */\n      swap2\n      swap1\n      pop\n      jump\t// out\n        /* \"#utility.yul\":2501:2681   */\n    tag_102:\n        /* \"#utility.yul\":2549:2626   */\n      0x4e487b7100000000000000000000000000000000000000000000000000000000\n        /* \"#utility.yul\":2546:2547   */\n      0x00\n        /* \"#utility.yul\":2539:2627   */\n      mstore\n        /* \"#utility.yul\":2646:2650   */\n      0x41\n        /* \"#utility.yul\":2643:2644   */\n      0x04\n        /* \"#utility.yul\":2636:2651   */\n      mstore\n        /* \"#utility.yul\":2670:2674   */\n      0x24\n        /* \"#utility.yul\":2667:2668   */\n      0x00\n        /* \"#utility.yul\":2660:2675   */\n      revert\n        /* \"#utility.yul\":2687:2968   */\n    tag_103:\n        /* \"#utility.yul\":2770:2797   */\n      tag_175\n        /* \"#utility.yul\":2792:2796   */\n      dup3\n        /* \"#utility.yul\":2770:2797   */\n      tag_101\n      jump\t// in\n    tag_175:\n        /* \"#utility.yul\":2762:2768   */\n      dup2\n        /* \"#utility.yul\":2758:2798   */\n      add\n        /* \"#utility.yul\":2900:2906   */\n      dup2\n        /* \"#utility.yul\":2888:2898   */\n      dup2\n        /* \"#utility.yul\":2885:2907   */\n      lt\n        /* \"#utility.yul\":2864:2882   */\n      0xffffffffffffffff\n        /* \"#utility.yul\":2852:2862   */\n      dup3\n        /* \"#utility.yul\":2849:2883   */\n      gt\n        /* \"#utility.yul\":2846:2908   */\n      or\n        /* \"#utility.yul\":2843:2931   */\n      iszero\n      tag_176\n      jumpi\n        /* \"#utility.yul\":2911:2929   */\n      tag_177\n      tag_102\n      jump\t// in\n    tag_177:\n        /* \"#utility.yul\":2843:2931   */\n    tag_176:\n        /* \"#utility.yul\":2951:2961   */\n      dup1\n        /* \"#utility.yul\":2947:2949   */\n      0x40\n        /* \"#utility.yul\":2940:2962   */\n      mstore\n        /* \"#utility.yul\":2730:2968   */\n      pop\n        /* \"#utility.yul\":2687:2968   */\n      pop\n      pop\n      jump\t// out\n        /* \"#utility.yul\":2974:3103   */\n    tag_104:\n        /* \"#utility.yul\":3008:3014   */\n      0x00\n        /* \"#utility.yul\":3035:3055   */\n      tag_179\n      tag_90\n      jump\t// in\n    tag_179:\n        /* \"#utility.yul\":3025:3055   */\n      swap1\n      pop\n        /* \"#utility.yul\":3064:3097   */\n      tag_180\n        /* \"#utility.yul\":3092:3096   */\n      dup3\n        /* \"#utility.yul\":3084:3090   */\n      dup3\n        /* \"#utility.yul\":3064:3097   */\n      tag_103\n      jump\t// in\n    tag_180:\n        /* \"#utility.yul\":2974:3103   */\n      swap2\n      swap1\n      pop\n      jump\t// out\n        /* \"#utility.yul\":3109:3417   */\n    tag_105:\n        /* \"#utility.yul\":3171:3175   */\n      0x00\n        /* \"#utility.yul\":3261:3279   */\n      0xffffffffffffffff\n        /* \"#utility.yul\":3253:3259   */\n      dup3\n        /* \"#utility.yul\":3250:3280   */\n      gt\n        /* \"#utility.yul\":3247:3303   */\n      iszero\n      tag_182\n      jumpi\n        /* \"#utility.yul\":3283:3301   */\n      tag_183\n      tag_102\n      jump\t// in\n    tag_183:\n        /* \"#utility.yul\":3247:3303   */\n    tag_182:\n        /* \"#utility.yul\":3321:3350   */\n      tag_184\n        /* \"#utility.yul\":3343:3349   */\n      dup3\n        /* \"#utility.yul\":3321:3350   */\n      tag_101\n      jump\t// in\n    tag_184:\n        /* \"#utility.yul\":3313:3350   */\n      swap1\n      pop\n        /* \"#utility.yul\":3405:3409   */\n      0x20\n        /* \"#utility.yul\":3399:3403   */\n      dup2\n        /* \"#utility.yul\":3395:3410   */\n      add\n        /* \"#utility.yul\":3387:3410   */\n      swap1\n      pop\n        /* \"#utility.yul\":3109:3417   */\n      swap2\n      swap1\n      pop\n      jump\t// out\n        /* \"#utility.yul\":3423:3571   */\n    tag_106:\n        /* \"#utility.yul\":3521:3527   */\n      dup3\n        /* \"#utility.yul\":3516:3519   */\n      dup2\n        /* \"#utility.yul\":3511:3514   */\n      dup4\n        /* \"#utility.yul\":3498:3528   */\n      calldatacopy\n        /* \"#utility.yul\":3562:3563   */\n      0x00\n        /* \"#utility.yul\":3553:3559   */\n      dup4\n        /* \"#utility.yul\":3548:3551   */\n      dup4\n        /* \"#utility.yul\":3544:3560   */\n      add\n        /* \"#utility.yul\":3537:3564   */\n      mstore\n        /* \"#utility.yul\":3423:3571   */\n      pop\n      pop\n      pop\n      jump\t// out\n        /* \"#utility.yul\":3577:4002   */\n    tag_107:\n        /* \"#utility.yul\":3655:3660   */\n      0x00\n        /* \"#utility.yul\":3680:3746   */\n      tag_187\n        /* \"#utility.yul\":3696:3745   */\n      tag_188\n        /* \"#utility.yul\":3738:3744   */\n      dup5\n        /* \"#utility.yul\":3696:3745   */\n      tag_105\n      jump\t// in\n    tag_188:\n        /* \"#utility.yul\":3680:3746   */\n      tag_104\n      jump\t// in\n    tag_187:\n        /* \"#utility.yul\":3671:3746   */\n      swap1\n      pop\n        /* \"#utility.yul\":3769:3775   */\n      dup3\n        /* \"#utility.yul\":3762:3767   */\n      dup2\n        /* \"#utility.yul\":3755:3776   */\n      mstore\n        /* \"#utility.yul\":3807:3811   */\n      0x20\n        /* \"#utility.yul\":3800:3805   */\n      dup2\n        /* \"#utility.yul\":3796:3812   */\n      add\n        /* \"#utility.yul\":3845:3848   */\n      dup5\n        /* \"#utility.yul\":3836:3842   */\n      dup5\n        /* \"#utility.yul\":3831:3834   */\n      dup5\n        /* \"#utility.yul\":3827:3843   */\n      add\n        /* \"#utility.yul\":3824:3849   */\n      gt\n        /* \"#utility.yul\":3821:3933   */\n      iszero\n      tag_189\n      jumpi\n        /* \"#utility.yul\":3852:3931   */\n      tag_190\n      tag_100\n      jump\t// in\n    tag_190:\n        /* \"#utility.yul\":3821:3933   */\n    tag_189:\n        /* \"#utility.yul\":3942:3996   */\n      tag_191\n        /* \"#utility.yul\":3989:3995   */\n      dup5\n        /* \"#utility.yul\":3984:3987   */\n      dup3\n        /* \"#utility.yul\":3979:3982   */\n      dup6\n        /* \"#utility.yul\":3942:3996   */\n      tag_106\n      jump\t// in\n    tag_191:\n        /* \"#utility.yul\":3661:4002   */\n      pop\n        /* \"#utility.yul\":3577:4002   */\n      swap4\n      swap3\n      pop\n      pop\n      pop\n      jump\t// out\n        /* \"#utility.yul\":4022:4362   */\n    tag_108:\n        /* \"#utility.yul\":4078:4083   */\n      0x00\n        /* \"#utility.yul\":4127:4130   */\n      dup3\n        /* \"#utility.yul\":4120:4124   */\n      0x1f\n        /* \"#utility.yul\":4112:4118   */\n      dup4\n        /* \"#utility.yul\":4108:4125   */\n      add\n        /* \"#utility.yul\":4104:4131   */\n      slt\n        /* \"#utility.yul\":4094:4216   */\n      tag_193\n      jumpi\n        /* \"#utility.yul\":4135:4214   */\n      tag_194\n      tag_99\n      jump\t// in\n    tag_194:\n        /* \"#utility.yul\":4094:4216   */\n    tag_193:\n        /* \"#utility.yul\":4252:4258   */\n      dup2\n        /* \"#utility.yul\":4239:4259   */\n      calldataload\n        /* \"#utility.yul\":4277:4356   */\n      tag_195\n        /* \"#utility.yul\":4352:4355   */\n      dup5\n        /* \"#utility.yul\":4344:4350   */\n      dup3\n        /* \"#utility.yul\":4337:4341   */\n      0x20\n        /* \"#utility.yul\":4329:4335   */\n      dup7\n        /* \"#utility.yul\":4325:4342   */\n      add\n        /* \"#utility.yul\":4277:4356   */\n      tag_107\n      jump\t// in\n    tag_195:\n        /* \"#utility.yul\":4268:4356   */\n      swap2\n      pop\n        /* \"#utility.yul\":4084:4362   */\n      pop\n        /* \"#utility.yul\":4022:4362   */\n      swap3\n      swap2\n      pop\n      pop\n      jump\t// out\n        /* \"#utility.yul\":4368:4877   */\n    tag_30:\n        /* \"#utility.yul\":4437:4443   */\n      0x00\n        /* \"#utility.yul\":4486:4488   */\n      0x20\n        /* \"#utility.yul\":4474:4483   */\n      dup3\n        /* \"#utility.yul\":4465:4472   */\n      dup5\n        /* \"#utility.yul\":4461:4484   */\n      sub\n        /* \"#utility.yul\":4457:4489   */\n      slt\n        /* \"#utility.yul\":4454:4573   */\n      iszero\n      tag_197\n      jumpi\n        /* \"#utility.yul\":4492:4571   */\n      tag_198\n      tag_91\n      jump\t// in\n    tag_198:\n        /* \"#utility.yul\":4454:4573   */\n    tag_197:\n        /* \"#utility.yul\":4640:4641   */\n      0x00\n        /* \"#utility.yul\":4629:4638   */\n      dup3\n        /* \"#utility.yul\":4625:4642   */\n      add\n        /* \"#utility.yul\":4612:4643   */\n      calldataload\n        /* \"#utility.yul\":4670:4688   */\n      0xffffffffffffffff\n        /* \"#utility.yul\":4662:4668   */\n      dup2\n        /* \"#utility.yul\":4659:4689   */\n      gt\n        /* \"#utility.yul\":4656:4773   */\n      iszero\n      tag_199\n      jumpi\n        /* \"#utility.yul\":4692:4771   */\n      tag_200\n      tag_92\n      jump\t// in\n    tag_200:\n        /* \"#utility.yul\":4656:4773   */\n    tag_199:\n        /* \"#utility.yul\":4797:4860   */\n      tag_201\n        /* \"#utility.yul\":4852:4859   */\n      dup5\n        /* \"#utility.yul\":4843:4849   */\n      dup3\n        /* \"#utility.yul\":4832:4841   */\n      dup6\n        /* \"#utility.yul\":4828:4850   */\n      add\n        /* \"#utility.yul\":4797:4860   */\n      tag_108\n      jump\t// in\n    tag_201:\n        /* \"#utility.yul\":4787:4860   */\n      swap2\n      pop\n        /* \"#utility.yul\":4583:4870   */\n      pop\n        /* \"#utility.yul\":4368:4877   */\n      swap3\n      swap2\n      pop\n      pop\n      jump\t// out\n        /* \"#utility.yul\":4883:4982   */\n    tag_109:\n        /* \"#utility.yul\":4935:4941   */\n      0x00\n        /* \"#utility.yul\":4969:4974   */\n      dup2\n        /* \"#utility.yul\":4963:4975   */\n      mload\n        /* \"#utility.yul\":4953:4975   */\n      swap1\n      pop\n        /* \"#utility.yul\":4883:4982   */\n      swap2\n      swap1\n      pop\n      jump\t// out\n        /* \"#utility.yul\":4988:5157   */\n    tag_110:\n        /* \"#utility.yul\":5072:5083   */\n      0x00\n        /* \"#utility.yul\":5106:5112   */\n      dup3\n        /* \"#utility.yul\":5101:5104   */\n      dup3\n        /* \"#utility.yul\":5094:5113   */\n      mstore\n        /* \"#utility.yul\":5146:5150   */\n      0x20\n        /* \"#utility.yul\":5141:5144   */\n      dup3\n        /* \"#utility.yul\":5137:5151   */\n      add\n        /* \"#utility.yul\":5122:5151   */\n      swap1\n      pop\n        /* \"#utility.yul\":4988:5157   */\n      swap3\n      swap2\n      pop\n      pop\n      jump\t// out\n        /* \"#utility.yul\":5163:5302   */\n    tag_111:\n        /* \"#utility.yul\":5252:5258   */\n      dup3\n        /* \"#utility.yul\":5247:5250   */\n      dup2\n        /* \"#utility.yul\":5242:5245   */\n      dup4\n        /* \"#utility.yul\":5236:5259   */\n      mcopy\n        /* \"#utility.yul\":5293:5294   */\n      0x00\n        /* \"#utility.yul\":5284:5290   */\n      dup4\n        /* \"#utility.yul\":5279:5282   */\n      dup4\n        /* \"#utility.yul\":5275:5291   */\n      add\n        /* \"#utility.yul\":5268:5295   */\n      mstore\n        /* \"#utility.yul\":5163:5302   */\n      pop\n      pop\n      pop\n      jump\t// out\n        /* \"#utility.yul\":5308:5685   */\n    tag_112:\n        /* \"#utility.yul\":5396:5399   */\n      0x00\n        /* \"#utility.yul\":5424:5463   */\n      tag_206\n        /* \"#utility.yul\":5457:5462   */\n      dup3\n        /* \"#utility.yul\":5424:5463   */\n      tag_109\n      jump\t// in\n    tag_206:\n        /* \"#utility.yul\":5479:5550   */\n      tag_207\n        /* \"#utility.yul\":5543:5549   */\n      dup2\n        /* \"#utility.yul\":5538:5541   */\n      dup6\n        /* \"#utility.yul\":5479:5550   */\n      tag_110\n      jump\t// in\n    tag_207:\n        /* \"#utility.yul\":5472:5550   */\n      swap4\n      pop\n        /* \"#utility.yul\":5559:5624   */\n      tag_208\n        /* \"#utility.yul\":5617:5623   */\n      dup2\n        /* \"#utility.yul\":5612:5615   */\n      dup6\n        /* \"#utility.yul\":5605:5609   */\n      0x20\n        /* \"#utility.yul\":5598:5603   */\n      dup7\n        /* \"#utility.yul\":5594:5610   */\n      add\n        /* \"#utility.yul\":5559:5624   */\n      tag_111\n      jump\t// in\n    tag_208:\n        /* \"#utility.yul\":5649:5678   */\n      tag_209\n        /* \"#utility.yul\":5671:5677   */\n      dup2\n        /* \"#utility.yul\":5649:5678   */\n      tag_101\n      jump\t// in\n    tag_209:\n        /* \"#utility.yul\":5644:5647   */\n      dup5\n        /* \"#utility.yul\":5640:5679   */\n      add\n        /* \"#utility.yul\":5633:5679   */\n      swap2\n      pop\n        /* \"#utility.yul\":5400:5685   */\n      pop\n        /* \"#utility.yul\":5308:5685   */\n      swap3\n      swap2\n      pop\n      pop\n      jump\t// out\n        /* \"#utility.yul\":5691:5871   */\n    tag_54:\n        /* \"#utility.yul\":5739:5816   */\n      0x4e487b7100000000000000000000000000000000000000000000000000000000\n        /* \"#utility.yul\":5736:5737   */\n      0x00\n        /* \"#utility.yul\":5729:5817   */\n      mstore\n        /* \"#utility.yul\":5836:5840   */\n      0x21\n        /* \"#utility.yul\":5833:5834   */\n      0x04\n        /* \"#utility.yul\":5826:5841   */\n      mstore\n        /* \"#utility.yul\":5860:5864   */\n      0x24\n        /* \"#utility.yul\":5857:5858   */\n      0x00\n        /* \"#utility.yul\":5850:5865   */\n      revert\n        /* \"#utility.yul\":5877:5990   */\n    tag_113:\n        /* \"#utility.yul\":5958:5959   */\n      0x03\n        /* \"#utility.yul\":5951:5956   */\n      dup2\n        /* \"#utility.yul\":5948:5960   */\n      lt\n        /* \"#utility.yul\":5938:5984   */\n      tag_212\n      jumpi\n        /* \"#utility.yul\":5964:5982   */\n      tag_213\n      tag_54\n      jump\t// in\n    tag_213:\n        /* \"#utility.yul\":5938:5984   */\n    tag_212:\n        /* \"#utility.yul\":5877:5990   */\n      pop\n      jump\t// out\n        /* \"#utility.yul\":5996:6123   */\n    tag_114:\n        /* \"#utility.yul\":6041:6048   */\n      0x00\n        /* \"#utility.yul\":6070:6075   */\n      dup2\n        /* \"#utility.yul\":6059:6075   */\n      swap1\n      pop\n        /* \"#utility.yul\":6076:6117   */\n      tag_215\n        /* \"#utility.yul\":6111:6116   */\n      dup3\n        /* \"#utility.yul\":6076:6117   */\n      tag_113\n      jump\t// in\n    tag_215:\n        /* \"#utility.yul\":5996:6123   */\n      swap2\n      swap1\n      pop\n      jump\t// out\n        /* \"#utility.yul\":6129:6256   */\n    tag_115:\n        /* \"#utility.yul\":6185:6194   */\n      0x00\n        /* \"#utility.yul\":6218:6250   */\n      tag_217\n        /* \"#utility.yul\":6244:6249   */\n      dup3\n        /* \"#utility.yul\":6218:6250   */\n      tag_114\n      jump\t// in\n    tag_217:\n        /* \"#utility.yul\":6205:6250   */\n      swap1\n      pop\n        /* \"#utility.yul\":6129:6256   */\n      swap2\n      swap1\n      pop\n      jump\t// out\n        /* \"#utility.yul\":6262:6405   */\n    tag_116:\n        /* \"#utility.yul\":6355:6398   */\n      tag_219\n        /* \"#utility.yul\":6392:6397   */\n      dup2\n        /* \"#utility.yul\":6355:6398   */\n      tag_115\n      jump\t// in\n    tag_219:\n        /* \"#utility.yul\":6350:6353   */\n      dup3\n        /* \"#utility.yul\":6343:6399   */\n      mstore\n        /* \"#utility.yul\":6262:6405   */\n      pop\n      pop\n      jump\t// out\n        /* \"#utility.yul\":6411:6956   */\n    tag_36:\n        /* \"#utility.yul\":6586:6590   */\n      0x00\n        /* \"#utility.yul\":6624:6626   */\n      0x60\n        /* \"#utility.yul\":6613:6622   */\n      dup3\n        /* \"#utility.yul\":6609:6627   */\n      add\n        /* \"#utility.yul\":6601:6627   */\n      swap1\n      pop\n        /* \"#utility.yul\":6637:6708   */\n      tag_221\n        /* \"#utility.yul\":6705:6706   */\n      0x00\n        /* \"#utility.yul\":6694:6703   */\n      dup4\n        /* \"#utility.yul\":6690:6707   */\n      add\n        /* \"#utility.yul\":6681:6687   */\n      dup7\n        /* \"#utility.yul\":6637:6708   */\n      tag_96\n      jump\t// in\n    tag_221:\n        /* \"#utility.yul\":6755:6764   */\n      dup2\n        /* \"#utility.yul\":6749:6753   */\n      dup2\n        /* \"#utility.yul\":6745:6765   */\n      sub\n        /* \"#utility.yul\":6740:6742   */\n      0x20\n        /* \"#utility.yul\":6729:6738   */\n      dup4\n        /* \"#utility.yul\":6725:6743   */\n      add\n        /* \"#utility.yul\":6718:6766   */\n      mstore\n        /* \"#utility.yul\":6783:6861   */\n      tag_222\n        /* \"#utility.yul\":6856:6860   */\n      dup2\n        /* \"#utility.yul\":6847:6853   */\n      dup6\n        /* \"#utility.yul\":6783:6861   */\n      tag_112\n      jump\t// in\n    tag_222:\n        /* \"#utility.yul\":6775:6861   */\n      swap1\n      pop\n        /* \"#utility.yul\":6871:6949   */\n      tag_223\n        /* \"#utility.yul\":6945:6947   */\n      0x40\n        /* \"#utility.yul\":6934:6943   */\n      dup4\n        /* \"#utility.yul\":6930:6948   */\n      add\n        /* \"#utility.yul\":6921:6927   */\n      dup5\n        /* \"#utility.yul\":6871:6949   */\n      tag_116\n      jump\t// in\n    tag_223:\n        /* \"#utility.yul\":6411:6956   */\n      swap5\n      swap4\n      pop\n      pop\n      pop\n      pop\n      jump\t// out\n        /* \"#utility.yul\":6962:7076   */\n    tag_117:\n        /* \"#utility.yul\":7029:7035   */\n      0x00\n        /* \"#utility.yul\":7063:7068   */\n      dup2\n        /* \"#utility.yul\":7057:7069   */\n      mload\n        /* \"#utility.yul\":7047:7069   */\n      swap1\n      pop\n        /* \"#utility.yul\":6962:7076   */\n      swap2\n      swap1\n      pop\n      jump\t// out\n        /* \"#utility.yul\":7082:7266   */\n    tag_118:\n        /* \"#utility.yul\":7181:7192   */\n      0x00\n        /* \"#utility.yul\":7215:7221   */\n      dup3\n        /* \"#utility.yul\":7210:7213   */\n      dup3\n        /* \"#utility.yul\":7203:7222   */\n      mstore\n        /* \"#utility.yul\":7255:7259   */\n      0x20\n        /* \"#utility.yul\":7250:7253   */\n      dup3\n        /* \"#utility.yul\":7246:7260   */\n      add\n        /* \"#utility.yul\":7231:7260   */\n      swap1\n      pop\n        /* \"#utility.yul\":7082:7266   */\n      swap3\n      swap2\n      pop\n      pop\n      jump\t// out\n        /* \"#utility.yul\":7272:7404   */\n    tag_119:\n        /* \"#utility.yul\":7339:7343   */\n      0x00\n        /* \"#utility.yul\":7362:7365   */\n      dup2\n        /* \"#utility.yul\":7354:7365   */\n      swap1\n      pop\n        /* \"#utility.yul\":7392:7396   */\n      0x20\n        /* \"#utility.yul\":7387:7390   */\n      dup3\n        /* \"#utility.yul\":7383:7397   */\n      add\n        /* \"#utility.yul\":7375:7397   */\n      swap1\n      pop\n        /* \"#utility.yul\":7272:7404   */\n      swap2\n      swap1\n      pop\n      jump\t// out\n        /* \"#utility.yul\":7410:7518   */\n    tag_120:\n        /* \"#utility.yul\":7487:7511   */\n      tag_228\n        /* \"#utility.yul\":7505:7510   */\n      dup2\n        /* \"#utility.yul\":7487:7511   */\n      tag_93\n      jump\t// in\n    tag_228:\n        /* \"#utility.yul\":7482:7485   */\n      dup3\n        /* \"#utility.yul\":7475:7512   */\n      mstore\n        /* \"#utility.yul\":7410:7518   */\n      pop\n      pop\n      jump\t// out\n        /* \"#utility.yul\":7524:7703   */\n    tag_121:\n        /* \"#utility.yul\":7593:7603   */\n      0x00\n        /* \"#utility.yul\":7614:7660   */\n      tag_230\n        /* \"#utility.yul\":7656:7659   */\n      dup4\n        /* \"#utility.yul\":7648:7654   */\n      dup4\n        /* \"#utility.yul\":7614:7660   */\n      tag_120\n      jump\t// in\n    tag_230:\n        /* \"#utility.yul\":7692:7696   */\n      0x20\n        /* \"#utility.yul\":7687:7690   */\n      dup4\n        /* \"#utility.yul\":7683:7697   */\n      add\n        /* \"#utility.yul\":7669:7697   */\n      swap1\n      pop\n        /* \"#utility.yul\":7524:7703   */\n      swap3\n      swap2\n      pop\n      pop\n      jump\t// out\n        /* \"#utility.yul\":7709:7822   */\n    tag_122:\n        /* \"#utility.yul\":7779:7783   */\n      0x00\n        /* \"#utility.yul\":7811:7815   */\n      0x20\n        /* \"#utility.yul\":7806:7809   */\n      dup3\n        /* \"#utility.yul\":7802:7816   */\n      add\n        /* \"#utility.yul\":7794:7816   */\n      swap1\n      pop\n        /* \"#utility.yul\":7709:7822   */\n      swap2\n      swap1\n      pop\n      jump\t// out\n        /* \"#utility.yul\":7858:8590   */\n    tag_123:\n        /* \"#utility.yul\":7977:7980   */\n      0x00\n        /* \"#utility.yul\":8006:8060   */\n      tag_233\n        /* \"#utility.yul\":8054:8059   */\n      dup3\n        /* \"#utility.yul\":8006:8060   */\n      tag_117\n      jump\t// in\n    tag_233:\n        /* \"#utility.yul\":8076:8162   */\n      tag_234\n        /* \"#utility.yul\":8155:8161   */\n      dup2\n        /* \"#utility.yul\":8150:8153   */\n      dup6\n        /* \"#utility.yul\":8076:8162   */\n      tag_118\n      jump\t// in\n    tag_234:\n        /* \"#utility.yul\":8069:8162   */\n      swap4\n      pop\n        /* \"#utility.yul\":8186:8242   */\n      tag_235\n        /* \"#utility.yul\":8236:8241   */\n      dup4\n        /* \"#utility.yul\":8186:8242   */\n      tag_119\n      jump\t// in\n    tag_235:\n        /* \"#utility.yul\":8265:8272   */\n      dup1\n        /* \"#utility.yul\":8296:8297   */\n      0x00\n        /* \"#utility.yul\":8281:8565   */\n    tag_236:\n        /* \"#utility.yul\":8306:8312   */\n      dup4\n        /* \"#utility.yul\":8303:8304   */\n      dup2\n        /* \"#utility.yul\":8300:8313   */\n      lt\n        /* \"#utility.yul\":8281:8565   */\n      iszero\n      tag_238\n      jumpi\n        /* \"#utility.yul\":8382:8388   */\n      dup2\n        /* \"#utility.yul\":8376:8389   */\n      mload\n        /* \"#utility.yul\":8409:8472   */\n      tag_239\n        /* \"#utility.yul\":8468:8471   */\n      dup9\n        /* \"#utility.yul\":8453:8466   */\n      dup3\n        /* \"#utility.yul\":8409:8472   */\n      tag_121\n      jump\t// in\n    tag_239:\n        /* \"#utility.yul\":8402:8472   */\n      swap8\n      pop\n        /* \"#utility.yul\":8495:8555   */\n      tag_240\n        /* \"#utility.yul\":8548:8554   */\n      dup4\n        /* \"#utility.yul\":8495:8555   */\n      tag_122\n      jump\t// in\n    tag_240:\n        /* \"#utility.yul\":8485:8555   */\n      swap3\n      pop\n        /* \"#utility.yul\":8341:8565   */\n      pop\n        /* \"#utility.yul\":8328:8329   */\n      0x01\n        /* \"#utility.yul\":8325:8326   */\n      dup2\n        /* \"#utility.yul\":8321:8330   */\n      add\n        /* \"#utility.yul\":8316:8330   */\n      swap1\n      pop\n        /* \"#utility.yul\":8281:8565   */\n      jump(tag_236)\n    tag_238:\n        /* \"#utility.yul\":8285:8299   */\n      pop\n        /* \"#utility.yul\":8581:8584   */\n      dup6\n        /* \"#utility.yul\":8574:8584   */\n      swap4\n      pop\n        /* \"#utility.yul\":7982:8590   */\n      pop\n      pop\n      pop\n        /* \"#utility.yul\":7858:8590   */\n      swap3\n      swap2\n      pop\n      pop\n      jump\t// out\n        /* \"#utility.yul\":8596:8969   */\n    tag_40:\n        /* \"#utility.yul\":8739:8743   */\n      0x00\n        /* \"#utility.yul\":8777:8779   */\n      0x20\n        /* \"#utility.yul\":8766:8775   */\n      dup3\n        /* \"#utility.yul\":8762:8780   */\n      add\n        /* \"#utility.yul\":8754:8780   */\n      swap1\n      pop\n        /* \"#utility.yul\":8826:8835   */\n      dup2\n        /* \"#utility.yul\":8820:8824   */\n      dup2\n        /* \"#utility.yul\":8816:8836   */\n      sub\n        /* \"#utility.yul\":8812:8813   */\n      0x00\n        /* \"#utility.yul\":8801:8810   */\n      dup4\n        /* \"#utility.yul\":8797:8814   */\n      add\n        /* \"#utility.yul\":8790:8837   */\n      mstore\n        /* \"#utility.yul\":8854:8962   */\n      tag_242\n        /* \"#utility.yul\":8957:8961   */\n      dup2\n        /* \"#utility.yul\":8948:8954   */\n      dup5\n        /* \"#utility.yul\":8854:8962   */\n      tag_123\n      jump\t// in\n    tag_242:\n        /* \"#utility.yul\":8846:8962   */\n      swap1\n      pop\n        /* \"#utility.yul\":8596:8969   */\n      swap3\n      swap2\n      pop\n      pop\n      jump\t// out\n        /* \"#utility.yul\":8975:9145   */\n    tag_124:\n        /* \"#utility.yul\":9115:9137   */\n      0x546f646f20646f6573206e6f742065786973742e000000000000000000000000\n        /* \"#utility.yul\":9111:9112   */\n      0x00\n        /* \"#utility.yul\":9103:9109   */\n      dup3\n        /* \"#utility.yul\":9099:9113   */\n      add\n        /* \"#utility.yul\":9092:9138   */\n      mstore\n        /* \"#utility.yul\":8975:9145   */\n      pop\n      jump\t// out\n        /* \"#utility.yul\":9151:9517   */\n    tag_125:\n        /* \"#utility.yul\":9293:9296   */\n      0x00\n        /* \"#utility.yul\":9314:9381   */\n      tag_245\n        /* \"#utility.yul\":9378:9380   */\n      0x14\n        /* \"#utility.yul\":9373:9376   */\n      dup4\n        /* \"#utility.yul\":9314:9381   */\n      tag_110\n      jump\t// in\n    tag_245:\n        /* \"#utility.yul\":9307:9381   */\n      swap2\n      pop\n        /* \"#utility.yul\":9390:9483   */\n      tag_246\n        /* \"#utility.yul\":9479:9482   */\n      dup3\n        /* \"#utility.yul\":9390:9483   */\n      tag_124\n      jump\t// in\n    tag_246:\n        /* \"#utility.yul\":9508:9510   */\n      0x20\n        /* \"#utility.yul\":9503:9506   */\n      dup3\n        /* \"#utility.yul\":9499:9511   */\n      add\n        /* \"#utility.yul\":9492:9511   */\n      swap1\n      pop\n        /* \"#utility.yul\":9151:9517   */\n      swap2\n      swap1\n      pop\n      jump\t// out\n        /* \"#utility.yul\":9523:9942   */\n    tag_51:\n        /* \"#utility.yul\":9689:9693   */\n      0x00\n        /* \"#utility.yul\":9727:9729   */\n      0x20\n        /* \"#utility.yul\":9716:9725   */\n      dup3\n        /* \"#utility.yul\":9712:9730   */\n      add\n        /* \"#utility.yul\":9704:9730   */\n      swap1\n      pop\n        /* \"#utility.yul\":9776:9785   */\n      dup2\n        /* \"#utility.yul\":9770:9774   */\n      dup2\n        /* \"#utility.yul\":9766:9786   */\n      sub\n        /* \"#utility.yul\":9762:9763   */\n      0x00\n        /* \"#utility.yul\":9751:9760   */\n      dup4\n        /* \"#utility.yul\":9747:9764   */\n      add\n        /* \"#utility.yul\":9740:9787   */\n      mstore\n        /* \"#utility.yul\":9804:9935   */\n      tag_248\n        /* \"#utility.yul\":9930:9934   */\n      dup2\n        /* \"#utility.yul\":9804:9935   */\n      tag_125\n      jump\t// in\n    tag_248:\n        /* \"#utility.yul\":9796:9935   */\n      swap1\n      pop\n        /* \"#utility.yul\":9523:9942   */\n      swap2\n      swap1\n      pop\n      jump\t// out\n        /* \"#utility.yul\":9948:10292   */\n    tag_56:\n        /* \"#utility.yul\":10075:10079   */\n      0x00\n        /* \"#utility.yul\":10113:10115   */\n      0x40\n        /* \"#utility.yul\":10102:10111   */\n      dup3\n        /* \"#utility.yul\":10098:10116   */\n      add\n        /* \"#utility.yul\":10090:10116   */\n      swap1\n      pop\n        /* \"#utility.yul\":10126:10197   */\n      tag_250\n        /* \"#utility.yul\":10194:10195   */\n      0x00\n        /* \"#utility.yul\":10183:10192   */\n      dup4\n        /* \"#utility.yul\":10179:10196   */\n      add\n        /* \"#utility.yul\":10170:10176   */\n      dup6\n        /* \"#utility.yul\":10126:10197   */\n      tag_96\n      jump\t// in\n    tag_250:\n        /* \"#utility.yul\":10207:10285   */\n      tag_251\n        /* \"#utility.yul\":10281:10283   */\n      0x20\n        /* \"#utility.yul\":10270:10279   */\n      dup4\n        /* \"#utility.yul\":10266:10284   */\n      add\n        /* \"#utility.yul\":10257:10263   */\n      dup5\n        /* \"#utility.yul\":10207:10285   */\n      tag_116\n      jump\t// in\n    tag_251:\n        /* \"#utility.yul\":9948:10292   */\n      swap4\n      swap3\n      pop\n      pop\n      pop\n      jump\t// out\n        /* \"#utility.yul\":10298:10478   */\n    tag_126:\n        /* \"#utility.yul\":10346:10423   */\n      0x4e487b7100000000000000000000000000000000000000000000000000000000\n        /* \"#utility.yul\":10343:10344   */\n      0x00\n        /* \"#utility.yul\":10336:10424   */\n      mstore\n        /* \"#utility.yul\":10443:10447   */\n      0x22\n        /* \"#utility.yul\":10440:10441   */\n      0x04\n        /* \"#utility.yul\":10433:10448   */\n      mstore\n        /* \"#utility.yul\":10467:10471   */\n      0x24\n        /* \"#utility.yul\":10464:10465   */\n      0x00\n        /* \"#utility.yul\":10457:10472   */\n      revert\n        /* \"#utility.yul\":10484:10804   */\n    tag_70:\n        /* \"#utility.yul\":10528:10534   */\n      0x00\n        /* \"#utility.yul\":10565:10566   */\n      0x02\n        /* \"#utility.yul\":10559:10563   */\n      dup3\n        /* \"#utility.yul\":10555:10567   */\n      div\n        /* \"#utility.yul\":10545:10567   */\n      swap1\n      pop\n        /* \"#utility.yul\":10612:10613   */\n      0x01\n        /* \"#utility.yul\":10606:10610   */\n      dup3\n        /* \"#utility.yul\":10602:10614   */\n      and\n        /* \"#utility.yul\":10633:10651   */\n      dup1\n        /* \"#utility.yul\":10623:10704   */\n      tag_254\n      jumpi\n        /* \"#utility.yul\":10689:10693   */\n      0x7f\n        /* \"#utility.yul\":10681:10687   */\n      dup3\n        /* \"#utility.yul\":10677:10694   */\n      and\n        /* \"#utility.yul\":10667:10694   */\n      swap2\n      pop\n        /* \"#utility.yul\":10623:10704   */\n    tag_254:\n        /* \"#utility.yul\":10751:10753   */\n      0x20\n        /* \"#utility.yul\":10743:10749   */\n      dup3\n        /* \"#utility.yul\":10740:10754   */\n      lt\n        /* \"#utility.yul\":10720:10738   */\n      dup2\n        /* \"#utility.yul\":10717:10755   */\n      sub\n        /* \"#utility.yul\":10714:10798   */\n      tag_255\n      jumpi\n        /* \"#utility.yul\":10770:10788   */\n      tag_256\n      tag_126\n      jump\t// in\n    tag_256:\n        /* \"#utility.yul\":10714:10798   */\n    tag_255:\n        /* \"#utility.yul\":10535:10804   */\n      pop\n        /* \"#utility.yul\":10484:10804   */\n      swap2\n      swap1\n      pop\n      jump\t// out\n        /* \"#utility.yul\":10810:10951   */\n    tag_127:\n        /* \"#utility.yul\":10859:10863   */\n      0x00\n        /* \"#utility.yul\":10882:10885   */\n      dup2\n        /* \"#utility.yul\":10874:10885   */\n      swap1\n      pop\n        /* \"#utility.yul\":10905:10908   */\n      dup2\n        /* \"#utility.yul\":10902:10903   */\n      0x00\n        /* \"#utility.yul\":10895:10909   */\n      mstore\n        /* \"#utility.yul\":10939:10943   */\n      0x20\n        /* \"#utility.yul\":10936:10937   */\n      0x00\n        /* \"#utility.yul\":10926:10944   */\n      keccak256\n        /* \"#utility.yul\":10918:10944   */\n      swap1\n      pop\n        /* \"#utility.yul\":10810:10951   */\n      swap2\n      swap1\n      pop\n      jump\t// out\n        /* \"#utility.yul\":10957:11050   */\n    tag_128:\n        /* \"#utility.yul\":10994:11000   */\n      0x00\n        /* \"#utility.yul\":11041:11043   */\n      0x20\n        /* \"#utility.yul\":11036:11038   */\n      0x1f\n        /* \"#utility.yul\":11029:11034   */\n      dup4\n        /* \"#utility.yul\":11025:11039   */\n      add\n        /* \"#utility.yul\":11021:11044   */\n      div\n        /* \"#utility.yul\":11011:11044   */\n      swap1\n      pop\n        /* \"#utility.yul\":10957:11050   */\n      swap2\n      swap1\n      pop\n      jump\t// out\n        /* \"#utility.yul\":11056:11163   */\n    tag_129:\n        /* \"#utility.yul\":11100:11108   */\n      0x00\n        /* \"#utility.yul\":11150:11155   */\n      dup3\n        /* \"#utility.yul\":11144:11148   */\n      dup3\n        /* \"#utility.yul\":11140:11156   */\n      shl\n        /* \"#utility.yul\":11119:11156   */\n      swap1\n      pop\n        /* \"#utility.yul\":11056:11163   */\n      swap3\n      swap2\n      pop\n      pop\n      jump\t// out\n        /* \"#utility.yul\":11169:11562   */\n    tag_130:\n        /* \"#utility.yul\":11238:11244   */\n      0x00\n        /* \"#utility.yul\":11288:11289   */\n      0x08\n        /* \"#utility.yul\":11276:11286   */\n      dup4\n        /* \"#utility.yul\":11272:11290   */\n      mul\n        /* \"#utility.yul\":11311:11408   */\n      tag_261\n        /* \"#utility.yul\":11341:11407   */\n      0xffffffffffffffffffffffffffffffffffffffffffffffffffffffffffffffff\n        /* \"#utility.yul\":11330:11339   */\n      dup3\n        /* \"#utility.yul\":11311:11408   */\n      tag_129\n      jump\t// in\n    tag_261:\n        /* \"#utility.yul\":11429:11468   */\n      tag_262\n        /* \"#utility.yul\":11459:11467   */\n      dup7\n        /* \"#utility.yul\":11448:11457   */\n      dup4\n        /* \"#utility.yul\":11429:11468   */\n      tag_129\n      jump\t// in\n    tag_262:\n        /* \"#utility.yul\":11417:11468   */\n      swap6\n      pop\n        /* \"#utility.yul\":11501:11505   */\n      dup1\n        /* \"#utility.yul\":11497:11506   */\n      not\n        /* \"#utility.yul\":11490:11495   */\n      dup5\n        /* \"#utility.yul\":11486:11507   */\n      and\n        /* \"#utility.yul\":11477:11507   */\n      swap4\n      pop\n        /* \"#utility.yul\":11550:11554   */\n      dup1\n        /* \"#utility.yul\":11540:11548   */\n      dup7\n        /* \"#utility.yul\":11536:11555   */\n      and\n        /* \"#utility.yul\":11529:11534   */\n      dup5\n        /* \"#utility.yul\":11526:11556   */\n      or\n        /* \"#utility.yul\":11516:11556   */\n      swap3\n      pop\n        /* \"#utility.yul\":11245:11562   */\n      pop\n      pop\n        /* \"#utility.yul\":11169:11562   */\n      swap4\n      swap3\n      pop\n      pop\n      pop\n      jump\t// out\n        /* \"#utility.yul\":11568:11628   */\n    tag_131:\n        /* \"#utility.yul\":11596:11599   */\n      0x00\n        /* \"#utility.yul\":11617:11622   */\n      dup2\n        /* \"#utility.yul\":11610:11622   */\n      swap1\n      pop\n        /* \"#utility.yul\":11568:11628   */\n      swap2\n      swap1\n      pop\n      jump\t// out\n        /* \"#utility.yul\":11634:11776   */\n    tag_132:\n        /* \"#utility.yul\":11684:11693   */\n      0x00\n        /* \"#utility.yul\":11717:11770   */\n      tag_265\n        /* \"#utility.yul\":11735:11769   */\n      tag_266\n        /* \"#utility.yul\":11744:11768   */\n      tag_267\n        /* \"#utility.yul\":11762:11767   */\n      dup5\n        /* \"#utility.yul\":11744:11768   */\n      tag_93\n      jump\t// in\n    tag_267:\n        /* \"#utility.yul\":11735:11769   */\n      tag_131\n      jump\t// in\n    tag_266:\n        /* \"#utility.yul\":11717:11770   */\n      tag_93\n      jump\t// in\n    tag_265:\n        /* \"#utility.yul\":11704:11770   */\n      swap1\n      pop\n        /* \"#utility.yul\":11634:11776   */\n      swap2\n      swap1\n      pop\n      jump\t// out\n        /* \"#utility.yul\":11782:11857   */\n    tag_133:\n        /* \"#utility.yul\":11825:11828   */\n      0x00\n        /* \"#utility.yul\":11846:11851   */\n      dup2\n        /* \"#utility.yul\":11839:11851   */\n      swap1\n      pop\n        /* \"#utility.yul\":11782:11857   */\n      swap2\n      swap1\n      pop\n      jump\t// out\n        /* \"#utility.yul\":11863:12132   */\n    tag_134:\n        /* \"#utility.yul\":11973:12012   */\n      tag_270\n        /* \"#utility.yul\":12004:12011   */\n      dup4\n        /* \"#utility.yul\":11973:12012   */\n      tag_132\n      jump\t// in\n    tag_270:\n        /* \"#utility.yul\":12034:12125   */\n      tag_271\n        /* \"#utility.yul\":12083:12124   */\n      tag_272\n        /* \"#utility.yul\":12107:12123   */\n      dup3\n        /* \"#utility.yul\":12083:12124   */\n      tag_133\n      jump\t// in\n    tag_272:\n        /* \"#utility.yul\":12075:12081   */\n      dup5\n        /* \"#utility.yul\":12068:12072   */\n      dup5\n        /* \"#utility.yul\":12062:12073   */\n      sload\n        /* \"#utility.yul\":12034:12125   */\n      tag_130\n      jump\t// in\n    tag_271:\n        /* \"#utility.yul\":12028:12032   */\n      dup3\n        /* \"#utility.yul\":12021:12126   */\n      sstore\n        /* \"#utility.yul\":11939:12132   */\n      pop\n        /* \"#utility.yul\":11863:12132   */\n      pop\n      pop\n      pop\n      jump\t// out\n        /* \"#utility.yul\":12138:12211   */\n    tag_135:\n        /* \"#utility.yul\":12183:12186   */\n      0x00\n        /* \"#utility.yul\":12138:12211   */\n      swap1\n      jump\t// out\n        /* \"#utility.yul\":12217:12406   */\n    tag_136:\n        /* \"#utility.yul\":12294:12326   */\n      tag_275\n      tag_135\n      jump\t// in\n    tag_275:\n        /* \"#utility.yul\":12335:12400   */\n      tag_276\n        /* \"#utility.yul\":12393:12399   */\n      dup2\n        /* \"#utility.yul\":12385:12391   */\n      dup5\n        /* \"#utility.yul\":12379:12383   */\n      dup5\n        /* \"#utility.yul\":12335:12400   */\n      tag_134\n      jump\t// in\n    tag_276:\n        /* \"#utility.yul\":12270:12406   */\n      pop\n        /* \"#utility.yul\":12217:12406   */\n      pop\n      pop\n      jump\t// out\n        /* \"#utility.yul\":12412:12598   */\n    tag_137:\n        /* \"#utility.yul\":12472:12592   */\n    tag_278:\n        /* \"#utility.yul\":12489:12492   */\n      dup2\n        /* \"#utility.yul\":12482:12487   */\n      dup2\n        /* \"#utility.yul\":12479:12493   */\n      lt\n        /* \"#utility.yul\":12472:12592   */\n      iszero\n      tag_280\n      jumpi\n        /* \"#utility.yul\":12543:12582   */\n      tag_281\n        /* \"#utility.yul\":12580:12581   */\n      0x00\n        /* \"#utility.yul\":12573:12578   */\n      dup3\n        /* \"#utility.yul\":12543:12582   */\n      tag_136\n      jump\t// in\n    tag_281:\n        /* \"#utility.yul\":12516:12517   */\n      0x01\n        /* \"#utility.yul\":12509:12514   */\n      dup2\n        /* \"#utility.yul\":12505:12518   */\n      add\n        /* \"#utility.yul\":12496:12518   */\n      swap1\n      pop\n        /* \"#utility.yul\":12472:12592   */\n      jump(tag_278)\n    tag_280:\n        /* \"#utility.yul\":12412:12598   */\n      pop\n      pop\n      jump\t// out\n        /* \"#utility.yul\":12604:13147   */\n    tag_138:\n        /* \"#utility.yul\":12705:12707   */\n      0x1f\n        /* \"#utility.yul\":12700:12703   */\n      dup3\n        /* \"#utility.yul\":12697:12708   */\n      gt\n        /* \"#utility.yul\":12694:13140   */\n      iszero\n      tag_283\n      jumpi\n        /* \"#utility.yul\":12739:12777   */\n      tag_284\n        /* \"#utility.yul\":12771:12776   */\n      dup2\n        /* \"#utility.yul\":12739:12777   */\n      tag_127\n      jump\t// in\n    tag_284:\n        /* \"#utility.yul\":12823:12852   */\n      tag_285\n        /* \"#utility.yul\":12841:12851   */\n      dup5\n        /* \"#utility.yul\":12823:12852   */\n      tag_128\n      jump\t// in\n    tag_285:\n        /* \"#utility.yul\":12813:12821   */\n      dup2\n        /* \"#utility.yul\":12809:12853   */\n      add\n        /* \"#utility.yul\":13006:13008   */\n      0x20\n        /* \"#utility.yul\":12994:13004   */\n      dup6\n        /* \"#utility.yul\":12991:13009   */\n      lt\n        /* \"#utility.yul\":12988:13037   */\n      iszero\n      tag_286\n      jumpi\n        /* \"#utility.yul\":13027:13035   */\n      dup2\n        /* \"#utility.yul\":13012:13035   */\n      swap1\n      pop\n        /* \"#utility.yul\":12988:13037   */\n    tag_286:\n        /* \"#utility.yul\":13050:13130   */\n      tag_287\n        /* \"#utility.yul\":13106:13128   */\n      tag_288\n        /* \"#utility.yul\":13124:13127   */\n      dup6\n        /* \"#utility.yul\":13106:13128   */\n      tag_128\n      jump\t// in\n    tag_288:\n        /* \"#utility.yul\":13096:13104   */\n      dup4\n        /* \"#utility.yul\":13092:13129   */\n      add\n        /* \"#utility.yul\":13079:13090   */\n      dup3\n        /* \"#utility.yul\":13050:13130   */\n      tag_137\n      jump\t// in\n    tag_287:\n        /* \"#utility.yul\":12709:13140   */\n      pop\n      pop\n        /* \"#utility.yul\":12694:13140   */\n    tag_283:\n        /* \"#utility.yul\":12604:13147   */\n      pop\n      pop\n      pop\n      jump\t// out\n        /* \"#utility.yul\":13153:13270   */\n    tag_139:\n        /* \"#utility.yul\":13207:13215   */\n      0x00\n        /* \"#utility.yul\":13257:13262   */\n      dup3\n        /* \"#utility.yul\":13251:13255   */\n      dup3\n        /* \"#utility.yul\":13247:13263   */\n      shr\n        /* \"#utility.yul\":13226:13263   */\n      swap1\n      pop\n        /* \"#utility.yul\":13153:13270   */\n      swap3\n      swap2\n      pop\n      pop\n      jump\t// out\n        /* \"#utility.yul\":13276:13445   */\n    tag_140:\n        /* \"#utility.yul\":13320:13326   */\n      0x00\n        /* \"#utility.yul\":13353:13404   */\n      tag_291\n        /* \"#utility.yul\":13401:13402   */\n      0x00\n        /* \"#utility.yul\":13397:13403   */\n      not\n        /* \"#utility.yul\":13389:13394   */\n      dup5\n        /* \"#utility.yul\":13386:13387   */\n      0x08\n        /* \"#utility.yul\":13382:13395   */\n      mul\n        /* \"#utility.yul\":13353:13404   */\n      tag_139\n      jump\t// in\n    tag_291:\n        /* \"#utility.yul\":13349:13405   */\n      not\n        /* \"#utility.yul\":13434:13438   */\n      dup1\n        /* \"#utility.yul\":13428:13432   */\n      dup4\n        /* \"#utility.yul\":13424:13439   */\n      and\n        /* \"#utility.yul\":13414:13439   */\n      swap2\n      pop\n        /* \"#utility.yul\":13327:13445   */\n      pop\n        /* \"#utility.yul\":13276:13445   */\n      swap3\n      swap2\n      pop\n      pop\n      jump\t// out\n        /* \"#utility.yul\":13450:13745   */\n    tag_141:\n        /* \"#utility.yul\":13526:13530   */\n      0x00\n        /* \"#utility.yul\":13672:13701   */\n      tag_293\n        /* \"#utility.yul\":13697:13700   */\n      dup4\n        /* \"#utility.yul\":13691:13695   */\n      dup4\n        /* \"#utility.yul\":13672:13701   */\n      tag_140\n      jump\t// in\n    tag_293:\n        /* \"#utility.yul\":13664:13701   */\n      swap2\n      pop\n        /* \"#utility.yul\":13734:13737   */\n      dup3\n        /* \"#utility.yul\":13731:13732   */\n      0x02\n        /* \"#utility.yul\":13727:13738   */\n      mul\n        /* \"#utility.yul\":13721:13725   */\n      dup3\n        /* \"#utility.yul\":13718:13739   */\n      or\n        /* \"#utility.yul\":13710:13739   */\n      swap1\n      pop\n        /* \"#utility.yul\":13450:13745   */\n      swap3\n      swap2\n      pop\n      pop\n      jump\t// out\n        /* \"#utility.yul\":13750:15145   */\n    tag_61:\n        /* \"#utility.yul\":13867:13904   */\n      tag_295\n        /* \"#utility.yul\":13900:13903   */\n      dup3\n        /* \"#utility.yul\":13867:13904   */\n      tag_109\n      jump\t// in\n    tag_295:\n        /* \"#utility.yul\":13969:13987   */\n      0xffffffffffffffff\n        /* \"#utility.yul\":13961:13967   */\n      dup2\n        /* \"#utility.yul\":13958:13988   */\n      gt\n        /* \"#utility.yul\":13955:14011   */\n      iszero\n      tag_296\n      jumpi\n        /* \"#utility.yul\":13991:14009   */\n      tag_297\n      tag_102\n      jump\t// in\n    tag_297:\n        /* \"#utility.yul\":13955:14011   */\n    tag_296:\n        /* \"#utility.yul\":14035:14073   */\n      tag_298\n        /* \"#utility.yul\":14067:14071   */\n      dup3\n        /* \"#utility.yul\":14061:14072   */\n      sload\n        /* \"#utility.yul\":14035:14073   */\n      tag_70\n      jump\t// in\n    tag_298:\n        /* \"#utility.yul\":14120:14187   */\n      tag_299\n        /* \"#utility.yul\":14180:14186   */\n      dup3\n        /* \"#utility.yul\":14172:14178   */\n      dup3\n        /* \"#utility.yul\":14166:14170   */\n      dup6\n        /* \"#utility.yul\":14120:14187   */\n      tag_138\n      jump\t// in\n    tag_299:\n        /* \"#utility.yul\":14214:14215   */\n      0x00\n        /* \"#utility.yul\":14238:14242   */\n      0x20\n        /* \"#utility.yul\":14225:14242   */\n      swap1\n      pop\n        /* \"#utility.yul\":14270:14272   */\n      0x1f\n        /* \"#utility.yul\":14262:14268   */\n      dup4\n        /* \"#utility.yul\":14259:14273   */\n      gt\n        /* \"#utility.yul\":14287:14288   */\n      0x01\n        /* \"#utility.yul\":14282:14900   */\n      dup2\n      eq\n      tag_301\n      jumpi\n        /* \"#utility.yul\":14944:14945   */\n      0x00\n        /* \"#utility.yul\":14961:14967   */\n      dup5\n        /* \"#utility.yul\":14958:15035   */\n      iszero\n      tag_302\n      jumpi\n        /* \"#utility.yul\":15010:15019   */\n      dup3\n        /* \"#utility.yul\":15005:15008   */\n      dup8\n        /* \"#utility.yul\":15001:15020   */\n      add\n        /* \"#utility.yul\":14995:15021   */\n      mload\n        /* \"#utility.yul\":14986:15021   */\n      swap1\n      pop\n        /* \"#utility.yul\":14958:15035   */\n    tag_302:\n        /* \"#utility.yul\":15061:15128   */\n      tag_303\n        /* \"#utility.yul\":15121:15127   */\n      dup6\n        /* \"#utility.yul\":15114:15119   */\n      dup3\n        /* \"#utility.yul\":15061:15128   */\n      tag_141\n      jump\t// in\n    tag_303:\n        /* \"#utility.yul\":15055:15059   */\n      dup7\n        /* \"#utility.yul\":15048:15129   */\n      sstore\n        /* \"#utility.yul\":14917:15139   */\n      pop\n        /* \"#utility.yul\":14252:15139   */\n      jump(tag_300)\n        /* \"#utility.yul\":14282:14900   */\n    tag_301:\n        /* \"#utility.yul\":14334:14338   */\n      0x1f\n        /* \"#utility.yul\":14330:14339   */\n      not\n        /* \"#utility.yul\":14322:14328   */\n      dup5\n        /* \"#utility.yul\":14318:14340   */\n      and\n        /* \"#utility.yul\":14368:14405   */\n      tag_304\n        /* \"#utility.yul\":14400:14404   */\n      dup7\n        /* \"#utility.yul\":14368:14405   */\n      tag_127\n      jump\t// in\n    tag_304:\n        /* \"#utility.yul\":14427:14428   */\n      0x00\n        /* \"#utility.yul\":14441:14649   */\n    tag_305:\n        /* \"#utility.yul\":14455:14462   */\n      dup3\n        /* \"#utility.yul\":14452:14453   */\n      dup2\n        /* \"#utility.yul\":14449:14463   */\n      lt\n        /* \"#utility.yul\":14441:14649   */\n      iszero\n      tag_307\n      jumpi\n        /* \"#utility.yul\":14534:14543   */\n      dup5\n        /* \"#utility.yul\":14529:14532   */\n      dup10\n        /* \"#utility.yul\":14525:14544   */\n      add\n        /* \"#utility.yul\":14519:14545   */\n      mload\n        /* \"#utility.yul\":14511:14517   */\n      dup3\n        /* \"#utility.yul\":14504:14546   */\n      sstore\n        /* \"#utility.yul\":14585:14586   */\n      0x01\n        /* \"#utility.yul\":14577:14583   */\n      dup3\n        /* \"#utility.yul\":14573:14587   */\n      add\n        /* \"#utility.yul\":14563:14587   */\n      swap2\n      pop\n        /* \"#utility.yul\":14632:14634   */\n      0x20\n        /* \"#utility.yul\":14621:14630   */\n      dup6\n        /* \"#utility.yul\":14617:14635   */\n      add\n        /* \"#utility.yul\":14604:14635   */\n      swap5\n      pop\n        /* \"#utility.yul\":14478:14482   */\n      0x20\n        /* \"#utility.yul\":14475:14476   */\n      dup2\n        /* \"#utility.yul\":14471:14483   */\n      add\n        /* \"#utility.yul\":14466:14483   */\n      swap1\n      pop\n        /* \"#utility.yul\":14441:14649   */\n      jump(tag_305)\n    tag_307:\n        /* \"#utility.yul\":14677:14683   */\n      dup7\n        /* \"#utility.yul\":14668:14675   */\n      dup4\n        /* \"#utility.yul\":14665:14684   */\n      lt\n        /* \"#utility.yul\":14662:14841   */\n      iszero\n      tag_308\n      jumpi\n        /* \"#utility.yul\":14735:14744   */\n      dup5\n        /* \"#utility.yul\":14730:14733   */\n      dup10\n        /* \"#utility.yul\":14726:14745   */\n      add\n        /* \"#utility.yul\":14720:14746   */\n      mload\n        /* \"#utility.yul\":14778:14826   */\n      tag_309\n        /* \"#utility.yul\":14820:14824   */\n      0x1f\n        /* \"#utility.yul\":14812:14818   */\n      dup10\n        /* \"#utility.yul\":14808:14825   */\n      and\n        /* \"#utility.yul\":14797:14806   */\n      dup3\n        /* \"#utility.yul\":14778:14826   */\n      tag_140\n      jump\t// in\n    tag_309:\n        /* \"#utility.yul\":14770:14776   */\n      dup4\n        /* \"#utility.yul\":14763:14827   */\n      sstore\n        /* \"#utility.yul\":14685:14841   */\n      pop\n        /* \"#utility.yul\":14662:14841   */\n    tag_308:\n        /* \"#utility.yul\":14887:14888   */\n      0x01\n        /* \"#utility.yul\":14883:14884   */\n      0x02\n        /* \"#utility.yul\":14875:14881   */\n      dup9\n        /* \"#utility.yul\":14871:14885   */\n      mul\n        /* \"#utility.yul\":14867:14889   */\n      add\n        /* \"#utility.yul\":14861:14865   */\n      dup9\n        /* \"#utility.yul\":14854:14890   */\n      sstore\n        /* \"#utility.yul\":14289:14900   */\n      pop\n      pop\n      pop\n        /* \"#utility.yul\":14252:15139   */\n    tag_300:\n      pop\n        /* \"#utility.yul\":13842:15145   */\n      pop\n      pop\n      pop\n        /* \"#utility.yul\":13750:15145   */\n      pop\n      pop\n      jump\t// out\n        /* \"#utility.yul\":15151:15574   */\n    tag_66:\n        /* \"#utility.yul\":15292:15296   */\n      0x00\n        /* \"#utility.yul\":15330:15332   */\n      0x40\n        /* \"#utility.yul\":15319:15328   */\n      dup3\n        /* \"#utility.yul\":15315:15333   */\n      add\n        /* \"#utility.yul\":15307:15333   */\n      swap1\n      pop\n        /* \"#utility.yul\":15343:15414   */\n      tag_311\n        /* \"#utility.yul\":15411:15412   */\n      0x00\n        /* \"#utility.yul\":15400:15409   */\n      dup4\n        /* \"#utility.yul\":15396:15413   */\n      add\n        /* \"#utility.yul\":15387:15393   */\n      dup6\n        /* \"#utility.yul\":15343:15414   */\n      tag_96\n      jump\t// in\n    tag_311:\n        /* \"#utility.yul\":15461:15470   */\n      dup2\n        /* \"#utility.yul\":15455:15459   */\n      dup2\n        /* \"#utility.yul\":15451:15471   */\n      sub\n        /* \"#utility.yul\":15446:15448   */\n      0x20\n        /* \"#utility.yul\":15435:15444   */\n      dup4\n        /* \"#utility.yul\":15431:15449   */\n      add\n        /* \"#utility.yul\":15424:15472   */\n      mstore\n        /* \"#utility.yul\":15489:15567   */\n      tag_312\n        /* \"#utility.yul\":15562:15566   */\n      dup2\n        /* \"#utility.yul\":15553:15559   */\n      dup5\n        /* \"#utility.yul\":15489:15567   */\n      tag_112\n      jump\t// in\n    tag_312:\n        /* \"#utility.yul\":15481:15567   */\n      swap1\n      pop\n        /* \"#utility.yul\":15151:15574   */\n      swap4\n      swap3\n      pop\n      pop\n      pop\n      jump\t// out\n        /* \"#utility.yul\":15580:15760   */\n    tag_142:\n        /* \"#utility.yul\":15628:15705   */\n      0x4e487b7100000000000000000000000000000000000000000000000000000000\n        /* \"#utility.yul\":15625:15626   */\n      0x00\n        /* \"#utility.yul\":15618:15706   */\n      mstore\n        /* \"#utility.yul\":15725:15729   */\n      0x11\n        /* \"#utility.yul\":15722:15723   */\n      0x04\n        /* \"#utility.yul\":15715:15730   */\n      mstore\n        /* \"#utility.yul\":15749:15753   */\n      0x24\n        /* \"#utility.yul\":15746:15747   */\n      0x00\n        /* \"#utility.yul\":15739:15754   */\n      revert\n        /* \"#utility.yul\":15766:15999   */\n    tag_68:\n        /* \"#utility.yul\":15805:15808   */\n      0x00\n        /* \"#utility.yul\":15828:15852   */\n      tag_315\n        /* \"#utility.yul\":15846:15851   */\n      dup3\n        /* \"#utility.yul\":15828:15852   */\n      tag_93\n      jump\t// in\n    tag_315:\n        /* \"#utility.yul\":15819:15852   */\n      swap2\n      pop\n        /* \"#utility.yul\":15874:15940   */\n      0xffffffffffffffffffffffffffffffffffffffffffffffffffffffffffffffff\n        /* \"#utility.yul\":15867:15872   */\n      dup3\n        /* \"#utility.yul\":15864:15941   */\n      sub\n        /* \"#utility.yul\":15861:15964   */\n      tag_316\n      jumpi\n        /* \"#utility.yul\":15944:15962   */\n      tag_317\n      tag_142\n      jump\t// in\n    tag_317:\n        /* \"#utility.yul\":15861:15964   */\n    tag_316:\n        /* \"#utility.yul\":15991:15992   */\n      0x01\n        /* \"#utility.yul\":15984:15989   */\n      dup3\n        /* \"#utility.yul\":15980:15993   */\n      add\n        /* \"#utility.yul\":15973:15993   */\n      swap1\n      pop\n        /* \"#utility.yul\":15766:15999   */\n      swap2\n      swap1\n      pop\n      jump\t// out\n\n    auxdata: 0xa2646970667358221220d653bfcccfbe775a0caa91f0042c685d226a56c2ac8716379b8f83e315e4996264736f6c634300081a0033\n}\n",
				"bytecode": {
					"linkReferences": {},
					"object": "6080604052348015600e575f80fd5b50610e9e8061001c5f395ff3fe608060405234801561000f575f80fd5b5060043610610086575f3560e01c806395ffebf51161005957806395ffebf514610112578063bc8bc2b41461012e578063d368ca4d14610160578063dd68afb61461017e57610086565b806303c5c31f1461008a578063104a7cd8146100ba5780633a1b3d31146100d857806361b8ce8c146100f4575b5f80fd5b6100a4600480360381019061009f9190610651565b6101b0565b6040516100b1919061068b565b60405180910390f35b6100c26101d0565b6040516100cf919061068b565b60405180910390f35b6100f260048036038101906100ed91906106c7565b6101dc565b005b6100fc610297565b604051610109919061068b565b60405180910390f35b61012c60048036038101906101279190610841565b61029d565b005b61014860048036038101906101439190610651565b6103ab565b6040516101579392919061095b565b60405180910390f35b610168610462565b6040516101759190610a4e565b60405180910390f35b61019860048036038101906101939190610651565b6104b8565b6040516101a79392919061095b565b60405180910390f35b600181815481106101bf575f80fd5b905f5260205f20015f915090505481565b5f600180549050905090565b6002548210610220576040517f08c379a000000000000000000000000000000000000000000000000000000000815260040161021790610ab8565b60405180910390fd5b805f808481526020019081526020015f206002015f6101000a81548160ff02191690836002811115610255576102546108e8565b5b02179055507fa2ac6e13d73f6324f71f35c45e0c9a3e0678b88f564555fb214e1219f073a4d9828260405161028b929190610ad6565b60405180910390a15050565b60025481565b604051806060016040528060025481526020018281526020015f60028111156102c9576102c86108e8565b5b8152505f8060025481526020019081526020015f205f820151815f015560208201518160010190816102fb9190610cf7565b506040820151816002015f6101000a81548160ff02191690836002811115610326576103256108e8565b5b02179055509050506001600254908060018154018082558091505060019003905f5260205f20015f90919091909150557f606222d2d9b2ffe82e59c226d772a363312cfce0027119e88e27c4db155e882d60025482604051610389929190610dc6565b60405180910390a160025f8154809291906103a390610e21565b919050555050565b5f602052805f5260405f205f91509050805f0154908060010180546103cf90610b2a565b80601f01602080910402602001604051908101604052809291908181526020018280546103fb90610b2a565b80156104465780601f1061041d57610100808354040283529160200191610446565b820191905f5260205f20905b81548152906001019060200180831161042957829003601f168201915b505050505090806002015f9054906101000a900460ff16905083565b606060018054806020026020016040519081016040528092919081815260200182805480156104ae57602002820191905f5260205f20905b81548152602001906001019080831161049a575b5050505050905090565b5f60605f6002548410610500576040517f08c379a00000000000000000000000000000000000000000000000000000000081526004016104f790610ab8565b60405180910390fd5b5f805f8681526020019081526020015f206040518060600160405290815f820154815260200160018201805461053590610b2a565b80601f016020809104026020016040519081016040528092919081815260200182805461056190610b2a565b80156105ac5780601f10610583576101008083540402835291602001916105ac565b820191905f5260205f20905b81548152906001019060200180831161058f57829003601f168201915b50505050508152602001600282015f9054906101000a900460ff1660028111156105d9576105d86108e8565b5b60028111156105eb576105ea6108e8565b5b815250509050805f015181602001518260400151935093509350509193909250565b5f604051905090565b5f80fd5b5f80fd5b5f819050919050565b6106308161061e565b811461063a575f80fd5b50565b5f8135905061064b81610627565b92915050565b5f6020828403121561066657610665610616565b5b5f6106738482850161063d565b91505092915050565b6106858161061e565b82525050565b5f60208201905061069e5f83018461067c565b92915050565b600381106106b0575f80fd5b50565b5f813590506106c1816106a4565b92915050565b5f80604083850312156106dd576106dc610616565b5b5f6106ea8582860161063d565b92505060206106fb858286016106b3565b9150509250929050565b5f80fd5b5f80fd5b5f601f19601f8301169050919050565b7f4e487b71000000000000000000000000000000000000000000000000000000005f52604160045260245ffd5b6107538261070d565b810181811067ffffffffffffffff821117156107725761077161071d565b5b80604052505050565b5f61078461060d565b9050610790828261074a565b919050565b5f67ffffffffffffffff8211156107af576107ae61071d565b5b6107b88261070d565b9050602081019050919050565b828183375f83830152505050565b5f6107e56107e084610795565b61077b565b90508281526020810184848401111561080157610800610709565b5b61080c8482856107c5565b509392505050565b5f82601f83011261082857610827610705565b5b81356108388482602086016107d3565b91505092915050565b5f6020828403121561085657610855610616565b5b5f82013567ffffffffffffffff8111156108735761087261061a565b5b61087f84828501610814565b91505092915050565b5f81519050919050565b5f82825260208201905092915050565b8281835e5f83830152505050565b5f6108ba82610888565b6108c48185610892565b93506108d48185602086016108a2565b6108dd8161070d565b840191505092915050565b7f4e487b71000000000000000000000000000000000000000000000000000000005f52602160045260245ffd5b60038110610926576109256108e8565b5b50565b5f81905061093682610915565b919050565b5f61094582610929565b9050919050565b6109558161093b565b82525050565b5f60608201905061096e5f83018661067c565b818103602083015261098081856108b0565b905061098f604083018461094c565b949350505050565b5f81519050919050565b5f82825260208201905092915050565b5f819050602082019050919050565b6109c98161061e565b82525050565b5f6109da83836109c0565b60208301905092915050565b5f602082019050919050565b5f6109fc82610997565b610a0681856109a1565b9350610a11836109b1565b805f5b83811015610a41578151610a2888826109cf565b9750610a33836109e6565b925050600181019050610a14565b5085935050505092915050565b5f6020820190508181035f830152610a6681846109f2565b905092915050565b7f546f646f20646f6573206e6f742065786973742e0000000000000000000000005f82015250565b5f610aa2601483610892565b9150610aad82610a6e565b602082019050919050565b5f6020820190508181035f830152610acf81610a96565b9050919050565b5f604082019050610ae95f83018561067c565b610af6602083018461094c565b9392505050565b7f4e487b71000000000000000000000000000000000000000000000000000000005f52602260045260245ffd5b5f6002820490506001821680610b4157607f821691505b602082108103610b5457610b53610afd565b5b50919050565b5f819050815f5260205f209050919050565b5f6020601f8301049050919050565b5f82821b905092915050565b5f60088302610bb67fffffffffffffffffffffffffffffffffffffffffffffffffffffffffffffffff82610b7b565b610bc08683610b7b565b95508019841693508086168417925050509392505050565b5f819050919050565b5f610bfb610bf6610bf18461061e565b610bd8565b61061e565b9050919050565b5f819050919050565b610c1483610be1565b610c28610c2082610c02565b848454610b87565b825550505050565b5f90565b610c3c610c30565b610c47818484610c0b565b505050565b5b81811015610c6a57610c5f5f82610c34565b600181019050610c4d565b5050565b601f821115610caf57610c8081610b5a565b610c8984610b6c565b81016020851015610c98578190505b610cac610ca485610b6c565b830182610c4c565b50505b505050565b5f82821c905092915050565b5f610ccf5f1984600802610cb4565b1980831691505092915050565b5f610ce78383610cc0565b9150826002028217905092915050565b610d0082610888565b67ffffffffffffffff811115610d1957610d1861071d565b5b610d238254610b2a565b610d2e828285610c6e565b5f60209050601f831160018114610d5f575f8415610d4d578287015190505b610d578582610cdc565b865550610dbe565b601f198416610d6d86610b5a565b5f5b82811015610d9457848901518255600182019150602085019450602081019050610d6f565b86831015610db15784890151610dad601f891682610cc0565b8355505b6001600288020188555050505b505050505050565b5f604082019050610dd95f83018561067c565b8181036020830152610deb81846108b0565b90509392505050565b7f4e487b71000000000000000000000000000000000000000000000000000000005f52601160045260245ffd5b5f610e2b8261061e565b91507fffffffffffffffffffffffffffffffffffffffffffffffffffffffffffffffff8203610e5d57610e5c610df4565b5b60018201905091905056fea2646970667358221220d653bfcccfbe775a0caa91f0042c685d226a56c2ac8716379b8f83e315e4996264736f6c634300081a0033",
					"opcodes": "PUSH1 0x80 PUSH1 0x40 MSTORE CALLVALUE DUP1 ISZERO PUSH1 0xE JUMPI PUSH0 DUP1 REVERT JUMPDEST POP PUSH2 0xE9E DUP1 PUSH2 0x1C PUSH0 CODECOPY PUSH0 RETURN INVALID PUSH1 0x80 PUSH1 0x40 MSTORE CALLVALUE DUP1 ISZERO PUSH2 0xF JUMPI PUSH0 DUP1 REVERT JUMPDEST POP PUSH1 0x4 CALLDATASIZE LT PUSH2 0x86 JUMPI PUSH0 CALLDATALOAD PUSH1 0xE0 SHR DUP1 PUSH4 0x95FFEBF5 GT PUSH2 0x59 JUMPI DUP1 PUSH4 0x95FFEBF5 EQ PUSH2 0x112 JUMPI DUP1 PUSH4 0xBC8BC2B4 EQ PUSH2 0x12E JUMPI DUP1 PUSH4 0xD368CA4D EQ PUSH2 0x160 JUMPI DUP1 PUSH4 0xDD68AFB6 EQ PUSH2 0x17E JUMPI PUSH2 0x86 JUMP JUMPDEST DUP1 PUSH4 0x3C5C31F EQ PUSH2 0x8A JUMPI DUP1 PUSH4 0x104A7CD8 EQ PUSH2 0xBA JUMPI DUP1 PUSH4 0x3A1B3D31 EQ PUSH2 0xD8 JUMPI DUP1 PUSH4 0x61B8CE8C EQ PUSH2 0xF4 JUMPI JUMPDEST PUSH0 DUP1 REVERT JUMPDEST PUSH2 0xA4 PUSH1 0x4 DUP1 CALLDATASIZE SUB DUP2 ADD SWAP1 PUSH2 0x9F SWAP2 SWAP1 PUSH2 0x651 JUMP JUMPDEST PUSH2 0x1B0 JUMP JUMPDEST PUSH1 0x40 MLOAD PUSH2 0xB1 SWAP2 SWAP1 PUSH2 0x68B JUMP JUMPDEST PUSH1 0x40 MLOAD DUP1 SWAP2 SUB SWAP1 RETURN JUMPDEST PUSH2 0xC2 PUSH2 0x1D0 JUMP JUMPDEST PUSH1 0x40 MLOAD PUSH2 0xCF SWAP2 SWAP1 PUSH2 0x68B JUMP JUMPDEST PUSH1 0x40 MLOAD DUP1 SWAP2 SUB SWAP1 RETURN JUMPDEST PUSH2 0xF2 PUSH1 0x4 DUP1 CALLDATASIZE SUB DUP2 ADD SWAP1 PUSH2 0xED SWAP2 SWAP1 PUSH2 0x6C7 JUMP JUMPDEST PUSH2 0x1DC JUMP JUMPDEST STOP JUMPDEST PUSH2 0xFC PUSH2 0x297 JUMP JUMPDEST PUSH1 0x40 MLOAD PUSH2 0x109 SWAP2 SWAP1 PUSH2 0x68B JUMP JUMPDEST PUSH1 0x40 MLOAD DUP1 SWAP2 SUB SWAP1 RETURN JUMPDEST PUSH2 0x12C PUSH1 0x4 DUP1 CALLDATASIZE SUB DUP2 ADD SWAP1 PUSH2 0x127 SWAP2 SWAP1 PUSH2 0x841 JUMP JUMPDEST PUSH2 0x29D JUMP JUMPDEST STOP JUMPDEST PUSH2 0x148 PUSH1 0x4 DUP1 CALLDATASIZE SUB DUP2 ADD SWAP1 PUSH2 0x143 SWAP2 SWAP1 PUSH2 0x651 JUMP JUMPDEST PUSH2 0x3AB JUMP JUMPDEST PUSH1 0x40 MLOAD PUSH2 0x157 SWAP4 SWAP3 SWAP2 SWAP1 PUSH2 0x95B JUMP JUMPDEST PUSH1 0x40 MLOAD DUP1 SWAP2 SUB SWAP1 RETURN JUMPDEST PUSH2 0x168 PUSH2 0x462 JUMP JUMPDEST PUSH1 0x40 MLOAD PUSH2 0x175 SWAP2 SWAP1 PUSH2 0xA4E JUMP JUMPDEST PUSH1 0x40 MLOAD DUP1 SWAP2 SUB SWAP1 RETURN JUMPDEST PUSH2 0x198 PUSH1 0x4 DUP1 CALLDATASIZE SUB DUP2 ADD SWAP1 PUSH2 0x193 SWAP2 SWAP1 PUSH2 0x651 JUMP JUMPDEST PUSH2 0x4B8 JUMP JUMPDEST PUSH1 0x40 MLOAD PUSH2 0x1A7 SWAP4 SWAP3 SWAP2 SWAP1 PUSH2 0x95B JUMP JUMPDEST PUSH1 0x40 MLOAD DUP1 SWAP2 SUB SWAP1 RETURN JUMPDEST PUSH1 0x1 DUP2 DUP2 SLOAD DUP2 LT PUSH2 0x1BF JUMPI PUSH0 DUP1 REVERT JUMPDEST SWAP1 PUSH0 MSTORE PUSH1 0x20 PUSH0 KECCAK256 ADD PUSH0 SWAP2 POP SWAP1 POP SLOAD DUP2 JUMP JUMPDEST PUSH0 PUSH1 0x1 DUP1 SLOAD SWAP1 POP SWAP1 POP SWAP1 JUMP JUMPDEST PUSH1 0x2 SLOAD DUP3 LT PUSH2 0x220 JUMPI PUSH1 0x40 MLOAD PUSH32 0x8C379A000000000000000000000000000000000000000000000000000000000 DUP2 MSTORE PUSH1 0x4 ADD PUSH2 0x217 SWAP1 PUSH2 0xAB8 JUMP JUMPDEST PUSH1 0x40 MLOAD DUP1 SWAP2 SUB SWAP1 REVERT JUMPDEST DUP1 PUSH0 DUP1 DUP5 DUP2 MSTORE PUSH1 0x20 ADD SWAP1 DUP2 MSTORE PUSH1 0x20 ADD PUSH0 KECCAK256 PUSH1 0x2 ADD PUSH0 PUSH2 0x100 EXP DUP2 SLOAD DUP2 PUSH1 0xFF MUL NOT AND SWAP1 DUP4 PUSH1 0x2 DUP2 GT ISZERO PUSH2 0x255 JUMPI PUSH2 0x254 PUSH2 0x8E8 JUMP JUMPDEST JUMPDEST MUL OR SWAP1 SSTORE POP PUSH32 0xA2AC6E13D73F6324F71F35C45E0C9A3E0678B88F564555FB214E1219F073A4D9 DUP3 DUP3 PUSH1 0x40 MLOAD PUSH2 0x28B SWAP3 SWAP2 SWAP1 PUSH2 0xAD6 JUMP JUMPDEST PUSH1 0x40 MLOAD DUP1 SWAP2 SUB SWAP1 LOG1 POP POP JUMP JUMPDEST PUSH1 0x2 SLOAD DUP2 JUMP JUMPDEST PUSH1 0x40 MLOAD DUP1 PUSH1 0x60 ADD PUSH1 0x40 MSTORE DUP1 PUSH1 0x2 SLOAD DUP2 MSTORE PUSH1 0x20 ADD DUP3 DUP2 MSTORE PUSH1 0x20 ADD PUSH0 PUSH1 0x2 DUP2 GT ISZERO PUSH2 0x2C9 JUMPI PUSH2 0x2C8 PUSH2 0x8E8 JUMP JUMPDEST JUMPDEST DUP2 MSTORE POP PUSH0 DUP1 PUSH1 0x2 SLOAD DUP2 MSTORE PUSH1 0x20 ADD SWAP1 DUP2 MSTORE PUSH1 0x20 ADD PUSH0 KECCAK256 PUSH0 DUP3 ADD MLOAD DUP2 PUSH0 ADD SSTORE PUSH1 0x20 DUP3 ADD MLOAD DUP2 PUSH1 0x1 ADD SWAP1 DUP2 PUSH2 0x2FB SWAP2 SWAP1 PUSH2 0xCF7 JUMP JUMPDEST POP PUSH1 0x40 DUP3 ADD MLOAD DUP2 PUSH1 0x2 ADD PUSH0 PUSH2 0x100 EXP DUP2 SLOAD DUP2 PUSH1 0xFF MUL NOT AND SWAP1 DUP4 PUSH1 0x2 DUP2 GT ISZERO PUSH2 0x326 JUMPI PUSH2 0x325 PUSH2 0x8E8 JUMP JUMPDEST JUMPDEST MUL OR SWAP1 SSTORE POP SWAP1 POP POP PUSH1 0x1 PUSH1 0x2 SLOAD SWAP1 DUP1 PUSH1 0x1 DUP2 SLOAD ADD DUP1 DUP3 SSTORE DUP1 SWAP2 POP POP PUSH1 0x1 SWAP1 SUB SWAP1 PUSH0 MSTORE PUSH1 0x20 PUSH0 KECCAK256 ADD PUSH0 SWAP1 SWAP2 SWAP1 SWAP2 SWAP1 SWAP2 POP SSTORE PUSH32 0x606222D2D9B2FFE82E59C226D772A363312CFCE0027119E88E27C4DB155E882D PUSH1 0x2 SLOAD DUP3 PUSH1 0x40 MLOAD PUSH2 0x389 SWAP3 SWAP2 SWAP1 PUSH2 0xDC6 JUMP JUMPDEST PUSH1 0x40 MLOAD DUP1 SWAP2 SUB SWAP1 LOG1 PUSH1 0x2 PUSH0 DUP2 SLOAD DUP1 SWAP3 SWAP2 SWAP1 PUSH2 0x3A3 SWAP1 PUSH2 0xE21 JUMP JUMPDEST SWAP2 SWAP1 POP SSTORE POP POP JUMP JUMPDEST PUSH0 PUSH1 0x20 MSTORE DUP1 PUSH0 MSTORE PUSH1 0x40 PUSH0 KECCAK256 PUSH0 SWAP2 POP SWAP1 POP DUP1 PUSH0 ADD SLOAD SWAP1 DUP1 PUSH1 0x1 ADD DUP1 SLOAD PUSH2 0x3CF SWAP1 PUSH2 0xB2A JUMP JUMPDEST DUP1 PUSH1 0x1F ADD PUSH1 0x20 DUP1 SWAP2 DIV MUL PUSH1 0x20 ADD PUSH1 0x40 MLOAD SWAP1 DUP2 ADD PUSH1 0x40 MSTORE DUP1 SWAP3 SWAP2 SWAP1 DUP2 DUP2 MSTORE PUSH1 0x20 ADD DUP3 DUP1 SLOAD PUSH2 0x3FB SWAP1 PUSH2 0xB2A JUMP JUMPDEST DUP1 ISZERO PUSH2 0x446 JUMPI DUP1 PUSH1 0x1F LT PUSH2 0x41D JUMPI PUSH2 0x100 DUP1 DUP4 SLOAD DIV MUL DUP4 MSTORE SWAP2 PUSH1 0x20 ADD SWAP2 PUSH2 0x446 JUMP JUMPDEST DUP3 ADD SWAP2 SWAP1 PUSH0 MSTORE PUSH1 0x20 PUSH0 KECCAK256 SWAP1 JUMPDEST DUP2 SLOAD DUP2 MSTORE SWAP1 PUSH1 0x1 ADD SWAP1 PUSH1 0x20 ADD DUP1 DUP4 GT PUSH2 0x429 JUMPI DUP3 SWAP1 SUB PUSH1 0x1F AND DUP3 ADD SWAP2 JUMPDEST POP POP POP POP POP SWAP1 DUP1 PUSH1 0x2 ADD PUSH0 SWAP1 SLOAD SWAP1 PUSH2 0x100 EXP SWAP1 DIV PUSH1 0xFF AND SWAP1 POP DUP4 JUMP JUMPDEST PUSH1 0x60 PUSH1 0x1 DUP1 SLOAD DUP1 PUSH1 0x20 MUL PUSH1 0x20 ADD PUSH1 0x40 MLOAD SWAP1 DUP2 ADD PUSH1 0x40 MSTORE DUP1 SWAP3 SWAP2 SWAP1 DUP2 DUP2 MSTORE PUSH1 0x20 ADD DUP3 DUP1 SLOAD DUP1 ISZERO PUSH2 0x4AE JUMPI PUSH1 0x20 MUL DUP3 ADD SWAP2 SWAP1 PUSH0 MSTORE PUSH1 0x20 PUSH0 KECCAK256 SWAP1 JUMPDEST DUP2 SLOAD DUP2 MSTORE PUSH1 0x20 ADD SWAP1 PUSH1 0x1 ADD SWAP1 DUP1 DUP4 GT PUSH2 0x49A JUMPI JUMPDEST POP POP POP POP POP SWAP1 POP SWAP1 JUMP JUMPDEST PUSH0 PUSH1 0x60 PUSH0 PUSH1 0x2 SLOAD DUP5 LT PUSH2 0x500 JUMPI PUSH1 0x40 MLOAD PUSH32 0x8C379A000000000000000000000000000000000000000000000000000000000 DUP2 MSTORE PUSH1 0x4 ADD PUSH2 0x4F7 SWAP1 PUSH2 0xAB8 JUMP JUMPDEST PUSH1 0x40 MLOAD DUP1 SWAP2 SUB SWAP1 REVERT JUMPDEST PUSH0 DUP1 PUSH0 DUP7 DUP2 MSTORE PUSH1 0x20 ADD SWAP1 DUP2 MSTORE PUSH1 0x20 ADD PUSH0 KECCAK256 PUSH1 0x40 MLOAD DUP1 PUSH1 0x60 ADD PUSH1 0x40 MSTORE SWAP1 DUP2 PUSH0 DUP3 ADD SLOAD DUP2 MSTORE PUSH1 0x20 ADD PUSH1 0x1 DUP3 ADD DUP1 SLOAD PUSH2 0x535 SWAP1 PUSH2 0xB2A JUMP JUMPDEST DUP1 PUSH1 0x1F ADD PUSH1 0x20 DUP1 SWAP2 DIV MUL PUSH1 0x20 ADD PUSH1 0x40 MLOAD SWAP1 DUP2 ADD PUSH1 0x40 MSTORE DUP1 SWAP3 SWAP2 SWAP1 DUP2 DUP2 MSTORE PUSH1 0x20 ADD DUP3 DUP1 SLOAD PUSH2 0x561 SWAP1 PUSH2 0xB2A JUMP JUMPDEST DUP1 ISZERO PUSH2 0x5AC JUMPI DUP1 PUSH1 0x1F LT PUSH2 0x583 JUMPI PUSH2 0x100 DUP1 DUP4 SLOAD DIV MUL DUP4 MSTORE SWAP2 PUSH1 0x20 ADD SWAP2 PUSH2 0x5AC JUMP JUMPDEST DUP3 ADD SWAP2 SWAP1 PUSH0 MSTORE PUSH1 0x20 PUSH0 KECCAK256 SWAP1 JUMPDEST DUP2 SLOAD DUP2 MSTORE SWAP1 PUSH1 0x1 ADD SWAP1 PUSH1 0x20 ADD DUP1 DUP4 GT PUSH2 0x58F JUMPI DUP3 SWAP1 SUB PUSH1 0x1F AND DUP3 ADD SWAP2 JUMPDEST POP POP POP POP POP DUP2 MSTORE PUSH1 0x20 ADD PUSH1 0x2 DUP3 ADD PUSH0 SWAP1 SLOAD SWAP1 PUSH2 0x100 EXP SWAP1 DIV PUSH1 0xFF AND PUSH1 0x2 DUP2 GT ISZERO PUSH2 0x5D9 JUMPI PUSH2 0x5D8 PUSH2 0x8E8 JUMP JUMPDEST JUMPDEST PUSH1 0x2 DUP2 GT ISZERO PUSH2 0x5EB JUMPI PUSH2 0x5EA PUSH2 0x8E8 JUMP JUMPDEST JUMPDEST DUP2 MSTORE POP POP SWAP1 POP DUP1 PUSH0 ADD MLOAD DUP2 PUSH1 0x20 ADD MLOAD DUP3 PUSH1 0x40 ADD MLOAD SWAP4 POP SWAP4 POP SWAP4 POP POP SWAP2 SWAP4 SWAP1 SWAP3 POP JUMP JUMPDEST PUSH0 PUSH1 0x40 MLOAD SWAP1 POP SWAP1 JUMP JUMPDEST PUSH0 DUP1 REVERT JUMPDEST PUSH0 DUP1 REVERT JUMPDEST PUSH0 DUP2 SWAP1 POP SWAP2 SWAP1 POP JUMP JUMPDEST PUSH2 0x630 DUP2 PUSH2 0x61E JUMP JUMPDEST DUP2 EQ PUSH2 0x63A JUMPI PUSH0 DUP1 REVERT JUMPDEST POP JUMP JUMPDEST PUSH0 DUP2 CALLDATALOAD SWAP1 POP PUSH2 0x64B DUP2 PUSH2 0x627 JUMP JUMPDEST SWAP3 SWAP2 POP POP JUMP JUMPDEST PUSH0 PUSH1 0x20 DUP3 DUP5 SUB SLT ISZERO PUSH2 0x666 JUMPI PUSH2 0x665 PUSH2 0x616 JUMP JUMPDEST JUMPDEST PUSH0 PUSH2 0x673 DUP5 DUP3 DUP6 ADD PUSH2 0x63D JUMP JUMPDEST SWAP2 POP POP SWAP3 SWAP2 POP POP JUMP JUMPDEST PUSH2 0x685 DUP2 PUSH2 0x61E JUMP JUMPDEST DUP3 MSTORE POP POP JUMP JUMPDEST PUSH0 PUSH1 0x20 DUP3 ADD SWAP1 POP PUSH2 0x69E PUSH0 DUP4 ADD DUP5 PUSH2 0x67C JUMP JUMPDEST SWAP3 SWAP2 POP POP JUMP JUMPDEST PUSH1 0x3 DUP2 LT PUSH2 0x6B0 JUMPI PUSH0 DUP1 REVERT JUMPDEST POP JUMP JUMPDEST PUSH0 DUP2 CALLDATALOAD SWAP1 POP PUSH2 0x6C1 DUP2 PUSH2 0x6A4 JUMP JUMPDEST SWAP3 SWAP2 POP POP JUMP JUMPDEST PUSH0 DUP1 PUSH1 0x40 DUP4 DUP6 SUB SLT ISZERO PUSH2 0x6DD JUMPI PUSH2 0x6DC PUSH2 0x616 JUMP JUMPDEST JUMPDEST PUSH0 PUSH2 0x6EA DUP6 DUP3 DUP7 ADD PUSH2 0x63D JUMP JUMPDEST SWAP3 POP POP PUSH1 0x20 PUSH2 0x6FB DUP6 DUP3 DUP7 ADD PUSH2 0x6B3 JUMP JUMPDEST SWAP2 POP POP SWAP3 POP SWAP3 SWAP1 POP JUMP JUMPDEST PUSH0 DUP1 REVERT JUMPDEST PUSH0 DUP1 REVERT JUMPDEST PUSH0 PUSH1 0x1F NOT PUSH1 0x1F DUP4 ADD AND SWAP1 POP SWAP2 SWAP1 POP JUMP JUMPDEST PUSH32 0x4E487B7100000000000000000000000000000000000000000000000000000000 PUSH0 MSTORE PUSH1 0x41 PUSH1 0x4 MSTORE PUSH1 0x24 PUSH0 REVERT JUMPDEST PUSH2 0x753 DUP3 PUSH2 0x70D JUMP JUMPDEST DUP2 ADD DUP2 DUP2 LT PUSH8 0xFFFFFFFFFFFFFFFF DUP3 GT OR ISZERO PUSH2 0x772 JUMPI PUSH2 0x771 PUSH2 0x71D JUMP JUMPDEST JUMPDEST DUP1 PUSH1 0x40 MSTORE POP POP POP JUMP JUMPDEST PUSH0 PUSH2 0x784 PUSH2 0x60D JUMP JUMPDEST SWAP1 POP PUSH2 0x790 DUP3 DUP3 PUSH2 0x74A JUMP JUMPDEST SWAP2 SWAP1 POP JUMP JUMPDEST PUSH0 PUSH8 0xFFFFFFFFFFFFFFFF DUP3 GT ISZERO PUSH2 0x7AF JUMPI PUSH2 0x7AE PUSH2 0x71D JUMP JUMPDEST JUMPDEST PUSH2 0x7B8 DUP3 PUSH2 0x70D JUMP JUMPDEST SWAP1 POP PUSH1 0x20 DUP2 ADD SWAP1 POP SWAP2 SWAP1 POP JUMP JUMPDEST DUP3 DUP2 DUP4 CALLDATACOPY PUSH0 DUP4 DUP4 ADD MSTORE POP POP POP JUMP JUMPDEST PUSH0 PUSH2 0x7E5 PUSH2 0x7E0 DUP5 PUSH2 0x795 JUMP JUMPDEST PUSH2 0x77B JUMP JUMPDEST SWAP1 POP DUP3 DUP2 MSTORE PUSH1 0x20 DUP2 ADD DUP5 DUP5 DUP5 ADD GT ISZERO PUSH2 0x801 JUMPI PUSH2 0x800 PUSH2 0x709 JUMP JUMPDEST JUMPDEST PUSH2 0x80C DUP5 DUP3 DUP6 PUSH2 0x7C5 JUMP JUMPDEST POP SWAP4 SWAP3 POP POP POP JUMP JUMPDEST PUSH0 DUP3 PUSH1 0x1F DUP4 ADD SLT PUSH2 0x828 JUMPI PUSH2 0x827 PUSH2 0x705 JUMP JUMPDEST JUMPDEST DUP2 CALLDATALOAD PUSH2 0x838 DUP5 DUP3 PUSH1 0x20 DUP7 ADD PUSH2 0x7D3 JUMP JUMPDEST SWAP2 POP POP SWAP3 SWAP2 POP POP JUMP JUMPDEST PUSH0 PUSH1 0x20 DUP3 DUP5 SUB SLT ISZERO PUSH2 0x856 JUMPI PUSH2 0x855 PUSH2 0x616 JUMP JUMPDEST JUMPDEST PUSH0 DUP3 ADD CALLDATALOAD PUSH8 0xFFFFFFFFFFFFFFFF DUP2 GT ISZERO PUSH2 0x873 JUMPI PUSH2 0x872 PUSH2 0x61A JUMP JUMPDEST JUMPDEST PUSH2 0x87F DUP5 DUP3 DUP6 ADD PUSH2 0x814 JUMP JUMPDEST SWAP2 POP POP SWAP3 SWAP2 POP POP JUMP JUMPDEST PUSH0 DUP2 MLOAD SWAP1 POP SWAP2 SWAP1 POP JUMP JUMPDEST PUSH0 DUP3 DUP3 MSTORE PUSH1 0x20 DUP3 ADD SWAP1 POP SWAP3 SWAP2 POP POP JUMP JUMPDEST DUP3 DUP2 DUP4 MCOPY PUSH0 DUP4 DUP4 ADD MSTORE POP POP POP JUMP JUMPDEST PUSH0 PUSH2 0x8BA DUP3 PUSH2 0x888 JUMP JUMPDEST PUSH2 0x8C4 DUP2 DUP6 PUSH2 0x892 JUMP JUMPDEST SWAP4 POP PUSH2 0x8D4 DUP2 DUP6 PUSH1 0x20 DUP7 ADD PUSH2 0x8A2 JUMP JUMPDEST PUSH2 0x8DD DUP2 PUSH2 0x70D JUMP JUMPDEST DUP5 ADD SWAP2 POP POP SWAP3 SWAP2 POP POP JUMP JUMPDEST PUSH32 0x4E487B7100000000000000000000000000000000000000000000000000000000 PUSH0 MSTORE PUSH1 0x21 PUSH1 0x4 MSTORE PUSH1 0x24 PUSH0 REVERT JUMPDEST PUSH1 0x3 DUP2 LT PUSH2 0x926 JUMPI PUSH2 0x925 PUSH2 0x8E8 JUMP JUMPDEST JUMPDEST POP JUMP JUMPDEST PUSH0 DUP2 SWAP1 POP PUSH2 0x936 DUP3 PUSH2 0x915 JUMP JUMPDEST SWAP2 SWAP1 POP JUMP JUMPDEST PUSH0 PUSH2 0x945 DUP3 PUSH2 0x929 JUMP JUMPDEST SWAP1 POP SWAP2 SWAP1 POP JUMP JUMPDEST PUSH2 0x955 DUP2 PUSH2 0x93B JUMP JUMPDEST DUP3 MSTORE POP POP JUMP JUMPDEST PUSH0 PUSH1 0x60 DUP3 ADD SWAP1 POP PUSH2 0x96E PUSH0 DUP4 ADD DUP7 PUSH2 0x67C JUMP JUMPDEST DUP2 DUP2 SUB PUSH1 0x20 DUP4 ADD MSTORE PUSH2 0x980 DUP2 DUP6 PUSH2 0x8B0 JUMP JUMPDEST SWAP1 POP PUSH2 0x98F PUSH1 0x40 DUP4 ADD DUP5 PUSH2 0x94C JUMP JUMPDEST SWAP5 SWAP4 POP POP POP POP JUMP JUMPDEST PUSH0 DUP2 MLOAD SWAP1 POP SWAP2 SWAP1 POP JUMP JUMPDEST PUSH0 DUP3 DUP3 MSTORE PUSH1 0x20 DUP3 ADD SWAP1 POP SWAP3 SWAP2 POP POP JUMP JUMPDEST PUSH0 DUP2 SWAP1 POP PUSH1 0x20 DUP3 ADD SWAP1 POP SWAP2 SWAP1 POP JUMP JUMPDEST PUSH2 0x9C9 DUP2 PUSH2 0x61E JUMP JUMPDEST DUP3 MSTORE POP POP JUMP JUMPDEST PUSH0 PUSH2 0x9DA DUP4 DUP4 PUSH2 0x9C0 JUMP JUMPDEST PUSH1 0x20 DUP4 ADD SWAP1 POP SWAP3 SWAP2 POP POP JUMP JUMPDEST PUSH0 PUSH1 0x20 DUP3 ADD SWAP1 POP SWAP2 SWAP1 POP JUMP JUMPDEST PUSH0 PUSH2 0x9FC DUP3 PUSH2 0x997 JUMP JUMPDEST PUSH2 0xA06 DUP2 DUP6 PUSH2 0x9A1 JUMP JUMPDEST SWAP4 POP PUSH2 0xA11 DUP4 PUSH2 0x9B1 JUMP JUMPDEST DUP1 PUSH0 JUMPDEST DUP4 DUP2 LT ISZERO PUSH2 0xA41 JUMPI DUP2 MLOAD PUSH2 0xA28 DUP9 DUP3 PUSH2 0x9CF JUMP JUMPDEST SWAP8 POP PUSH2 0xA33 DUP4 PUSH2 0x9E6 JUMP JUMPDEST SWAP3 POP POP PUSH1 0x1 DUP2 ADD SWAP1 POP PUSH2 0xA14 JUMP JUMPDEST POP DUP6 SWAP4 POP POP POP POP SWAP3 SWAP2 POP POP JUMP JUMPDEST PUSH0 PUSH1 0x20 DUP3 ADD SWAP1 POP DUP2 DUP2 SUB PUSH0 DUP4 ADD MSTORE PUSH2 0xA66 DUP2 DUP5 PUSH2 0x9F2 JUMP JUMPDEST SWAP1 POP SWAP3 SWAP2 POP POP JUMP JUMPDEST PUSH32 0x546F646F20646F6573206E6F742065786973742E000000000000000000000000 PUSH0 DUP3 ADD MSTORE POP JUMP JUMPDEST PUSH0 PUSH2 0xAA2 PUSH1 0x14 DUP4 PUSH2 0x892 JUMP JUMPDEST SWAP2 POP PUSH2 0xAAD DUP3 PUSH2 0xA6E JUMP JUMPDEST PUSH1 0x20 DUP3 ADD SWAP1 POP SWAP2 SWAP1 POP JUMP JUMPDEST PUSH0 PUSH1 0x20 DUP3 ADD SWAP1 POP DUP2 DUP2 SUB PUSH0 DUP4 ADD MSTORE PUSH2 0xACF DUP2 PUSH2 0xA96 JUMP JUMPDEST SWAP1 POP SWAP2 SWAP1 POP JUMP JUMPDEST PUSH0 PUSH1 0x40 DUP3 ADD SWAP1 POP PUSH2 0xAE9 PUSH0 DUP4 ADD DUP6 PUSH2 0x67C JUMP JUMPDEST PUSH2 0xAF6 PUSH1 0x20 DUP4 ADD DUP5 PUSH2 0x94C JUMP JUMPDEST SWAP4 SWAP3 POP POP POP JUMP JUMPDEST PUSH32 0x4E487B7100000000000000000000000000000000000000000000000000000000 PUSH0 MSTORE PUSH1 0x22 PUSH1 0x4 MSTORE PUSH1 0x24 PUSH0 REVERT JUMPDEST PUSH0 PUSH1 0x2 DUP3 DIV SWAP1 POP PUSH1 0x1 DUP3 AND DUP1 PUSH2 0xB41 JUMPI PUSH1 0x7F DUP3 AND SWAP2 POP JUMPDEST PUSH1 0x20 DUP3 LT DUP2 SUB PUSH2 0xB54 JUMPI PUSH2 0xB53 PUSH2 0xAFD JUMP JUMPDEST JUMPDEST POP SWAP2 SWAP1 POP JUMP JUMPDEST PUSH0 DUP2 SWAP1 POP DUP2 PUSH0 MSTORE PUSH1 0x20 PUSH0 KECCAK256 SWAP1 POP SWAP2 SWAP1 POP JUMP JUMPDEST PUSH0 PUSH1 0x20 PUSH1 0x1F DUP4 ADD DIV SWAP1 POP SWAP2 SWAP1 POP JUMP JUMPDEST PUSH0 DUP3 DUP3 SHL SWAP1 POP SWAP3 SWAP2 POP POP JUMP JUMPDEST PUSH0 PUSH1 0x8 DUP4 MUL PUSH2 0xBB6 PUSH32 0xFFFFFFFFFFFFFFFFFFFFFFFFFFFFFFFFFFFFFFFFFFFFFFFFFFFFFFFFFFFFFFFF DUP3 PUSH2 0xB7B JUMP JUMPDEST PUSH2 0xBC0 DUP7 DUP4 PUSH2 0xB7B JUMP JUMPDEST SWAP6 POP DUP1 NOT DUP5 AND SWAP4 POP DUP1 DUP7 AND DUP5 OR SWAP3 POP POP POP SWAP4 SWAP3 POP POP POP JUMP JUMPDEST PUSH0 DUP2 SWAP1 POP SWAP2 SWAP1 POP JUMP JUMPDEST PUSH0 PUSH2 0xBFB PUSH2 0xBF6 PUSH2 0xBF1 DUP5 PUSH2 0x61E JUMP JUMPDEST PUSH2 0xBD8 JUMP JUMPDEST PUSH2 0x61E JUMP JUMPDEST SWAP1 POP SWAP2 SWAP1 POP JUMP JUMPDEST PUSH0 DUP2 SWAP1 POP SWAP2 SWAP1 POP JUMP JUMPDEST PUSH2 0xC14 DUP4 PUSH2 0xBE1 JUMP JUMPDEST PUSH2 0xC28 PUSH2 0xC20 DUP3 PUSH2 0xC02 JUMP JUMPDEST DUP5 DUP5 SLOAD PUSH2 0xB87 JUMP JUMPDEST DUP3 SSTORE POP POP POP POP JUMP JUMPDEST PUSH0 SWAP1 JUMP JUMPDEST PUSH2 0xC3C PUSH2 0xC30 JUMP JUMPDEST PUSH2 0xC47 DUP2 DUP5 DUP5 PUSH2 0xC0B JUMP JUMPDEST POP POP POP JUMP JUMPDEST JUMPDEST DUP2 DUP2 LT ISZERO PUSH2 0xC6A JUMPI PUSH2 0xC5F PUSH0 DUP3 PUSH2 0xC34 JUMP JUMPDEST PUSH1 0x1 DUP2 ADD SWAP1 POP PUSH2 0xC4D JUMP JUMPDEST POP POP JUMP JUMPDEST PUSH1 0x1F DUP3 GT ISZERO PUSH2 0xCAF JUMPI PUSH2 0xC80 DUP2 PUSH2 0xB5A JUMP JUMPDEST PUSH2 0xC89 DUP5 PUSH2 0xB6C JUMP JUMPDEST DUP2 ADD PUSH1 0x20 DUP6 LT ISZERO PUSH2 0xC98 JUMPI DUP2 SWAP1 POP JUMPDEST PUSH2 0xCAC PUSH2 0xCA4 DUP6 PUSH2 0xB6C JUMP JUMPDEST DUP4 ADD DUP3 PUSH2 0xC4C JUMP JUMPDEST POP POP JUMPDEST POP POP POP JUMP JUMPDEST PUSH0 DUP3 DUP3 SHR SWAP1 POP SWAP3 SWAP2 POP POP JUMP JUMPDEST PUSH0 PUSH2 0xCCF PUSH0 NOT DUP5 PUSH1 0x8 MUL PUSH2 0xCB4 JUMP JUMPDEST NOT DUP1 DUP4 AND SWAP2 POP POP SWAP3 SWAP2 POP POP JUMP JUMPDEST PUSH0 PUSH2 0xCE7 DUP4 DUP4 PUSH2 0xCC0 JUMP JUMPDEST SWAP2 POP DUP3 PUSH1 0x2 MUL DUP3 OR SWAP1 POP SWAP3 SWAP2 POP POP JUMP JUMPDEST PUSH2 0xD00 DUP3 PUSH2 0x888 JUMP JUMPDEST PUSH8 0xFFFFFFFFFFFFFFFF DUP2 GT ISZERO PUSH2 0xD19 JUMPI PUSH2 0xD18 PUSH2 0x71D JUMP JUMPDEST JUMPDEST PUSH2 0xD23 DUP3 SLOAD PUSH2 0xB2A JUMP JUMPDEST PUSH2 0xD2E DUP3 DUP3 DUP6 PUSH2 0xC6E JUMP JUMPDEST PUSH0 PUSH1 0x20 SWAP1 POP PUSH1 0x1F DUP4 GT PUSH1 0x1 DUP2 EQ PUSH2 0xD5F JUMPI PUSH0 DUP5 ISZERO PUSH2 0xD4D JUMPI DUP3 DUP8 ADD MLOAD SWAP1 POP JUMPDEST PUSH2 0xD57 DUP6 DUP3 PUSH2 0xCDC JUMP JUMPDEST DUP7 SSTORE POP PUSH2 0xDBE JUMP JUMPDEST PUSH1 0x1F NOT DUP5 AND PUSH2 0xD6D DUP7 PUSH2 0xB5A JUMP JUMPDEST PUSH0 JUMPDEST DUP3 DUP2 LT ISZERO PUSH2 0xD94 JUMPI DUP5 DUP10 ADD MLOAD DUP3 SSTORE PUSH1 0x1 DUP3 ADD SWAP2 POP PUSH1 0x20 DUP6 ADD SWAP5 POP PUSH1 0x20 DUP2 ADD SWAP1 POP PUSH2 0xD6F JUMP JUMPDEST DUP7 DUP4 LT ISZERO PUSH2 0xDB1 JUMPI DUP5 DUP10 ADD MLOAD PUSH2 0xDAD PUSH1 0x1F DUP10 AND DUP3 PUSH2 0xCC0 JUMP JUMPDEST DUP4 SSTORE POP JUMPDEST PUSH1 0x1 PUSH1 0x2 DUP9 MUL ADD DUP9 SSTORE POP POP POP JUMPDEST POP POP POP POP POP POP JUMP JUMPDEST PUSH0 PUSH1 0x40 DUP3 ADD SWAP1 POP PUSH2 0xDD9 PUSH0 DUP4 ADD DUP6 PUSH2 0x67C JUMP JUMPDEST DUP2 DUP2 SUB PUSH1 0x20 DUP4 ADD MSTORE PUSH2 0xDEB DUP2 DUP5 PUSH2 0x8B0 JUMP JUMPDEST SWAP1 POP SWAP4 SWAP3 POP POP POP JUMP JUMPDEST PUSH32 0x4E487B7100000000000000000000000000000000000000000000000000000000 PUSH0 MSTORE PUSH1 0x11 PUSH1 0x4 MSTORE PUSH1 0x24 PUSH0 REVERT JUMPDEST PUSH0 PUSH2 0xE2B DUP3 PUSH2 0x61E JUMP JUMPDEST SWAP2 POP PUSH32 0xFFFFFFFFFFFFFFFFFFFFFFFFFFFFFFFFFFFFFFFFFFFFFFFFFFFFFFFFFFFFFFFF DUP3 SUB PUSH2 0xE5D JUMPI PUSH2 0xE5C PUSH2 0xDF4 JUMP JUMPDEST JUMPDEST PUSH1 0x1 DUP3 ADD SWAP1 POP SWAP2 SWAP1 POP JUMP INVALID LOG2 PUSH5 0x6970667358 0x22 SLT KECCAK256 0xD6 MSTORE8 0xBF 0xCC 0xCF 0xBE PUSH24 0x5A0CAA91F0042C685D226A56C2AC8716379B8F83E315E499 PUSH3 0x64736F PUSH13 0x634300081A0033000000000000 "
				},
				"gasEstimates": {
					"creation": {
						"codeDepositCost": "748400",
						"executionCost": "777",
						"totalCost": "749177"
					},
					"external": {
						"addTodo(string)": "infinite",
						"getAllTodoIds()": "infinite",
						"getTodo(uint256)": "infinite",
						"getTodoCount()": "2463",
						"nextId()": "2492",
						"todoIds(uint256)": "infinite",
						"todos(uint256)": "infinite",
						"updateStatus(uint256,uint8)": "infinite"
					}
				},
				"methodIdentifiers": {
					"addTodo(string)": "95ffebf5",
					"getAllTodoIds()": "d368ca4d",
					"getTodo(uint256)": "dd68afb6",
					"getTodoCount()": "104a7cd8",
					"nextId()": "61b8ce8c",
					"todoIds(uint256)": "03c5c31f",
					"todos(uint256)": "bc8bc2b4",
					"updateStatus(uint256,uint8)": "3a1b3d31"
				}
			},
			"storageLayout": {
				"storage": [
					{
						"astId": 18,
						"contract": "contracts/Todo.sol:TodoList",
						"label": "todos",
						"offset": 0,
						"slot": "0",
						"type": "t_mapping(t_uint256,t_struct(Todo)13_storage)"
					},
					{
						"astId": 21,
						"contract": "contracts/Todo.sol:TodoList",
						"label": "todoIds",
						"offset": 0,
						"slot": "1",
						"type": "t_array(t_uint256)dyn_storage"
					},
					{
						"astId": 23,
						"contract": "contracts/Todo.sol:TodoList",
						"label": "nextId",
						"offset": 0,
						"slot": "2",
						"type": "t_uint256"
					}
				],
				"types": {
					"t_array(t_uint256)dyn_storage": {
						"base": "t_uint256",
						"encoding": "dynamic_array",
						"label": "uint256[]",
						"numberOfBytes": "32"
					},
					"t_enum(Status)5": {
						"encoding": "inplace",
						"label": "enum TodoList.Status",
						"numberOfBytes": "1"
					},
					"t_mapping(t_uint256,t_struct(Todo)13_storage)": {
						"encoding": "mapping",
						"key": "t_uint256",
						"label": "mapping(uint256 => struct TodoList.Todo)",
						"numberOfBytes": "32",
						"value": "t_struct(Todo)13_storage"
					},
					"t_string_storage": {
						"encoding": "bytes",
						"label": "string",
						"numberOfBytes": "32"
					},
					"t_struct(Todo)13_storage": {
						"encoding": "inplace",
						"label": "struct TodoList.Todo",
						"members": [
							{
								"astId": 7,
								"contract": "contracts/Todo.sol:TodoList",
								"label": "id",
								"offset": 0,
								"slot": "0",
								"type": "t_uint256"
							},
							{
								"astId": 9,
								"contract": "contracts/Todo.sol:TodoList",
								"label": "content",
								"offset": 0,
								"slot": "1",
								"type": "t_string_storage"
							},
							{
								"astId": 12,
								"contract": "contracts/Todo.sol:TodoList",
								"label": "status",
								"offset": 0,
								"slot": "2",
								"type": "t_enum(Status)5"
							}
						],
						"numberOfBytes": "96"
					},
					"t_uint256": {
						"encoding": "inplace",
						"label": "uint256",
						"numberOfBytes": "32"
					}
				}
			},
			"userdoc": {
				"kind": "user",
				"methods": {},
				"version": 1
			}
		}
	}
}